:020000040000FA
:0600000002011A0227773D
:03002B00022EE0C2
:030053000227EA97
:03007B00022EA5AD
:100083000225E3E5C754F84401F5C77901220000CE
:100093000080FB120086B90003020104E47944786E
:1000A30008B800028004F709D8FCE4794C7802B858
:1000B30000028004F709D8FCE490030178B5790DB8
:1000C3008002F0A3D8FCD9FA784390014A7A01BAA6
:1000D30000028007E493A3F608DAF97AB57B0F9060
:1000E300014B782579048015E493A3AD82AE838A0E
:1000F300828B83F0A3AA82AB838D828E83D8E9D9C6
:10010300E77582B57583E4740312012C75829175CA
:100113008300740012012C75D00075817F75410135
:10012300754203759F00020096C09FF59FE473D04C
:100133009F22D083D082C09FE493C0E0740193C018
:10014300E0740293F59F220101030507FFFE778800
:1001530012993241142425360D010647656D696EE7
:10016300692D42413130300302E0FF2A2A47656D91
:10017300696E692D42413130302A2A0000000000A7
:100183000D095049534345532D4254313030051224
:10019300A5040000B1040D0947656D696E692D4220
:1001A3004131303005120A0B310B320B330B340B58
:1001B300350B360B0A0A02534A0000000000000008
:1001C300000000000000FFFFFFFFFFFFFF02534A94
:1001D300000000000000000000000000004F4B0082
:1001E3000000000000000000000000000000534A6F
:1001F3000000000000000000000000000000435762
:100203000000000000000000000000000000435751
:100213000000000000000000000000000031323345
:100223003435361F4B4F0000000000000000000073
:10023300000000FF0000B4000028002800283075EB
:10024300A000A000A000A00000080008E001F0004A
:10025300100010001000100010001000500050009B
:10026300500010001000D0070000000000000F0035
:1002730001000500307507001000010081FF000038
:100283000000FFC106DF06C706FF02020208025094
:1002930000A0000000E803029F82010000878202A1
:1002A300A382010000F71002A7820100006D030280
:1002B300A382010000F81002A98201000083030257
:1002C300A382010000F91002AB8201000085030242
:1002D300A382010000FA1002AD8208000086030227
:1002E300A382010000FB1002AF82010000FC10FF9B
:1002F3000100FF20029F820100007E8202A382018F
:100303000000601102B182000000000002A5820318
:100313000000D303C10CC10CC10CC10CC10CC10C36
:10032300C10CC10CC10CC10CC10CC10CC10C550FCB
:100333006D0F4F0F020202020202020202010D00C0
:1003430000001001029F82010000A58102A3820127
:100353000000A11102C182010000FA0702A3820179
:100363000000A21102B982010000988102A3820158
:100373000000A31102B3820100007C8102A3820169
:100383000000A411029982010000068102A38201E8
:100393000000A511029782010000F48002A38201EC
:1003A3000000A6110295820100002A8102A38201A6
:1003B3000000A711029382010000188102A38201A9
:1003C3000000A81102B7820100008A8102A3820102
:1003D3000000A91102BD82010000AA110A160A0A2F
:1003E300029F820100008A8202A382010000491257
:1003F30002A182030000040802A3820100004A1242
:10040300029182030000140802A58203000024085D
:1004130002A3820100004B12028D820300002A080E
:1004230002A3820100004C12028F820300003A08EB
:1004330001E803053F100AFFFFFF000130750302C7
:1004430001060000000000000000000000000000A2
:100453000000000000000000000000000000FFFF9B
:100463000600800CE80331323334353612013592FD
:10047300E803120135A6E803120135A8E8031201C7
:1004830035ADE803120135202F00120135AD3000E0
:100493001201351A3400120135143600120135E306
:1004A3004900120135765100120135E25200120162
:1004B30035C75300120135F760001201353A610068
:1004C30012013596D703120135ADD703120135DE7C
:1004D300D70312013519D80312013543D80312018A
:1004E300356DD80312013584D8031201359BD80327
:1004F300120135B2D803120135DBD803120135EEF0
:10050300D80312013504D90312013517D903120197
:10051300353ED903120135C0EC02120135C4ED0298
:10052300120135FCED021201351FEE021201352ACC
:10053300EE021201354DEE021201355CEF0212019B
:100543003531F002120135ACF00212013534F102FB
:100553001201356FF102120135A6F1021201353491
:10056300F2021201350DF3021201356DF30212018D
:100573003578F302120135F7F302120135FAF3026B
:10058300120135FDF3021201358CF4021201358F8D
:10059300F402120135BFF402120135E9F40212012B
:1005A30035D7F50212013589F602120135559F033D
:1005B3001201357D9F03120135AB9F03120135E212
:1005C3009F0312013540A0031201358BA0031201D2
:1005D30035D6A00312013516A1031201355CA10320
:1005E3001201358AA10312013547A20312013551C5
:1005F300A2031201355EA20312013591A203120177
:10060300355DA30312013569A30312013581A303E9
:100613001201358BA3031201355AE2031201356827
:10062300E20312013580E20312013598E20312015D
:1006330035008002120135AC800212013527810298
:100643001201354882021201358482021201352DCE
:1006530083021201351484021201357885021201D6
:1006630035CF8502120135508602120135408702CB
:100673001201358D870212013513880212013545A7
:100683008802120135598A021201359B8A0212012E
:1006930035B98A021201353C8B02120135108C02E6
:1006A300120135D88C02120135C4F80112013597B5
:1006B300F90112013540FA0112013593FA011201D1
:1006C3003543FB01120135CFFB01120135BBFC01A0
:1006D300120135EAFC01120135FDFD011201354518
:1006E300FE011201351AFF0112013556FF011201F5
:1006F3003572FF01120135C1E603120135FFBC0358
:1007030012013515BD031201353BBD0312013557E7
:10071300BE0312013561BE0312013596BF031201F8
:10072300358EC0031201352E9A031201355E9B03E9
:10073300120135919B03120135DB9B03120135A294
:100743009D03120135D5E8011201353FE90112017C
:10075300359EEA01120135AEEA01120135DBEA01E9
:1007630012013532EB01120135DBEB01120135E2E7
:10077300EC01120135ACED011201350CEF01120150
:10078300354FEF01120135F4EF0112013541F0014C
:1007930012013567F00112013575F2011201357A44
:1007A300F2011201357FF401120135CCF40112017B
:1007B300353FF50112013572F50112013514F601C9
:1007C300120135BDF601120135F5F601120135F8B6
:1007D300F60112013540F70112013580F7011201CC
:1007E30035D7F70112013571C90312013589C903E0
:1007F300120135D1C903120135E7C9031201352EA0
:10080300CA0312013542CB03120135CFCB031201C8
:10081300351ACC03120135BF6200120135CB6200D9
:100823001201350663001201354B63001201350BCB
:100833006400120135916400120135BD6400120198
:1008430035F664001201353467001201351869006A
:10085300120135FE6A00120135416C001201358F19
:100863006E00120135A16F00120135EC7000120108
:1008730035FC7100120135197200120135547200F2
:10088300120135767200120135D972001201359AC0
:1008930077001201352F780012013580780012019C
:1008A30035A77800120135F9780012013517790060
:1008B300120135717900120135707A00120135F495
:1008C3007A00120135D09403120135DA9403120130
:1008D300351D9503120135389503120135C895036B
:1008E300120135F095031201352D9603120135647B
:1008F30096031201358D96031201350297031201F7
:10090300351797031201352C97031201355D9703B1
:10091300120135719703120135969703120135D0F1
:100923009703120135FC9703120135349803120122
:10093300359398031201351299031201353D99033A
:10094300120135689903120135B19903120135DBA0
:100953009903120135069A0312013547DF03120189
:1009630035BFD402120135EDD4021201353BD60254
:100973001201351BD7021201353AD702120135B7DE
:10098300D702120135FAD70212013550D9021201EA
:100993003511DA0212013598DC0212013539DD0214
:1009A3001201352FDE021201352CDF0212013586CA
:1009B300E00212013511E10212013593DC03120149
:1009C30035FCDC0312013550DD0312013577DD03FD
:1009D300120135A8DD0312013582A803120135EF98
:1009E300A80312013536A9031201354EAA031201D9
:1009F300354AAB031201352DAC03120135FAF60269
:100A03001201353CF7021201350EF802120135E7E7
:100A1300F802120135E1F902120135C3FA0212019B
:100A2300352CFB02120135E2FB0212013556FC02A2
:100A3300120135C2FC02120135EBFC0212013565CD
:100A4300FD02120135FEFD0212013563FE021201A1
:100A53003578FE02120135BEFE02120135D7FE02C1
:100A63001201353CFF021201353FFF021201359896
:100A7300C303120135C0C303120135FEC3031201C0
:100A830035BCC40312013523C5031201353FC50329
:100A930012013567C50312013597C503120135A647
:100AA300C50312013523C60312013549C6031201DA
:100AB300351BD801120135F9D9011201352BDC019F
:100AC30012013567DC0112013594DC011201357E18
:100AD300DD01120135C9DD0112013514DE011201F8
:100AE3003526DE0112013566DE011201359BDE017A
:100AF300120135E9DE0112013518DF011201353B20
:100B0300DF0112013588DF011201350DE001120109
:100B13003527E20112013566E401120135A7E4012C
:100B230012013549E6011201358AE601120135FD4C
:100B3300E6011201354EE70112013529E8011201E0
:100B43003553E80112013588E801120135B3E80194
:100B5300120135AAC702120135A8C8021201354194
:100B6300CF0212013562D1021201352DD3021201D7
:100B73003595D402120135C98201120135788301FA
:100B8300120135A58301120135EB830112013521D1
:100B930085011201354F8501120135E586011201E8
:100BA300355F87011201357A8701120135F5870117
:100BB3001201354F8901120135AF8A01120135B592
:100BC3008B01120135168D011201352F8D01120192
:100BD300358D8D011201357B8E01120135AE8E01EB
:100BE3001201351E8F01120135988F01120135E272
:100BF3008F01120135AC900112013581910112016F
:100C030035609201120135EB9201120135599301BE
:100C1300120135CD9301120135F89301120135B755
:100C230094011201351C9601120135399601120106
:100C3300355896011201354997011201356E970116
:100C43001201359897011201351398011201356D80
:100C53009801120135D69901120135849A011201C6
:100C630035C59A011201355D9D02120135AB9D0216
:100C7300120135B79D02120135959E02120135C648
:100C83009E02120135F79E02120135779F0212016F
:100C930035F59F021201352DA0021201357FA00206
:100CA300120135BCA002120135D9A202120135FF8F
:100CB300A402120135EAA602120135D4A8021201D8
:100CC30035F17F0012013504B00112013534B00152
:100CD3001201350DB70112013592B8011201358F9A
:100CE300BE0112013577BF01120135B4BF011201F4
:100CF30035D7BF0112013508C00112013511C001FA
:100D03001201351BC00112013509C101120135FF62
:100D1300C101120135F59A01120135F49E01120148
:100D230035FA9E0112013535A6011201354EAB018C
:100D330012013531B903120135C7B903120135DD8B
:100D4300B90312013553BA03120135C7BA031201AD
:100D53003505BB0312013579BB03120135F2BB0321
:100D6300120135FBBB0312013507BC031201351C0D
:100D7300BC031201355ABC0312013570BC031201C6
:100D830035CFBC03120135EFAC03120135FCAC03C4
:100D930012013516AD0312013555AD03120135931A
:100DA300AD03120135F8AD031201350DAE03120187
:100DB3003518AE0312013525AE031201353CAE03DF
:100DC3001201354AAE0312013555AE0312013561E6
:100DD300AE0312013570AE031201357BAE0312016F
:100DE300359EAE0312013545AF0312013555AF03EE
:100DF3001201356FAF031201358CAF03120135A811
:100E0300AF03120135CDAF03120135D8AF03120181
:100E130035EDAF0312013501B00312013562B003A2
:100E230012013568B0031201356EB0031201357437
:100E3300B0031201358CB003120135BFB0031201A8
:100E430035B4AB0212013538AC02120135E7AC02FE
:100E530012013546AE0212013567B0021201355355
:100E6300B10212013588B102120135AAB102120191
:100E73003559B20212013551B4021201357AB40266
:100E83001201350CB5021201353EB5021201354B84
:100E9300B502120135A2B502120135C8B50212011D
:100EA3003535B80212013538B90212013590B9024D
:100EB300120135F18E02120135FB8F02120135E268
:100EC3009002120135EC90021201350E91021201CB
:100ED300351A9102120135B39202120135E29202E0
:100EE300120135FE9302120135579402120135BDEA
:100EF30095021201359C9602120135F896021201F1
:100F030035659702120135A09702120135DF97026A
:100F1300120135989A02120135B29A021201353E36
:100F23009B021201354C9B02120135A59B02120153
:100F330035B39B02120135269C021201358A9C02AD
:100F4300120135D49C0212013592E102120135B42B
:100F5300E102120135DAE302120135EFE602120172
:100F63003507E802120135BAE8021201359CE9029D
:100F730012013550D90312013575D903120135E732
:100F8300D903120135D68703120135DF8703120116
:100F930035E88703120135BF8803120135708A03D0
:100FA300120135A68A03120135E08A0312013516B0
:100FB3008B03120135508B03120135848B0312010D
:100FC30035B08B03120135F98B03120135338C03D2
:100FD3001201357C8C03120135D48C0312013509BF
:100FE3008D03120135648D031201359E8D031201A9
:100FF30035EF8D03120135258E031201355F8E0304
:101003001201358D8E03120135B08E031201356B3B
:10101300E50312013597E503120135F2E5031201E9
:1010230035FCE5031201350CE60312013544CC030C
:1010330012013569CC0312013593CC031201353CFF
:10104300B10312013581B1031201359EB1031201BF
:101053003557B203120135BDB20312013581B30313
:1010630012013504B50312013598C003120135B3DB
:10107300C003120135E2C003120135E8C0031201B7
:1010830035EEC0031201351BC10312013540C10304
:1010930012013557C1031201356CC103120135C06A
:1010A300C10312013539C20312013559C2031201BA
:1010B300354BE80312013517C40112013579C60116
:1010C30012013530C8011201352DC901120135BD98
:1010D300C90112013544CA0112013569CA0112015D
:1010E30035AACD0112013520CE011201350FCF01F2
:1010F30012013549CF0112013589CF011201352F74
:10110300D10112013584D101120135D1D10112016E
:10111300353FD20112013565D2011201357FD2016B
:1011230012013595D301120135A5D301120135B64C
:10113300D401120135CBD40112013501D5011201BD
:101143003582D601120135C1D601120135E6D70128
:101153001201351EE603120135B6E603120135020C
:10116300E80312013541E8031201352DE9031201A9
:1011730035FCE3031201350CE4031201351BE403D0
:10118300120135AFE40312013560E003120135E4C7
:10119300E0031201354AE10312013512A4031201DF
:1011A3003549A4031201356AA403120135DAA403F5
:1011B30012013546A5031201359DA603120135EE32
:1011C300DD0312013516DE031201358ADE03120137
:1011D30035A1DE03120135F1DE031201353BDF03D6
:1011E3001201353EDF03120135E7FF01120135F726
:1011F300FF01120135FAFF0112013591C6031201F5
:1012030035D5C603120135EBC60312013506C703F4
:1012130012013521C7031201356CC703120135BB17
:10122300C703120135FBC703120135DDC8031201E1
:101233003527C903120135F87F0012013550D10358
:10124300120135D8D20312013539D3031201357F88
:10125300D303120135F0E80312013503E903120148
:101263003507E9031201350EE90312013510E903CD
:10127300120135A4E703120135AAE703120135F879
:10128300E70312013531E3031201355AE303120177
:101293003583E3031201359BE303120135DDE303D9
:1012A300120135508F031201355A8F031201359AFB
:1012B3008F03120135E38F031201351D90031201D1
:1012C300357390031201359290031201359B9003FD
:1012D300120135EC90031201351591031201351FEC
:1012E30091031201359091031201351E92031201ED
:1012F30035739203120135A192031201351D930335
:101303001201356093031201359D9303120135AF2A
:101313009303120135CE9303120135D793031201C0
:1013230035A4940312013545E703120135F5DA03B9
:1013330012013546DB03120135CFDB0312013535CC
:10134300DC0312013510CF031201353ACF0312012A
:101353003503D003120135DED00312013563E103F7
:1013630012013594D503120135CAD5031201350391
:10137300D6031201355CD70312013563FF02120154
:101383003579FF0212013583FF02120135CDFF02C9
:10139300120135008003120135BD8003120135F8B7
:1013A300800312013520810312013582810312016A
:1013B30035CE8103120135398203120135B582031B
:1013C300120135B18303120135388503120135BB90
:1013D30085031201351F8603120135368603120178
:1013E300352C87031201357887031201355B7B00A7
:1013F300120135707B00120135207C00120135602B
:101403007C00120135797C00120135AC7C0012019D
:1014130035F97C001201352D7D001201356F7D00F9
:101423001201356D7F00120135DEB9021201353B21
:10143300BD02120135C3BE021201351ABF021201E9
:101443003539BF02120135B7BF0212013547C10258
:101453001201352BC20212013537C60212013507BC
:10146300C7021201353DB5031201358EB5031201D2
:101473003527B6031201354FB603120135D2B60331
:1014830012013530B70312013549B8031201358A09
:10149300B80312013582D30312013591D30312012C
:1014A30035BCD303120135C2D303120135C8D303AC
:1014B300120135E3D303120135EAD303120135F1E7
:1014C300D303120135F5D30312013584D40312017A
:1014D30035D3D4031201351BE90312013524E90383
:1014E300120135C4E803120135D37F00E0667010A2
:1014F30008A3E066700A08A3E066700408A3E06628
:1015030022C3E7960809E7960809E7960809E796CC
:1015130022C3E09608A3E09608A3E09608A3E0960A
:1015230022C021C3E096F52108A3E096422108A337
:10153300E096422108A3E09645217001D3D02122F1
:10154300E9799EC608CAC608CBC608CCC6C37020B4
:101553007996CACBCC7019798ECBCC70137986CCA3
:10156300700EF9802ACA33CACB33CBCC33CC3319B0
:1015730030E7F2CCCBCA3350147004EA30E00DE408
:10158300CA3ACACB3BCBCC3CCC500209C3E913C605
:10159300CC182313C6CB18C6CA18C6F9221215E0F5
:1015A30020F01430E72B74FFFCFBFA747F8022E4F5
:1015B300FCFBFA7480801AB48008BC00F2BB00EF15
:1015C300800F50EBF9E4C39AFAE49BFBE49CFCE440
:1015D30099C6CC18C6CB18C6CA18C6F922E4C9C620
:1015E30008CAC608CBC6D3330308CCC63392F0C3AC
:1015F300947F402E94184019C9B90704CACBCC2252
:101603005025C309CA33CACB33CBCC33CC33D9F43B
:1016130022F4600DC9CCC313CB13CBCA13CAD9F6BA
:10162300CC22E4FCFBFA2214FCFBFA22E626184641
:101633001846184622E72719471947194722181849
:1016430018E60846087009E626087005E633F42212
:101653000822191919E70947097009E727097005CD
:10166300E733F4220922E6084608C3134608336029
:1016730002E633F422E7094709C31347093360023B
:10168300E733F422121669602512167860201216C9
:101693002F7003021638080808E76670101819E758
:1016A30066700A1819E76670041819E76622F422AF
:1016B300121669601C121678601712162F70071223
:1016C30016387001D322C0D01216387006D0D0B3AA
:1016D30022C32233D0D0501430E0F6C3E796080972
:1016E300E7960809E7960809E796B32220E0D5E6CE
:1016F300970809E6970809E6970809E697B32212BF
:101703001669601B121678601612162F70071216D0
:1017130038600CB322C0D01216387005D0D022C363
:101723002233D0D0501330E0EBC3E7960809E79695
:101733000809E7960809E7962220E0E4E6970809F6
:10174300E6970809E6970809E69722121678604695
:10175300121669603DE9687008F618F618F618F66F
:1017630022748067F7121782090909748067F722C8
:10177300121669601D1216787005191919801A124C
:101783001641701F121655C37003E66733191919F2
:1017930040071818182208080874FFF618F618F6F8
:1017A30018F6221216556017121638702192F0128D
:1017B300162F7019501720F014080808090909E7B3
:1017C300F61819E7F61819E7F61819E7F6221216AC
:1017D3002F60E6E869701F0808E62480F608E436FF
:1017E300F618547FB47F0CE654806007F6E418F6CD
:1017F30018F622181822E9C6CC08C6CD08C6CE08AA
:10180300C6CFC0E0E8C0E0EAC0E0EBC0E009E9F819
:1018130009E7FA09E7FBE6F918E6F8C3EC98ED994E
:10182300EE9AEBC2E7F5F0EFC2E795F0500E600CCD
:10183300EBCFFBEACEFAE9CDF9E8CCF8EAA2E7D29E
:10184300E7FAEB33FB13F5F0EEA2E7D2E7FEEF3353
:10185300FFC5F013A2E730E601B313C5F0C3C0E040
:10186300C0F07F00C39BFB605E9418600F401D14A3
:10187300601AD0E023F9D0E0F80219548AF0E9485D
:101883006003D2F0E4AFF0FAF9F8803BEB30E40DFB
:1018930089F0EA6003D2F0E4AFF0F9CAF8EB30E381
:1018A3000D88F0EF6002D2F0AFF0E4CAC9F8EB5450
:1018B300076014FBC3EA13FAE913F9E813F8EF130B
:1018C3005002D2E0FFDBEDD0E0C0E030E739C3E403
:1018D3009FFFF5F0EC98FC42F0ED99FD42F0EE9A93
:1018E300FE42F0D0E0F9D0E0F8E5F0607AE923F9C0
:1018F300EE20E742D8028067C3EF33FFEC33FCED01
:1019030033FDEE33FE80EAEC28FCED39FDEE3AFEC2
:10191300D0E023F9D0E0F84002801BC3EE13FEEDC4
:1019230013FDEC13FCEF135002D2E0FF08B80006DE
:101933007F7F74FF802EEF3350178CF020F002600E
:10194300100CBC000C0DBD00080EBE000408E860BE
:10195300DFE933E813FFEE2313FE4F4D4C8008E914
:101963005480FFE4FEFDFCEE33EF33F47004FCFD22
:101973007E80D0E0FBD0E0FAD0E0F8D0E0CFC6180C
:10198300CEC618CDC618CCC6F922080808EAC0E0AE
:10199300EBC0E086F0E7A4FA180986F0E7A42AFA78
:1019A300180986F0E7A42AFA180986F0E7A42AFAA8
:1019B3001986F0E7A4FBE5F02AFA190886F0E7A4F4
:1019C3002BFBE5F03AFA190886F0E7A42BFBE5F0C8
:1019D3003AFA18180986F0E7A4C5F02BFBE43AFAA3
:1019E3001908E7C5F0C6A426F6E5F03BFBE43AFA8E
:1019F3001886F0E7A4F6E5F00826F6E43B08F6E4DB
:101A03003A08F6D0E0FBD0E0FA22E4CFC0E0E4CE1F
:101A1300C0E0E4CDC0E0E4CCC0E075F020E626F6FB
:101A230008E633F608E633F608E633F6181818EC3A
:101A330033FCED33FDEE33FEEF33FFC3EC9709EDDB
:101A43009709EE9709EF97191919400FFFEC97FCC7
:101A530009ED97FD09EE97FE191906D5F0BFECF7CE
:101A630009EDF709EEF709EFF7191919D0E0FCD0E2
:101A7300E0FDD0E0FED0E0FF226016080808C6C3F0
:101A830013C618C613C618C613C618C613C6D5E0A0
:101A9300EA227009080808226016181818C6C3330A
:101AA300C608C633C608C633C608C633C6D5E0EA79
:101AB30022E627F60809E637F60809E637F60809A5
:101AC300E637F622E026F608A3E036F608A3E0366A
:101AD300F608A3E036F622E026F008A3E036F00885
:101AE300A3E036F008A3E036F022C3E697F6080930
:101AF300E697F60809E697F60809E697F622C3E0A3
:101B030096F008A3E096F008A3E096F008A3E09609
:101B1300F022E657F60809E657F60809E657F608ED
:101B230009E657F622E056F608A3E056F608A3E0C6
:101B330056F608A3E056F622E056F008A3E056F066
:101B430008A3E056F008A3E056F022E0F608A3E06D
:101B5300F608A3E0F608A3E0F622E6F008A3E6F011
:101B630008A3E6F008A3E6F022E0FAA3E0FBA3E073
:101B7300FCA3E0FD22EAF0A3EBF0A3ECF0A3EDF06D
:101B830022E0F8A3E0F9A3E0FAA3E0FB22E8F0A344
:101B9300E9F0A3EAF0A3EBF022CAC0E0E6F0A30861
:101BA300DAFAD0E0FA22CAC0E0E0A3C582CCC5824B
:101BB300C583CDC583F0A3C582CCC582C583CDC5FE
:101BC30083DAE6D0E0CA22C3E498F8E499F9121C58
:101BD3000B8026C3E49AFAE49BFBE920E7E9121C95
:101BE3000BE498F8E499F922C3E498F8E499F9121C
:101BF3001C0BE498F8E499F9C3E49AFAE49BFB22FA
:101C0300EB20E7CFE920E7E0B90010BB0008E88A42
:101C1300F084F8AAF022E4FBC8FA22EB70227B10CE
:101C2300C833C8C933C9335007C39AC3DBF280062C
:101C33009A50012ADBEAC833F4C8C933F4C9FA223B
:101C430075F008E4C833C8C933C933C99AC99B506E
:101C530004C92AC93BD5F0ECFBC833F4C8E4C9FA7C
:101C630022600D08C6A2E713C618C613C6D5E0F353
:101C730022600C08C6C313C618C613C6D5E0F422E7
:101C8300700422600D18C6C333C608C633C6D5E038
:101C9300F41822254110AF08F541400C1542800885
:101CA300F54140021542D2AF2200C0D0254110AF0A
:101CB30008F541500C05428008F54150020542D217
:101CC300AFD0D0222541F58210AF08F541400C1565
:101CD300428008F54140021542D2AF854283222556
:101CE30041F582E43542F583222541F8E43542F992
:101CF300222541FAE43542FB222541FCE43542FD2D
:101D030022E4732541C582C0E0E54234FFC583C0A8
:101D1300E0E541C3958224F810AF088583428582AC
:101D2300418008858342858241D2AFCEF0A3E5206E
:101D3300F0A37821E608F0A3DEFAEFF0A3E581240F
:101D4300FAF8E608F0A3E608F0A3E608F0A308080B
:101D5300E608F0A3E608F0A315811581D0E0FED0D4
:101D6300E0F8158115811581E8C0E0EEC0E0222579
:101D730041C582C0E0E54234FFC583C0E0E541C30D
:101D8300958224F910AF08858342858241800885B6
:101D93008342858241D2AFCEF0A3E520F0A3782120
:101DA300E608F0A3DEFAEFF0A3E58124FBF8E608EA
:101DB300F0A3E608F0A30808E608F0A3E608F0A3FA
:101DC30015811581D0E0FED0E0F815811581E8C0BA
:101DD300E0EEC0E022854283854182E0A3FEE0A3DA
:101DE300F5207821E0A3F608DFFAE0A3FFE0A3C023
:101DF300E0E0A3C0E0E0A3C0E0E0A3C0E0E0A3C054
:101E0300E010AF0885824185834280088582418541
:101E13008342D2AFD083D08202013285428385418F
:101E230082E0A3FEE0A3F5207821E0A3F608DFFA21
:101E3300E0A3FFE0A3C0E0E0A3C0E0E0A3C0E0E0D4
:101E4300A3C0E010AF088582418583428008858264
:101E530041858342D2AFD083D08222C0D02541C5F1
:101E630082C0E0E54234FFC583C0E0E541C395820B
:101E730024F310AF0885834285824180088583421D
:101E8300858241D2AFC8F0A3E9F0A3EAF0A3EBF057
:101E9300A37921E709F0A3D8FAECF0A3EDF0A3EEC0
:101EA300F0A3EFF0A3D0E0F0A3D0E0F0A3D0E0F0F4
:101EB300A3E520F0A3E5F0F0A322854283854182C8
:101EC300E0C0E0A3E0F9A3E0FAA3E0FBA37821E0FC
:101ED300F608A3DFFAE0FCA3E0FDA3E0FEA3E0FF26
:101EE300A3E0C0E0A3E0C0E0A3E0F5D0A3E0F520C9
:101EF300A3E0A3F5F010AF088583428582418008F3
:101F0300858342858241D2AFD082D083D0E0F8D09E
:101F1300E03274048006740280027401C0E0F404A9
:101F2300121CC7D0E0121B9C22740480047402802C
:101F330000CCC0E0EDC0E0E541C39CCCAD42500114
:101F43001D10AF068C418D4280068C418D42D2AF6D
:101F5300121BA9D0E0FDD0E0FC22D083D082E9C0DF
:101F6300E0E493A3C386F0C5F095F0F908E493A3E6
:101F730086F0C5F095F0700BE493A3C3994005E98F
:101F8300048002A3E475F002A42582F582E5F0350E
:101F930083F583D0E0F9E493A3C0E0E493C0E022A7
:101FA300D083D082ECC0E0EDC0E0E493A3FCE493E3
:101FB300A3FDED4C600D121FEFEC24FFFCED34FF8D
:101FC300FD80EFE493A3FCE493A3FDED4C600D12BD
:101FD300202EEC24FFFCED34FFFD80EFD0E0FDD09C
:101FE300E0FCE493A3C0E0E493C0E022C0E0C3E4D8
:101FF3009396087401939618400FE493667008084B
:10200300740193661870007019A3A3C3E493960830
:102013007401939618A3A3400DD0E0D0E0D0E00262
:102023001FDFA3A3A3A3A3A3D0E022C0E0C0F08833
:10203300F0E4936670080874019366187000A8F0C2
:10204300A3A3700BD0F0D0E0D0E0D0E0021FDFA359
:06205300A3D0F0D0E02252
:10205C0074F5121D72EAFEEBFFEE2434F8EF340037
:10206C00F988218922EE2435F582EF3400F583E0DE
:10207C00F8EE2437F582EF3400F583E0F523EC8598
:10208C0023F0A4FCAAF08523F0EDA42AFDE82CF89B
:10209C00E43DF97A257B00121C0BEA85218285220E
:1020AC0083F0F8740758F97401B900028004C33343
:1020BC00D9FCFAE8131313541FF8EE28F8EF340088
:1020CC00F9E8245DF582E93400F583E05A6008EE06
:1020DC002434F582EF802CEE2434F582EF3400F5B5
:1020EC0083E0C0E0EE2436F582EF3400F583E0F5B2
:1020FC00F0D0E084A8F0EE28F8EF3400F9E82438AA
:10210C00F582E93400F583E0F97F04021E1E74F5B4
:10211C00121D72EAFEEBFFEE2434F582EF3400F56B
:10212C0083E0C0E0EE2435F582EF3400F583D0E097
:10213C00F08E828F83A3A3A3A3A3A3A3C082C08387
:10214C008E828F83A3A3A3A3A3E0F8A3E0F9D0838B
:10215C00D082E0C398F521A3E099F522EE247FF517
:10216C0082EF3400F583E064017069EE2480F5821F
:10217C00EF3400F583E0F8A3E0F98E828F83A3A3FC
:10218C00A3A3A3A3A3E0FCA3E0FD8E828F83A3A350
:10219C00A3A3A3E0FAA3E0FBC3EA9CEB9D5010C3FE
:1021AC00EC98ED99402EC3EA98EB995027800EC31A
:1021BC00EA98EB994007C3EC98ED9940177C967D13
:1021CC0005EEFAEFFB120C19EE247FF582EF3400CA
:1021DC00F583E4F0EE2434F8EF3400F9E8FCE9FD83
:1021EC00EE2435F582EF3400F583E0F8EE2437F574
:1021FC0082EF3400F583E0F523E5218523F0A4F587
:10220C0021AAF08523F0E522A42AF522E82521F85D
:10221C00E43522F97A257B00121C0BEA8C828D8323
:10222C00F0F8740758F97401B900028004C333D96B
:10223C00FCFAE8131313541FF8EE28F8EF3400F9E6
:10224C00E8245DF582E93400F583E05A6008EE2459
:10225C0034F582EF802CEE2434F582EF3400F583D4
:10226C00E0C0E0EE2436F582EF3400F583E0F5F0C3
:10227C00D0E084A8F0EE28F8EF3400F9E82438F523
:10228C0082E93400F583E0F9122E97022115C08201
:10229C00C083854182854283E0F8A3E0F9C3EA9CC0
:1022AC00EB9D5010C3EC98ED99401BC3EA98EB9949
:1022BC005014800EC3EA98EB994007C3EC98ED9943
:1022CC004004790180027900D083D08222EAC39C39
:1022DC00FAEB9DFB2274EF121D7290045CE0640813
:1022EC006005E06407702A9061C8E0602490048A5D
:1022FC00E0F4601DE0F875F003A4C8AAF02AF974A4
:10230C008C28FE740439FF8E828F83A3A3A3E07004
:10231C0003022411906060E0C0E0EE2468F582EFC7
:10232C003400F583D0E0F07525FF75260575210086
:10233C00752200E5D914F523E5D95403F527601768
:10234C0074036527605CE5236010EE2467F582EF6B
:10235C003400F583E070030223F69005FAE0640183
:10236C00602AEE2482F582EF3400F583E060047875
:10237C000480027800852321E521C398FA95E0FBBF
:10238C00120AC38A218B22EA45227005120E238081
:10239C0074EE2482F582EF3400F583E070048A2514
:1023AC008B26E5236012852582852683F524E5D9C5
:1023BC00F0A31524E52470F6EE2482F582EF3400A8
:1023CC00F583E0604474FC2523F5237825121F194E
:1023DC00AC23A927EEFAEFFB120CBB7402121CAC57
:1023EC00E97026AA21AB22121333793D8E828F839A
:1023FC00A3A3A3A3E0FA7B00120997EEFAEFFB125A
:10240C000C31120CCD7900807474036527605685ED
:10241C002329752A007829121F19AC25AD26AA216B
:10242C00AB22120C977402121CACEE2468F582EFEE
:10243C003400F583E064807004747F8001E0F5253E
:10244C007825121F1DE527F5257825121F1DA923B8
:10245C00AC21AD2290048AE0FA7B0012095B740275
:10246C00121CAC801390045CE06408600BAC25ADCE
:10247C0026EEFAEFFB120D27120E2F79017F0A02BE
:10248C001E1E74F5121D7274FC121C96EAFEEBFFF4
:10249C008921A2AFE433F522C2AF806AEE2463F83F
:1024AC00EF3400F97A007B00A2AFE433F523C2AF1E
:1024BC0088828983E0FCA3E0FDEC4D603A88828938
:1024CC0083E0FAA3E0FB8A828B83E0FCA3E0FD8827
:1024DC00828983ECF0A3EDF08A828B83E4F0A3F085
:1024EC0088828983E0FCA3E0FDEC4D700A88828928
:1024FC0083A3A3E4F0A3F0E523A2E092AF1213337D
:10250C0090059DE004F0EE2463F582EF3400F58332
:10251C00E0F8A3E0F9E849603DEE2463F582EF347E
:10252C0000F583E02402FAA3E03400FBEA2402F570
:10253C0023EB3400F5247823121F198A828B83E055
:10254C00FCA3E0F9EEFAEFFB120C557402121CAC72
:10255C00E970030224A890059DE0606390059EE05D
:10256C00F890059DE0C398500C7402652170509052
:10257C00059FE0604A8E828F83A3A3A3A3E08541CD
:10258C0082854283F0A3E4F090059DE0F87402127A
:10259C001CE2E8F0A3E4F090059DE0F890059CE0C7
:1025AC0028F07402121CE2AC82AD83854182854214
:1025BC0083AA82AB83790112096790059DE4F0E54B
:1025CC0022A2E092AF7404121CAC02211500000090
:1025DC008544878545C622C0E0C0D0E8C0E0E9C08C
:1025EC00E0EAC0E0EBC0E0ECC0E0EDC0E0EEC0E043
:1025FC00C021C022C023C024C082C083C0F0A2AFBF
:10260C00E433FEC2AF759B00906182E0A2E05012F1
:10261C00E591A2E0500C7591FE74016544700312B3
:10262C0022E1E0A2E55051E591A2E5504B7591DF16
:10263C0090045CE064076005E06408702374016535
:10264C00447035790190048AE0FA75F003A4CAA8A5
:10265C00F028FB748C2AFA74043BFB12248E80182D
:10266C00E0640D701390047EE004F064287002E4C2
:10267C00F07A00E0F9120E35906182E0A2E6400398
:10268C0002272AE591A2E6400302272A7591BF9002
:10269C00045CE064057008120D5D120D6980031274
:1026AC000D63754400120DC3E990045DF0790012BE
:1026BC000DB7120B897A017B0090045BE0F91212C2
:1026CC00FD907803E0644270559005FEE014F070C4
:1026DC004DC2AF1226E200784DD0E0F618D0E0F6ED
:1026EC00E59F540770057522FF800375227FC4C0D7
:1026FC00E0784CE6F52108E65522F522740B78219A
:10270C00121C74D0E02521F8906270E0A2E740F82A
:10271C00E8C333906272F0906270E0D2E0F09061A6
:10272C0081E0A2E35009E5E9A2E3500375E9F7A3C0
:10273C00E0A2E75009E591A2E7500375917FEEA264
:10274C00E092AFD0F0D083D082D024D023D022D04E
:10275C0021D0E0FED0E0FDD0E0FCD0E0FBD0E0FAF0
:10276C00D0E0F9D0E0F8D0D0D0E032C0E0C0D0C09A
:10277C0082C083906183E0A2E05009E5BFA2E050E3
:10278C000375BFFEE0A2E15009E5BFA2E15003755D
:10279C00BFFDE0A2E25009E5BFA2E2500375BFFB0A
:1027AC00E0A2E35009E5BFA2E3500375BFF7E0A236
:1027BC00E45009E5BFA2E4500375BFEFE0A2E55079
:1027CC0009E5BFA2E5500375BFDFE0A2E65009E5BD
:1027DC00BFA2E6500375BFBFD083D0828088C0E013
:1027EC00C0D0E8C0E0E9C0E0EAC0E0EBC0E0ECC07B
:1027FC00E0EDC0E0C0F0E5A7A2E6500FE5A1A2E62F
:10280C00500953A7BF75A1BF12284FE5A7A2E550E9
:10281C000CE5A1A2E5500653A7DF75A1DFE5A7A241
:10282C00E15009E5A1A2E1500375A1FDE5A7A2E2E3
:10283C00500CE5A1A2E2500653A7FB75A1FBD0F00A
:10284C0002276074F8121D7275440190045CE064F8
:10285C00067015120CEB8A828B83A3A3A3A3A3A3EC
:10286C00E0FAA3E0FB120D4BA2AFE433FED2AF9023
:10287C000462E0640170187A207B0090045BE0F93C
:10288C001214117A207B0090045BE0F91213039070
:10289C006182E0D2E6F09005FBE0602185C64580C0
:1028AC0016900461E064017008E5C654F84405F51F
:1028BC00C653BEFC1225DC7401654460E4EEA2E054
:1028CC0092AF7F01021E1E008E468F4785824B857C
:1028DC00834A854182854283E0CEA3E0CF854B823B
:1028EC00854A83EBC9EAC8EDCBECCA75F010C3E896
:1028FC0033C8E933C9EA33CAEB33CBC3EA9EF54993
:10290C00EB9FF548B35004AB48AA49EC33CCED33FC
:10291C00CDD5F0DAAE46AF472274E9121D7274F8C9
:10292C00121C96854182854283ECF0A3EDF08A213E
:10293C008B2290045CE024F7C394055006752101AA
:10294C00022ABC120CEB8A238B24AE23AF24EE4F4D
:10295C007003022AB9AC21AD227402121CE2AA82C5
:10296C00AB83120D7B8E828F83A3A37525FF7526F7
:10297C00FF7527FF7528007825121B287402121C7E
:10298C00E27529FF752AFF752BFF752C007829122B
:10299C001B2878257929121504502A7825792912B3
:1029AC001AED7521017522C8752300752400782154
:1029BC007925121504505285252185262285272339
:1029CC008528248050752D01752EC8752F00753003
:1029DC0000852921852A22852B23852C2478217991
:1029EC0025121AED782D7921121504401C75210041
:1029FC0075220075230075240178217929121AEDAE
:102A0C0078217925121AB4800C7521017522007574
:102A1C00230075240074097821121A95752519F56F
:102A2C0026F527F52878217925121A0D8E828F83A9
:102A3C00A3A3A3A3A3A3E0F8A3E0F97AD07B03128A
:102A4C001C0B88258926E4F527F528782179251291
:102A5C001AB47406121CE2E0F8A3E0F97AD07B03F6
:102A6C00121C0BE8FA8A25E4F52678217925121533
:102A7C0004500778217925121AED90045CE0640863
:102A8C00600AE064066005E06405702D75250D781C
:102A9C0025792112150440217525F47526FF75271B
:102AAC00FF7528FF78217925121AB4800C75210046
:102ABC00752200752300752400854182854283E0D0
:102ACC00F8A3E0F58388827821121B5D7408121C30
:102ADC00AC7F10021E1E74F7121D72120D8D900524
:102AEC00F9E064017010906245E4F0A3F053F4F344
:102AFC0043FE0C5390F3120D39E5C654804449F54E
:102B0C00C6E59E547F644970F8906185740FF0900F
:102B1C0005F7E0F47002A3E0604E9005F8E0600861
:102B2C0014601B14602E80407521017522009005E5
:102B3C00F7E07821121C83E521F45280802A75215C
:102B4C00017522009005F7E07821121C83E521F431
:102B5C00529080147521017522009005F7E07821C0
:102B6C00121C83E521F452A079007F02021E1E7410
:102B7C00F7121D72E9FEEAFF74016E700C7A807B0D
:102B8C000090045BE0F91212FD902F10E493F460B6
:102B9C0008E493F9120B7D800953C680E59E547F9F
:102BAC0070FA120D3F9005F9E064017003120B9B53
:102BBC009005F7E0F47002A3E0604B9005F8E0603C
:102BCC000814601A14602C803D7521017522009048
:102BDC0005F7E07821121C83E521428080287521BD
:102BEC00017522009005F7E07821121C83E5214243
:102BFC009080137521017522009005F7E078211261
:102C0C001C83E52142A0120D8D120CEB8A218B2224
:102C1C00A821A922E8496015E5E170FCE82414F527
:102C2C0082E93400F583E0F46003E0F5E174016FB0
:102C3C00700A7A0190045BE0F9121387022B767408
:102C4C00ED121D728A218B228C238D247413121C7D
:102C5C00E27825121B4E782179251215047529016D
:102C6C00752AC8752B00752C005012782179251205
:102C7C001AED7829792112150450168010782579CF
:102C8C0021121AED78297925121504400479018056
:102C9C000279007F0C021E1E74ED121D728A218BAC
:102CAC00228C238D247413121CE27825121B4E786F
:102CBC00257921121504401178217925121AEDAAD3
:102CCC0021AB22AC23AD248022752900752A007516
:102CDC002B00752C0178297925121AED7829792188
:102CEC00121AB4AA29AB2AAC2BAD2C80A68A828BE3
:102CFC00837521FF7522FF7523FF7524007821123F
:102D0C001B3B7F04021E1E74F5121D728C828D8378
:102D1C007821121B4E8A828B837821121B01EA24A4
:102D2C0004F8EB3400F98C828D83A3A3A3A3E0FCFD
:102D3C00A3E0FD88828983C3E09CF0A3E09DF0882A
:102D4C00828983C3E09420A3E0944E40268A828B30
:102D5C00837521FF7522FF7523FF7524FF782112DF
:102D6C001ADA8A828B83A3A3A3A3E02420F0A3E026
:102D7C00344EF0022CF974F5121D72E9FE9005B177
:102D8C00E0FAA3E0FBEEC333F8E433F9745C28F506
:102D9C0082748139F583E02AF521A3E03BF5227892
:102DAC0021121F197A407B427C0F7D001228D474AB
:102DBC0002121CAC8A218B228C238D247410782156
:102DCC00121A7CAA21AB227F04021E1E74F1121D62
:102DDC00728A258B268C278D28740F121CE2E0FA40
:102DEC00A3E0FB7411121CE2E0F521A3E0F52278BC
:102DFC0021121F19EA2401F521EB3400F522E4F528
:102E0C0023F5247825792112198D752171752202EB
:102E1C007825792112198DAA25AB26AC27AD28125D
:102E2C0028D47402121CAC8B22EA452260047A016D
:102E3C0080027A00EC2AFCED3400FD7413121CE2C3
:102E4C00E0F8A3E0F9E8FEE9FFECF8EDF97A717B24
:102E5C0002121C0B882189228E828F837821121BEF
:102E6C005DECF8EDF97A717B02121C0B8A218B2236
:102E7C0074057821121C838E828F83A3A3A3A3E5F0
:102E8C0021F0A3E522F07F08021E1EC082C083E958
:102E9C00906000F0D083D08222C0E074F2121E5EEB
:102EAC00A2AFE433FED2AFE58AA2E4400CE58AA2DD
:102EBC00E64006E58AA2E750031211D7538AEF5376
:102ECC008ABF538A7FC2EB754300EEA2E092AF7FBC
:102EDC0001021EBDC0E0C0D0E8C0E0E9C0E0A9A876
:102EEC00D2AFC2C7754300E9A2E7E433F8E9A2E721
:102EFC0092AFD0E0F9D0E0F8D0D0D0E032C2AF023F
:032F0C00000022A0
:102F1000FFFFFFFFFFFFFFFF121CAC7F02021DD867
:102F200074F4121D0674E9121C96EAFEEBFF7A1087
:102F30007B0012136F8A218B227821121F197CEDDE
:102F40007D0F7AB57B0F120AE77402121CAC9080D9
:102F5000DDAC41AD427417121BA985218285228305
:102F6000E085418285428312307AE0C0E07401122C
:102F70001CE2D0E012307AA3E0C0E07402121CE23E
:102F8000D0E0123087E0C0E07403121CE2D0E012FF
:102F90003087A3E0C0E07404121CE2D0E012309548
:102FA000E0C0E07405121CE2D0E0123095A3E0C04E
:102FB000E07406121CE2D0E012309BE0C0E074071F
:102FC000121CE2D0E012309BA3E0C0E07408121C97
:102FD000E2D0E01230A7E0C0E07409121CE2D0E0B9
:102FE0001230A7A3E0C0E0740A121CE2D0E0F0E5C2
:102FF00021240B123071C0E0740B121CE2D0E0F0FF
:10300000E521240C123071C0E0740C121CE2D0E0F7
:10301000F0E521240D123071C0E0740D121CE2D0D5
:10302000E0F0E521240E123071C0E0740E121CE2B3
:10303000D0E0F0E521240F123071C0E0740F121CB3
:10304000E2D0E0F0AA21AB22121375752117752288
:10305000007821121F197402121CFCEEFAEFFB1209
:1030600012A97402121CAC7417121CAC7F04021D4E
:10307000D8F582E43522F583E02212307E22F085F5
:103080002182852283A32212308B2212308F2212BA
:10309000307EA3A32212308BA3A32212309F2212D0
:1030A000308FA3A3A3A32212309FA3A32274F612EE
:1030B0001D0674C7121C96E9FE90816C7404121CE4
:1030C000FC7410121BA97404121CEC88218922784C
:1030D00021121F197C037D107AB57B0F120AE77449
:1030E00002121CAC9080C6741E121CFC7417121BBA
:1030F000A97404121CE2E0C0E0741E121CE2D0E0CD
:10310000F07405121CE2E0C0E0741F121CE2D0E073
:10311000F07406121CE2E0C0E07420121CE2D0E061
:10312000F07407121CE2E0C0E07421121CE2D0E04F
:10313000F07408121CE2E0C0E07422121CE2D0E03D
:10314000F07409121CE2E0C0E07423121CE2D0E02B
:10315000F0740A121CE2E0C0E07424121CE2D0E019
:10316000F0740B121CE2E0C0E07425121CE2D0E007
:10317000F0740C121CE2E0C0E07426121CE2D0E0F5
:10318000F0740D121CE2E0C0E07427121CE2D0E0E3
:10319000F0740E121CE2E0C0E07428121CE2D0E0D1
:1031A000F0740F121CE2E0C0E07429121CE2D0E0BF
:1031B000F07410121CE2E0C0E0742A121CE2D0E0AD
:1031C000F07411121CE2E0C0E0742B121CE2D0E09B
:1031D000F07412121CE2E0C0E0742C121CE2D0E089
:1031E000F07413121CE2E0C0E0742D121CE2D0E077
:1031F000F0EE900301F01212737C067D007A1F7BC3
:10320000001205AD854182854283E4F0741C121CD6
:10321000E27488F0A37413F07401121CE27401F0DC
:10322000741A121CE2740AF0A3E4F07418121CE27F
:103230007414F0A3E4F07416121CE2E4F0A3F0742A
:1032400014121CE27464F0A3E4F0AC41AD427901C5
:103250007A057B03121429741C121CFC79027A066D
:103260007B03121429741E121CFC79177A087B0345
:103270001214297CC57D0F79137A077B0312142958
:103280007401121CFC79017A107B03121429741A40
:10329000121CFC79027A117B031214297418121C77
:1032A000FC79027A127B031214297416121CFC7921
:1032B000027A137B031214297414121CFC79027A0B
:1032C000147B031214297CD87D0F7A15790012071C
:1032D000277CA07D007A067B001205AD7CA07D00D6
:1032E0007A077B001205AD7CA07D007A087B001276
:1032F00005AD7CA07D007A097B001205AD74351206
:103300001CE212512604121CE27401F085418285F0
:103310004283F07403121CE2E4F07402121CE274A3
:1033200001F07435121CFC79047A087B041210B782
:103330007401121CFC79017A007B041210B7AC41B5
:10334000AD4279017A027B041210B77403121CFC9F
:1033500079017A037B041210B77402121CFC790104
:103360007A067B041210B7908262121B6C12072D32
:10337000908262121B6C12083512102D908262121C
:103380001B6C12103F900301E0F91212911214D736
:1033900012046F1204751214AD1214BF12125512DA
:1033A000106912106F12126D9082C6AC41AD42745A
:1033B00001121BA9A841A942882189227821121F44
:1033C000197C017D007AF07B1F1211B37402121C6C
:1033D000AC854182854283E064AA60031204BD1279
:1033E000121F7AF47B011211FB7A017B1012104537
:1033F0007901120931790212092B79001209377902
:103400000112093D7A017B00900301E0F91212FDDF
:1034100079011213817439022F1874EC121D06748D
:10342000FD121C968923908284AC41AD4274031234
:103430001BA97A10FB12136F8A218B22AE21AF22B7
:10344000C2AFA841A942882189227821121F197C84
:10345000017D007AFE7B1F1211B37402121CAC7442
:1034600001121CE28582218583227821121F197C9A
:10347000017D007AFF7B1F1211B37402121CAC7421
:1034800002121CE28582218583227821121F197C79
:10349000017D007AF07B1F1211B37402121CACD2B2
:1034A000AF1204818A218B221204818A258B261275
:1034B00004818A278B28A827A928C3E5219525E51B
:1034C0002295265052C3E52598E526994052C3E53A
:1034D0002198E52299405A85212985222AE4F52B55
:1034E000F52C7829121543900B517829121B5D8514
:1034F0004182854283E0603FF525E4F526F527F516
:103500002878251215437829792512174E900B51EA
:103510007829121B5D8046C3E89525E99526500859
:1035200085252985262A80B5C3E89521E99522506D
:10353000A68829892A80A67401121CE2E0F8601D81
:103540008825E4F526F527F52878251215437825F2
:103550007929121773900B517825121B5D900B512E
:103560007825121B4E9082367829121B4E782579C9
:10357000291217025007900B557464802978251280
:1035800015A0E52524BDF8E52634F9F9E875F064C1
:10359000A4F8AAF075F064E9A42AF97A547B011220
:1035A0001C0BE8900B55F07401652370518E828FCF
:1035B000837431F0EE2402F8E43FF9E8FAE9FBA362
:1035C000A882A98375F00A900B55E084940A88823A
:1035D0008983400A7401F08A828B83E4801AE4F0C4
:1035E000900B55E0F875F00A84A9F075F00AE884AC
:1035F000C454F0298A828B831252D812104BEEFAEF
:10360000EFFB121375900B55E0F97403121CAC7F9D
:103610000C021DD874E8121D0674E2121C96EAFE14
:10362000EBFF5480603A900301E0F91212E58A2121
:103630008B22EA452260218A828B83E064C070116C
:10364000A3A3A3E0FA8521828B83A3A3E0F912044C
:103650009FAA21AB221212D3EEFAEF6480024973C3
:10366000EEA2E050147AFD7B0F1214357A067B032C
:103670001210D5EE6401024971540260201204ABAD
:1036800090822E121F2C7A027B00900301E0F91227
:1036900014057404121CACEE6402024971EE54402D
:1036A00070030239249080817407121CFC74171275
:1036B0001BA9900303E0700474018001E4F07C0511
:1036C0007D0079007A177B0B121471900B50E4F097
:1036D000900303E0640185418285428360030237E1
:1036E000BE7401F07900121381900B4EE4F07C4E11
:1036F0007D0A7AC479801213E1900B56E0603AC2D9
:10370000AF75219475220B7821121F197C2C7D0333
:103710007A007B001211B37402121CAC7521C075C3
:10372000220E7821121F197CF47D007A007B101282
:1037300011B37402121CACD2AF12109F12122B796B
:103740000012127F7A027B00900301E0F91212FD51
:1037500090820A121F2C7A007B01900301E0F9127B
:1037600014057404121CAC7A007B40900301E0F94C
:103770001212FD908206121F2C7A407B00900301EA
:10378000E0F91214057404121CAC12143BAC41ADE8
:103790004279017A057B031214297407121CF41272
:1037A00004877407121CFC79177A087B031214290A
:1037B0007CD87D0F7A15790012072702391EE4F0B4
:1037C00012143BAC41AD4279017A057B03121429F6
:1037D000900B1FE4F0900B56E06025900B2DE4F069
:1037E000900B4FF0900B2EF0900B1DF0900B93F080
:1037F000900B1CF0900B14126021900B4AF0800388
:1038000012148F1212671214BF121069900B56E037
:103810006074900B4CE064426008900B4EE06401D1
:10382000700FC2AF7C4E7D0A7AC479801213DBD24E
:10383000AF900B4CE0F860057442687008900B4E36
:10384000E064027041C2AF75219475220B78211299
:103850001F197C2C7D037A007B001211B9740212AF
:103860001CAC7A0A7B001211FB7521C075220E7800
:1038700021121F197CF47D007A007B101211B9749B
:1038800002121CACD2AF1212317A007B20900301DD
:10389000E0F91214117A087B00900301E0F9121488
:1038A000117A047B00900301E0F91214117A027B73
:1038B00000900301E0F91214117A407B009003019B
:1038C000E0F91214117A007B02900301E0F912145E
:1038D000117A007B04900301E0F91214117A007B45
:1038E00010900301E0F91214117A007B0890030193
:1038F000E0F91214117A007B01900301E0F912142F
:10390000117A107B00900301E0F91214117A007B08
:1039100040900301E0F91214117901121381EE6451
:1039200040024971EF54027003023A1C908098746F
:1039300007121CFC7417121BA9FA7B02900301E00A
:10394000F91214117A007B04900301E0F9121411AA
:10395000900B1FE0700474018001E4F0900B2DE4E3
:10396000F01214BF900B45E4F0900B2E12514C1244
:103970001471900B1FE0854182854283602EE4F034
:1039800012143BAC41AD4279017A057B0312142934
:103990007A027B00900301E0F91214117A007B088F
:1039A000900301E0F9121411790380657401F0129B
:1039B000143BAC41AD4279017A057B0312142974A2
:1039C00007121CF41204877407121CFC79177A087A
:1039D0007B031214297CD87D0F7A157900120727F2
:1039E00090822E121F2C7A027B00900301E0F912C4
:1039F00014057404121CAC7A007B10900301E0F9EA
:103A00001214117A007B20900301E0F9121411794D
:103A10002712127FEEFAEF6402024973EF5404702A
:103A200003024025900B2EE4F0FA7B04900301E0A2
:103A3000F91214117A007B10900301E0F9121411AD
:103A4000900B22E0F8900B2DE06033147003023BE2
:103A500016147003023C51147003023D631470038A
:103A6000023DA8147003023E2D147003023EC814D8
:103A70007003023F62147003023F9402400F7521ED
:103A8000067522007821121F197C227D0B7A4E7B4D
:103A90000A12146B7402121CACE960329082161286
:103AA0001F2C7A407B00900301E0F9121405740486
:103AB000121CAC900B2D7401F0792212127F7C0A3B
:103AC0007D0079FF7A227B0B12147102400F900B5C
:103AD0002DE4F0790412127F900B45E00412513C62
:103AE000121471900B45E0C39406500302400F126C
:103AF000109F7A717B081210ABEAF8EBF9ECFAED43
:103B0000FB900B46121B907A407B00900301E0F97A
:103B10001212FD02400F7521027522007821121F3A
:103B2000197C227D0B7A137B1012146B7402121C09
:103B3000ACE96032900B2D7402F0790512127F907F
:103B40000B2DE0C39402401790825E121F2C7A0066
:103B50007B10900301E0F91214057404121CAC9060
:103B60000B2EE402400E7821121F197C227D0B7A65
:103B7000157B1012146B7402121CACE9600A900BD6
:103B80002D7403F0790980B47821121F197C227DED
:103B90000B7A177B1012146B7402121CACE9600FC5
:103BA000900B2D740412513C121471790D808D7894
:103BB00021121F197C227D0B7A197B1012146B7451
:103BC00002121CACE9601A791212127F900B2D744C
:103BD00005F07A007B20900301E0F91212FD023B10
:103BE0003F7821121F197C227D0B7A1B7B10121447
:103BF0006B7402121CACE9600C791212127F900BEC
:103C00002D740680CC7821121F197C227D0B7A1D21
:103C10007B1012146B7402121CACE9600B900B2D1C
:103C20007407F07919023B3C7821121F197C227D20
:103C30000B7A1F7B1012146B7402121CACE9900BF0
:103C40002D60087408F0791D023B3C7401F0023BC2
:103C50005F7A107B0012136F8A218B22900B14E085
:103C600064016003023D4E900B23E0640B6009A3E6
:103C7000E0640B6003023D4E1249D4121C83745E53
:103C8000125FF1740A3524F583E0F46003023D31DC
:103C9000E9900B427005E044118008E04421126075
:103CA0003B4441F01249D4121C83744E2523FA740C
:103CB0000A3524FBEA2410F582E43BF583E912601F
:103CC00017121F197C3C7D0BEA2411FA50010B12CC
:103CD00012A97402121CAC7C0679007A3C7B0B1290
:103CE00004B7E9F8852182852283742FF0900B15A3
:103CF0001249CBF0900B421249CBA3F0E885218208
:103D0000852283A3A3A3F0AC21AD227A10790112FE
:103D1000104B790712127F7C077D0079007A3C7B7B
:103D20000B1214717C4E7D0A7AC479801213DB80E9
:103D30001D854182854283E4F012143BAC41AD42C3
:103D400079017A057B03121429792412127FAA21A2
:103D5000AB22121375900B1574FFF0900B14E4F066
:103D60000240097521067522007821121F197C2254
:103D70007D0B7A2F7B0B1212BB7402121CACE96014
:103D8000207821121F197C2F7D0B7A4E7B0A12128C
:103D9000A97402121CAC900B4CE04442F0790B80E9
:103DA00002790C12127F8075752106752200782128
:103DB000121F197C227D0B7A2F7B0B1212BB74020F
:103DC000121CACE9604C900B16E0FC8C217404785A
:103DD00021121C8374942521F8740B3522F9E8FA1A
:103DE000E9FBEC8A828B83A3F075210675220078AB
:103DF00021121F197C2F7D0BEA2402FA50010B12AD
:103E000012A97402121CAC900B4CE04444F07911DE
:103E10008002790C12127F900B1674FFF07C067DE5
:103E20000079BB7A2F7B0B1214710240097A087B50
:103E30000012136F8A218B229081B67401121CFC30
:103E40007406121BA9900B22E0640B6003023F581A
:103E500075250085252375240074047823121C839E
:103E600012498F121F197403121CFCAA23AB2412CF
:103E7000146B7402121CACE9603C752506752600B3
:103E80007825121F197C357D0BAA23AB241212A9A9
:103E90007402121CAC900B2D7401F07C067D00792D
:103EA000BB7A357B0B121471900B4CE04448F079CF
:103EB0001412127F800F7409652560090525E52518
:103EC000C3940A408E023F587A087B0012136F8A0F
:103ED000218B227523027524007823121F197C225E
:103EE0007D0B7A217B1012146B7402121CACE960FA
:103EF0006775250085252375240074047823121C1A
:103F00008312498F121F197C357D0BAA23AB241213
:103F1000146B7402121CACE9602A7C067D0079FFE8
:103F2000AA23AB241214717C067D0079BB7A357B01
:103F30000B121471900B2D1260394448F07918124D
:103F4000127F8014740965257005791712127F0598
:103F500025E525C3940A409CAA21AB2212137502C1
:103F60004009740B6860030240097C077D0079BB3F
:103F7000900B16E0F5218D2274047821121C8374B5
:103F8000952521FA740B3522FB121471900B4CE02D
:103F90004444806F740B6870707521067522007838
:103FA00021121F19900B15E0F52174047821121CC1
:103FB00083745F2521FC740A35221260C31212A992
:103FC0007402121CAC900B93E004F0900B1512518C
:103FD0006B121C83744E2521FA740A3522FBEA24E5
:103FE00010F582E43B1249A9EA2411FA50010B12A0
:103FF00014717C4E7D0A7AC479801213DB900B4CCD
:10400000E04441F0791B12127F900B2D7401F09067
:104010000B1574FFF0A3F0125148121471EEFAEF71
:104020006404024973EE5408603C900B12E0640192
:10403000702E900302E064057026900B4CE0602027
:10404000900B1FE0701A12607F7A237B101204B766
:10405000E9900B43F07C237D107A10790112104B0C
:10406000EE6408024971EF5408700302423B7A0083
:104070007B08900301E0F9121411900B56E07003D5
:1040800002420775230085232185212575260074AA
:10409000047825121C8374942525F525740B352688
:1040A000F5267527067528007827121F197C227DB2
:1040B0000BE5252443FAE5263401FB12146B740248
:1040C000121CACE96027900EC17404F0E523A31222
:1040D000603B446012513C1214717C107D0079BB2E
:1040E000E5252442FAE5263401FB0241A478271293
:1040F0001F197C227D0BE5252402FAE43526FB12EC
:10410000146B7402121CACE96008900EC1740102B9
:10411000419DE52175F007A4F521E5F0F5227494A1
:104120002521F521740B3522F5227525067526000B
:104130007825121F197C227D0BE52124E3FAE52264
:104140003401FB12146B7402121CACE96007900E70
:10415000C1740580487825121F197C227D0BE5214A
:104160002429FAE5223402FB12146B7402121CACEF
:10417000E96007900EC1740680237825121F197C10
:10418000227D0BE521246FFAE5223402FB12146B29
:104190007402121CACE9601D900EC17407F0E52397
:1041A000A312513C1214717A107B00900301E0F9C4
:1041B0001212FD804B740965237039900B45E004A1
:1041C000F0C39406401C12109F7A717B081210AB4A
:1041D000900B46121B787A407B00900301E0F912A5
:1041E00012FD790412127F7C0A7D0079FF7A227B0E
:1041F0000B1214710523E523C3940A500302408671
:10420000900B2EE4F0802C900B45E004F0C3940654
:10421000401C12109F7A717B081210AB900B461253
:104220001B787A407B00900301E0F91212FD7904BB
:1042300012127FEEFAEF6408024973EF5401700323
:1042400002434412109F7A717B081210AB8A218BB3
:10425000228C238D24752700AA278A2575260074B1
:10426000027825121C8374942525F52D740B3526B0
:10427000F52EE52D24B4F525E52E3402F526EA7554
:10428000F007A4FAABF074942AF52F740B3BF530C9
:104290008525828526837829121B4E90825A78299B
:1042A000121AC778297921121504400E1249B52433
:1042B000E2FAE5303401FB121471E52D24DCF5251A
:1042C000E52E3402F526852582F5837829121B4ECA
:1042D0009082527829121AC7782979211215044040
:1042E0000E1249B52428FAE5303402FB121471E5A8
:1042F0002D2404F525E52E3403F526852582F58346
:104300007829121B4E90823A7829121AC778297997
:1043100021121504400E1249B5246EFAE53034021C
:10432000FB1214710527E527C3940A500302425873
:104330007A007B01900301E0F9121411EEFAEF64A8
:1043400001024973EE5410700302456E900B4FE06A
:10435000600C7A007B40900301E0F9121411900B7D
:104360001CE0F860057403687015E004F090030524
:10437000E0700474018001E4F090820A02455474F4
:10438000016860030244CC12109F900B4CE0445033
:10439000F0900FB3E0C39410400A740FF0900EC079
:1043A000F0121465900EC0E0C0E0F5217522007493
:1043B000047821121C8374B3125113740E1249A491
:1043C000D0E0F0900EC1E0C0E0125168121C83747E
:1043D000B4125113740E1249A4D0E0F0900EC2E052
:1043E000C0E0125168121C8374B5125113740E127E
:1043F00049A4D0E0F0900871E0C0E0125168121CAE
:104400008374B6125113740E1249A4D0E0F09008D0
:1044100072E0C0E0125168121C8374B71251137419
:104420000E1249A4D0E0F0900873E0C0E012516889
:10443000121C8374B8125113740E1249A4D0E0F008
:10444000900874E0C0E0125168121C8374B91251D4
:1044500013740E1249A4D0E0F0900875E0C0E01289
:104460005168121C8374BA125113740E1249A4D0ED
:10447000E0F0900876E0C0E0125168121C8374BB33
:10448000125113740E1249A4D0E0F0900FB3E0045F
:10449000F0900EC0F0900B1CE004F012125B9082C2
:1044A0002E121F2C7A107B00900301E0F9121405E4
:1044B0007404121CAC7A027B00900301E0F9121420
:1044C00011908232121F2C7A400245597404687090
:1044D000087405F012126180787406687053E4F075
:1044E000900B45F07A10FB900301E0F91214119043
:1044F000822A121F2C7A027B00900301E0F9121429
:10450000057404121CAC908226121F2C7A407B008A
:10451000900301E0F91214057404121CAC900B4FC7
:10452000E060457A007B40900301E0F91212FD80C3
:104530003774026870107403F0121267791F121238
:104540007F908226800E740568701D7406F012122A
:104550006790822E121F2C7A107B00900301E0F9E5
:104560001214057404121CACEE6410024971EE546E
:1045700004601512143B7A047B00900301E0F912E9
:104580001411EE6404024971EE54806048A2964012
:104590001B790012127F7A407B00900301E0F91230
:1045A000141190821E121F2C7A8080147A807B0056
:1045B000900301E0F9121411908232121F2C7A40FC
:1045C0007B00900301E0F91214057404121CACEE98
:1045D0006480024971EE542070030246B17A207B58
:1045E00000900301E0F9121411A29750030246B1A2
:1045F0009082C3AC41AD427401121BA97901121221
:104600007F7AC87B001211FB12148F1214831214CC
:104610008912147DC2AF7C4E7D0A7AC47980121350
:10462000DB75219475220B7821121F197C2C7D03D8
:104630007A007B001211B97402121CAC7A0A7B005A
:104640001211FB7521C075220E7821121F197CF4FE
:104650007D007A007B101211B97402121CACA841C3
:10466000A942882189227821121F197C017D007AB4
:10467000F07B1F1211B97402121CAC7821121F19A1
:104680007C017D007AFE7B1F1211B97402121CACF2
:104690007821121F197C017D007AFF7B1F1211B94E
:1046A0007402121CACD2AFC2AF75C9AB75C95B80C6
:1046B000FEEF5420700302487A7A087B0012136FD1
:1046C0008A238B247A007B10900301E0F9121411E5
:1046D000EEF521EF6420F522900B2DE06405703497
:1046E0007525067526007825121F197C337D107AF2
:1046F000C57B0C12146B7402121CACE9701679287D
:1047000012127F125148121471900B2D7401F07A1D
:1047100000024817AA23AB241214D1E970030248FF
:10472000557A00EAF8E52328F582E43524F583A3D9
:10473000E070037430F00AEAC3940640E6852382F1
:10474000852483A3AE82AF83900B2DE0F8740568B7
:1047500070627525007527067528007827121F19C5
:10476000EEFCEFFD85252774047827121C8312497F
:104770008412146B7402121CACE9602B7933121290
:104780007F125148121471900B2D7401F090821217
:10479000121F2C7A007B10900301E0F912140574AB
:1047A00004121CAC0248470525E525C3940A40A520
:1047B0007913804D7406687073752500752706752A
:1047C00028007827121F19EEFCEFFD8525277404B9
:1047D0007827121C8312498412146B7402121CACC9
:1047E000E96023908212121F2C7A007B1090030143
:1047F000E0F91214057404121CAC900B2EE4F0794D
:104800001612127F80267409652570177917121207
:104810007F900B2EE4F0FA7B20900301E0F9121454
:104820001180500525E525C3940A4090752506752D
:1048300026007825121F19EEFCEFFD7A357B0B124E
:1048400012A97402121CAC7A007B20900301E0F9DB
:10485000121411801790822E121F2C7A007B209048
:104860000301E0F91214057404121CACAA23AB2452
:10487000121375AA21AB2202497AEF5410605085B9
:104880004182854283E4F0FA7B10900301E0F91243
:104890001411900B14E06401701012143BAC41AD84
:1048A0004279017A057B03121429900B2D7401F0D3
:1048B000792112127F7C0A7D0079FF7A227B0B120C
:1048C0001471900B2EE4F0EEFAEF6410024973EFCE
:1048D00054407003024976900B4FE004F0F8EF6407
:1048E00040FF74F928C3940250327A177B0B1214DC
:1048F00077E9F521120475E521C394025056792514
:1049000012127F90822E121F2C7A007B409003019E
:10491000E0F91214057404121CAC8054E8C3940727
:10492000E8502C604B12047B7900120493900B4FDB
:10493000E0F8C394024013900B55E0C0E0741528D2
:10494000F582E4340BF583D0E0F090822A80B7C37F
:10495000940A401C900B4FE4F07C05FDF97A177B1C
:104960000B1214717A007B40900301E0F9121411CC
:10497000EEFAEFFB80047A007B00741E121CAC7F01
:1049800010021DD874352527FA740C3528FB2274C3
:10499000352523F523740C3524F524752706752851
:1049A000007827223522F58322F58374FFF07C07F7
:1049B0007D00790022852582852683E4F0A3F0A37B
:1049C000F0A3F07C07FD79BBE52F22E085218285ED
:1049D0002283A322900B15E0F98923752400740427
:1049E00078232274F0121D0674DC121C96EAFE7401
:1049F000016E60030250D5900303E064016003027E
:104A00004AE6900B1CE06003024AF1121225E9907D
:104A10001039F0F46051790012127F901039E0C023
:104A2000E0900B2EE0F8742228F582E4340BF58335
:104A3000D0E0F0900B2EE004F0900B1FE0700C7AA9
:104A4000027B00900301E0F9121411900B4FE0601B
:104A50000C7A007B40900301E0F912141190820659
:104A6000121F2C7A40800E900B1FE0701E90826AFD
:104A7000121F2C7A027B00900301E0F912140574D6
:104A800004121CAC901039E0F47012900B4FE060EF
:104A9000287A007B40900301E0F91212FD900B2D63
:104AA000E0C394024013901039E0F4602D7A007B4B
:104AB00010900301E0F9121411901039E0640A70AB
:104AC000199081E6121F2C7A007B02900301E0F915
:104AD0001214057404121CAC800C7A007B02900343
:104AE00001E0F9121411900303E064016003025025
:104AF00081901039E0F46072900B1CE0706C900BA8
:104B00001FE07003025048908226121F2C7A007B0F
:104B100004900301E0F91214057404121CAC900B0C
:104B20002EE0FA900B2DE0603014607E14700302CA
:104B30004BE9147003024CF1147003024D531470CE
:104B400003024E77147003024ECF147003024F1706
:104B5000147003024F910250D51251187003024F86
:104B600089EAC3940A4003024F897A807B0090034C
:104B700001E0F912141174106E60030250FB9003EF
:104B800003E0700C7A407B00900301E0F91212FD03
:104B900090826A121F2C7A207B00900301E0F912A8
:104BA00014057404121CAC02510774026A700B9055
:104BB0001039E0640B70B3024F89EAC3940340AA32
:104BC000793012127F900B2EE4F0900B2D04F07AC6
:104BD000007B04900301E0F91214117A007B10901D
:104BE0000301E0F912141180819080AF740D121C42
:104BF000FC7417121BA9EAC394025003024CBF9025
:104C00001039E0640B6003024CBF74036A70051234
:104C10005157800B74026A700A900B22E024D090E6
:104C20000B15F0900B1512516B121C83125111745D
:104C30000A123074F485418285428370597401F000
:104C4000793412127F12143BAC41AD4279017A05DE
:104C50007B03121429740D121CF4120487740D12B4
:104C60001CFC79177A087B031214297CD87D0F7AF3
:104C7000157900120727900B147401F0908212121C
:104C80001F2C7A007B10900301E0F91214057404C4
:104C9000121CAC024E68E4F012143BAC41AD4279F8
:104CA000017A057B03121429790612127F900B15E5
:104CB00074FFF0900B14E4F0900B2D04024E62EAA6
:104CC000C39404501374036A6003024B6A90103952
:104CD000E0640B7003024B6A793012127F900B2E46
:104CE000E4F012512F900B1412514B121471024B1D
:104CF000CF74066A6003024B6A900B34E064BB75A4
:104D000021067522007821702D121F197C227D0B3F
:104D10007A2F7B0B1212A97402121CAC7C0A7D0044
:104D200079FF7A227B0B121471900B2EE4F0790A32
:104D300012127F024B6A121F197C227D0B7A2F7B85
:104D40000B12146B7402121CACE96003024E36792C
:104D50000C804EEAC39402404E901039E0640B7010
:104D60004674036A7005125157800B74026A700A08
:104D7000900B22E024D0900B16F0900B1612516B82
:104D8000121C837495125113740B12307464BB603F
:104D90000E791012127F900B16125132024FE679E3
:104DA0000E12127F024E68900B16E0F8EAC39404CC
:104DB000401474FF68700F793012127F900B2D74BD
:104DC00001F0A3024CE874066A6003024B6A900B80
:104DD00034E064BB703A74FF687003024B6A75215B
:104DE000067522007821121F197C227D0B7A2F7BF9
:104DF0000B1212A97402121CAC7C0A7D0079FF7A96
:104E0000227B0B121471900B2EE4F0790F024D30BF
:104E100074FF687003024B6A7521067522007821C1
:104E2000121F197C227D0B7A2F7B0B1212BB74028E
:104E3000121CACE9600F7A007B04900301E0F912C8
:104E400012FD024FF3790C12127F900B1674FFF0D3
:104E50007C067D0079BB7A2F7B0B121471900B2D91
:104E6000740112513C1214717A007B04900301E02A
:104E7000F9121411024FF39081C27407121CFC74D2
:104E800006121BA9901039E0640B702774016A7038
:104E9000227521067522007821121F197409121C2F
:104EA000FC7A357B0B12146B7402121CACE9705344
:104EB000025039EAC39402400302500174016A604F
:104EC00003024B6AE0640B6003025001024B6A90DC
:104ED00081E07401121CFC7406121BA974026A7032
:104EE0002A7521067522007821121F197403121CDD
:104EF000FC7A357B0B12146B7402121CACE9700344
:104F0000025039791212127F024FF3EAC394035010
:104F100003024B6A025001901039E0640B7051EAB1
:104F2000C39402404B74036A7005125157800B748E
:104F3000026A700A900B22E024D0900B16F0900BBE
:104F40001612516B121C837495125113740B12308C
:104F50007464BB700D791C12127F900B16125132C3
:104F60008005791A12127F125148121471024B6A8D
:104F7000EAC394044003025001E0640B6003024B57
:104F80006A74016A6003024B6A900B2EE4F00250CF
:104F900039EAC394024064901039E0640B705C7489
:104FA000036A7005125157800B74026A700A900BE5
:104FB00022E024D0900B15F0900B15E0F9892175B3
:104FC000220074047821121C83125111740A1230C9
:104FD00074F46003E9700A791C12127F12512F8059
:104FE00012791E12127F7C0A7D0079FF7A227B0BD8
:104FF000121471900B2EE4F0024B6AEAC394044041
:1050000025793012127F900B2D7401F0A312514BB1
:105010001214717A007B10900301E0F91214117AD6
:10502000007B04024BDF74016A6003024B6A90103C
:1050300039E0640B6003024B6A7A007B0490030141
:10504000E0F91212FD024B6A900B2EE0FA12511891
:105050006006EAC3940A40067A007B0880DFEAC350
:1050600094065003024B6A90826A121F2C7A007BCE
:1050700008900301E0F91214057404121CAC024BF1
:105080006A900B2EE4F0900B45E0C39406403F126B
:10509000109F7A717B081210AB8A218B228C238D92
:1050A00024900B467825121B4E9081EA7825121A1F
:1050B000C778257921121504404D900B45125126D1
:1050C000A3F09081EE121F2C7A407B0080A37A40DF
:1050D0007B0002503D74026E6003024B6A90030332
:1050E000E0700C7A407B00900301E0F91212FD7A27
:1050F000807B00900301E0F91212FD7A207B009082
:105100000301E0F91214117424121CAC7F08021D73
:10511000D8745E2521F5822274212AF582E4340BAD
:10512000F583E0640B22E4F0A3F0A3F0A3F0229057
:105130000B1574FFF0900B2D7401F022F07C0A7DAA
:105140000079FF7A227B0B22900B2EE4F07C0AFD83
:1051500079FF7A227B0B2275F00A900B22E0540F24
:10516000A4F8A3E0540F2822900EC0E0F521752288
:1051700000740478212274F4121D0674F1121C9636
:105180008921E914601014700302521F24FD70037A
:1051900002524D0252C97409121CFC7A047B03129C
:1051A000142F7409121CE2E0C0E07401121CE2D05A
:1051B000E0F0740A121CE2E0C0E07402121CE2D0BB
:1051C000E0F0740B121CE2E0C0E07403121CE2D0A9
:1051D000E0F07405121CE2E4F07404121CE2E4F046
:1051E000740E121CE2E0C0E07408121CE2D0E0F081
:1051F000740D121CE2E0C0E07407121CE2D0E0F073
:10520000740C121CE2E0C0E07406121CE2D0E0F064
:105210007401121CFC7A0879001210330252C985FD
:105220004182854283E4F07A04FB900301E0F912A5
:105230001411900303E060030252C912143BAC4105
:10524000AD4279017A057B03121429807C900B14FE
:10525000E064017043900B1FE0640170607A107B82
:105260000012136F8A238B24AE23AF248E828F8388
:105270007401F0A3744FF08E828F83A3A3744B123A
:1052800052D812104B7A047B00900301E0F91214FB
:1052900011EEFAEFFB121375900B12E0701F900BDA
:1052A00014E070199081F2121F2C7A047B00900395
:1052B00001E0F91214057404121CAC800C7A047B12
:1052C00000900301E0F9121411E521900302F0743B
:1052D0000F023069E9900B43F0EEFCEFFD7A107994
:1052E000012274F4121D0674FF121C967A087B00CA
:1052F00012136F8A218B22AE21AF22854182854213
:1053000083E4F0900B12E06023900B1DE0640170C9
:105310001B900B4CE0701512143BAC41AD4279016F
:105320007A057B03121429900B1DE4F0EEFAEFFBD3
:105330001214D1E970030253BB7A00EAF8EE28F5A3
:1053400082E43FF583A3E070037430F00AEAC3946B
:105350000640E87521007523067524007823121F86
:10536000198E828F83A3AC82AD8385212374047848
:1053700023121C8374352523FA740C3524FB121474
:105380006B7402121CACE9601B1214B3900EC17452
:1053900003F0E521A3F07A107B00900301E0F912FD
:1053A00012FD80177409652170081214B979011271
:1053B000127F0521E521C3940A409BEEFAEFFB1210
:1053C0001375740102306974F0121D06900303E036
:1053D00064016003025FECE9600A24FE7003025975
:1053E000FE025FEC7A1A7B03790012105175230AD2
:1053F0007524037823121F197C1A7D037AB57B0F5D
:10540000120B417402121CAC7C4E7D0A7AC4798066
:105410001213E190030AE014601D14700302560891
:1054200014700302572424FB70030259A024F8705F
:10543000030259E6025FEC752200852223852325AD
:1054400075260074047825121C83744E2525FE747D
:105450000A3526FFEE2411F525E43FF526752706CB
:105460007528007827121F197C0B7D03AA25AB260F
:1054700012146B7402121CACE97003025574900391
:10548000047401F012047B7901120493120475E58F
:1054900022900B93F07A047B00900301E0F9121440
:1054A00011E522900B1270271260396025900B1FB6
:1054B000E0701F12607F7A3A7B101204B7E9900BFC
:1054C00043F07C3A7D107A10790112104B800374FE
:1054D00002F0EE2417F8E43FF9E8FAE9FB90031133
:1054E000E0F523540FFC8A828B83E0540F6C70012B
:1054F000E46003E523F0740F5523F8740168700B22
:10550000900B137401F0900B1E800A7402687006F1
:10551000900B137402F074F05523703090032A74CA
:1055200021F0E522A37004741180027421126057E7
:1055300012104B900B14E064017011900B2D74014C
:10554000F0A3E4F0793312127F025FEC900311E0D4
:1055500054F064306003025FECEE2410F582E43F07
:105560001249A9AA25AB26121471900B13E41260FC
:1055700021025C6174096522702F900B14E06401B4
:1055800070277525077526007825121F197C0B7D5D
:10559000037A3C7B0B1212A97402121CAC7A007BBA
:1055A00004900301E0F91212FDE52375F006A4F55D
:1055B00023E5F0F52474572523FE740B125FF612D1
:1055C0001F197C0B7D03EEFAEFFB12146B740212B1
:1055D0001CACE9602490032A74CCF0A3F0A3126001
:1055E0005712104B7C067D007900EEFAEFFB121487
:1055F00071900B93E014025FEB0522E522C3940A3D
:105600004003025FEC02543A900B4CE090033AF0F6
:10561000900B43E090104C1260776003025FEC75D2
:1056200023037524007823121F197C0B7D037A4A0B
:105630007B1012146B7402121CACE9607D900B435A
:10564000E4F0780090033AE0A2E0505EE8601414C1
:10565000601814601C146020146024146028146006
:105660002C804790105A7441802890105A744280C0
:105670002190105A7443801A90105A7444801390E9
:10568000105A7445800C90105A7446800590105A38
:105690007447F07C0379007A5A7B101204B7E990C2
:1056A0000B43F07C5A7D10025F12E0C313F008E850
:1056B000C394074003025FEC808A900B4DE0F870C2
:1056C00003025FEC900B43E4F0E8146015146019DA
:1056D00024FE601C24FC601F24F8602224F0602556
:1056E000802990106A7441802190106A7442801A57
:1056F00090106A7443801390106A7444800C901068
:105700006A7445800590106A7446F07C6A7D107A50
:1057100010790112104B7C03900B43E0F97A6A7BFD
:10572000100259967523027524007823121F197CE4
:105730000B7D037A4A7B1012146B7402121CACE9C5
:105740007003025FEC900B12E064016003025FECF7
:1057500090030DE0F8A3E024BF602414607014707F
:105760000302580614700302585014700302589F25
:105770001470030258EE147003025937025FEC9064
:105780000B43E0687040E4F0752201852223752404
:105790000074047823121C83745E2523FE740A357A
:1057A00024FF7C081260B91204B71252D412104BB5
:1057B0000522E522C3940A40D2900B4CE0C2E0F0EF
:1057C000A37401025FEB126011744102597F900BC8
:1057D00043E0687029E4F07C06F97A4E7B0A1204F3
:1057E000B7E9900B43F07C4E7D0A7A1079011210D4
:1057F0004B900B4D740212603BC2E1025FEB1260F2
:1058000011744202597F900B43E068703BE4F075DD
:10581000220085222375240074047823121C8374CB
:10582000952523FE740B1260B41204B71252D412E1
:10583000104B0522E522C3940A40D7900B4CE0C2DE
:10584000E2F0A37404025FEB126011744302597F0B
:10585000900B43E0687040E4F075220085222375C8
:10586000240074047823121C8374352523FE740CE1
:105870003524FF7C061260B91204B71252D41210FC
:105880004B0522E522C3940A40D2900B4CE0C2E3C0
:10589000F0A37408025FEB126011744402597F9008
:1058A0000B43E0687040E4F07522008522237524E4
:1058B0000074047823121C8374C32523FE740E35F0
:1058C00024FF7C091260B91204B71252D412104B93
:1058D0000522E522C3940F40D2900B4CE0C2E4F0C5
:1058E000A37410025FEB126011744502597F900B94
:1058F00043E068703BE4F0752200852223752400A4
:1059000074047823121C8374D62523FE740C126051
:10591000B41204B71252D412104B0522E522C394DC
:105920000A40D7900B4CE0C2E5F0A37420025FEB75
:1059300012601174468048900B43E068703CE4F0BC
:10594000900B4CF0A3F01214897A0A7B001211FB21
:105950007523C075240E7823121F197CF47D007AFC
:10596000007B101211B97402121CAC7A027B0090F9
:105970000301E0F91212FD025FEC1260117447F0AE
:105980007C7A7D107A10790112104B7C03900B43C6
:10599000E0F97A7A7B101204B7E9900B43025FEBCF
:1059A00012109F90030BE0900871F090030CE090B0
:1059B0000872F090030DE0900873F090030EE090F1
:1059C0000874F090030FE0900875F0900310E090D9
:1059D0000876F012109990032A7416F0A3744BF015
:1059E000A3744F025F0DA3E0644F6003025FECA35A
:1059F000E064506003025FEC900B1E025BF5121036
:105A00009F900B44E4F07A1A7B03790212105175CF
:105A1000230A7524037823121F197C1A7D037AB593
:105A20007B0F120B417402121CAC90030BE0FE8E34
:105A30002375240074047823121C83A823A924A3AB
:105A4000E0F52590030AE0146039147003025B0648
:105A5000147003025B63147003025B9B14700302F7
:105A60005C1D147003025C77147003025CCF147029
:105A700003025E26147003025F1C147003025FE7CA
:105A8000025FEC744E28FE740A39FFEE2410F523F1
:105A9000E43FF524900B44E0F97C08AA23AB2412E0
:105AA00004B71260727057E525687052900B4E74FF
:105AB00001F085238285248374FF12604D121F1923
:105AC000EE2411FCE43F1260C31212A97402121CEE
:105AD000AC900B93E0041249AD90030BE0F52374F6
:105AE000047823121C83745F2523FA740A3524FB7F
:105AF00012147190032A74031260A3025C5B90037A
:105B00002A7450025B90900B44E0F97C067A4E7B3D
:105B10000A1204B71260727042EE68703E900B4E2B
:105B20007401F07C067D0079007A4E7B0A121471B4
:105B30007523067524007823121F197C8A7D107A3C
