:020000040000FA
:0600000002011A02276B49
:03002B00022ED4CE
:030053000227DEA3
:03007B00022E99B9
:100083000225D7E5C754F84401F5C77901220000DA
:100093000080FB120086B90003020104E47944786E
:1000A30008B800028004F709D8FCE4794C7802B858
:1000B30000028004F709D8FCE490030178B5790DB8
:1000C3008002F0A3D8FCD9FA784390014A7A01BAA6
:1000D30000028007E493A3F608DAF97AB57B0F9060
:1000E300014B781979048015E493A3AD82AE838A1A
:1000F300828B83F0A3AA82AB838D828E83D8E9D9C6
:10010300E77582B57583E4740312012C75829175CA
:100113008300740012012C75D00075817F75410135
:10012300754203759F00020096C09FF59FE473D04C
:100133009F22D083D082C09FE493C0E0740193C018
:10014300E0740293F59F220101030507FFFE778800
:1001530012993241142425360201060302E0FF2AD4
:100163002A47656D696E692D42413130302A2A0074
:10017300000000000D095049534345532D425431AB
:100183003030051299040000A5040D0947656D6917
:100193006E692D424131303005120A0B310B320B9F
:1001A300330B340B350B360B0A0A02534A0000009B
:1001B30000000000000000000000FFFFFFFFFFFF42
:1001C300FF02534A0000000000000000000000008E
:1001D300004F4B0000000000000000000000000082
:1001E3000000534A0000000000000000000000006F
:1001F3000000435700000000000000000000000062
:100203000000435700000000000000000000000051
:10021300003132333435361F4B4F000000000000ED
:1002230000000000000000FF0000B40000280028C8
:1002330000283075A000A000A000A000000800085E
:10024300E001F0001000100010001000100010007A
:1002530050005000500010001000D00700000000B4
:1002630000000F00010005003075070010000100B9
:1002730081FF00000000FFB506D306BB06FF0202A4
:100283000208025000A0000000E803029F82010060
:1002930000878202A382010000EB1002A782010003
:1002A300006D0302A382010000EC1002A982010089
:1002B30000830302A382010000ED1002AB82010060
:1002C30000850302A382010000EE1002AD82080044
:1002D30000860302A382010000EF1002AF82010037
:1002E30000F010FF0100FF20029F820100007E82C8
:1002F30002A382010000541102B182000000000039
:1003030002A582030000D303B50CB50CB50CB50CE4
:10031300B50CB50CB50CB50CB50CB50CB50CB50CD2
:10032300B50C490F610F430F0202020202020202DF
:1003330002010D0000001001029F82010000A5814F
:1003430002A382010000951102C182010000FA0795
:1003530002A382010000961102B982010000988174
:1003630002A382010000971102B3820100007C8185
:1003730002A3820100009811029982010000068104
:1003830002A3820100009911029782010000F48008
:1003930002A3820100009A110295820100002A81C2
:1003A30002A3820100009B110293820100001881C5
:1003B30002A3820100009C1102B7820100008A811E
:1003C30002A3820100009D1102BD820100009E1163
:1003D3000A160A0A029F820100008A8202A382018E
:1003E30000003D1202A182030000040802A382015F
:1003F30000003E12029182030000140802A582034A
:100403000000240802A3820100003F12028D820330
:1004130000002A0802A3820100004012028F820317
:1004230000003A0801E803053F100AFFFFFF00013F
:100433003075030201060000000000000000000008
:1004430000000000000000000000000000000000A9
:100453000000FFFF0600800CE803313233343536E9
:1004630012013592E803120135A6E803120135A8FB
:10047300E803120135ADE803120135142F00120110
:1004830035A130001201350E340012013508360053
:10049300120135D749001201356A5100120135D6D0
:1004A3005200120135BB5300120135EB60001201FB
:1004B300352E610012013596D703120135ADD703EE
:1004C300120135DED70312013519D8031201354362
:1004D300D8031201356DD80312013584D8031201F4
:1004E300359BD803120135B2D803120135DBD8038B
:1004F300120135EED80312013504D9031201351761
:10050300D9031201353ED903120135C0EC021201A1
:1005130035C4ED02120135FCED021201351FEE0266
:100523001201352AEE021201354DEE021201355C3D
:10053300EF0212013531F002120135ACF002120163
:100543003534F1021201356FF102120135A6F102C1
:1005530012013534F2021201350DF3021201356D29
:10056300F30212013578F302120135F7F302120197
:1005730035FAF302120135FDF3021201358CF40250
:100583001201358FF402120135BFF402120135E96D
:10059300F402120135D7F50212013589F602120170
:1005A30035559F031201357D9F03120135AB9F0320
:1005B300120135E29F0312013540A0031201358B6E
:1005C300A003120135D6A00312013516A1031201AF
:1005D300355CA1031201358AA10312013547A20339
:1005E30012013551A2031201355EA20312013591A6
:1005F300A2031201355DA30312013569A30312019E
:100603003581A3031201358BA3031201355AE2038B
:1006130012013568E20312013580E20312013598B5
:10062300E203120135008002120135AC800212018F
:100633003527810212013548820212013584820274
:100643001201352D8302120135148402120135780B
:100653008502120135CF850212013550860212013F
:10066300354087021201358D870212013513880246
:10067300120135458802120135598A021201359B50
:100683008A02120135B98A021201353C8B0212012A
:1006930035108C02120135D88C02120135C4F801D1
:1006A30012013597F90112013540FA011201359310
:1006B300FA0112013543FB01120135CFFB0112018F
:1006C30035BBFC01120135EAFC01120135FDFD01C8
:1006D30012013545FE011201351AFF01120135568B
:1006E300FF0112013572FF01120135C1E603120148
:1006F30035FFBC0312013515BD031201353BBD03A4
:1007030012013557BE0312013561BE03120135963E
:10071300BF031201358EC0031201352E9A03120155
:10072300355E9B03120135919B03120135DB9B035D
:10073300120135A29D03120135D5E8011201353F9F
:10074300E9011201359EEA01120135AEEA011201F7
:1007530035DBEA0112013532EB01120135DBEB0126
:10076300120135E2EC01120135ACED011201350C39
:10077300EF011201354FEF01120135F4EF011201C0
:100783003541F00112013567F00112013575F201AF
:100793001201357AF2011201357FF401120135CCD1
:1007A300F4011201353FF50112013572F501120111
:1007B3003514F601120135BDF601120135F5F601C6
:1007C300120135F8F60112013540F70112013580A7
:1007D300F701120135D7F70112013571C90312016F
:1007E3003589C903120135D1C903120135E7C9039C
:1007F3001201352ECA0312013542CB03120135CF44
:10080300CB031201351ACC03120135B36200120176
:1008130035BF6200120135FA62001201353F6300F1
:10082300120135FF6300120135856400120135B1F1
:100833006400120135EA64001201352867001201D1
:10084300350C6900120135F26A00120135356C006E
:10085300120135836E00120135956F00120135E0E8
:100863007000120135F071001201350D7200120192
:10087300354872001201356A7200120135CD7200DB
:100883001201358E77001201352378001201357479
:1008930078001201359B7800120135ED78001201C2
:1008A300350B7900120135657900120135647A0040
:1008B300120135E87A00120135D09403120135DABA
:1008C30094031201351D9503120135389503120166
:1008D30035C89503120135F095031201352D9603A2
:1008E3001201356496031201358D96031201350208
:1008F30097031201351797031201352C9703120141
:10090300355D9703120135719703120135969703ED
:10091300120135D09703120135FC970312013534C8
:1009230098031201359398031201351299031201AA
:10093300353D9903120135689903120135B19903C5
:10094300120135DB9903120135069A03120135476B
:10095300DF03120135BFD402120135EDD4021201B7
:10096300353BD6021201351BD7021201353AD702A5
:10097300120135B7D702120135FAD70212013550E9
:10098300D90212013511DA0212013598DC02120183
:100993003539DD021201352FDE021201352CDF025B
:1009A30012013586E00212013511E102120135937D
:1009B300DC03120135FCDC0312013550DD031201A7
:1009C3003577DD03120135A8DD0312013582A80353
:1009D300120135EFA80312013536A9031201354E72
:1009E300AA031201354AAB031201352DAC031201E0
:1009F30035FAF6021201353CF7021201350EF80200
:100A0300120135E7F802120135E1F902120135C38B
:100A1300FA021201352CFB02120135E2FB0212012C
:100A23003556FC02120135C2FC02120135EBFC0201
:100A330012013565FD02120135FEFD021201356317
:100A4300FE0212013578FE02120135BEFE021201CA
:100A530035D7FE021201353CFF021201353FFF027A
:100A630012013598C303120135C0C303120135FEC9
:100A7300C303120135BCC40312013523C50312019C
:100A8300353FC50312013567C50312013597C50309
:100A9300120135A6C50312013523C60312013549D8
:100AA300C6031201351BD801120135F9D901120110
:100AB300352BDC0112013567DC0112013594DC01B1
:100AC3001201357EDD01120135C9DD011201351434
:100AD300DE0112013526DE0112013566DE01120147
:100AE300359BDE01120135E9DE0112013518DF0104
:100AF3001201353BDF0112013588DF011201350D8B
:100B0300E00112013527E20112013566E401120109
:100B130035A7E40112013549E6011201358AE601E0
:100B2300120135FDE6011201354EE70112013529A7
:100B3300E80112013553E80112013588E801120179
:100B430035B3E801120135AAC702120135A8C8025C
:100B530012013541CF0212013562D1021201352D46
:100B6300D30212013595D402120135C98201120153
:100B730035788301120135A58301120135EB830119
:100B83001201352185011201354F8501120135E529
:100B930086011201355F87011201357A870112013F
:100BA30035F587011201354F8901120135AF8A01ED
:100BB300120135B58B01120135168D011201352F46
:100BC3008D011201358D8D011201357B8E011201CC
:100BD30035AE8E011201351E8F01120135988F013A
:100BE300120135E28F01120135AC900112013581FA
:100BF3009101120135609201120135EB920112014C
:100C030035599301120135CD9301120135F8930142
:100C1300120135B794011201351C960112013539C1
:100C230096011201355896011201354997011201B7
:100C3300356E97011201359897011201351398010A
:100C43001201356D9801120135D6990112013584CF
:100C53009A01120135C59A011201355D9D021201F7
:100C630035AB9D02120135B79D02120135959E02E7
:100C7300120135C69E02120135F79E021201357725
:100C83009F02120135F59F021201352DA0021201B8
:100C9300357FA002120135BCA002120135D9A20290
:100CA300120135FFA402120135EAA602120135D45E
:100CB300A802120135F37F0012013504B0011201BD
:100CC3003534B0011201350DB70112013592B80167
:100CD3001201358FBE0112013577BF01120135B400
:100CE300BF01120135D7BF0112013508C00112013E
:100CF3003511C0011201351BC00112013509C101B3
:100D0300120135FFC101120135F59A01120135F4C3
:100D13009E01120135FA9E0112013535A601120119
:100D2300354EAB0112013531B903120135C7B90391
:100D3300120135DDB90312013553BA03120135C768
:100D4300BA0312013505BB0312013579BB03120146
:100D530035F2BB03120135FBBB0312013507BC039C
:100D63001201351CBC031201355ABC031201357044
:100D7300BC03120135CFBC03120135EFAC031201E2
:100D830035FCAC0312013516AD0312013555AD0325
:100D930012013593AD03120135F8AD031201350D80
:100DA300AE0312013518AE0312013525AE0312014D
:100DB300353CAE031201354AAE0312013555AE037D
:100DC30012013561AE0312013570AE031201357B9A
:100DD300AE031201359EAE0312013545AF03120176
:100DE3003555AF031201356FAF031201358CAF03D5
:100DF300120135A8AF03120135CDAF03120135D867
:100E0300AF03120135EDAF0312013501B003120137
:100E13003562B00312013568B0031201356EB003B9
:100E230012013574B0031201358CB003120135BFC2
:100E3300B003120135B4AB0212013538AC02120112
:100E430035E7AC0212013546AE0212013567B00236
:100E530012013553B10212013588B102120135AACC
:100E6300B10212013559B20212013551B402120115
:100E7300357AB4021201350CB5021201353EB502C2
:100E83001201354BB502120135A2B502120135C864
:100E9300B50212013535B80212013538B902120113
:100EA3003590B902120135F18E02120135FB8F0222
:100EB300120135E29002120135EC90021201350E57
:100EC30091021201351A9102120135B392021201F5
:100ED30035E29202120135FE930212013557940254
:100EE300120135BD95021201359C9602120135F8A7
:100EF3009602120135659702120135A0970212017D
:100F030035DF9702120135989A02120135B29A021F
:100F13001201353E9B021201354C9B02120135A58D
:100F23009B02120135B39B02120135269C0212016A
:100F3300358A9C02120135D49C0212013592E102DA
:100F4300120135B4E102120135DAE302120135EF81
:100F5300E60212013507E802120135BAE80212016E
:100F6300359CE90212013550D90312013575D903B5
:100F7300120135E7D903120135D68703120135DF94
:100F83008703120135E88703120135BF8803120175
:100F930035708A03120135A68A03120135E08A03EC
:100FA300120135168B03120135508B031201358460
:100FB3008B03120135B08B03120135F98B03120138
:100FC30035338C031201357C8C03120135D48C0329
:100FD300120135098D03120135648D031201359E0B
:100FE3008D03120135EF8D03120135258E03120196
:100FF300355F8E031201358D8E03120135B08E03DA
:101003001201356BE50312013597E503120135F241
:10101300E503120135FCE5031201350CE603120169
:101023003544CC0312013569CC0312013593CC034B
:101033001201353CB10312013581B1031201359E12
:10104300B10312013557B203120135BDB2031201C8
:101053003581B30312013504B50312013598C0037A
:10106300120135B3C003120135E2C003120135E8A2
:10107300C003120135EEC0031201351BC103120177
:101083003540C10312013557C1031201356CC10349
:10109300120135C0C10312013539C203120135599A
:1010A300C2031201354BE80312013517C4011201C3
:1010B3003579C60112013530C8011201352DC90138
:1010C300120135BDC90112013544CA011201356946
:1010D300CA01120135AACD0112013520CE01120138
:1010E300350FCF0112013549CF0112013589CF01E7
:1010F3001201352FD10112013584D101120135D1ED
:10110300D1011201353FD20112013565D20112011D
:10111300357FD20112013595D301120135A5D301D3
:10112300120135B6D401120135CBD40112013501B8
:10113300D50112013582D601120135C1D601120142
:1011430035E6D7011201351EE603120135B6E60373
:1011530012013502E80312013541E8031201351F7C
:10116300E903120135FCE3031201350CE403120118
:10117300351BE403120135AFE40312013560E003CC
:10118300120135E4E0031201354AE103120135127D
:10119300A40312013549A4031201356AA403120101
:1011A30035DAA40312013546A5031201359DA603C2
:1011B300120135EEDD0312013516DE031201358A05
:1011C300DE03120135A1DE03120135F1DE03120144
:1011D300353BDF031201353EDF03120135E7FF0123
:1011E300120135F7FF01120135FAFF0112013591A2
:1011F300C603120135D5C603120135EBC60312012E
:101203003506C70312013521C7031201356CC70325
:10121300120135BBC703120135FBC703120135DDCC
:10122300C80312013527C903120135F87F001201E3
:101233003550D103120135D8D20312013539D30306
:101243001201357FD303120135C4E803120135D7E8
:10125300E803120135DBE803120135E2E80312016A
:1012630035E4E803120135A4E703120135AAE703C5
:10127300120135F8E70312013531E3031201355A40
:10128300E30312013583E3031201359BE3031201E8
:1012930035DDE303120135508F031201355A8F03F5
:1012A3001201359A8F03120135E38F031201351DA5
:1012B30090031201357390031201359290031201CA
:1012C300359B9003120135EC900312013515910300
:1012D3001201351F91031201359091031201351E3E
:1012E3009203120135739203120135A19203120185
:1012F300351D93031201356093031201359D93034A
:10130300120135AF9303120135CE9303120135D782
:101313009303120135A4940312013545E703120127
:1013230035F5DA0312013546DB03120135CFDB0352
:1013330012013535DC0312013510CF031201353AA2
:10134300CF0312013503D003120135DED00312019E
:101353003563E10312013594D503120135CAD50370
:1013630012013503D6031201355CD703120135632D
:10137300FF0212013579FF0212013583FF021201C8
:1013830035CDFF02120135008003120135BD800304
:10139300120135F8800312013520810312013582D1
:1013A3008103120135CE8103120135398203120103
:1013B30035B58203120135B1830312013538850334
:1013C300120135BB85031201351F86031201353621
:1013D30086031201352C8703120135788703120126
:1013E300354F7B00120135647B00120135147C00FC
:1013F300120135547C001201356D7C00120135A0B9
:101403007C00120135ED7C00120135217D001201B3
:1014130035637D00120135617F00120135DEB902AB
:101423001201353BBD02120135C3BE021201351A4A
:10143300BF0212013539BF02120135B7BF021201D3
:101443003547C1021201352BC20212013537C602DC
:1014530012013507C7021201353DB5031201358E5E
:10146300B50312013527B6031201354FB603120136
:1014730035D2B60312013530B70312013549B8032B
:101483001201358AB80312013582D3031201359153
:10149300D303120135BCD303120135C2D3031201A6
:1014A30035C8D303120135E3D303120135EAD3035D
:1014B300120135F1D303120135F5D303120135843B
:1014C300D403120135D3D4031201350DE9031201FC
:1014D3003516E903120135C77F00120135EFE80322
:1014E300E066701008A3E066700A08A3E066700463
:1014F30008A3E06622C3E7960809E7960809E7967A
:101503000809E79622C3E09608A3E09608A3E096AD
:1015130008A3E09622C021C3E096F52108A3E09634
:10152300422108A3E096422108A3E09645217001D9
:10153300D3D02122E9799EC608CAC608CBC608CCF7
:10154300C6C370207996CACBCC7019798ECBCC7078
:10155300137986CC700EF9802ACA33CACB33CBCC2D
:1015630033CC331930E7F2CCCBCA3350147004EACE
:1015730030E00DE4CA3ACACB3BCBCC3CCC50020999
:10158300C3E913C6CC182313C6CB18C6CA18C6F9A9
:10159300221215D420F01430E72B74FFFCFBFA74ED
:1015A3007F8022E4FCFBFA7480801AB48008BC00BC
:1015B300F2BB00EF800F50EBF9E4C39AFAE49BFB14
:1015C300E49CFCE499C6CC18C6CB18C6CA18C6F965
:1015D30022E4C9C608CAC608CBC6D3330308CCC69F
:1015E3003392F0C3947F402E94184019C9B907046D
:1015F300CACBCC225025C309CA33CACB33CBCC3395
:10160300CC33D9F422F4600DC9CCC313CB13CBCAAA
:1016130013CAD9F6CC22E4FCFBFA2214FCFBFA220F
:10162300E62618461846184622E727194719471988
:101633004722181818E60846087009E626087005B8
:10164300E633F4220822191919E70947097009E753
:1016530027097005E733F4220922E6084608C31375
:101663004608336002E633F422E7094709C3134708
:1016730009336002E733F42212165D602512166CFB
:101683006020121623700302162C080808E7667000
:10169300101819E766700A1819E76670041819E735
:1016A3006622F42212165D601C12166C6017121665
:1016B30023700712162C7001D322C0D012162C707F
:1016C30006D0D0B322C32233D0D0501430E0F6C3B7
:1016D300E7960809E7960809E7960809E796B3220B
:1016E30020E0D5E6970809E6970809E6970809E692
:1016F30097B32212165D601B12166C601612162326
:10170300700712162C600CB322C0D012162C700571
:10171300D0D022C32233D0D0501330E0EBC3E796AE
:101723000809E7960809E7960809E7962220E0E406
:10173300E6970809E6970809E6970809E69722124B
:10174300166C604612165D603DE9687008F618F67F
:1017530018F618F622748067F712177609090974C8
:101763008067F72212165D601D12166C7005191939
:1017730019801A121635701F121649C37003E667D3
:101783003319191940071818182208080874FFF6A6
:1017930018F618F618F622121649601712162C704E
:1017A3002192F01216237019501720F0140808081C
:1017B300090909E7F61819E7F61819E7F61819E7FA
:1017C300F62212162360E6E869701F0808E62480F3
:1017D300F608E436F618547FB47F0CE654806007AD
:1017E300F6E418F618F622181822E9C6CC08C6CD76
:1017F30008C6CE08C6CFC0E0E8C0E0EAC0E0EBC050
:10180300E009E9F809E7FA09E7FBE6F918E6F8C39E
:10181300EC98ED99EE9AEBC2E7F5F0EFC2E795F09D
:10182300500E600CEBCFFBEACEFAE9CDF9E8CCF829
:10183300EAA2E7D2E7FAEB33FB13F5F0EEA2E7D225
:10184300E7FEEF33FFC5F013A2E730E601B313C59C
:10185300F0C3C0E0C0F07F00C39BFB605E941860E0
:101863000F401D14601AD0E023F9D0E0F8021948A4
:101873008AF0E9486003D2F0E4AFF0FAF9F8803B6C
:10188300EB30E40D89F0EA6003D2F0E4AFF0F9CA7B
:10189300F8EB30E30D88F0EF6002D2F0AFF0E4CA6A
:1018A300C9F8EB54076014FBC3EA13FAE913F9E828
:1018B30013F8EF135002D2E0FFDBEDD0E0C0E030CD
:1018C300E739C3E49FFFF5F0EC98FC42F0ED99FD96
:1018D30042F0EE9AFE42F0D0E0F9D0E0F8E5F06095
:1018E3007AE923F9EE20E742D8028067C3EF33FF9A
:1018F300EC33FCED33FDEE33FE80EAEC28FCED39EE
:10190300FDEE3AFED0E023F9D0E0F84002801BC39D
:10191300EE13FEED13FDEC13FCEF135002D2E0FFC8
:1019230008B800067F7F74FF802EEF3350178CF0CA
:1019330020F00260100CBC000C0DBD00080EBE00B0
:101943000408E860DFE933E813FFEE2313FE4F4D8D
:101953004C8008E95480FFE4FEFDFCEE33EF33F4E2
:101963007004FCFD7E80D0E0FBD0E0FAD0E0F8D03C
:10197300E0CFC618CEC618CDC618CCC6F9220808C3
:1019830008EAC0E0EBC0E086F0E7A4FA180986F0A5
:10199300E7A42AFA180986F0E7A42AFA180986F0B8
:1019A300E7A42AFA1986F0E7A4FBE5F02AFA190856
:1019B30086F0E7A42BFBE5F03AFA190886F0E7A4D2
:1019C3002BFBE5F03AFA18180986F0E7A4C5F02BCB
:1019D300FBE43AFA1908E7C5F0C6A426F6E5F03B9E
:1019E300FBE43AFA1886F0E7A4F6E5F00826F6E4F5
:1019F3003B08F6E43A08F6D0E0FBD0E0FA22E4CF65
:101A0300C0E0E4CEC0E0E4CDC0E0E4CCC0E075F0DB
:101A130020E626F608E633F608E633F608E633F65C
:101A2300181818EC33FCED33FDEE33FEEF33FFC330
:101A3300EC9709ED9709EE9709EF97191919400FDC
:101A4300FFEC97FC09ED97FD09EE97FE191906D5F2
:101A5300F0BFECF709EDF709EEF709EFF7191919DC
:101A6300D0E0FCD0E0FDD0E0FED0E0FF226016081D
:101A73000808C6C313C618C613C618C613C618C6A5
:101A830013C6D5E0EA227009080808226016181860
:101A930018C6C333C608C633C608C633C608C6331A
:101AA300C6D5E0EA22E627F60809E637F60809E68E
:101AB30037F60809E637F622E026F608A3E036F6FD
:101AC30008A3E036F608A3E036F622E026F008A3E2
:101AD300E036F008A3E036F008A3E036F022C3E6D0
:101AE30097F60809E697F60809E697F60809E697D0
:101AF300F622C3E096F008A3E096F008A3E096F080
:101B030008A3E096F022E657F60809E657F6080917
:101B1300E657F60809E657F622E056F608A3E0561C
:101B2300F608A3E056F608A3E056F622E056F008BE
:101B3300A3E056F008A3E056F008A3E056F022E035
:101B4300F608A3E0F608A3E0F608A3E0F622E6F021
:101B530008A3E6F008A3E6F008A3E6F022E0FAA360
:101B6300E0FBA3E0FCA3E0FD22EAF0A3EBF0A3EC8F
:101B7300F0A3EDF022E0F8A3E0F9A3E0FAA3E0FB81
:101B830022E8F0A3E9F0A3EAF0A3EBF022CAC0E055
:101B9300E6F0A308DAFAD0E0FA22CAC0E0E0A3C56F
:101BA30082CCC582C583CDC583F0A3C582CCC58253
:101BB300C583CDC583DAE6D0E0CA22C3E498F8E44E
:101BC30099F9121BFF8026C3E49AFAE49BFBE920F0
:101BD300E7E9121BFFE498F8E499F922C3E498F8C3
:101BE300E499F9121BFFE498F8E499F9C3E49AFA2B
:101BF300E49BFB22EB20E7CFE920E7E0B90010BB31
:101C03000008E88AF084F8AAF022E4FBC8FA22EB81
:101C130070227B10C833C8C933C9335007C39AC372
:101C2300DBF280069A50012ADBEAC833F4C8C933D1
:101C3300F4C9FA2275F008E4C833C8C933C933C9F3
:101C43009AC99B5004C92AC93BD5F0ECFBC833F4AD
:101C5300C8E4C9FA22600D08C6A2E713C618C61362
:101C6300C6D5E0F322600C08C6C313C618C613C654
:101C7300D5E0F422700422600D18C6C333C608C62B
:101C830033C6D5E0F41822254110AF08F541400CC6
:101C930015428008F54140021542D2AF2200C0D060
:101CA300254110AF08F541500C05428008F541501D
:101CB300020542D2AFD0D0222541F58210AF08F5FC
:101CC30041400C15428008F54140021542D2AF85D0
:101CD3004283222541F582E43542F583222541F8EA
:101CE300E43542F9222541FAE43542FB222541FC41
:101CF300E43542FD22E4732541C582C0E0E5423468
:101D0300FFC583C0E0E541C3958224F810AF088581
:101D130083428582418008858342858241D2AFCE4A
:101D2300F0A3E520F0A37821E608F0A3DEFAEFF0B4
:101D3300A3E58124FAF8E608F0A3E608F0A3E60891
:101D4300F0A30808E608F0A3E608F0A315811581BF
:101D5300D0E0FED0E0F8158115811581E8C0E0EEF2
:101D6300C0E0222541C582C0E0E54234FFC583C0FF
:101D7300E0E541C3958224F910AF0885834285824B
:101D8300418008858342858241D2AFCEF0A3E5200E
:101D9300F0A37821E608F0A3DEFAEFF0A3E58124AF
:101DA300FBF8E608F0A3E608F0A30808E608F0A3AA
:101DB300E608F0A315811581D0E0FED0E0F8158187
:101DC3001581E8C0E0EEC0E022854283854182E0D0
:101DD300A3FEE0A3F5207821E0A3F608DFFAE0A351
:101DE300FFE0A3C0E0E0A3C0E0E0A3C0E0E0A3C045
:101DF300E0E0A3C0E010AF088582418583428008FC
:101E0300858241858342D2AFD083D082020132855D
:101E13004283854182E0A3FEE0A3F5207821E0A37D
:101E2300F608DFFAE0A3FFE0A3C0E0E0A3C0E0E030
:101E3300A3C0E0E0A3C0E010AF08858241858342E0
:101E43008008858241858342D2AFD083D08222C06D
:101E5300D02541C582C0E0E54234FFC583C0E0E53B
:101E630041C3958224F310AF088583428582418064
:101E730008858342858241D2AFC8F0A3E9F0A3EA83
:101E8300F0A3EBF0A37921E709F0A3D8FAECF0A3D0
:101E9300EDF0A3EEF0A3EFF0A3D0E0F0A3D0E0F0D9
:101EA300A3D0E0F0A3E520F0A3E5F0F0A322854260
:101EB30083854182E0C0E0A3E0F9A3E0FAA3E0FB5D
:101EC300A37821E0F608A3DFFAE0FCA3E0FDA3E09A
:101ED300FEA3E0FFA3E0C0E0A3E0C0E0A3E0F5D0F1
:101EE300A3E0F520A3E0A3F5F010AF0885834285B6
:101EF30082418008858342858241D2AFD082D083DC
:101F0300D0E0F8D0E03274048006740280027401D9
:101F1300C0E0F404121CBBD0E0121B9022740480B6
:101F23000474028000CCC0E0EDC0E0E541C39CCC6A
:101F3300AD4250011D10AF068C418D4280068C418D
:101F43008D42D2AF121B9DD0E0FDD0E0FC22D083A6
:101F5300D082E9C0E0E493A3C386F0C5F095F0F91D
:101F630008E493A386F0C5F095F0700BE493A3C344
:101F7300994005E9048002A3E475F002A42582F5E3
:101F830082E5F03583F583D0E0F9E493A3C0E0E480
:101F930093C0E022D083D082ECC0E0EDC0E0E493B4
:101FA300A3FCE493A3FDED4C600D121FE3EC24FFAF
:101FB300FCED34FFFD80EFE493A3FCE493A3FDED7C
:101FC3004C600D122022EC24FFFCED34FFFD80EF6A
:101FD300D0E0FDD0E0FCE493A3C0E0E493C0E022B2
:101FE300C0E0C3E49396087401939618400FE493FA
:101FF30066700808740193661870007019A3A3C370
:10200300E49396087401939618A3A3400DD0E0D0EF
:10201300E0D0E0021FD3A3A3A3A3A3A3D0E022C0D5
:10202300E0C0F088F0E493667008087401936618C2
:102033007000A8F0A3A3700BD0F0D0E0D0E0D0E004
:0A204300021FD3A3A3D0F0D0E022C7
:1020500074F5121D66EAFEEBFFEE2434F8EF34004F
:10206000F988218922EE2435F582EF3400F583E0EA
:10207000F8EE2437F582EF3400F583E0F523EC85A4
:1020800023F0A4FCAAF08523F0EDA42AFDE82CF8A7
:10209000E43DF97A257B00121BFFEA852182852227
:1020A00083F0F8740758F97401B900028004C3334F
:1020B000D9FCFAE8131313541FF8EE28F8EF340094
:1020C000F9E8245DF582E93400F583E05A6008EE12
:1020D0002434F582EF802CEE2434F582EF3400F5C1
:1020E00083E0C0E0EE2436F582EF3400F583E0F5BE
:1020F000F0D0E084A8F0EE28F8EF3400F9E82438B6
:10210000F582E93400F583E0F97F04021E1274F5CC
:10211000121D66EAFEEBFFEE2434F582EF3400F583
:1021200083E0C0E0EE2435F582EF3400F583D0E0A3
:10213000F08E828F83A3A3A3A3A3A3A3C082C08393
:102140008E828F83A3A3A3A3A3E0F8A3E0F9D08397
:10215000D082E0C398F521A3E099F522EE247FF523
:1021600082EF3400F583E064017069EE2480F5822B
:10217000EF3400F583E0F8A3E0F98E828F83A3A308
:10218000A3A3A3A3A3E0FCA3E0FD8E828F83A3A35C
:10219000A3A3A3E0FAA3E0FBC3EA9CEB9D5010C30A
:1021A000EC98ED99402EC3EA98EB995027800EC326
:1021B000EA98EB994007C3EC98ED9940177C967D1F
:1021C00005EEFAEFFB120C0DEE247FF582EF3400E2
:1021D000F583E4F0EE2434F8EF3400F9E8FCE9FD8F
:1021E000EE2435F582EF3400F583E0F8EE2437F580
:1021F00082EF3400F583E0F523E5218523F0A4F593
:1022000021AAF08523F0E522A42AF522E82521F869
:10221000E43522F97A257B00121BFFEA8C828D833C
:10222000F0F8740758F97401B900028004C333D977
:10223000FCFAE8131313541FF8EE28F8EF3400F9F2
:10224000E8245DF582E93400F583E05A6008EE2465
:1022500034F582EF802CEE2434F582EF3400F583E0
:10226000E0C0E0EE2436F582EF3400F583E0F5F0CF
:10227000D0E084A8F0EE28F8EF3400F9E82438F52F
:1022800082E93400F583E0F9122E8B022109C08225
:10229000C083854182854283E0F8A3E0F9C3EA9CCC
:1022A000EB9D5010C3EC98ED99401BC3EA98EB9955
:1022B0005014800EC3EA98EB994007C3EC98ED994F
:1022C0004004790180027900D083D08222EAC39C45
:1022D000FAEB9DFB2274EF121D6690045CE064082B
:1022E0006005E06407702A9061C8E0602490048A69
:1022F000E0F4601DE0F875F003A4C8AAF02AF974B0
:102300008C28FE740439FF8E828F83A3A3A3E07010
:1023100003022405906060E0C0E0EE2468F582EFDF
:102320003400F583D0E0F07525FF75260575210092
:10233000752200E5D914F523E5D95403F527601774
:1023400074036527605CE5236010EE2467F582EF77
:102350003400F583E070030223EA9005FAE064019B
:10236000602AEE2482F582EF3400F583E060047881
:102370000480027800852321E521C398FA95E0FBCB
:10238000120AB78A218B22EA45227005120E1780A5
:1023900074EE2482F582EF3400F583E070048A2520
:1023A0008B26E5236012852582852683F524E5D9D1
:1023B000F0A31524E52470F6EE2482F582EF3400B4
:1023C000F583E0604474FC2523F5237825121F0D66
:1023D000AC23A927EEFAEFFB120CAF7402121CA07B
:1023E000E97026AA21AB22121327793D8E828F83B2
:1023F000A3A3A3A3E0FA7B0012098BEEFAEFFB1272
:102400000C25120CC1790080747403652760568511
:102410002329752A007829121F0DAC25AD26AA2183
:10242000AB22120C8B7402121CA0EE2468F582EF12
:102430003400F583E064807004747F8001E0F5254A
:102440007825121F11E527F5257825121F11A923DC
:10245000AC21AD2290048AE0FA7B0012094F74028D
:10246000121CA0801390045CE06408600BAC25ADE6
:1024700026EEFAEFFB120D1B120E2379017F0A02E2
:102480001E1274F5121D6674FC121C8AEAFEEBFF24
:102490008921A2AFE433F522C2AF806AEE2463F84B
:1024A000EF3400F97A007B00A2AFE433F523C2AF2A
:1024B00088828983E0FCA3E0FDEC4D603A88828944
:1024C00083E0FAA3E0FB8A828B83E0FCA3E0FD8833
:1024D000828983ECF0A3EDF08A828B83E4F0A3F091
:1024E00088828983E0FCA3E0FDEC4D700A88828934
:1024F00083A3A3E4F0A3F0E523A2E092AF12132795
:1025000090059DE004F0EE2463F582EF3400F5833E
:10251000E0F8A3E0F9E849603DEE2463F582EF348A
:1025200000F583E02402FAA3E03400FBEA2402F57C
:1025300023EB3400F5247823121F0D8A828B83E06D
:10254000FCA3E0F9EEFAEFFB120C497402121CA096
:10255000E9700302249C90059DE0606390059EE075
:10256000F890059DE0C398500C740265217050905E
:10257000059FE0604A8E828F83A3A3A3A3E08541D9
:1025800082854283F0A3E4F090059DE0F874021286
:102590001CD6E8F0A3E4F090059DE0F890059CE0DF
:1025A00028F07402121CD6AC82AD8385418285422C
:1025B00083AA82AB83790112095B90059DE4F0E563
:1025C00022A2E092AF7404121CA0022109000000B4
:1025D0008544878545C622C0E0C0D0E8C0E0E9C098
:1025E000E0EAC0E0EBC0E0ECC0E0EDC0E0EEC0E04F
:1025F000C021C022C023C024C082C083C0F0A2AFCB
:10260000E433FEC2AF759B00906182E0A2E05012FD
:10261000E591A2E0500C7591FE74016544700312BF
:1026200022D5E0A2E55051E591A2E5504B7591DF2E
:1026300090045CE064076005E06408702374016541
:10264000447035790190048AE0FA75F003A4CAA8B1
:10265000F028FB748C2AFA74043BFB122482801845
:10266000E0640D701390047EE004F064287002E4CE
:10267000F07A00E0F9120E29906182E0A2E64003B0
:1026800002271EE591A2E6400302271E7591BF9026
:10269000045CE064057008120D51120D5D80031298
:1026A0000D57754400120DB7E990045DF0790012E2
:1026B0000DAB120B7D7A017B0090045BE0F91212E6
:1026C000F1907803E0644270559005FEE014F070DC
:1026D0004DC2AF1226D600784DD0E0F618D0E0F605
:1026E000E59F540770057522FF800375227FC4C0E3
:1026F000E0784CE6F52108E65522F522740B7821A6
:10270000121C68D0E02521F8906270E0A2E740F842
:10271000E8C333906272F0906270E0D2E0F09061B2
:1027200081E0A2E35009E5E9A2E3500375E9F7A3CC
:10273000E0A2E75009E591A2E7500375917FEEA270
:10274000E092AFD0F0D083D082D024D023D022D05A
:1027500021D0E0FED0E0FDD0E0FCD0E0FBD0E0FAFC
:10276000D0E0F9D0E0F8D0D0D0E032C0E0C0D0C0A6
:1027700082C083906183E0A2E05009E5BFA2E050EF
:102780000375BFFEE0A2E15009E5BFA2E150037569
:10279000BFFDE0A2E25009E5BFA2E2500375BFFB16
:1027A000E0A2E35009E5BFA2E3500375BFF7E0A242
:1027B000E45009E5BFA2E4500375BFEFE0A2E55085
:1027C00009E5BFA2E5500375BFDFE0A2E65009E5C9
:1027D000BFA2E6500375BFBFD083D0828088C0E01F
:1027E000C0D0E8C0E0E9C0E0EAC0E0EBC0E0ECC087
:1027F000E0EDC0E0C0F0E5A7A2E6500FE5A1A2E63B
:10280000500953A7BF75A1BF122843E5A7A2E55001
:102810000CE5A1A2E5500653A7DF75A1DFE5A7A24D
:10282000E15009E5A1A2E1500375A1FDE5A7A2E2EF
:10283000500CE5A1A2E2500653A7FB75A1FBD0F016
:1028400002275474F8121D6675440190045CE0641C
:10285000067015120CDF8A828B83A3A3A3A3A3A304
:10286000E0FAA3E0FB120D3FA2AFE433FED2AF903B
:102870000462E0640170187A207B0090045BE0F948
:102880001214057A207B0090045BE0F91212F79095
:102890006182E0D2E6F09005FBE0602185C64580CC
:1028A00016900461E064017008E5C654F84405F52B
:1028B000C653BEFC1225D07401654460E4EEA2E06C
:1028C00092AF7F01021E12008E468F4785824B8594
:1028D000834A854182854283E0CEA3E0CF854B8247
:1028E000854A83EBC9EAC8EDCBECCA75F010C3E8A2
:1028F00033C8E933C9EA33CAEB33CBC3EA9EF5499F
:10290000EB9FF548B35004AB48AA49EC33CCED3308
:10291000CDD5F0DAAE46AF472274E9121D6674F8E1
:10292000121C8A854182854283ECF0A3EDF08A2156
:102930008B2290045CE024F7C394055006752101B6
:10294000022AB0120CDF8A238B24AE23AF24EE4F71
:102950007003022AADAC21AD227402121CD6AA82E9
:10296000AB83120D6F8E828F83A3A37525FF75260F
:10297000FF7527FF7528007825121B1C7402121C96
:10298000D67529FF752AFF752BFF752C0078291243
:102990001B1C782579291214F8502A7825792912D8
:1029A0001AE17521017522C875230075240078216C
:1029B00079251214F8505285252185262285272352
:1029C0008528248050752D01752EC8752F0075300F
:1029D00000852921852A22852B23852C247821799D
:1029E00025121AE1782D79211214F8401C75210066
:1029F00075220075230075240178217929121AE1C6
:102A000078217925121AA8800C752101752200758C
:102A1000230075240074097821121A89752519F587
:102A200026F527F52878217925121A018E828F83C1
:102A3000A3A3A3A3A3A3E0F8A3E0F97AD07B031296
:102A40001BFF88258926E4F527F5287821792512AA
:102A50001AA87406121CD6E0F8A3E0F97AD07B031A
:102A6000121BFFE8FA8A25E4F5267821792512144D
:102A7000F8500778217925121AE190045CE0640887
:102A8000600AE064066005E06405702D75250D7828
:102A90002579211214F840217525F47526FF752734
:102AA000FF7528FF78217925121AA8800C7521005E
:102AB000752200752300752400854182854283E0DC
:102AC000F8A3E0F58388827821121B517408121C48
:102AD000A07F10021E1274F7121D66120D81900560
:102AE000F9E064017010906245E4F0A3F053F4F350
:102AF00043FE0C5390F3120D2DE5C654804449F566
:102B0000C6E59E547F644970F8906185740FF0901B
:102B100005F7E0F47002A3E0604E9005F8E060086D
:102B200014601B14602E80407521017522009005F1
:102B3000F7E07821121C77E521F45280802A752174
:102B4000017522009005F7E07821121C77E521F449
:102B5000529080147521017522009005F7E07821CC
:102B6000121C77E521F452A079007F02021E127434
:102B7000F7121D66E9FEEAFF74016E700C7A807B25
:102B80000090045BE0F91212F1902F04E493F460DA
:102B900008E493F9120B71800953C680E59E547FB7
:102BA00070FA120D339005F9E064017003120B8F77
:102BB0009005F7E0F47002A3E0604B9005F8E06048
:102BC0000814601A14602C803D7521017522009054
:102BD00005F7E07821121C77E521428080287521D5
:102BE000017522009005F7E07821121C77E521425B
:102BF0009080137521017522009005F7E07821126D
:102C00001C77E52142A0120D81120CDF8A218B2254
:102C1000A821A922E8496015E5E170FCE82414F533
:102C200082E93400F583E0F46003E0F5E174016FBC
:102C3000700A7A0190045BE0F912137B022B6A742C
:102C4000ED121D668A218B228C238D247413121C95
:102C5000D67825121B42782179251214F87529019E
:102C6000752AC8752B00752C005012782179251211
:102C70001AE1782979211214F850168010782579F4
:102C800021121AE1782979251214F840047901807B
:102C90000279007F0C021E1274ED121D668A218BD0
:102CA000228C238D247413121CD67825121B427893
:102CB0002579211214F8401178217925121AE1AAF8
:102CC00021AB22AC23AD248022752900752A007522
:102CD0002B00752C0178297925121AE178297921A0
:102CE000121AA8AA29AB2AAC2BAD2C80A68A828BFB
:102CF000837521FF7522FF7523FF7524007821124B
:102D00001B2F7F04021E1274F5121D668C828D83A8
:102D10007821121B428A828B837821121AF5EA24C9
:102D200004F8EB3400F98C828D83A3A3A3A3E0FC09
:102D3000A3E0FD88828983C3E09CF0A3E09DF08836
:102D4000828983C3E09420A3E0944E40268A828B3C
:102D5000837521FF7522FF7523FF7524FF782112EB
:102D60001ACE8A828B83A3A3A3A3E02420F0A3E03E
:102D7000344EF0022CED74F5121D66E9FE9005B19B
:102D8000E0FAA3E0FBEEC333F8E433F9745C28F512
:102D900082748139F583E02AF521A3E03BF522789E
:102DA00021121F0D7A407B427C0F7D001228C874CF
:102DB00002121CA08A218B228C238D24741078216E
:102DC000121A70AA21AB227F04021E1274F1121D86
:102DD000668A258B268C278D28740F121CD6E0FA64
:102DE000A3E0FB7411121CD6E0F521A3E0F52278D4
:102DF00021121F0DEA2401F521EB3400F522E4F540
:102E000023F5247825792112198175217175220203
:102E100078257921121981AA25AB26AC27AD281275
:102E200028C87402121CA08B22EA452260047A0191
:102E300080027A00EC2AFCED3400FD7413121CD6DB
:102E4000E0F8A3E0F9E8FEE9FFECF8EDF97A717B30
:102E500002121BFF882189228E828F837821121B08
:102E600051ECF8EDF97A717B02121BFF8A218B225B
:102E700074057821121C778E828F83A3A3A3A3E508
:102E800021F0A3E522F07F08021E12C082C083E970
:102E9000906000F0D083D08222C0E074F2121E5203
:102EA000A2AFE433FED2AFE58AA2E4400CE58AA2E9
:102EB000E64006E58AA2E750031211CB538AEF538E
:102EC0008ABF538A7FC2EB754300EEA2E092AF7FC8
:102ED00001021EB1C0E0C0D0E8C0E0E9C0E0A9A88E
:102EE000D2AFC2C7754300E9A2E7E433F8E9A2E72D
:102EF00092AFD0E0F9D0E0F8D0D0D0E032C2AF024B
:032F0000000022AC
:102F0400FFFFFFFFFFFFFFFF121CA07F02021DCC8B
:102F140074F4121CFA74E9121C8AEAFEEBFF7A10AC
:102F24007B001213638A218B227821121F0D7CE10E
:102F34007D0F7AB57B0F120ADB7402121CA09080FD
:102F4400DDAC41AD427417121B9D8521828522831D
:102F5400E085418285428312306EE0C0E074011244
:102F64001CD6D0E012306EA3E0C0E07402121CD66E
:102F7400D0E012307BE0C0E07403121CD6D0E01223
:102F8400307BA3E0C0E07404121CD6D0E012308978
:102F9400E0C0E07405121CD6D0E0123089A3E0C072
:102FA400E07406121CD6D0E012308FE0C0E0740743
:102FB400121CD6D0E012308FA3E0C0E07408121CBB
:102FC400D6D0E012309BE0C0E07409121CD6D0E0E9
:102FD40012309BA3E0C0E0740A121CD6D0E0F0E5E6
:102FE40021240B123065C0E0740B121CD6D0E0F023
:102FF400E521240C123065C0E0740C121CD6D0E01C
:10300400F0E521240D123065C0E0740D121CD6D0F9
:10301400E0F0E521240E123065C0E0740E121CD6D7
:10302400D0E0F0E521240F123065C0E0740F121CCB
:10303400D6D0E0F0AA21AB221213697521177522AC
:10304400007821121F0D7402121CF0EEFAEFFB122D
:10305400129D7402121CA07417121CA07F04021D7E
:10306400CCF582E43522F583E02212307222F08519
:103074002182852283A32212307F221230832212DE
:103084003072A3A32212307FA3A322123093221200
:103094003083A3A3A3A322123093A3A32274F61212
:1030A4001CFA74C7121C8AE9FE90816C7404121C09
:1030B400F07410121B9D7404121CE088218922787C
:1030C40021121F0D7CF77D0F7AB57B0F120ADB747A
:1030D40002121CA09080C6741E121CF07417121BDE
:1030E4009D7404121CD6E0C0E0741E121CD6D0E0FD
:1030F400F07405121CD6E0C0E0741F121CD6D0E098
:10310400F07406121CD6E0C0E07420121CD6D0E085
:10311400F07407121CD6E0C0E07421121CD6D0E073
:10312400F07408121CD6E0C0E07422121CD6D0E061
:10313400F07409121CD6E0C0E07423121CD6D0E04F
:10314400F0740A121CD6E0C0E07424121CD6D0E03D
:10315400F0740B121CD6E0C0E07425121CD6D0E02B
:10316400F0740C121CD6E0C0E07426121CD6D0E019
:10317400F0740D121CD6E0C0E07427121CD6D0E007
:10318400F0740E121CD6E0C0E07428121CD6D0E0F5
:10319400F0740F121CD6E0C0E07429121CD6D0E0E3
:1031A400F07410121CD6E0C0E0742A121CD6D0E0D1
:1031B400F07411121CD6E0C0E0742B121CD6D0E0BF
:1031C400F07412121CD6E0C0E0742C121CD6D0E0AD
:1031D400F07413121CD6E0C0E0742D121CD6D0E09B
:1031E400F0EE900301F01212677C067D007A1F7BDB
:1031F400001205A1854182854283E4F0741C121CEF
:10320400D67488F0A37413F07401121CD67401F000
:10321400741A121CD6740AF0A3E4F07418121CD6A3
:103224007414F0A3E4F07416121CD6E4F0A3F07442
:1032340014121CD67464F0A3E4F0AC41AD427901DD
:103244007A057B0312141D741C121CF079027A0691
:103254007B0312141D741E121CF079177A087B0369
:1032640012141D7CC57D0F79077A077B0312141D88
:103274007401121CF079017A107B0312141D741A64
:10328400121CF079027A117B0312141D7418121C9B
:10329400F079027A127B0312141D7416121CF07951
:1032A400027A137B0312141D7414121CF079027A2F
:1032B400147B0312141D7CCC7D0F7A157900120740
:1032C4001B7CA07D007A067B001205A17CA07D00FA
:1032D4007A077B001205A17CA07D007A087B00128E
:1032E40005A17CA07D007A097B001205A17435122A
:1032F4001CD612511A04121CD67401F08541828521
:103304004283F07403121CD6E4F07402121CD674C7
:1033140001F07435121CF079047A087B041210ABA6
:103324007401121CF079017A007B041210ABAC41D9
:10333400AD4279017A027B041210AB7403121CF0C3
:1033440079017A037B041210AB7402121CF0790128
:103354007A067B041210AB908262121B6012072162
:10336400908262121B60120829121021908262124C
:103374001B60121033900301E0F91212851214CB72
:103384001204631204691214A11214B31212491222
:10339400105D1210631212619082C6AC41AD42748A
:1033A40001121B9DA841A942882189227821121F5C
:1033B4000D7C017D007AF07B1F1211A77402121C90
:1033C400A0854182854283E064AA60031204B1129D
:1033D40012137AF47B011211EF7AF57B0F12103974
:1033E4007901120925790212091F790012092B7932
:1033F400011209317A017B00900301E0F91212F104
:1034040079011213757439022F0C74EC121CFA74BE
:10341400FD121C8A8923908284AC41AD427403124C
:103424001B9D7A10FB1213638A218B22AE21AF22DB
:10343400C2AFA841A942882189227821121F0D7C9C
:10344400017D007AFE7B1F1211A77402121CA07466
:1034540001121CD68582218583227821121F0D7CBE
:10346400017D007AFF7B1F1211A77402121CA07445
:1034740002121CD68582218583227821121F0D7C9D
:10348400017D007AF07B1F1211A77402121CA0D2D6
:10349400AF1204758A218B221204758A258B261299
:1034A40004758A278B28A827A928C3E5219525E533
:1034B4002295265052C3E52598E526994052C3E546
:1034C4002198E52299405A85212985222AE4F52B61
:1034D400F52C7829121537900B517829121B518538
:1034E4004182854283E0603FF525E4F526F527F522
:1034F40028782512153778297925121742900B510F
:103504007829121B518046C3E89525E99526500871
:1035140085252985262A80B5C3E89521E995225079
:10352400A68829892A80A67401121CD6E0F8601D99
:103534008825E4F526F527F528782512153778250A
:103544007929121767900B517825121B51900B5152
:103554007825121B429082367829121B42782579ED
:10356400291216F65007900B557464802978251299
:103574001594E52524BDF8E52634F9F9E875F064D9
:10358400A4F8AAF075F064E9A42AF97A547B01122C
:103594001BFFE8900B55F07401652370518E828FE8
:1035A400837431F0EE2402F8E43FF9E8FAE9FBA36E
:1035B400A882A98375F00A900B55E084940A888246
:1035C4008983400A7401F08A828B83E4801AE4F0D0
:1035D400900B55E0F875F00A84A9F075F00AE884B8
:1035E400C454F0298A828B831252CC12103FEEFA13
:1035F400EFFB121369900B55E0F97403121CA07FC2
:103604000C021DCC74E8121CFA74E2121C8AEAFE45
:10361400EBFF5480603A900301E0F91212D98A2139
:103624008B22EA452260218A828B83E064C0701178
:10363400A3A3A3E0FA8521828B83A3A3E0F9120458
:1036440093AA21AB221212C7EEFAEF6480024967F3
:10365400EEA2E050147AF17B0F1214297A067B0350
:103664001210C9EE64010249655402602012049FDD
:1036740090822E121F207A027B00900301E0F9123F
:1036840013F97404121CA0EE6402024965EE54405E
:1036940070030239189080817407121CF074171299
:1036A4001B9D900303E0700474018001E4F07C0529
:1036B4007D0079007A177B0B121465900B50E4F0AF
:1036C400900303E0640185418285428360030237ED
:1036D400B27401F07900121375900B4EE4F07C4E35
:1036E4007D0A7AC479801213D5900B56E0603AC2F1
:1036F400AF75219475220B7821121F0D7C2C7D034C
:103704007A007B001211A77402121CA07521C075E7
:10371400220E7821121F0D7CF47D007A007B10129A
:1037240011A77402121CA0D2AF12109312121F79A7
:10373400001212737A027B00900301E0F91212F175
:1037440090820A121F207A007B01900301E0F91293
:1037540013F97404121CA07A007B40900301E0F971
:103764001212F1908206121F207A407B009003010E
:10377400E0F91213F97404121CA012142FAC41AD19
:103784004279017A057B0312141D7407121CE81296
:10379400047B7407121CF079177A087B0312141D3A
:1037A4007CCC7D0F7A15790012071B023912E4F0E4
:1037B40012142FAC41AD4279017A057B0312141D1A
:1037C400900B1FE4F0900B56E06025900B2DE4F075
:1037D400900B4FF0900B2EF0900B1DF0900B93F08C
:1037E400900B1CF0900B14126015900B4AF08003A0
:1037F40012148312125B1214B312105D900B56E074
:103804006074900B4CE064426008900B4EE06401DD
:10381400700FC2AF7C4E7D0A7AC479801213CFD266
:10382400AF900B4CE0F860057442687008900B4E42
:10383400E064027041C2AF75219475220B782112A5
:103844001F0D7C2C7D037A007B001211AD740212D3
:103854001CA07A0A7B001211EF7521C075220E7824
:1038640021121F0D7CF47D007A007B101211AD74BF
:1038740002121CA0D2AF1212257A007B2090030101
:10388400E0F91214057A087B00900301E0F91214A0
:10389400057A047B00900301E0F91214057A027B97
:1038A40000900301E0F91214057A407B00900301B3
:1038B400E0F91214057A007B02900301E0F9121476
:1038C400057A007B04900301E0F91214057A007B69
:1038D40010900301E0F91214057A007B08900301AB
:1038E400E0F91214057A007B01900301E0F9121447
:1038F400057A107B00900301E0F91214057A007B2D
:1039040040900301E0F91214057901121375EE6475
:1039140040024965EF54027003023A109080987493
:1039240007121CF07417121B9DFA7B02900301E02E
:10393400F91214057A007B04900301E0F9121405CE
:10394400900B1FE0700474018001E4F0900B2DE4EF
:10395400F01214B3900B45E4F0900B2E1251401268
:103964001465900B1FE0854182854283602EE4F04C
:1039740012142FAC41AD4279017A057B0312141D58
:103984007A027B00900301E0F91214057A007B08A7
:10399400900301E0F9121405790380657401F012B3
:1039A400142FAC41AD4279017A057B0312141D74C6
:1039B40007121CE812047B7407121CF079177A08AA
:1039C4007B0312141D7CCC7D0F7A15790012071B22
:1039D40090822E121F207A027B00900301E0F912DC
:1039E40013F97404121CA07A007B10900301E0F90F
:1039F4001214057A007B20900301E0F91214057972
:103A040027121273EEFAEF6402024967EF5404704E
:103A140003024019900B2EE4F0FA7B04900301E0BA
:103A2400F91214057A007B10900301E0F9121405D1
:103A3400900B22E0F8900B2DE06033147003023BEE
:103A44000A147003023C45147003023D57147003BA
:103A5400023D9C147003023E21147003023EBC1408
:103A64007003023F56147003023F8802400375211D
:103A7400067522007821121F0D7C227D0B7A4E7B65
:103A84000A12145F7402121CA0E9603290821612AA
:103A94001F207A407B00900301E0F91213F97404AB
:103AA400121CA0900B2D7401F079221212737C0A5F
:103AB4007D0079FF7A227B0B121465024003900B80
:103AC4002DE4F07904121273900B45E00412513086
:103AD400121465900B45E0C3940650030240031290
:103AE40010937A717B0812109FEAF8EBF9ECFAED67
:103AF400FB900B46121B847A407B00900301E0F993
:103B04001212F10240037521027522007821121F5E
:103B14000D7C227D0B7A077B1012145F7402121C39
:103B2400A0E96032900B2D7402F0790512127390A3
:103B34000B2DE0C39402401790825E121F207A007E
:103B44007B10900301E0F91213F97404121CA09085
:103B54000B2EE40240027821121F0D7C227D0B7A89
:103B6400097B1012145F7402121CA0E9600A900B06
:103B74002D7403F0790980B47821121F0D7C227D05
:103B84000B7A0B7B1012145F7402121CA0E9600FF5
:103B9400900B2D7404125130121465790D808D78B8
:103BA40021121F0D7C227D0B7A0D7B1012145F7481
:103BB40002121CA0E9601A7912121273900B2D7470
:103BC40005F07A007B20900301E0F91212F1023B28
:103BD400337821121F0D7C227D0B7A0F7B10121477
:103BE4005F7402121CA0E9600C7912121273900B1C
:103BF4002D740680CC7821121F0D7C227D0B7A1146
:103C04007B1012145F7402121CA0E9600B900B2D40
:103C14007407F07919023B307821121F0D7C227D44
:103C24000B7A137B1012145F7402121CA0E9900B20
:103C34002D60087408F0791D023B307401F0023BDA
:103C4400537A107B001213638A218B22900B14E0A9
:103C540064016003023D42900B23E0640B6009A3FE
:103C6400E0640B6003023D421249C8121C77745E83
:103C7400125FE5740A3524F583E0F46003023D2500
:103C8400E9900B427005E044118008E04421126081
:103C94002F4441F01249C8121C77744E2523FA743C
:103CA4000A3524FBEA2410F582E43BF583E912602B
:103CB4000B121F0D7C3C7D0BEA2411FA50010B12F0
:103CC400129D7402121CA07C0679007A3C7B0B12B4
:103CD40004ABE9F8852182852283742FF0900B15BB
:103CE4001249BFF0900B421249BFA3F0E88521822C
:103CF400852283A3A3A3F0AC21AD227A107901120B
:103D0400103F79071212737C077D0079007A3C7B9F
:103D14000B1214657C4E7D0A7AC479801213CF800D
:103D24001D854182854283E4F012142FAC41AD42DB
:103D340079017A057B0312141D7924121273AA21C6
:103D4400AB22121369900B1574FFF0900B14E4F07E
:103D5400023FFD7521067522007821121F0D7C2279
:103D64007D0B7A2F7B0B1212AF7402121CA0E96038
:103D7400207821121F0D7C2F7D0B7A4E7B0A1212A4
:103D84009D7402121CA0900B4CE04442F0790B800D
:103D940002790C1212738075752106752200782140
:103DA400121F0D7C227D0B7A2F7B0B1212AF740233
:103DB400121CA0E9604C900B16E0FC8C2174047872
:103DC40021121C7774942521F8740B3522F9E8FA32
:103DD400E9FBEC8A828B83A3F075210675220078B7
:103DE40021121F0D7C2F7D0BEA2402FA50010B12C5
:103DF400129D7402121CA0900B4CE04444F0791103
:103E04008002790C121273900B1674FFF07C067DFD
:103E14000079BB7A2F7B0B121465023FFD7A087B75
:103E2400001213638A218B229081B67401121CF054
:103E34007406121B9D900B22E0640B6003023F4C3E
:103E440075250085252375240074047823121C77B6
:103E5400124983121F0D7403121CF0AA23AB2412FF
:103E6400145F7402121CA0E9603C752506752600D7
:103E74007825121F0D7C357D0BAA23AB2412129DCD
:103E84007402121CA0900B2D7401F07C067D007945
:103E9400BB7A357B0B121465900B4CE04448F079E7
:103EA40014121273800F7409652560090525E52530
:103EB400C3940A408E023F4C7A087B001213638A33
:103EC400218B227523027524007823121F0D7C2276
:103ED4007D0B7A157B1012145F7402121CA0E9602A
:103EE4006775250085252375240074047823121C26
:103EF40077124983121F0D7C357D0BAA23AB241244
:103F0400145F7402121CA0E9602A7C067D0079FF0C
:103F1400AA23AB241214657C067D0079BB7A357B19
:103F24000B121465900B2D12602D4448F079181271
:103F340012738014740965257005791712127305BC
:103F440025E525C3940A409CAA21AB2212136902D9
:103F54003FFD740B686003023FFD7C077D0079BB65
:103F6400900B16E0F5218D2274047821121C7774CD
:103F7400952521FA740B3522FB121465900B4CE045
:103F84004444806F740B6870707521067522007844
:103F940021121F0D900B15E0F52174047821121CD9
:103FA40077745F2521FC740A35221260B712129DC2
:103FB4007402121CA0900B93E004F0900B151251A4
:103FC4005F121C77744E2521FA740A3522FBEA2409
:103FD40010F582E43B12499DEA2411FA50010B12B8
:103FE40014657C4E7D0A7AC479801213CF900B4CF1
:103FF400E04441F0791B121273900B2D7401F09080
:104004000B1574FFF0A3F012513C121465EEFAEF95
:104014006404024967EE5408603C900B12E06401AA
:10402400702E900302E064057026900B4CE0602033
:10403400900B1FE0701A1260737A177B101204AB96
:10404400E9900B43F07C177D107A10790112103F30
:10405400EE6408024965EF5408700302422F7A00A7
:104064007B08900301E0F9121405900B56E07003ED
:104074000241FB75230085232185212575260074C3
:10408400047825121C7774942525F525740B3526A0
:10409400F5267527067528007827121F0D7C227DCA
:1040A4000BE5252443FAE5263401FB12145F740260
:1040B400121CA0E96027900EC17404F0E523A3123A
:1040C400602F44601251301214657C107D0079BB5E
:1040D400E5252442FAE5263401FB024198782712AB
:1040E4001F0D7C227D0BE5252402FAE43526FB1204
:1040F400145F7402121CA0E96008900EC1740102DE
:104104004191E52175F007A4F521E5F0F5227494B9
:104114002521F521740B3522F52275250675260017
:104124007825121F0D7C227D0BE52124E3FAE5227C
:104134003401FB12145F7402121CA0E96007900E94
:10414400C1740580487825121F0D7C227D0BE52162
:104154002429FAE5223402FB12145F7402121CA013
:10416400E96007900EC1740680237825121F0D7C28
:10417400227D0BE521246FFAE5223402FB12145F41
:104184007402121CA0E9601D900EC17407F0E523AF
:10419400A31251301214657A107B00900301E0F9E8
:1041A4001212F1804B740965237039900B45E004B9
:1041B400F0C39406401C1210937A717B0812109F6E
:1041C400900B46121B6C7A407B00900301E0F912BD
:1041D40012F179041212737C0A7D0079FF7A227B32
:1041E4000B1214650523E523C3940A500302407A95
:1041F400900B2EE4F0802C900B45E004F0C3940661
:10420400401C1210937A717B0812109F900B461277
:104214001B6C7A407B00900301E0F91212F17904DF
:10422400121273EEFAEF6408024967EF5401700347
:104234000243381210937A717B0812109F8A218BE3
:10424400228C238D24752700AA278A2575260074BD
:10425400027825121C7774942525F52D740B3526C8
:10426400F52EE52D24B4F525E52E3402F526EA7560
:10427400F007A4FAABF074942AF52F740B3BF530D5
:104284008525828526837829121B4290825A7829B3
:10429400121ABB782979211214F8400E1249A92464
:1042A400E2FAE5303401FB121465E52D24DCF52532
:1042B400E52E3402F526852582F5837829121B42E2
:1042C4009082527829121ABB782979211214F84065
:1042D4000E1249A92428FAE5303402FB121465E5CC
:1042E4002D2404F525E52E3403F526852582F58352
:1042F4007829121B4290823A7829121ABB782979BC
:10430400211214F8400E1249A9246EFAE530340241
:10431400FB1214650527E527C3940A500302424C97
:104324007A007B01900301E0F9121405EEFAEF64C0
:1043340001024967EE54107003024562900B4FE08E
:10434400600C7A007B40900301E0F9121405900B95
:104354001CE0F860057403687015E004F090030530
:10436400E0700474018001E4F090820A024548740C
:10437400016860030244C0121093900B4CE0445057
:10438400F0900FB3E0C39410400A740FF0900EC085
:10439400F0121459900EC0E0C0E0F52175220074AB
:1043A400047821121C7774B3125107740E124998C1
:1043B400D0E0F0900EC1E0C0E012515C121C7774A2
:1043C400B4125107740E124998D0E0F0900EC2E076
:1043D400C0E012515C121C7774B5125107740E12AE
:1043E4004998D0E0F0900871E0C0E012515C121CD2
:1043F4007774B6125107740E124998D0E0F0900801
:1044040072E0C0E012515C121C7774B71251077449
:104414000E124998D0E0F0900873E0C0E012515CAD
:10442400121C7774B8125107740E124998D0E0F038
:10443400900874E0C0E012515C121C7774B91251F8
:1044440007740E124998D0E0F0900875E0C0E012AD
:10445400515C121C7774BA125107740E124998D029
:10446400E0F0900876E0C0E012515C121C7774BB57
:10447400125107740E124998D0E0F0900FB3E00483
:10448400F0900EC0F0900B1CE004F012124F9082DA
:104494002E121F207A107B00900301E0F91213F909
:1044A4007404121CA07A027B00900301E0F9121438
:1044B40005908232121F207A4002454D74046870C0
:1044C400087405F012125580787406687053E4F08D
:1044D400900B45F07A10FB900301E0F9121405905B
:1044E400822A121F207A027B00900301E0F9121342
:1044F400F97404121CA0908226121F207A407B00BB
:10450400900301E0F91213F97404121CA0900B4FEC
:10451400E060457A007B40900301E0F91212F180DB
:104524003774026870107403F012125B791F121250
:1045340073908226800E740568701D7406F0121242
:104544005B90822E121F207A107B00900301E0F909
:104554001213F97404121CA0EE6410024965EE549F
:1045640004601512142F7A047B00900301E0F91201
:104574001405EE6404024965EE54806048A2964036
:104584001B79001212737A407B00900301E0F91248
:10459400140590821E121F207A8080147A807B007A
:1045A400900301E0F9121405908232121F207A4020
:1045B4007B00900301E0F91213F97404121CA0EEBD
:1045C4006480024965EE542070030246A57A207B7C
:1045D40000900301E0F9121405A29750030246A5C6
:1045E4009082C3AC41AD427401121B9D7901121239
:1045F400737AC87B001211EF121483121477121409
:104604007D121471C2AF7C4E7D0A7AC47980121374
:10461400CF75219475220B7821121F0D7C2C7D03FC
:104624007A007B001211AD7402121CA07A0A7B007E
:104634001211EF7521C075220E7821121F0D7CF422
:104644007D007A007B101211AD7402121CA0A841E7
:10465400A942882189227821121F0D7C017D007ACC
:10466400F07B1F1211AD7402121CA07821121F0DD1
:104674007C017D007AFE7B1F1211AD7402121CA016
:104684007821121F0D7C017D007AFF7B1F1211AD72
:104694007402121CA0D2AFC2AF75C9AB75C95B80DE
:1046A400FEEF5420700302486E7A087B00121363F5
:1046B4008A238B247A007B10900301E0F9121405FD
:1046C400EEF521EF6420F522900B2DE064057034A3
:1046D4007525067526007825121F0D7C277D107A16
:1046E400C57B0C12145F7402121CA0E970167928A1
:1046F40012127312513C121465900B2D7401F07A4E
:104704000002480BAA23AB241214C5E97003024823
:10471400497A00EAF8E52328F582E43524F583A3F1
:10472400E070037430F00AEAC3940640E6852382FD
:10473400852483A3AE82AF83900B2DE0F8740568C3
:1047440070627525007527067528007827121F0DDD
:10475400EEFCEFFD85252774047827121C77124997
:104764007812145F7402121CA0E9602B79331212C0
:104774007312513C121465900B2D7401F090821247
:10478400121F207A007B10900301E0F91213F974D0
:1047940004121CA002483B0525E525C3940A40A544
:1047A4007913804D74066870737525007527067536
:1047B40028007827121F0DEEFCEFFD8525277404D1
:1047C4007827121C7712497812145F7402121CA005
:1047D400E96023908212121F207A007B109003015B
:1047E400E0F91213F97404121CA0900B2EE4F07972
:1047F4001612127380267409652570177917121220
:1048040073900B2EE4F0FA7B20900301E0F912146C
:104814000580500525E525C3940A40907525067545
:1048240026007825121F0DEEFCEFFD7A357B0B1266
:10483400129D7402121CA07A007B20900301E0F9FF
:10484400121405801790822E121F207A007B20906C
:104854000301E0F91213F97404121CA0AA23AB2477
:10486400121369AA21AB2202496EEF5410605085DD
:104874004182854283E4F0FA7B10900301E0F9124F
:104884001405900B14E06401701012142FAC41ADA8
:104894004279017A057B0312141D900B2D7401F0EB
:1048A40079211212737C0A7D0079FF7A227B0B1224
:1048B4001465900B2EE4F0EEFAEF6410024967EFF2
:1048C4005440700302496A900B4FE004F0F8EF641F
:1048D40040FF74F928C3940250327A177B0B1214E8
:1048E4006BE9F521120469E521C394025056792538
:1048F40012127390822E121F207A007B40900301C3
:10490400E0F91213F97404121CA08054E8C394074C
:10491400E8502C604B12046F7900120487900B4FFF
:10492400E0F8C394024013900B55E0C0E0741528DE
:10493400F582E4340BF583D0E0F090822A80B7C38B
:10494400940A401C900B4FE4F07C05FDF97A177B28
:104954000B1214657A007B40900301E0F9121405F0
:10496400EEFAEFFB80047A007B00741E121CA07F19
:1049740010021DCC74352527FA740C3528FB2274DB
:10498400352523F523740C3524F52475270675285D
:10499400007827223522F58322F58374FFF07C0703
:1049A4007D00790022852582852683E4F0A3F0A387
:1049B400F0A3F07C07FD79BBE52F22E085218285F9
:1049C4002283A322900B15E0F98923752400740433
:1049D40078232274F0121CFA74DC121C8AEAFE7426
:1049E400016E60030250C9900303E0640160030296
:1049F4004ADA900B1CE06003024AE5121219E990AE
:104A0400102DF0F46051790012127390102DE0C053
:104A1400E0900B2EE0F8742228F582E4340BF58341
:104A2400D0E0F0900B2EE004F0900B1FE0700C7AB5
:104A3400027B00900301E0F9121405900B4FE06033
:104A44000C7A007B40900301E0F912140590820671
:104A5400121F207A40800E900B1FE0701E90826A15
:104A6400121F207A027B00900301E0F91213F974FB
:104A740004121CA090102DE0F47012900B4FE06013
:104A8400287A007B40900301E0F91212F1900B2D7B
:104A9400E0C39402401390102DE0F4602D7A007B63
:104AA40010900301E0F912140590102DE0640A70CF
:104AB400199081E6121F207A007B02900301E0F92D
:104AC4001213F97404121CA0800C7A007B02900368
:104AD40001E0F9121405900303E06401600302503D
:104AE4007590102DE0F46072900B1CE0706C900BCC
:104AF4001FE0700302503C908226121F207A007B34
:104B040004900301E0F91213F97404121CA0900B31
:104B14002EE0FA900B2DE0603014607E14700302D6
:104B24004BDD147003024CE5147003024D471470FE
:104B340003024E6B147003024EC3147003024F0B36
:104B4400147003024F850250C912510C7003024FB6
:104B54007DEAC3940A4003024F7D7A807B00900370
:104B640001E0F912140574106E60030250EF900313
:104B740003E0700C7A407B00900301E0F91212F11B
:104B840090826A121F207A207B00900301E0F912C0
:104B940013F97404121CA00250FB74026A700B9087
:104BA400102DE0640B70B3024F7DEAC3940340AA56
:104BB4007930121273900B2EE4F0900B2D04F07ADE
:104BC400007B04900301E0F91214057A007B109035
:104BD4000301E0F912140580819080AF740D121C5A
:104BE400F07417121B9DEAC394025003024CB39055
:104BF400102DE0640B6003024CB374036A70051259
:104C0400514B800B74026A700A900B22E024D090FE
:104C14000B15F0900B1512515F121C77125105748D
:104C24000A123068F485418285428370597401F018
:104C3400793412127312142FAC41AD4279017A0502
:104C44007B0312141D740D121CE812047B740D12E4
:104C54001CF079177A087B0312141D7CCC7D0F7A23
:104C640015790012071B900B147401F09082121234
:104C74001F207A007B10900301E0F91213F97404E9
:104C8400121CA0024E5CE4F012142FAC41AD427928
:104C9400017A057B0312141D7906121273900B1509
:104CA40074FFF0900B14E4F0900B2D04024E56EABE
:104CB400C39404501374036A6003024B5E90102D76
:104CC400E0640B7003024B5E7930121273900B2E6A
:104CD400E4F0125123900B1412513F121465024B4D
:104CE400C374066A6003024B5E900B34E064BB75C8
:104CF40021067522007821702D121F0D7C227D0B58
:104D04007A2F7B0B12129D7402121CA07C0A7D0068
:104D140079FF7A227B0B121465900B2EE4F0790A4A
:104D2400121273024B5E121F0D7C227D0B7A2F7BB5
:104D34000B12145F7402121CA0E96003024E2A795C
:104D44000C804EEAC39402404E90102DE0640B7028
:104D54004674036A700512514B800B74026A700A20
:104D6400900B22E024D0900B16F0900B1612515F9A
:104D7400121C777495125107740B12306864BB606F
:104D84000E7910121273900B16125126024FDA7913
:104D94000E121273024E5C900B16E0F8EAC39404F0
:104DA400401474FF68700F7930121273900B2D74D5
:104DB40001F0A3024CDC74066A6003024B5E900BA4
:104DC40034E064BB703A74FF687003024B5E752173
:104DD400067522007821121F0D7C227D0B7A2F7B11
:104DE4000B12129D7402121CA07C0A7D0079FF7ABA
:104DF400227B0B121465900B2EE4F0790F024D24E4
:104E040074FF687003024B5E7521067522007821D9
:104E1400121F0D7C227D0B7A2F7B0B1212AF7402B2
:104E2400121CA0E9600F7A007B04900301E0F912E0
:104E340012F1024FE7790C121273900B1674FFF003
:104E44007C067D0079BB7A2F7B0B121465900B2DA9
:104E540074011251301214657A007B04900301E04E
:104E6400F9121405024FE79081C27407121CF07402
:104E740006121B9D90102DE0640B702774016A705C
:104E8400227521067522007821121F0D7409121C47
:104E9400F07A357B0B12145F7402121CA0E9705374
:104EA40002502DEAC394024003024FF574016A6074
:104EB40003024B5EE0640B6003024FF5024B5E900D
:104EC40081E07401121CF07406121B9D74026A7056
:104ED4002A7521067522007821121F0D7403121CF5
:104EE400F07A357B0B12145F7402121CA0E9700374
:104EF40002502D7912121273024FE7EAC394035041
:104F040003024B5E024FF590102DE0640B7051EAE2
:104F1400C39402404B74036A700512514B800B74A6
:104F2400026A700A900B22E024D0900B16F0900BCA
:104F34001612515F121C777495125107740B1230BC
:104F44006864BB700D791C121273900B16125126F3
:104F54008005791A12127312513C121465024B5EC9
:104F6400EAC394044003024FF5E0640B6003024B70
:104F74005E74016A6003024B5E900B2EE4F00250F3
:104F84002DEAC39402406490102DE0640B705C74AD
:104F9400036A700512514B800B74026A700A900BFD
:104FA40022E024D0900B15F0900B15E0F9892175BF
:104FB400220074047821121C77125105740A1230ED
:104FC40068F46003E9700A791C1212731251238089
:104FD40012791E1212737C0A7D0079FF7A227B0BF0
:104FE400121465900B2EE4F0024B5EEAC394044065
:104FF400257930121273900B2D7401F0A312513FD6
:105004001214657A007B10900301E0F91214057AFA
:10501400007B04024BD374016A6003024B5E901060
:105024002DE0640B6003024B5E7A007B0490030165
:10503400E0F91212F1024B5E900B2EE0FA12510CC1
:105044006006EAC3940A40067A007B0880DFEAC35C
:1050540094065003024B5E90826A121F207A007BF2
:1050640008900301E0F91213F97404121CA0024B16
:105074005E900B2EE4F0900B45E0C39406403F1283
:1050840010937A717B0812109F8A218B228C238DB6
:1050940024900B467825121B429081EA7825121A37
:1050A400BB782579211214F8404D900B4512511A02
:1050B400A3F09081EE121F207A407B0080A37A40F7
:1050C4007B0002503174026E6003024B5E90030356
:1050D400E0700C7A407B00900301E0F91212F17A3F
:1050E400807B00900301E0F91212F17A207B00909A
:1050F4000301E0F91214057424121CA07F08021D98
:10510400CC745E2521F5822274212AF582E4340BC5
:10511400F583E0640B22E4F0A3F0A3F0A3F0229063
:105124000B1574FFF0900B2D7401F022F07C0A7DB6
:105134000079FF7A227B0B22900B2EE4F07C0AFD8F
:1051440079FF7A227B0B2275F00A900B22E0540F30
:10515400A4F8A3E0540F2822900EC0E0F521752294
:1051640000740478212274F4121CFA74F1121C8A5B
:105174008921E914601014700302521324FD700392
:105184000252410252BD7409121CF07A047B0312CC
:1051940014237409121CD6E0C0E07401121CD6D08A
:1051A400E0F0740A121CD6E0C0E07402121CD6D0DF
:1051B400E0F0740B121CD6E0C0E07403121CD6D0CD
:1051C400E0F07405121CD6E4F07404121CD6E4F06A
:1051D400740E121CD6E0C0E07408121CD6D0E0F0A5
:1051E400740D121CD6E0C0E07407121CD6D0E0F097
:1051F400740C121CD6E0C0E07406121CD6D0E0F089
:105204007401121CF07A0879001210270252BD852D
:105214004182854283E4F07A04FB900301E0F912B1
:105224001405900303E060030252BD12142FAC4135
:10523400AD4279017A057B0312141D807C900B1416
:10524400E064017043900B1FE0640170607A107B8E
:10525400001213638A238B24AE23AF248E828F83A0
:105264007401F0A3744FF08E828F83A3A3744B1246
:1052740052CC12103F7A047B00900301E0F912141F
:1052840005EEFAEFFB121369900B12E0701F900BFE
:1052940014E070199081F2121F207A047B009003AD
:1052A40001E0F91213F97404121CA0800C7A047B37
:1052B40000900301E0F9121405E521900302F07453
:1052C4000F02305DE9900B43F0EEFCEFFD7A1079AC
:1052D400012274F4121CFA74FF121C8A7A087B00EF
:1052E4001213638A218B22AE21AF2285418285422B
:1052F40083E4F0900B12E06023900B1DE0640170D6
:105304001B900B4CE0701512142FAC41AD42790187
:105314007A057B0312141D900B1DE4F0EEFAEFFBEB
:105324001214C5E970030253AF7A00EAF8EE28F5C7
:1053340082E43FF583A3E070037430F00AEAC39477
:105344000640E87521007523067524007823121F92
:105354000D8E828F83A3AC82AD8385212374047860
:1053640023121C7774352523FA740C3524FB12148C
:105374005F7402121CA0E9601B1214A7900EC17482
:1053840003F0E521A3F07A107B00900301E0F91209
:1053940012F180177409652170081214AD79011295
:1053A40012730521E521C3940A409BEEFAEFFB1228
:1053B4001369740102305D74F0121CFA900303E067
:1053C40064016003025FE0E9600A24FE700302598D
:1053D400F2025FE07A1A7B03790012104575230A02
:1053E4007524037823121F0D7C1A7D037AB57B0F75
:1053F400120B357402121CA07C4E7D0A7AC479808B
:105404001213D590030AE014601D1470030255FCB6
:1054140014700302571824FB700302599424F87083
:10542400030259DA025FE0752200852223852325D1
:1054340075260074047825121C77744E2525FE7495
:105444000A3526FFEE2411F525E43FF526752706D7
:105454007528007827121F0D7C0B7D03AA25AB2627
:1054640012145F7402121CA0E970030255689003C1
:10547400047401F012046F7901120487120469E5BF
:1054840022900B93F07A047B00900301E0F912144C
:1054940005E522900B12702712602D6025900B1FDA
:1054A400E0701F1260737A2E7B101204ABE9900B2C
:1054B40043F07C2E7D107A10790112103F80037422
:1054C40002F0EE2417F8E43FF9E8FAE9FB9003113F
:1054D400E0F523540FFC8A828B83E0540F6C700137
:1054E400E46003E523F0740F5523F8740168700B2E
:1054F400900B137401F0900B1E800A7402687006FE
:10550400900B137402F074F05523703090032A74D6
:1055140021F0E522A3700474118002742112604BFF
:1055240012103F900B14E064017011900B2D740164
:10553400F0A3E4F07933121273025FE0900311E0F8
:1055440054F064306003025FE0EE2410F582E43F1F
:1055540012499DAA25AB26121465900B13E4126020
:1055640015025C5574096522702F900B14E06401D8
:1055740070277525077526007825121F0D7C0B7D75
:10558400037A3C7B0B12129D7402121CA07A007BDE
:1055940004900301E0F91212F1E52375F006A4F575
:1055A40023E5F0F52474572523FE740B125FEA12E9
:1055B4001F0D7C0B7D03EEFAEFFB12145F740212D5
:1055C4001CA0E9602490032A74CCF0A3F0A3126019
:1055D4004B12103F7C067D007900EEFAEFFB1214AB
:1055E40065900B93E014025FDF0522E522C3940A61
:1055F4004003025FE002542E900B4CE090033AF01B
:10560400900B43E090104012606B6003025FE07502
:1056140023037524007823121F0D7C0B7D037A3E2F
:105624007B1012145F7402121CA0E9607D900B437E
:10563400E4F0780090033AE0A2E0505EE8601414CD
:10564400601814601C146020146024146028146012
:105654002C804790104E7441802890104E744280E4
:105664002190104E7443801A90104E74448013900D
:10567400104E7445800C90104E7446800590104E68
:105684007447F07C0379007A4E7B101204ABE990E6
:105694000B43F07C4E7D10025F06E0C313F008E874
:1056A400C394074003025FE0808A900B4DE0F870DA
:1056B40003025FE0900B43E4F0E8146015146019F2
:1056C40024FE601C24FC601F24F8602224F0602562
:1056D400802990105E7441802190105E7442801A7B
:1056E40090105E7443801390105E7444800C90108C
:1056F4005E7445800590105E7446F07C5E7D107A81
:1057040010790112103F7C03900B43E0F97A5E7B21
:105714001002598A7523027524007823121F0D7C08
:105724000B7D037A3E7B1012145F7402121CA0E9F5
:105734007003025FE0900B12E064016003025FE01B
:1057440090030DE0F8A3E024BF602414607014708B
:10575400030257FA14700302584414700302589356
:105764001470030258E214700302592B025FE09094
:105774000B43E0687040E4F0752201852223752410
:105784000074047823121C77745E2523FE740A3592
:1057940024FF7C081260AD1204AB1252C812103FF1
:1057A4000522E522C3940A40D2900B4CE0C2E0F0FB
:1057B400A37401025FDF1260057441025973900BF8
:1057C40043E0687029E4F07C06F97A4E7B0A1204FF
:1057D400ABE9900B43F07C4E7D0A7A1079011210EC
:1057E4003F900B4D740212602FC2E1025FDF126022
:1057F400057442025973900B43E068703BE4F07502
:10580400220085222375240074047823121C7774E3
:10581400952523FE740B1260A81204AB1252C81211
:10582400103F0522E522C3940A40D7900B4CE0C2F6
:10583400E2F0A37404025FDF12600574430259733B
:10584400900B43E0687040E4F075220085222375D4
:10585400240074047823121C7774352523FE740CF9
:105864003524FF7C061260AD1204AB1252C812102C
:105874003F0522E522C3940A40D2900B4CE0C2E3D8
:10588400F0A37408025FDF12600574440259739038
:105894000B43E0687040E4F07522008522237524F0
:1058A4000074047823121C7774C32523FE740E3508
:1058B40024FF7C091260AD1204AB1252C812103FCF
:1058C4000522E522C3940F40D2900B4CE0C2E4F0D1
:1058D400A37410025FDF1260057445025973900BC4
:1058E40043E068703BE4F0752200852223752400B0
:1058F40074047823121C7774D62523FE740C12606A
:10590400A81204AB1252C812103F0522E522C39418
:105914000A40D7900B4CE0C2E5F0A37420025FDF8D
:1059240012600574468048900B43E068703CE4F0D4
:10593400900B4CF0A3F012147D7A0A7B001211EF45
:105944007523C075240E7823121F0D7CF47D007A14
:10595400007B101211AD7402121CA07A027B00901D
:105964000301E0F91212F1025FE01260057447F0DE
:105974007C6E7D107A10790112103F7C03900B43EA
:10598400E0F97A6E7B101204ABE9900B43025FDFFF
:1059940012109390030BE0900871F090030CE090C8
:1059A4000872F090030DE0900873F090030EE090FD
:1059B4000874F090030FE0900875F0900310E090E5
:1059C4000876F012108D90032A7416F0A3744BF02D
:1059D400A3744F025F01A3E0644F6003025FE0A37E
:1059E400E064506003025FE0900B1E025BE912105A
:1059F40093900B44E4F07A1A7B03790212104575F4
:105A0400230A7524037823121F0D7C1A7D037AB5AB
:105A14007B0F120B357402121CA090030BE0FE8E58
:105A24002375240074047823121C77A823A924A3C3
:105A3400E0F52590030AE0146039147003025AFA61
:105A4400147003025B57147003025B8F147003021B
:105A54005C11147003025C6B147003025CC3147059
:105A640003025E1A147003025F10147003025FDBFA
:105A7400025FE0744E28FE740A39FFEE2410F52309
:105A8400E43FF524900B44E0F97C08AA23AB2412EC
:105A940004AB1260667057E525687052900B4E7423
:105AA40001F085238285248374FF126041121F0D47
:105AB400EE2411FCE43F1260B712129D7402121C12
:105AC400A0900B93E0041249A190030BE0F523741A
:105AD400047823121C77745F2523FA740A3524FB97
:105AE40012146590032A7403126097025C4F9003AA
:105AF4002A7450025B84900B44E0F97C067A4E7B56
:105B04000A1204AB1260667042EE68703E900B4E4F
:105B14007401F07C067D0079007A4E7B0A121465CC
:105B24007523067524007823121F0D7C7E7D107A60
:105B34004E7B0A12129D7402121CA090032A740454
