:020000040000FA
:0600000002011A02276B49
:03002B00022ED4CE
:030053000227DEA3
:03007B00022E99B9
:100083000225D7E5C754F84401F5C77901220000DA
:100093000080FB120086B90003020104E47944786E
:1000A30008B800028004F709D8FCE4794C7802B858
:1000B30000028004F709D8FCE490030178C5790DA8
:1000C3008002F0A3D8FCD9FA784390014A7A01BAA6
:1000D30000028007E493A3F608DAF97AC57B0F9050
:1000E300014B781979048015E493A3AD82AE838A1A
:1000F300828B83F0A3AA82AB838D828E83D8E9D9C6
:10010300E77582027583E4740312012C758291757D
:100113008300740012012C75D00075817F75410135
:10012300754203759F00020096C09FF59FE473D04C
:100133009F22D083D082C09FE493C0E0740193C018
:10014300E0740293F59F220101030507FFFE778800
:1001530012993241142425360201060302E0FF2AD4
:100163002A47656D696E692D42413130302A2A0074
:10017300000000000D095049534345532D425431AB
:100183003030051299040000A5040D0947656D6917
:100193006E692D424131303005120A0B310B320B9F
:1001A300330B340B350B360B0A0A02534A0000009B
:1001B30000000000000000000000FFFFFFFFFFFF42
:1001C300FF02534A0000000000000000000000008E
:1001D300004F4B0000000000000000000000000082
:1001E3000000534A0000000000000000000000006F
:1001F3000000435700000000000000000000000062
:100203000000435700000000000000000000000051
:10021300003132333435361F4B4F000000000000ED
:1002230000000000000000FF0000B40000280028C8
:1002330000283075A000A000A000A000000800085E
:10024300E001F0001000100010001000100010007A
:1002530050005000500010001000D00700000000B4
:1002630000000F00010005003075070010000100B9
:1002730081FF00000000FFB506D306BB06FF0202A4
:100283000208025000A0000000E80302A782010058
:10029300008F8202AB82010000FB1002AF820100DB
:1002A300007D0302AB82010000FC1002B182010059
:1002B30000930302AB82010000FD1002B382010030
:1002C30000950302AB82010000FE1002B582080014
:1002D30000960302AB82010000FF1002B782010007
:1002E300000011FF0100FF2002A7820100008682A7
:1002F30002AB82010000641102B982000000000019
:1003030002AD82030000E303B50CB50CB50CB50CCC
:10031300B50CB50CB50CB50CB50CB50CB50CB50CD2
:10032300B50C490F610F430F0202020202020202DF
:1003330002010D000000100102A782010000A58147
:1003430002AB82010000A51102C3820100000A086A
:1003530002AB82010000A61102C182010000988154
:1003630002AB82010000A71102BB820100008A8157
:1003730002AB82010000A81102A1820100000681E4
:1003830002AB82010000A911029F82010000F480E8
:1003930002AB82010000AA11029D820100002A81A2
:1003A30002AB82010000AB11029B820100001881A5
:1003B30002AB82010000AC1102BF820100007C810C
:1003C30002AB82010000AD1102C582010000AE1133
:1003D3000A160A0A02A782010000928202AB820176
:1003E30000004D1202A982030000140802AB82012F
:1003F30000004E12029982030000240802AD82031A
:100403000000340802AB820100004F120295820300
:1004130000003A0802AB82010000501202978203E7
:1004230000004A0801E803053F100AFFFFFF00012F
:100433003075030201060000000000000000000008
:1004430000000000000000000000000000000000A9
:100453000000FFFF0600800CE803313233343536E9
:10046300120135DFE703120135F3E703120135F516
:10047300E703120135FAE703120135142F001201C5
:1004830035A130001201352934001201352336001D
:100493001201359649001201351B51001201357FB7
:1004A30052001201356453001201353E60001201FF
:1004B30035816000120135E3D603120135FAD60304
:1004C3001201352BD70312013566D703120135907C
:1004D300D703120135BAD703120135D1D70312015D
:1004E30035E8D703120135FFD70312013528D803A6
:1004F3001201353BD80312013551D803120135647B
:10050300D8031201358BD803120135C0EC02120156
:1005130035C4ED02120135FCED021201351FEE0266
:100523001201352AEE021201354DEE021201355C3D
:10053300EF0212013531F002120135ACF002120163
:100543003534F1021201356FF102120135A6F102C1
:1005530012013534F2021201350DF3021201356D29
:10056300F30212013578F302120135F7F302120197
:1005730035FAF302120135FDF3021201358CF40250
:100583001201358FF402120135BFF402120135E96D
:10059300F402120135D7F50212013589F602120170
:1005A300352E9A03120135569A03120135849A03A4
:1005B300120135BB9A03120135199B0312013564ED
:1005C3009B03120135AF9B03120135EF9B0312010D
:1005D30035359C03120135639C03120135209D03BD
:1005E3001201352A9D03120135379D031201356A25
:1005F3009D03120135369E03120135429E031201FB
:10060300355A9E03120135649E03120135A7E10397
:10061300120135B5E103120135CDE103120135E5D0
:10062300E103120135008002120135AC8002120190
:100633003527810212013548820212013584820274
:100643001201352D8302120135148402120135780B
:100653008502120135CF850212013550860212013F
:10066300354087021201358D870212013513880246
:10067300120135458802120135598A021201359B50
:100683008A02120135B98A021201353C8B0212012A
:1006930035108C02120135D88C02120135CCF801C9
:1006A3001201359FF90112013548FA011201359BF8
:1006B300FA011201354BFB01120135D7FB0112017F
:1006C30035C3FC01120135F2FC0112013505FE01AF
:1006D3001201354DFE0112013522FF011201355E73
:1006E300FF011201357AFF011201350EE6031201F3
:1006F300354CBC0312013562BC0312013588BC03BF
:10070300120135A4BD03120135AEBD03120135E359
:10071300BE03120135DBBF03120135A27A001201B9
:1007230035D27B00120135057C001201354F7C0068
:10073300120135167E00120135DDE801120135473D
:10074300E901120135A6EA01120135B6EA011201E7
:1007530035E3EA011201353AEB01120135E3EB010E
:10076300120135EAEC01120135B4ED011201351421
:10077300EF0112013557EF01120135FCEF011201B0
:100783003549F0011201356FF0011201357DF20197
:1007930012013582F20112013587F401120135D4B9
:1007A300F40112013547F5011201357AF501120101
:1007B300351CF601120135C5F601120135FDF601AE
:1007C30012013500F70112013548F701120135888E
:1007D300F701120135DFF701120135BEC80312011B
:1007E30035D6C8031201351EC90312013534C903B6
:1007F3001201357BC9031201358FCA031201351C5F
:10080300CB0312013567CB031201350662001201D7
:10081300351262001201354D6200120135926200F9
:10082300120135526300120135D8630012013504F9
:1008330064001201353D64001201357B660012012C
:10084300355F6800120135456A00120135886B0077
:10085300120135D66D00120135E86E0012013533F1
:1008630070001201354371001201356071001201ED
:10087300359B7100120135BD7100120135207200E4
:10088300120135E17600120135767700120135C782
:100893007700120135EE770012013540780012011E
:1008A300355E7800120135B87800120135B779004A
:1008B3001201353B7A00120135D09403120135DA67
:1008C30094031201351D9503120135389503120166
:1008D30035C89503120135F095031201352D9603A2
:1008E3001201356496031201358D96031201350208
:1008F30097031201351797031201352C9703120141
:10090300355D9703120135719703120135969703ED
:10091300120135D09703120135FC970312013534C8
:1009230098031201359398031201351299031201AA
:10093300353D9903120135689903120135B19903C5
:10094300120135DB9903120135069A03120135941E
:10095300DE03120135BFD402120135EDD4021201B8
:10096300353BD6021201351BD7021201353AD702A5
:10097300120135B7D702120135FAD70212013550E9
:10098300D90212013511DA0212013598DC02120183
:100993003539DD021201352FDE021201352CDF025B
:1009A30012013586E00212013511E102120135E030
:1009B300DB0312013549DC031201359DDC0312010F
:1009C30035C4DC03120135F5DC03120135D3A7036B
:1009D30012013540A80312013587A8031201359F80
:1009E300A9031201359BAA031201357EAB03120141
:1009F30035FAF6021201353CF7021201350EF80200
:100A0300120135E7F802120135E1F902120135C38B
:100A1300FA021201352CFB02120135E2FB0212012C
:100A23003556FC02120135C2FC02120135EBFC0201
:100A330012013565FD02120135FEFD021201356317
:100A4300FE0212013578FE02120135BEFE021201CA
:100A530035D7FE021201353CFF021201353FFF027A
:100A6300120135E5C2031201350DC3031201354BE3
:100A7300C30312013509C40312013570C403120103
:100A8300358CC403120135B4C403120135E4C40325
:100A9300120135F3C40312013570C50312013596F3
:100AA300C50312013523D80112013501DA01120100
:100AB3003533DC011201356FDC011201359CDC0199
:100AC30012013586DD01120135D1DD011201351C1C
:100AD300DE011201352EDE011201356EDE01120137
:100AE30035A3DE01120135F1DE0112013520DF01EC
:100AF30012013543DF0112013590DF011201351573
:100B0300E0011201352FE2011201356EE4011201F9
:100B130035AFE40112013551E60112013592E601C8
:100B230012013505E70112013556E701120135318E
:100B3300E8011201355BE80112013590E801120169
:100B430035BBE801120135AAC702120135A8C80254
:100B530012013541CF0212013562D1021201352D46
:100B6300D30212013595D402120135D1820112014B
:100B730035808301120135AD8301120135F3830101
:100B8300120135298501120135578501120135ED11
:100B9300860112013567870112013582870112012F
:100BA30035FD8701120135578901120135B78A01D5
:100BB300120135BD8B011201351E8D01120135372E
:100BC3008D01120135958D01120135838E011201BC
:100BD30035B68E01120135268F01120135A08F0122
:100BE300120135EA8F01120135B4900112013589E2
:100BF3009101120135689201120135F3920112013C
:100C030035619301120135D5930112013500940129
:100C1300120135BF940112013524960112013541A9
:100C230096011201356096011201355197011201A7
:100C330035769701120135A097011201351B9801F2
:100C4300120135759801120135DE99011201358CB7
:100C53009A01120135CD9A011201355D9D021201EF
:100C630035AB9D02120135B79D02120135959E02E7
:100C7300120135C69E02120135F79E021201357725
:100C83009F02120135F59F021201352DA0021201B8
:100C9300357FA002120135BCA002120135D9A20290
:100CA300120135FFA402120135EAA602120135D45E
:100CB300A802120135F57F001201350CB0011201B3
:100CC300353CB00112013515B7011201359AB8014F
:100CD30012013597BE011201357FBF01120135BCE8
:100CE300BF01120135DFBF0112013510C00112012E
:100CF3003519C00112013523C00112013511C1019B
:100D030012013507C201120135FD9A01120135FCAA
:100D13009E01120135029F011201353DA601120108
:100D23003556AB011201357EB80312013514B903F0
:100D33001201352AB903120135A0B9031201351482
:100D4300BA0312013552BA03120135C6BA031201AE
:100D5300353FBB0312013548BB0312013554BB03B6
:100D630012013569BB03120135A7BB03120135BD5F
:100D7300BB031201351CBC0312013540AC03120145
:100D8300354DAC0312013567AC03120135A6AC0334
:100D9300120135E4AC0312013549AD031201355E8E
:100DA300AD0312013569AD0312013576AD031201AE
:100DB300358DAD031201359BAD03120135A6AD038D
:100DC300120135B2AD03120135C1AD03120135CCA9
:100DD300AD03120135EFAD0312013596AE031201D7
:100DE30035A6AE03120135C0AE03120135DDAE03E5
:100DF300120135F9AE031201351EAF031201352975
:100E0300AF031201353EAF0312013552AF03120196
:100E130035B3AF03120135B9AF03120135BFAF03C9
:100E2300120135C5AF03120135DDAF0312013510D1
:100E3300B003120135B4AB0212013538AC02120112
:100E430035E7AC0212013546AE0212013567B00236
:100E530012013553B10212013588B102120135AACC
:100E6300B10212013559B20212013551B402120115
:100E7300357AB4021201350CB5021201353EB502C2
:100E83001201354BB502120135A2B502120135C864
:100E9300B50212013535B80212013538B902120113
:100EA3003590B902120135F18E02120135FB8F0222
:100EB300120135E29002120135EC90021201350E57
:100EC30091021201351A9102120135B392021201F5
:100ED30035E29202120135FE930212013557940254
:100EE300120135BD95021201359C9602120135F8A7
:100EF3009602120135659702120135A0970212017D
:100F030035DF9702120135989A02120135B29A021F
:100F13001201353E9B021201354C9B02120135A58D
:100F23009B02120135B39B02120135269C0212016A
:100F3300358A9C02120135D49C0212013592E102DA
:100F4300120135B4E102120135DAE302120135EF81
:100F5300E60212013507E802120135BAE80212016E
:100F6300359CE9021201359DD803120135C2D8031D
:100F730012013534D903120135D68703120135DF47
:100F83008703120135E88703120135BF8803120175
:100F930035708A03120135A68A03120135E08A03EC
:100FA300120135168B03120135508B031201358460
:100FB3008B03120135B08B03120135F98B03120138
:100FC30035338C031201357C8C03120135D48C0329
:100FD300120135098D03120135648D031201359E0B
:100FE3008D03120135EF8D03120135258E03120196
:100FF300355F8E031201358D8E03120135B08E03DA
:10100300120135B8E403120135E4E4031201353F5C
:10101300E50312013549E50312013559E5031201D0
:101023003591CB03120135B6CB03120135E0CB0367
:101033001201358DB003120135D2B003120135EF21
:10104300B003120135A8B1031201350EB203120128
:1010530035D2B20312013555B403120135E5BF038E
:1010630012013500C0031201352FC00312013535BB
:10107300C0031201353BC00312013568C0031201DE
:10108300358DC003120135A4C003120135B9C00365
:101093001201350DC10312013586C103120135A6B4
:1010A300C10312013598E7031201351FC401120170
:1010B3003581C60112013538C80112013535C90120
:1010C300120135C5C9011201354CCA01120135712E
:1010D300CA01120135B2CD0112013528CE01120128
:1010E3003517CF0112013551CF0112013591CF01CF
:1010F30012013537D1011201358CD101120135D9D5
:10110300D10112013547D2011201356DD20112010D
:101113003587D2011201359DD301120135ADD301BB
:10112300120135BED401120135D3D40112013509A0
:10113300D5011201358AD601120135C9D601120132
:1011430035EED7011201356BE50312013503E603D2
:101153001201354FE7031201358EE703120135EF14
:10116300FF0112013549E30312013559E30312016B
:101173003568E303120135FCE303120135ADDF03E8
:1011830012013531E00312013597E0031201356393
:10119300A3031201359AA303120135BBA303120162
:1011A300352BA40312013597A403120135EEA503D1
:1011B3001201353BDD0312013563DD03120135D71F
:1011C300DD03120135EEDD031201353EDE031201AC
:1011D3003588DE031201358BDE031201355AE8032D
:1011E3001201356AE8031201356DE803120135DE99
:1011F300C50312013522C60312013538C603120195
:101203003553C6031201356EC603120135B9C60341
:1012130012013508C70312013548C7031201352AE5
:10122300C80312013574C803120135F87F00120197
:10123300359DD00312013525D20312013586D20321
:10124300120135CCD20312013511E8031201352402
:10125300E80312013528E8031201352FE8031201D0
:101263003531E803120135F1E603120135F7E603E0
:1012730012013545E7031201357EE203120135A75A
:10128300E203120135D0E203120135E8E203120151
:10129300352AE303120135508F031201355A8F03A8
:1012A3001201359A8F03120135E38F031201351DA5
:1012B30090031201357390031201359290031201CA
:1012C300359B9003120135EC900312013515910300
:1012D3001201351F91031201359091031201351E3E
:1012E3009203120135739203120135A19203120185
:1012F300351D93031201356093031201359D93034A
:10130300120135AF9303120135CE9303120135D782
:101313009303120135A4940312013592E6031201DB
:101323003542DA0312013593DA031201351CDB036C
:1013330012013582DB031201355DCE0312013587BD
:10134300CE0312013550CF031201352BD003120106
:1013530035B0E003120135E1D40312013517D5038B
:1013630012013550D503120135A9D6031201356395
:10137300FF0212013579FF0212013583FF021201C8
:1013830035CDFF02120135008003120135BD800304
:10139300120135F8800312013520810312013582D1
:1013A3008103120135CE8103120135398203120103
:1013B30035B58203120135B1830312013538850334
:1013C300120135BB85031201351F86031201353621
:1013D30086031201352C8703120135788703120126
:1013E30035EB9E03120135009F03120135B09F03B5
:1013F300120135F09F0312013509A0031201353C98
:10140300A00312013589A003120135BDA003120107
:1014130035FFA003120135FDA203120135DEB90227
:101423001201353BBD02120135C3BE021201351A4A
:10143300BF0212013539BF02120135B7BF021201D3
:101443003547C1021201352BC20212013537C602DC
:1014530012013507C7021201358EB403120135DFBD
:10146300B40312013578B503120135A0B503120197
:101473003523B60312013581B6031201359AB7033A
:10148300120135DBB703120135CFD203120135DE6A
:10149300D20312013509D3031201350FD30312010D
:1014A3003515D30312013530D30312013537D30376
:1014B3001201353ED30312013542D303120135D154
:1014C300D30312013520D40312013570E80312014E
:1014D3003579E803120135C97F001201353CE80371
:1014E300E066701008A3E066700A08A3E066700463
:1014F30008A3E06622C3E7960809E7960809E7967A
:101503000809E79622C3E09608A3E09608A3E096AD
:1015130008A3E09622C021C3E096F52108A3E09634
:10152300422108A3E096422108A3E09645217001D9
:10153300D3D02122E9799EC608CAC608CBC608CCF7
:10154300C6C370207996CACBCC7019798ECBCC7078
:10155300137986CC700EF9802ACA33CACB33CBCC2D
:1015630033CC331930E7F2CCCBCA3350147004EACE
:1015730030E00DE4CA3ACACB3BCBCC3CCC50020999
:10158300C3E913C6CC182313C6CB18C6CA18C6F9A9
:10159300221215D420F01430E72B74FFFCFBFA74ED
:1015A3007F8022E4FCFBFA7480801AB48008BC00BC
:1015B300F2BB00EF800F50EBF9E4C39AFAE49BFB14
:1015C300E49CFCE499C6CC18C6CB18C6CA18C6F965
:1015D30022E4C9C608CAC608CBC6D3330308CCC69F
:1015E3003392F0C3947F402E94184019C9B907046D
:1015F300CACBCC225025C309CA33CACB33CBCC3395
:10160300CC33D9F422F4600DC9CCC313CB13CBCAAA
:1016130013CAD9F6CC22E4FCFBFA2214FCFBFA220F
:10162300E62618461846184622E727194719471988
:101633004722181818E60846087009E626087005B8
:10164300E633F4220822191919E70947097009E753
:1016530027097005E733F4220922E6084608C31375
:101663004608336002E633F422E7094709C3134708
:1016730009336002E733F42212165D602512166CFB
:101683006020121623700302162C080808E7667000
:10169300101819E766700A1819E76670041819E735
:1016A3006622F42212165D601C12166C6017121665
:1016B30023700712162C7001D322C0D012162C707F
:1016C30006D0D0B322C32233D0D0501430E0F6C3B7
:1016D300E7960809E7960809E7960809E796B3220B
:1016E30020E0D5E6970809E6970809E6970809E692
:1016F30097B32212165D601B12166C601612162326
:10170300700712162C600CB322C0D012162C700571
:10171300D0D022C32233D0D0501330E0EBC3E796AE
:101723000809E7960809E7960809E7962220E0E406
:10173300E6970809E6970809E6970809E69722124B
:10174300166C604612165D603DE9687008F618F67F
:1017530018F618F622748067F712177609090974C8
:101763008067F72212165D601D12166C7005191939
:1017730019801A121635701F121649C37003E667D3
:101783003319191940071818182208080874FFF6A6
:1017930018F618F618F622121649601712162C704E
:1017A3002192F01216237019501720F0140808081C
:1017B300090909E7F61819E7F61819E7F61819E7FA
:1017C300F62212162360E6E869701F0808E62480F3
:1017D300F608E436F618547FB47F0CE654806007AD
:1017E300F6E418F618F622181822E9C6CC08C6CD76
:1017F30008C6CE08C6CFC0E0E8C0E0EAC0E0EBC050
:10180300E009E9F809E7FA09E7FBE6F918E6F8C39E
:10181300EC98ED99EE9AEBC2E7F5F0EFC2E795F09D
:10182300500E600CEBCFFBEACEFAE9CDF9E8CCF829
:10183300EAA2E7D2E7FAEB33FB13F5F0EEA2E7D225
:10184300E7FEEF33FFC5F013A2E730E601B313C59C
:10185300F0C3C0E0C0F07F00C39BFB605E941860E0
:101863000F401D14601AD0E023F9D0E0F8021948A4
:101873008AF0E9486003D2F0E4AFF0FAF9F8803B6C
:10188300EB30E40D89F0EA6003D2F0E4AFF0F9CA7B
:10189300F8EB30E30D88F0EF6002D2F0AFF0E4CA6A
:1018A300C9F8EB54076014FBC3EA13FAE913F9E828
:1018B30013F8EF135002D2E0FFDBEDD0E0C0E030CD
:1018C300E739C3E49FFFF5F0EC98FC42F0ED99FD96
:1018D30042F0EE9AFE42F0D0E0F9D0E0F8E5F06095
:1018E3007AE923F9EE20E742D8028067C3EF33FF9A
:1018F300EC33FCED33FDEE33FE80EAEC28FCED39EE
:10190300FDEE3AFED0E023F9D0E0F84002801BC39D
:10191300EE13FEED13FDEC13FCEF135002D2E0FFC8
:1019230008B800067F7F74FF802EEF3350178CF0CA
:1019330020F00260100CBC000C0DBD00080EBE00B0
:101943000408E860DFE933E813FFEE2313FE4F4D8D
:101953004C8008E95480FFE4FEFDFCEE33EF33F4E2
:101963007004FCFD7E80D0E0FBD0E0FAD0E0F8D03C
:10197300E0CFC618CEC618CDC618CCC6F9220808C3
:1019830008EAC0E0EBC0E086F0E7A4FA180986F0A5
:10199300E7A42AFA180986F0E7A42AFA180986F0B8
:1019A300E7A42AFA1986F0E7A4FBE5F02AFA190856
:1019B30086F0E7A42BFBE5F03AFA190886F0E7A4D2
:1019C3002BFBE5F03AFA18180986F0E7A4C5F02BCB
:1019D300FBE43AFA1908E7C5F0C6A426F6E5F03B9E
:1019E300FBE43AFA1886F0E7A4F6E5F00826F6E4F5
:1019F3003B08F6E43A08F6D0E0FBD0E0FA22E4CF65
:101A0300C0E0E4CEC0E0E4CDC0E0E4CCC0E075F0DB
:101A130020E626F608E633F608E633F608E633F65C
:101A2300181818EC33FCED33FDEE33FEEF33FFC330
:101A3300EC9709ED9709EE9709EF97191919400FDC
:101A4300FFEC97FC09ED97FD09EE97FE191906D5F2
:101A5300F0BFECF709EDF709EEF709EFF7191919DC
:101A6300D0E0FCD0E0FDD0E0FED0E0FF226016081D
:101A73000808C6C313C618C613C618C613C618C6A5
:101A830013C6D5E0EA227009080808226016181860
:101A930018C6C333C608C633C608C633C608C6331A
:101AA300C6D5E0EA22E627F60809E637F60809E68E
:101AB30037F60809E637F622E026F608A3E036F6FD
:101AC30008A3E036F608A3E036F622E026F008A3E2
:101AD300E036F008A3E036F008A3E036F022C3E6D0
:101AE30097F60809E697F60809E697F60809E697D0
:101AF300F622C3E096F008A3E096F008A3E096F080
:101B030008A3E096F022E657F60809E657F6080917
:101B1300E657F60809E657F622E056F608A3E0561C
:101B2300F608A3E056F608A3E056F622E056F008BE
:101B3300A3E056F008A3E056F008A3E056F022E035
:101B4300F608A3E0F608A3E0F608A3E0F622E6F021
:101B530008A3E6F008A3E6F008A3E6F022E0FAA360
:101B6300E0FBA3E0FCA3E0FD22EAF0A3EBF0A3EC8F
:101B7300F0A3EDF022E0F8A3E0F9A3E0FAA3E0FB81
:101B830022E8F0A3E9F0A3EAF0A3EBF022CAC0E055
:101B9300E6F0A308DAFAD0E0FA22CAC0E0E0A3C56F
:101BA30082CCC582C583CDC583F0A3C582CCC58253
:101BB300C583CDC583DAE6D0E0CA22C3E498F8E44E
:101BC30099F9121BFF8026C3E49AFAE49BFBE920F0
:101BD300E7E9121BFFE498F8E499F922C3E498F8C3
:101BE300E499F9121BFFE498F8E499F9C3E49AFA2B
:101BF300E49BFB22EB20E7CFE920E7E0B90010BB31
:101C03000008E88AF084F8AAF022E4FBC8FA22EB81
:101C130070227B10C833C8C933C9335007C39AC372
:101C2300DBF280069A50012ADBEAC833F4C8C933D1
:101C3300F4C9FA2275F008E4C833C8C933C933C9F3
:101C43009AC99B5004C92AC93BD5F0ECFBC833F4AD
:101C5300C8E4C9FA22600D08C6A2E713C618C61362
:101C6300C6D5E0F322600C08C6C313C618C613C654
:101C7300D5E0F422700422600D18C6C333C608C62B
:101C830033C6D5E0F41822254110AF08F541400CC6
:101C930015428008F54140021542D2AF2200C0D060
:101CA300254110AF08F541500C05428008F541501D
:101CB300020542D2AFD0D0222541F58210AF08F5FC
:101CC30041400C15428008F54140021542D2AF85D0
:101CD3004283222541F582E43542F583222541F8EA
:101CE300E43542F9222541FAE43542FB222541FC41
:101CF300E43542FD22E4732541C582C0E0E5423468
:101D0300FFC583C0E0E541C3958224F810AF088581
:101D130083428582418008858342858241D2AFCE4A
:101D2300F0A3E520F0A37821E608F0A3DEFAEFF0B4
:101D3300A3E58124FAF8E608F0A3E608F0A3E60891
:101D4300F0A30808E608F0A3E608F0A315811581BF
:101D5300D0E0FED0E0F8158115811581E8C0E0EEF2
:101D6300C0E0222541C582C0E0E54234FFC583C0FF
:101D7300E0E541C3958224F910AF0885834285824B
:101D8300418008858342858241D2AFCEF0A3E5200E
:101D9300F0A37821E608F0A3DEFAEFF0A3E58124AF
:101DA300FBF8E608F0A3E608F0A30808E608F0A3AA
:101DB300E608F0A315811581D0E0FED0E0F8158187
:101DC3001581E8C0E0EEC0E022854283854182E0D0
:101DD300A3FEE0A3F5207821E0A3F608DFFAE0A351
:101DE300FFE0A3C0E0E0A3C0E0E0A3C0E0E0A3C045
:101DF300E0E0A3C0E010AF088582418583428008FC
:101E0300858241858342D2AFD083D082020132855D
:101E13004283854182E0A3FEE0A3F5207821E0A37D
:101E2300F608DFFAE0A3FFE0A3C0E0E0A3C0E0E030
:101E3300A3C0E0E0A3C0E010AF08858241858342E0
:101E43008008858241858342D2AFD083D08222C06D
:101E5300D02541C582C0E0E54234FFC583C0E0E53B
:101E630041C3958224F310AF088583428582418064
:101E730008858342858241D2AFC8F0A3E9F0A3EA83
:101E8300F0A3EBF0A37921E709F0A3D8FAECF0A3D0
:101E9300EDF0A3EEF0A3EFF0A3D0E0F0A3D0E0F0D9
:101EA300A3D0E0F0A3E520F0A3E5F0F0A322854260
:101EB30083854182E0C0E0A3E0F9A3E0FAA3E0FB5D
:101EC300A37821E0F608A3DFFAE0FCA3E0FDA3E09A
:101ED300FEA3E0FFA3E0C0E0A3E0C0E0A3E0F5D0F1
:101EE300A3E0F520A3E0A3F5F010AF0885834285B6
:101EF30082418008858342858241D2AFD082D083DC
:101F0300D0E0F8D0E03274048006740280027401D9
:101F1300C0E0F404121CBBD0E0121B9022740480B6
:101F23000474028000CCC0E0EDC0E0E541C39CCC6A
:101F3300AD4250011D10AF068C418D4280068C418D
:101F43008D42D2AF121B9DD0E0FDD0E0FC22D083A6
:101F5300D082E9C0E0E493A3C386F0C5F095F0F91D
:101F630008E493A386F0C5F095F0700BE493A3C344
:101F7300994005E9048002A3E475F002A42582F5E3
:101F830082E5F03583F583D0E0F9E493A3C0E0E480
:101F930093C0E022D083D082ECC0E0EDC0E0E493B4
:101FA300A3FCE493A3FDED4C600D121FE3EC24FFAF
:101FB300FCED34FFFD80EFE493A3FCE493A3FDED7C
:101FC3004C600D122022EC24FFFCED34FFFD80EF6A
:101FD300D0E0FDD0E0FCE493A3C0E0E493C0E022B2
:101FE300C0E0C3E49396087401939618400FE493FA
:101FF30066700808740193661870007019A3A3C370
:10200300E49396087401939618A3A3400DD0E0D0EF
:10201300E0D0E0021FD3A3A3A3A3A3A3D0E022C0D5
:10202300E0C0F088F0E493667008087401936618C2
:102033007000A8F0A3A3700BD0F0D0E0D0E0D0E004
:0A204300021FD3A3A3D0F0D0E022C7
:1020500074F5121D66EAFEEBFFEE2434F8EF34004F
:10206000F988218922EE2435F582EF3400F583E0EA
:10207000F8EE2437F582EF3400F583E0F523EC85A4
:1020800023F0A4FCAAF08523F0EDA42AFDE82CF8A7
:10209000E43DF97A257B00121BFFEA852182852227
:1020A00083F0F8740758F97401B900028004C3334F
:1020B000D9FCFAE8131313541FF8EE28F8EF340094
:1020C000F9E8245DF582E93400F583E05A6008EE12
:1020D0002434F582EF802CEE2434F582EF3400F5C1
:1020E00083E0C0E0EE2436F582EF3400F583E0F5BE
:1020F000F0D0E084A8F0EE28F8EF3400F9E82438B6
:10210000F582E93400F583E0F97F04021E1274F5CC
:10211000121D66EAFEEBFFEE2434F582EF3400F583
:1021200083E0C0E0EE2435F582EF3400F583D0E0A3
:10213000F08E828F83A3A3A3A3A3A3A3C082C08393
:102140008E828F83A3A3A3A3A3E0F8A3E0F9D08397
:10215000D082E0C398F521A3E099F522EE247FF523
:1021600082EF3400F583E064017069EE2480F5822B
:10217000EF3400F583E0F8A3E0F98E828F83A3A308
:10218000A3A3A3A3A3E0FCA3E0FD8E828F83A3A35C
:10219000A3A3A3E0FAA3E0FBC3EA9CEB9D5010C30A
:1021A000EC98ED99402EC3EA98EB995027800EC326
:1021B000EA98EB994007C3EC98ED9940177CA67D0F
:1021C00005EEFAEFFB120C0DEE247FF582EF3400E2
:1021D000F583E4F0EE2434F8EF3400F9E8FCE9FD8F
:1021E000EE2435F582EF3400F583E0F8EE2437F580
:1021F00082EF3400F583E0F523E5218523F0A4F593
:1022000021AAF08523F0E522A42AF522E82521F869
:10221000E43522F97A257B00121BFFEA8C828D833C
:10222000F0F8740758F97401B900028004C333D977
:10223000FCFAE8131313541FF8EE28F8EF3400F9F2
:10224000E8245DF582E93400F583E05A6008EE2465
:1022500034F582EF802CEE2434F582EF3400F583E0
:10226000E0C0E0EE2436F582EF3400F583E0F5F0CF
:10227000D0E084A8F0EE28F8EF3400F9E82438F52F
:1022800082E93400F583E0F9122E8B022109C08225
:10229000C083854182854283E0F8A3E0F9C3EA9CCC
:1022A000EB9D5010C3EC98ED99401BC3EA98EB9955
:1022B0005014800EC3EA98EB994007C3EC98ED994F
:1022C0004004790180027900D083D08222EAC39C45
:1022D000FAEB9DFB2274EF121D6690046CE064081B
:1022E0006005E06407702A9061C8E0602490049A59
:1022F000E0F4601DE0F875F003A4C8AAF02AF974B0
:102300009C28FE740439FF8E828F83A3A3A3E07000
:1023100003022405906060E0C0E0EE2468F582EFDF
:102320003400F583D0E0F075250F75260675210081
:10233000752200E5D914F523E5D95403F527601774
:1023400074036527605CE5236010EE2467F582EF77
:102350003400F583E070030223EA90060AE064018A
:10236000602AEE2482F582EF3400F583E060047881
:102370000480027800852321E521C398FA95E0FBCB
:10238000120AB78A218B22EA45227005120E1780A5
:1023900074EE2482F582EF3400F583E070048A2520
:1023A0008B26E5236012852582852683F524E5D9D1
:1023B000F0A31524E52470F6EE2482F582EF3400B4
:1023C000F583E0604474FC2523F5237825121F0D66
:1023D000AC23A927EEFAEFFB120CAF7402121CA07B
:1023E000E97026AA21AB22121327793D8E828F83B2
:1023F000A3A3A3A3E0FA7B0012098BEEFAEFFB1272
:102400000C25120CC1790080747403652760568511
:102410002329752A007829121F0DAC25AD26AA2183
:10242000AB22120C8B7402121CA0EE2468F582EF12
:102430003400F583E064807004747F8001E0F5254A
:102440007825121F11E527F5257825121F11A923DC
:10245000AC21AD2290049AE0FA7B0012094F74027D
:10246000121CA0801390046CE06408600BAC25ADD6
:1024700026EEFAEFFB120D1B120E2379017F0A02E2
:102480001E1274F5121D6674FC121C8AEAFEEBFF24
:102490008921A2AFE433F522C2AF806AEE2463F84B
:1024A000EF3400F97A007B00A2AFE433F523C2AF2A
:1024B00088828983E0FCA3E0FDEC4D603A88828944
:1024C00083E0FAA3E0FB8A828B83E0FCA3E0FD8833
:1024D000828983ECF0A3EDF08A828B83E4F0A3F091
:1024E00088828983E0FCA3E0FDEC4D700A88828934
:1024F00083A3A3E4F0A3F0E523A2E092AF12132795
:102500009005ADE004F0EE2463F582EF3400F5832E
:10251000E0F8A3E0F9E849603DEE2463F582EF348A
:1025200000F583E02402FAA3E03400FBEA2402F57C
:1025300023EB3400F5247823121F0D8A828B83E06D
:10254000FCA3E0F9EEFAEFFB120C497402121CA096
:10255000E9700302249C9005ADE060639005AEE055
:10256000F89005ADE0C398500C740265217050904E
:1025700005AFE0604A8E828F83A3A3A3A3E08541C9
:1025800082854283F0A3E4F09005ADE0F874021276
:102590001CD6E8F0A3E4F09005ADE0F89005ACE0BF
:1025A00028F07402121CD6AC82AD8385418285422C
:1025B00083AA82AB83790112095B9005ADE4F0E553
:1025C00022A2E092AF7404121CA0022109000000B4
:1025D0008544878545C622C0E0C0D0E8C0E0E9C098
:1025E000E0EAC0E0EBC0E0ECC0E0EDC0E0EEC0E04F
:1025F000C021C022C023C024C082C083C0F0A2AFCB
:10260000E433FEC2AF759B00906182E0A2E05012FD
:10261000E591A2E0500C7591FE74016544700312BF
:1026200022D5E0A2E55051E591A2E5504B7591DF2E
:1026300090046CE064076005E06408702374016531
:10264000447035790190049AE0FA75F003A4CAA8A1
:10265000F028FB749C2AFA74043BFB122482801835
:10266000E0640D701390048EE004F064287002E4BE
:10267000F07A00E0F9120E29906182E0A2E64003B0
:1026800002271EE591A2E6400302271E7591BF9026
:10269000046CE064057008120D51120D5D80031288
:1026A0000D57754400120DB7E990046DF0790012D2
:1026B0000DAB120B7D7A017B0090046BE0F91212D6
:1026C000F1907803E06442705590060EE014F070CB
:1026D0004DC2AF1226D600784DD0E0F618D0E0F605
:1026E000E59F540770057522FF800375227FC4C0E3
:1026F000E0784CE6F52108E65522F522740B7821A6
:10270000121C68D0E02521F8906270E0A2E740F842
:10271000E8C333906272F0906270E0D2E0F09061B2
:1027200081E0A2E35009E5E9A2E3500375E9F7A3CC
:10273000E0A2E75009E591A2E7500375917FEEA270
:10274000E092AFD0F0D083D082D024D023D022D05A
:1027500021D0E0FED0E0FDD0E0FCD0E0FBD0E0FAFC
:10276000D0E0F9D0E0F8D0D0D0E032C0E0C0D0C0A6
:1027700082C083906183E0A2E05009E5BFA2E050EF
:102780000375BFFEE0A2E15009E5BFA2E150037569
:10279000BFFDE0A2E25009E5BFA2E2500375BFFB16
:1027A000E0A2E35009E5BFA2E3500375BFF7E0A242
:1027B000E45009E5BFA2E4500375BFEFE0A2E55085
:1027C00009E5BFA2E5500375BFDFE0A2E65009E5C9
:1027D000BFA2E6500375BFBFD083D0828088C0E01F
:1027E000C0D0E8C0E0E9C0E0EAC0E0EBC0E0ECC087
:1027F000E0EDC0E0C0F0E5A7A2E6500FE5A1A2E63B
:10280000500953A7BF75A1BF122843E5A7A2E55001
:102810000CE5A1A2E5500653A7DF75A1DFE5A7A24D
:10282000E15009E5A1A2E1500375A1FDE5A7A2E2EF
:10283000500CE5A1A2E2500653A7FB75A1FBD0F016
:1028400002275474F8121D6675440190046CE0640C
:10285000067015120CDF8A828B83A3A3A3A3A3A304
:10286000E0FAA3E0FB120D3FA2AFE433FED2AF903B
:102870000472E0640170187A207B0090046BE0F928
:102880001214057A207B0090046BE0F91212F79085
:102890006182E0D2E6F090060BE0602185C64580BB
:1028A00016900471E064017008E5C654F84405F51B
:1028B000C653BEFC1225D07401654460E4EEA2E06C
:1028C00092AF7F01021E12008E468F4785824B8594
:1028D000834A854182854283E0CEA3E0CF854B8247
:1028E000854A83EBC9EAC8EDCBECCA75F010C3E8A2
:1028F00033C8E933C9EA33CAEB33CBC3EA9EF5499F
:10290000EB9FF548B35004AB48AA49EC33CCED3308
:10291000CDD5F0DAAE46AF472274E9121D6674F8E1
:10292000121C8A854182854283ECF0A3EDF08A2156
:102930008B2290046CE024F7C394055006752101A6
:10294000022AB0120CDF8A238B24AE23AF24EE4F71
:102950007003022AADAC21AD227402121CD6AA82E9
:10296000AB83120D6F8E828F83A3A37525FF75260F
:10297000FF7527FF7528007825121B1C7402121C96
:10298000D67529FF752AFF752BFF752C0078291243
:102990001B1C782579291214F8502A7825792912D8
:1029A0001AE17521017522C875230075240078216C
:1029B00079251214F8505285252185262285272352
:1029C0008528248050752D01752EC8752F0075300F
:1029D00000852921852A22852B23852C247821799D
:1029E00025121AE1782D79211214F8401C75210066
:1029F00075220075230075240178217929121AE1C6
:102A000078217925121AA8800C752101752200758C
:102A1000230075240074097821121A89752519F587
:102A200026F527F52878217925121A018E828F83C1
:102A3000A3A3A3A3A3A3E0F8A3E0F97AD07B031296
:102A40001BFF88258926E4F527F5287821792512AA
:102A50001AA87406121CD6E0F8A3E0F97AD07B031A
:102A6000121BFFE8FA8A25E4F5267821792512144D
:102A7000F8500778217925121AE190046CE0640877
:102A8000600AE064066005E06405702D75250D7828
:102A90002579211214F840217525F47526FF752734
:102AA000FF7528FF78217925121AA8800C7521005E
:102AB000752200752300752400854182854283E0DC
:102AC000F8A3E0F58388827821121B517408121C48
:102AD000A07F10021E1274F7121D66120D8190065F
:102AE00009E064017010906245E4F0A3F053F4F340
:102AF00043FE0C5390F3120D2DE5C654804449F566
:102B0000C6E59E547F644970F8906185740FF0901B
:102B10000607E0F47002A3E0604E900608E060084B
:102B200014601B14602E80407521017522009006F0
:102B300007E07821121C77E521F45280802A752164
:102B400001752200900607E07821121C77E521F438
:102B500052908014752101752200900607E07821BB
:102B6000121C77E521F452A079007F02021E127434
:102B7000F7121D66E9FEEAFF74016E700C7A807B25
:102B80000090046BE0F91212F1902F04E493F460CA
:102B900008E493F9120B71800953C680E59E547FB7
:102BA00070FA120D33900609E064017003120B8F66
:102BB000900607E0F47002A3E0604B900608E06026
:102BC0000814601A14602C803D7521017522009054
:102BD0000607E07821121C77E521428080287521C4
:102BE00001752200900607E07821121C77E521424A
:102BF000908013752101752200900607E07821125C
:102C00001C77E52142A0120D81120CDF8A218B2254
:102C1000A821A922E8496015E5E170FCE82414F533
:102C200082E93400F583E0F46003E0F5E174016FBC
:102C3000700A7A0190046BE0F912137B022B6A741C
:102C4000ED121D668A218B228C238D247413121C95
:102C5000D67825121B42782179251214F87529019E
:102C6000752AC8752B00752C005012782179251211
:102C70001AE1782979211214F850168010782579F4
:102C800021121AE1782979251214F840047901807B
:102C90000279007F0C021E1274ED121D668A218BD0
:102CA000228C238D247413121CD67825121B427893
:102CB0002579211214F8401178217925121AE1AAF8
:102CC00021AB22AC23AD248022752900752A007522
:102CD0002B00752C0178297925121AE178297921A0
:102CE000121AA8AA29AB2AAC2BAD2C80A68A828BFB
:102CF000837521FF7522FF7523FF7524007821124B
:102D00001B2F7F04021E1274F5121D668C828D83A8
:102D10007821121B428A828B837821121AF5EA24C9
:102D200004F8EB3400F98C828D83A3A3A3A3E0FC09
:102D3000A3E0FD88828983C3E09CF0A3E09DF08836
:102D4000828983C3E09420A3E0944E40268A828B3C
:102D5000837521FF7522FF7523FF7524FF782112EB
:102D60001ACE8A828B83A3A3A3A3E02420F0A3E03E
:102D7000344EF0022CED74F5121D66E9FE9005C18B
:102D8000E0FAA3E0FBEEC333F8E433F9745C28F512
:102D900082748139F583E02AF521A3E03BF522789E
:102DA00021121F0D7A407B427C0F7D001228C874CF
:102DB00002121CA08A218B228C238D24741078216E
:102DC000121A70AA21AB227F04021E1274F1121D86
:102DD000668A258B268C278D28740F121CD6E0FA64
:102DE000A3E0FB7411121CD6E0F521A3E0F52278D4
:102DF00021121F0DEA2401F521EB3400F522E4F540
:102E000023F5247825792112198175217175220203
:102E100078257921121981AA25AB26AC27AD281275
:102E200028C87402121CA08B22EA452260047A0191
:102E300080027A00EC2AFCED3400FD7413121CD6DB
:102E4000E0F8A3E0F9E8FEE9FFECF8EDF97A717B30
:102E500002121BFF882189228E828F837821121B08
:102E600051ECF8EDF97A717B02121BFF8A218B225B
:102E700074057821121C778E828F83A3A3A3A3E508
:102E800021F0A3E522F07F08021E12C082C083E970
:102E9000906000F0D083D08222C0E074F2121E5203
:102EA000A2AFE433FED2AFE58AA2E4400CE58AA2E9
:102EB000E64006E58AA2E750031211CB538AEF538E
:102EC0008ABF538A7FC2EB754300EEA2E092AF7FC8
:102ED00001021EB1C0E0C0D0E8C0E0E9C0E0A9A88E
:102EE000D2AFC2C7754300E9A2E7E433F8E9A2E72D
:102EF00092AFD0E0F9D0E0F8D0D0D0E032C2AF024B
:032F0000000022AC
:102F0400FFFFFFFFFFFFFFFF121CA07F02021DCC8B
:102F140074F4121CFA74E9121C8AEAFEEBFF7A10AC
:102F24007B001213638A218B227821121F0D7CF1FE
:102F34007D0F7AC57B0F120ADB7402121CA09080ED
:102F4400DDAC41AD427417121B9D8521828522831D
:102F5400E085418285428312306EE0C0E074011244
:102F64001CD6D0E012306EA3E0C0E07402121CD66E
:102F7400D0E012307BE0C0E07403121CD6D0E01223
:102F8400307BA3E0C0E07404121CD6D0E012308978
:102F9400E0C0E07405121CD6D0E0123089A3E0C072
:102FA400E07406121CD6D0E012308FE0C0E0740743
:102FB400121CD6D0E012308FA3E0C0E07408121CBB
:102FC400D6D0E012309BE0C0E07409121CD6D0E0E9
:102FD40012309BA3E0C0E0740A121CD6D0E0F0E5E6
:102FE40021240B123065C0E0740B121CD6D0E0F023
:102FF400E521240C123065C0E0740C121CD6D0E01C
:10300400F0E521240D123065C0E0740D121CD6D0F9
:10301400E0F0E521240E123065C0E0740E121CD6D7
:10302400D0E0F0E521240F123065C0E0740F121CCB
:10303400D6D0E0F0AA21AB221213697521177522AC
:10304400007821121F0D7402121CF0EEFAEFFB122D
:10305400129D7402121CA07417121CA07F04021D7E
:10306400CCF582E43522F583E02212307222F08519
:103074002182852283A32212307F221230832212DE
:103084003072A3A32212307FA3A322123093221200
:103094003083A3A3A3A322123093A3A32274F61212
:1030A4001CFA74C7121C8AE9FE90813C7404121C39
:1030B400F07410121B9D7404121CE088218922787C
:1030C40021121F0D7C077D107AC57B0F120ADB7459
:1030D40002121CA09080C6741E121CF07417121BDE
:1030E4009D7404121CD6E0C0E0741E121CD6D0E0FD
:1030F400F07405121CD6E0C0E0741F121CD6D0E098
:10310400F07406121CD6E0C0E07420121CD6D0E085
:10311400F07407121CD6E0C0E07421121CD6D0E073
:10312400F07408121CD6E0C0E07422121CD6D0E061
:10313400F07409121CD6E0C0E07423121CD6D0E04F
:10314400F0740A121CD6E0C0E07424121CD6D0E03D
:10315400F0740B121CD6E0C0E07425121CD6D0E02B
:10316400F0740C121CD6E0C0E07426121CD6D0E019
:10317400F0740D121CD6E0C0E07427121CD6D0E007
:10318400F0740E121CD6E0C0E07428121CD6D0E0F5
:10319400F0740F121CD6E0C0E07429121CD6D0E0E3
:1031A400F07410121CD6E0C0E0742A121CD6D0E0D1
:1031B400F07411121CD6E0C0E0742B121CD6D0E0BF
:1031C400F07412121CD6E0C0E0742C121CD6D0E0AD
:1031D400F07413121CD6E0C0E0742D121CD6D0E09B
:1031E400F0EE900301F01212677C017D007A1F7BE0
:1031F400001205A1854182854283E4F0741C121CEF
:10320400D67488F0A37413F07401121CD67401F000
:10321400741A121CD67408F0A3E4F07418121CD6A5
:10322400740AF0A3E4F07416121CD6E4F0A3F0744C
:1032340014121CD67464F0A3E4F0AC41AD427901DD
:103244007A057B0312141D741C121CF079027A0691
:103254007B0312141D741E121CF079177A087B0369
:1032640012141D7CD57D0F79077A077B0312141D78
:103274007401121CF079017A107B0312141D741A64
:10328400121CF079027A117B0312141D7418121C9B
:10329400F079027A127B0312141D7416121CF07951
:1032A400027A137B0312141D7414121CF079027A2F
:1032B400147B0312141D75210A7522037821121F31
:1032C4000D7CDC7D0F7AC57B0F120ADB7402121CA5
:1032D400A07C0A7D037A15790012071B7CA07D006F
:1032E4007A067B001205A17CA07D007A077B001280
:1032F40005A17CA07D007A087B001205A17CA07D3D
:10330400007A097B001205A17435121CD61250CB29
:1033140004121CD67401F0854182854283F0740343
:10332400121CD6E4F07402121CD67401F074351227
:103334001CF079047A087B041210AB7401121CF09F
:1033440079017A007B041210ABAC41AD4279017A69
:10335400027B041210AB7403121CF079017A037B14
:10336400041210AB7402121CF079017A067B041269
:1033740010AB90823E121B6012072190823E121BFA
:103384006012082912102190823E121B6012103321
:10339400900301E0F91212851214CB120463120493
:1033A400691214A11214B312124912105D1210639F
:1033B4001212619082CEAC41AD427401121B9DA8E1
:1033C40041A942882189227821121F0D7C017D00A8
:1033D4007AF07B1F1211A77402121CA0854182850A
:1033E4004283E064AA60031204B11212137AF47BDC
:1033F400011211EF7A057B10121039790112092597
:10340400790212091F790012092B79011209317A04
:10341400017B00900301E0F91212F1790112137596
:103424007439022F0C74EC121CFA74FD121C8A8974
:103434002390828CAC41AD427403121B9D7A10FB25
:103444001213638A218B22AE21AF22C2AFA841A9F5
:1034540042882189227821121F0D7C017D007AFE89
:103464007B1F1211A77402121CA07401121CD685B2
:1034740082218583227821121F0D7C017D007AFF31
:103484007B1F1211A77402121CA07402121CD68591
:1034940082218583227821121F0D7C017D007AF020
:1034A4007B1F1211A77402121CA0D2AF1204758ADA
:1034B400218B221204758A258B261204758A278B88
:1034C40028A827A928C3E5219525E5229526505249
:1034D400C3E52598E526994052C3E52198E522994C
:1034E400405A85212985222AE4F52BF52C782912C6
:1034F4001537900B617829121B51854182854283CF
:10350400E0603FF525E4F526F527F5287825121522
:103514003778297925121742900B617829121B51AB
:103524008046C3E89525E9952650088525298526F2
:103534002A80B5C3E89521E9952250A68829892ACD
:1035440080A67401121CD6E0F8601D8825E4F526D7
:10355400F527F52878251215377825792912176764
:10356400900B617825121B51900B617825121B4238
:103574009082367829121B42782579291216F65042
:1035840007900B65746480297825121594E5252429
:10359400BDF8E52634F9F9E875F064A4F8AAF075E5
:1035A400F064E9A42AF97A547B01121BFFE8900B1A
:1035B40065F07401652370518E828F837431F0EE4F
:1035C4002402F8E43FF9E8FAE9FBA3A882A9837589
:1035D400F00A900B65E084940A88828983400A7417
:1035E40001F08A828B83E4801AE4F0900B65E0F8A2
:1035F40075F00A84A9F075F00AE884C454F0298AA5
:10360400828B8312527512103FEEFAEFFB1213698C
:10361400900B65E0F97403121CA07F0C021DCC749E
:10362400E8121CFA74E2121C8AEAFEEBFF54806072
:103634003A900301E0F91212D98A218B22EA452239
:1036440060218A828B83E064C07011A3A3A3E0FA93
:103654008521828B83A3A3E0F9120493AA21AB22D0
:103664001212C7EEFAEF648002492BEEA2E0501466
:103674007A017B101214297A067B031210C9EE64B6
:10368400010249295402602012049F90820E121FE5
:10369400207A027B00900301E0F91213F9740412FA
:1036A4001CA0EE6402024929EE544070030239283A
:1036B4009080817407121CF07417121B9D900303F1
:1036C400E0700474018001E4F07C057D0079007AE7
:1036D400277B0B121465900B60E4F0900303E06405
:1036E4000185418285428360030237C27401F07907
:1036F40000121375900B5EE4F07C5E7D0A7AC47947
:10370400801213D5900B66E0603AC2AF7521A475A0
:10371400220B7821121F0D7C2C7D037A007B001272
:1037240011A77402121CA07521D075220E782112E3
:103734001F0D7CF47D007A007B101211A774021215
:103744001CA0D2AF12109312121F79001212737AB6
:10375400027B00900301E0F91212F1908276121FAD
:10376400207A007B01900301E0F91213F97404122A
:103774001CA07A007B40900301E0F91212F19082C0
:103784006A121F207A407B00900301E0F91213F9BA
:103794007404121CA012142FAC41AD4279017A05B5
:1037A4007B0312141D7407121CE812047B740712A5
:1037B4001CF079177A087B0312141D023922E4F0F5
:1037C40012142FAC41AD4279017A057B0312141D0A
:1037D400900B2FE4F0900B66E06025900B3DE4F035
:1037E400900B5FF0900B3EF0900B2DF0900BA3F03C
:1037F400900B2CF0900B24125F99900B5AF08003DD
:1038040012148312125B1214B312105D900B66E053
:103814006074900B5CE064426008900B5EE06401AD
:10382400700FC2AF7C5E7D0A7AC479801213CFD246
:10383400AF900B5CE0F860057442687008900B5E12
:10384400E064027041C2AF7521A475220B78211285
:103854001F0D7C2C7D037A007B001211AD740212C3
:103864001CA07A0A7B001211EF7521D075220E7804
:1038740021121F0D7CF47D007A007B101211AD74AF
:1038840002121CA0D2AF1212257A007B20900301F1
:10389400E0F91214057A087B00900301E0F9121490
:1038A400057A047B00900301E0F91214057A027B87
:1038B40000900301E0F91214057A407B00900301A3
:1038C400E0F91214057A007B02900301E0F9121466
:1038D400057A007B04900301E0F91214057A007B59
:1038E40010900301E0F91214057A007B089003019B
:1038F400E0F91214057A007B01900301E0F9121437
:10390400057A107B00900301E0F91214057A007B1C
:1039140040900301E0F91214057901121375EE6465
:1039240040024929EF54027003023A1590809874BA
:1039340007121CF07417121B9DFA7B02900301E01E
:10394400F91214057A007B04900301E0F9121405BE
:10395400900B2FE0700474018001E4F0900B3DE4BF
:10396400F01214B3900B55E4F0900B3E1250F11288
:103974001465900B2FE0854182854283602EE4F02C
:1039840012142FAC41AD4279017A057B0312141D48
:103994007A027B00900301E0F91214057A007B0897
:1039A400900301E0F91214057903805A7401F012AE
:1039B400142FAC41AD4279017A057B0312141D74B6
:1039C40007121CE812047B7407121CF079177A089A
:1039D4007B0312141D90820E121F207A027B00902A
:1039E4000301E0F91213F97404121CA07A007B108D
:1039F400900301E0F91214057A007B20900301E0A2
:103A0400F91214057927121273EEFAEF64020249CF
:103A14002BEF54047003023FD5900B3EE4F0FA7B85
:103A240004900301E0F91214057A007B109003015D
:103A3400E0F9121405900B32E0F8900B3DE060338E
:103A4400147003023B0F147003023C4A1470030207
:103A54003D63147003023DA8147003023E271470E2
:103A640003023EC2147003023F5B147003023F83DF
:103A7400023FC17521067522007821121F0D7C3288
:103A84007D0B7A5E7B0A12145F7402121CA0E9603B
:103A940032908266121F207A407B00900301E0F985
:103AA4001213F97404121CA0900B3D7401F07922D6
:103AB4001212737C0A7D0079FF7A327B0B12146533
:103AC400023FC1900B3DE4F07904121273900B5540
:103AD400E0041250E1121465900B55E0C3940650B3
:103AE40003023FC11210937A817B0812109FEAF8F7
:103AF400EBF9ECFAEDFB900B56121B847A407B0039
:103B0400900301E0F91212F1023FC17521027522FE
:103B1400007821121F0D7C327D0B7A177B10121452
:103B24005F7402121CA0E96032900B3D7402F079BC
:103B340005121273900B3DE0C39402401790821A51
:103B4400121F207A007B10900301E0F91213F9741C
:103B540004121CA0900B3EE4023FC07821121F0DFA
:103B64007C327D0B7A197B1012145F7402121CA034
:103B7400E9600A900B3D7403F0790980B47821124E
:103B84001F0D7C327D0B7A1B7B1012145F740212A2
:103B94001CA0E9600F900B3D74041250E1121465EF
:103BA400790D808D7821121F0D7C327D0B7A1D7B5F
:103BB4001012145F7402121CA0E9601A7912121216
:103BC40073900B3D7405F07A007B20900301E0F9BB
:103BD4001212F1023B387821121F0D7C327D0B7AD0
:103BE4001F7B1012145F7402121CA0E9600C79127E
:103BF400121273900B3D740680CC7821121F0D7C39
:103C0400327D0B7A217B1012145F7402121CA0E91E
:103C1400600B900B3D7407F07919023B3578211243
:103C24001F0D7C327D0B7A237B1012145F740212F9
:103C34001CA0E9900B3D60087408F0791D023B3527
:103C44007401F0023B587A107B001213638A218BB3
:103C540022900B24E064016003023D4E900B33E09C
:103C6400640B6009A3E0640B6003023D4E124987B4
:103C7400121C77746E2523F582740A3524F583E0CB
:103C8400F46003023D31E9900B527005E044118069
:103C940008E04421125FA54441F0124987121C77C1
:103CA400745E2523FA740A3524FBEA2410F582E4B1
:103CB4003BF583E9F07523077524007823121F0D63
:103CC4007C4C7D0BEA2411FA50010B12129D7402F4
:103CD400121CA07C0679007A4C7B0B1204ABE9F829
:103CE400852182852283742FF0900B2512497EF062
:103CF400900B5212497EA3F0E8852182852283A38A
:103D0400A3A3F0AC21AD227A10790112103F7907F8
:103D14001212737C077D0079007A4C7B0B121465B8
:103D24007C5E7D0A7AC479801213CF801D8541821E
:103D3400854283E4F012142FAC41AD4279017A0537
:103D44007B0312141D7924121273AA21AB221213BD
:103D540069900B2574FFF0900B24E4F0023FBB75CF
:103D640021067522007821121F0D7C327D0B7A3FCB
:103D74007B0B1212AF7402121CA0E960207821128E
:103D84001F0D7C3F7D0B7A5E7B0A12129D7402121A
:103D94001CA0900B5CE04442F0790B8002790C1279
:103DA4001273806F7521067522007821121F0D7C15
:103DB400327D0B7A3F7B0B1212AF7402121CA0E906
:103DC4006046900B26E0FC8C2174047821121C7749
:103DD40074A42521F8740B3522F9E8FAE9FBEC8A7E
:103DE400828B83A3125FB7121F0D7C3F7D0BEA24E5
:103DF40002FA50010B12129D7402121CA0900B5C6B
:103E0400E04444F079118002790C121273900B266D
:103E140074FFF07C067D0079BB7A3F7B0B1214653E
:103E2400023FBB7A087B001213638A218B229081A4
:103E3400B67401121CF07406121B9D900B32E064E0
:103E44000B6003023F5275250085252375240074F9
:103E5400047823121C77124947121F0D7403121C95
:103E6400F0AA23AB2412145F7402121CA0E9603C74
:103E74007525067526007825121F0D7C457D0BAA35
:103E840023AB2412129D7402121CA0900B3D7401EA
:103E9400F07C067D0079BB7A457B0B121465900B90
:103EA4005CE04448F07914121273800F740965259C
:103EB40060090525E525C3940A408E023F527A081D
:103EC4007B001213638A218B2275230275240078E8
:103ED40023121F0D7C327D0B7A257B1012145F7424
:103EE40002121CA0E960677525008525237524004E
:103EF40074047823121C77124947121F0D7C457DE8
:103F04000BAA23AB2412145F7402121CA0E9602ACA
:103F14007C067D0079FFAA23AB241214657C067D00
:103F24000079BB7A457B0B121465900B3D125FA39D
:103F34004448F079181212738014740965257005C9
:103F440079171212730525E525C3940A409CAA210A
:103F5400AB221213698060740B68705B7C077D0070
:103F640079BB900B26E0F5218D2274047821121C74
:103F740077125F74121465900B5CE04444803274D1
:103F84000B687033900B25125110121C77745E2548
:103F940021FA740A3522FBEA2410F582E43B124923
:103FA4005CEA2411FA50010B121465900B5CE04496
:103FB40041F0791B121273900B3D7401F0900B26A3
:103FC40074FFF01250ED121465EEFAEF6404024926
:103FD4002BEE54086044900B22E064017036900389
:103FE40002E06405702E900B5CE06028900B2FE0DB
:103FF4007022900B5CE0A2E7401A125FE97A277BFB
:10400400101204ABE9900B53F07C277D107A1079E1
:104014000112103FEE6408024929EF5408700302AC
:1040240041F37A007B08900301E0F9121405900B28
:1040340066E070030241BF75230085232185212595
:1040440075260074047825121C7774A42525F5259B
:10405400740B3526F5267527067528007827121F58
:104064000D7C327D0BE5252443FAE5263401FB1251
:10407400145F7402121CA0E96027900ED17404F03E
:10408400E523A3125FA544601250E11214657C106D
:104094007D0079BBE5252442FAE5263401FB024183
:1040A4005C7827121F0D7C327D0BE5252402FAE48F
:1040B4003526FB12145F7402121CA0E96008900EEE
:1040C400D17401024155E52175F007A4F521E5F00D
:1040D400F52274A42521F521740B3522F5227525CA
:1040E400067526007825121F0D7C327D0BE52124F0
:1040F400E3FAE5223401FB12145F7402121CA0E9F6
:104104006007900ED1740580487825121F0D7C320B
:104114007D0BE5212429FAE5223402FB12145F7495
:1041240002121CA0E96007900ED174068023782542
:10413400121F0D7C327D0BE521246FFAE522340237
:10414400FB12145F7402121CA0E9601D900ED1745E
:1041540007F0E523A31250E11214657A107B009056
:104164000301E0F91212F1804B7409652370399050
:104174000B55E004F0C39406401C1210937A817B23
:104184000812109F900B56121B6C7A407B00900310
:1041940001E0F91212F179041212737C0A7D00799C
:1041A400FF7A327B0B1214650523E523C3940A506E
:1041B4000302403E900B3EE4F0802C900B55E0044B
:1041C400F0C39406401C1210937A817B0812109F4E
:1041D400900B56121B6C7A407B00900301E0F9129D
:1041E40012F17904121273EEFAEF640802492BEF0C
:1041F400540170030242FC1210937A817B0812105E
:104204009F8A218B228C238D24752700AA278A2537
:1042140075260074027825121C7774A42525F52DC3
:10422400740B3526F52EE52D24B4F525E52E340240
:10423400F526EA75F007A4FAABF074A42AF52F74F6
:104244000B3BF5308525828526837829121B429005
:1042540082627829121ABB782979211214F8400E47
:1042640012496824E2FAE5303401FB121465E52DA5
:1042740024DCF525E52E3402F526852582F58378A0
:1042840029121B4290825A7829121ABB7829792163
:104294001214F8400E1249682428FAE5303402FB5F
:1042A400121465E52D2404F525E52E3403F5268541
:1042B4002582F5837829121B429082427829121AAA
:1042C400BB782979211214F8400E124968246EFA39
:1042D400E5303402FB1214650527E527C3940A5020
:1042E400030242107A007B01900301E0F9121405E5
:1042F400EEFAEF640102492BEE54107003024526D6
:10430400900B5FE0600C7A007B40900301E0F912AF
:104314001405900B2CE0F860057403687015E00434
:10432400F0900305E0700474018001E4F09082765B
:1043340002450C7401686003024484121093900BCC
:104344005CE04450F0900FC3E0C39410400A740F33
:10435400F0900ED0F0121459900ED0E0C0E0F52188
:1043640075220074047821121C7774C31250B87437
:104374000E125F7FD0E0F0900ED1E0C0E012510D3C
:10438400121C7774C41250B8740E125F7FD0E0F020
:10439400900ED2E0C0E012510D121C7774C5125079
:1043A400B8740E125F7FD0E0F0900881E0C0E01294
:1043B400510D121C7774C61250B8740E125F7FD060
:1043C400E0F0900882E0C0E012510D121C7774C72F
:1043D4001250B8740E125F7FD0E0F0900883E0C0F2
:1043E400E012510D121C7774C81250B8740E125F8B
:1043F4007FD0E0F0900884E0C0E012510D121C77E9
:1044040074C91250B8740E125F7FD0E0F090088522
:10441400E0C0E012510D121C7774CA1250B8740E29
:10442400125F7FD0E0F0900886E0C0E012510D12D8
:104434001C7774CB1250B8740E125F7FD0E0F090EA
:104444000FC3E004F0900ED0F0900B2CE004F012B7
:10445400124F90820E121F207A107B00900301E00D
:10446400F91213F97404121CA07A027B0090030160
:10447400E0F912140590823A121F207A4002451185
:1044840074046870087405F0121255807874066814
:104494007053E4F0900B55F07A10FB900301E0F9AF
:1044A400121405908232121F207A027B00900301BD
:1044B400E0F91213F97404121CA090822E121F202A
:1044C4007A407B00900301E0F91213F97404121C82
:1044D400A0900B5FE060457A007B40900301E0F917
:1044E4001212F1803774026870107403F012125BB8
:1044F400791F12127390822E800E740568701D74D9
:1045040006F012125B90820E121F207A107B00902C
:104514000301E0F91213F97404121CA0EE641002F2
:104524004929EE5404601512142F7A047B00900379
:1045340001E0F9121405EE6404024929EE54806086
:1045440048A296401B79001212737A407B009003B4
:1045540001E0F9121405908226121F207A8080143B
:104564007A807B00900301E0F912140590823A12DC
:104574001F207A407B00900301E0F91213F97404C0
:10458400121CA0EE6480024929EE542070030246F6
:10459400697A207B00900301E0F9121405A2975078
:1045A400030246699082CBAC41AD427401121B9D5B
:1045B40079011212737AC87B001211EF121483125C
:1045C400147712147D121471C2AF7C5E7D0A7AC412
:1045D40079801213CF7521A475220B7821121F0D37
:1045E4007C2C7D037A007B001211AD7402121CA096
:1045F4007A0A7B001211EF7521D075220E782112F0
:104604001F0D7CF47D007A007B101211AD74021230
:104614001CA0A841A942882189227821121F0D7C5F
:10462400017D007AF07B1F1211AD7402121CA07878
:1046340021121F0D7C017D007AFE7B1F1211AD74C7
:1046440002121CA07821121F0D7C017D007AFF7BD1
:104654001F1211AD7402121CA0D2AFC2AF75C9AB48
:1046640075C95B80FEEF542070030248327A087BE0
:10467400001213638A238B247A007B10900301E0D9
:10468400F9121405EEF521EF6420F522900B3DE0BC
:10469400640570347525067526007825121F0D7C77
:1046A400377D107AD57B0C12145F7402121CA0E9BA
:1046B400701679281212731250ED121465900B3D86
:1046C4007401F07A000247CFAA23AB241214C5E97F
:1046D400700302480D7A00EAF8E52328F582E435F0
:1046E40024F583A3E070037430F00AEAC39406400F
:1046F400E6852382852483A3AE82AF83900B3DE0BD
:10470400F8740568706275250075270675280078A9
:1047140027121F0DEEFCEFFD852527740478271260
:104724001C7712493C12145F7402121CA0E9602B1E
:1047340079331212731250ED121465900B3D74010B
:10474400F090821E121F207A007B10900301E0F982
:104754001213F97404121CA00247FF0525E525C3B2
:10476400940A40A57913804D74066870737525000A
:104774007527067528007827121F0DEEFCEFFD85BE
:10478400252774047827121C7712493C12145F748D
:1047940002121CA0E9602390821E121F207A007B63
:1047A40010900301E0F91213F97404121CA0900B89
:1047B4003EE4F07916121273802674096525701789
:1047C4007917121273900B3EE4F0FA7B20900301E8
:1047D400E0F912140580500525E525C3940A40909C
:1047E4007525067526007825121F0DEEFCEFFD7A5F
:1047F400457B0B12129D7402121CA07A007B209040
:104804000301E0F9121405801790820E121F207A1A
:10481400007B20900301E0F91213F97404121CA028
:10482400AA23AB24121369AA21AB22024932EF5402
:10483400106050854182854283E4F0FA7B10900336
:1048440001E0F9121405900B24E0640170101214B5
:104854002FAC41AD4279017A057B0312141D900BF4
:104864003D7401F079211212737C0A7D0079FF7A7C
:10487400327B0B121465900B3EE4F0EEFAEF6410F9
:1048840002492BEF5440700302492E900B5FE00461
:10489400F0F8EF6440FF74F928C3940250327A2789
:1048A4007B0B12146BE9F521120469E521C3940B07
:1048B4005056792512127390820E121F207A007BB3
:1048C40040900301E0F91213F97404121CA08054FF
:1048D400E8C39407E8502C604B12046F790012046B
:1048E40087900B5FE0F8C394024013900B65E0C01F
:1048F400E0742528F582E4340BF583D0E0F090824F
:104904003280B7C3940A401C900B5FE4F07C05FD31
:10491400F97A277B0B1214657A007B40900301E03F
:10492400F9121405EEFAEFFB80047A007B00741E82
:10493400121CA07F10021DCC74452527FA740C3577
:1049440028FB2274452523F523740C3524F524759E
:104954002706752800782722F58374FFF07C077DED
:1049640000790022852582852683E4F0A3F0A3F054
:10497400A3F07C07FD79BBE52F22E0852182852207
:1049840083A322900B25E0F989237524007404780D
:10499400232274F0121CFA74DC121C8AEAFE7401DD
:1049A4006E600302507A900303E064016003024ADC
:1049B40099900B2CE06003024AA4121219E990109A
:1049C4003DF0F46051790012127390103DE0C0E0A4
:1049D400900B3EE0F8743228F582E4340BF583D072
:1049E400E0F0900B3EE004F0900B2FE0700C7A02A4
:1049F4007B00900301E0F9121405900B5FE0600C5A
:104A04007A007B40900301E0F912140590826A1247
:104A14001F207A40800E900B2FE0701E908212129D
:104A24001F207A027B00900301E0F91213F9740449
:104A3400121CA090103DE0F47012900B5FE060280F
:104A44007A007B40900301E0F91212F1900B3DE0F3
:104A5400C39402401390103DE0F4602D7A007B1063
:104A6400900301E0F912140590103DE0640A7019F6
:104A74009081E6121F207A007B02900301E0F91274
:104A840013F97404121CA0800C7A007B02900301B9
:104A9400E0F9121405900303E06401600302502658
:104AA40090103DE0F46072900B2CE0706C900B2F32
:104AB400E07003024FED90822E121F207A007B04D7
:104AC400900301E0F91213F97404121CA0900B3E38
:104AD400E0FA900B3DE0603014607E147003024BEA
:104AE4009C147003024C96147003024CF814700367
:104AF400024E1C147003024E74147003024EBC1454
:104B04007003024F3602507A1250BD7003024F2ECA
:104B1400EAC3940A4003024F2E7A807B009003017B
:104B2400E0F912140574106E60030250A0900303A0
:104B3400E0700C7A407B00900301E0F91212F190CE
:104B44008212121F207A207B00900301E0F91213D5
:104B5400F97404121CA00250AC74026A700B901019
:104B64003DE0640B70B3024F2EEAC3940340AA796C
:104B740030121273900B3EE4F0900B3D04F07A0077
:104B84007B04900301E0F91214057A007B10900372
:104B940001E0F912140580819080AF740D121CF0AD
:104BA4007417121B9DEAC394025003024C649010C4
:104BB4003DE0640B6003024C6474036A7005125098
:104BC400FC800B74026A700A900B32E024D0900BC4
:104BD40025F0900B25125110121C771250B6740A4E
:104BE400123068F4854182854283704E7401F079F5
:104BF4003412127312142FAC41AD4279017A057B41
:104C04000312141D740D121CE812047B740D121C83
:104C1400F079177A087B0312141D900B247401F0A9
:104C240090821E121F207A007B10900301E0F9127B
:104C340013F97404121CA0024E0DE4F012142FACEC
:104C440041AD4279017A057B0312141D79061212D3
:104C540073900B2574FFF0900B24E4F0FA024E0FCE
:104C6400EAC39404501374036A6003024B1D90104A
:104C74003DE0640B7003024B1D7930121273900BEC
:104C84003EE4F01250D4900B241250F0121465023A
:104C94004B8274066A6003024B1D900B44E064BBB4
:104CA4007521067522007821702D121F0D7C327D2E
:104CB4000B7A3F7B0B12129D7402121CA07C0A7D9E
:104CC4000079FF7A327B0B121465900B3EE4F07985
:104CD4000A121273024B1D121F0D7C327D0B7A3F98
:104CE4007B0B12145F7402121CA0E96003024DDBFB
:104CF400790C804EEAC39402404E90103DE0640B60
:104D0400704674036A70051250FC800B74026A705A
:104D14000A900B32E024D0900B26F0900B2612510F
:104D240010121C7774A51250B8740B12306864BB4F
:104D3400600E7910121273900B261250D7024F8B0B
:104D4400790E121273024E0D900B26E0F8EAC3940A
:104D540004401474FF68700F7930121273900B3D85
:104D64007401F0A3024C8D74066A6003024B1D901B
:104D74000B44E064BB703A74FF687003024B1D750A
:104D840021067522007821121F0D7C327D0B7A3F9B
:104D94007B0B12129D7402121CA07C0A7D0079FF09
:104DA4007A327B0B121465900B3EE4F0790F024CBF
:104DB400D574FF687003024B1D75210675220078B7
:104DC40021121F0D7C327D0B7A3F7B0B1212AF74C4
:104DD40002121CA0E9600F7A007B04900301E0F941
:104DE4001212F1024F98790C121273900B2674FF71
:104DF400F07C067D0079BB7A3F7B0B121465900B27
:104E04003D74011250E11214657A007B0490030191
:104E1400E0F9121405024F989081C27407121CF035
:104E24007406121B9D90103DE0640B702774016A98
:104E340070227521067522007821121F0D74091243
:104E44001CF07A457B0B12145F7402121CA0E970EB
:104E540053024FDEEAC394024003024FA674016A70
:104E64006003024B1DE0640B6003024FA6024B1D5E
:104E74009081DA7401121CF07406121B9D74026A8C
:104E8400702A7521067522007821121F0D740312F1
:104E94001CF07A457B0B12145F7402121CA0E9709B
:104EA40003024FDE7912121273024F98EAC394037D
:104EB4005003024B1D024FA690103DE0640B70514D
:104EC400EAC39402404B74036A70051250FC800BD1
:104ED40074026A700A900B32E024D0900B26F09092
:104EE4000B26125110121C7774A51250B8740B12B1
:104EF400306864BB700D791C121273900B2612502B
:104F0400D78005791A1212731250ED121465024BF0
:104F14001DEAC394044003024FA6E0640B6003023D
:104F24004B1D74016A6003024B1D900B3EE4F002BA
:104F34004FDEEAC39402406490103DE0640B705C61
:104F440074036A70051250FC800B74026A700A9034
:104F54000B32E024D0900B25F0900B25E0F9892149
:104F640075220074047821121C771250B6740A1248
:104F74003068F46003E9700A791C1212731250D479
:104F84008012791E1212737C0A7D0079FF7A327BBB
:104F94000B121465900B3EE4F0024B1DEAC394041B
:104FA40040257930121273900B3D7401F0A3125016
:104FB400F01214657A007B10900301E0F9121405D5
:104FC4007A007B04024B9274016A6003024B1D90C9
:104FD400103DE0640B6003024B1D7A007B049003D8
:104FE40001E0F91212F1024B1D900B3EE0FA12504F
:104FF400BD6006EAC3940A40067A007B0880DFEAB3
:10500400C394065003024B1D908212121F207A0093
:105014007B08900301E0F91213F97404121CA00236
:105024004B1D900B3EE4F0900B55E0C39406403FBB
:105034001210937A817B0812109F8A218B228C2371
:105044008D24900B567825121B429081EA78251204
:105054001ABB782579211214F8404D900B55125043
:10506400CBA3F09081EE121F207A407B0080A37ABC
:10507400407B00024FE274026E6003024B1D9003FA
:1050840003E0700C7A407B00900301E0F91212F106
:105094007A807B00900301E0F91212F17A207B0000
:1050A400900301E0F91214057424121CA07F080275
:1050B4001DCC746E2521F5822274312AF582E434E4
:1050C4000BF583E0640B22E4F0A3F0A3F0A3F02239
:1050D400900B2574FFF0900B3D7401F022F07C0AD4
:1050E4007D0079FF7A327B0B22900B3EE4F07C0A40
:1050F400FD79FF7A327B0B2275F00A900B32E05473
:105104000FA4F8A3E0540F2822900ED0E0F52175E7
:105114002200740478212274F4121CFA74F1121C13
:105124008A8921E91460101470030251C424FD70AB
:10513400030251F20252667409121CF07A047B03D2
:105144001214237409121CD6E0C0E07401121CD698
:10515400D0E0F0740A121CD6E0C0E07402121CD62F
:10516400D0E0F0740B121CD6E0C0E07403121CD61D
:10517400D0E0F07405121CD6E4F07404121CD6E4DA
:10518400F0740E121CD6E0C0E07408121CD6D0E0F5
:10519400F0740D121CD6E0C0E07407121CD6D0E0E7
:1051A400F0740C121CD6E0C0E07406121CD6D0E0D9
:1051B400F07401121CF07A0879001210270252666A
:1051C400854182854283E4F07A04FB900301E0F98F
:1051D400121405900303E0600302526612142FAC0C
:1051E40041AD4279017A057B0312141D8074900B42
:1051F40024E06401703B7A107B001213638A238BD2
:1052040024AE23AF248E828F837401F0A3744FF0F5
:105214008E828F83A3A3744B12527512103F7A04AB
:105224007B00900301E0F9121405EEFAEFFB121370
:1052340069900B22E0701F900B24E070199081F2AA
:10524400121F207A047B00900301E0F91213F97411
:1052540004121CA0800C7A047B00900301E0F91274
:105264001405E521900302F0740F02305DE9900B00
:1052740053F0EEFCEFFD7A1079012274F4121CFA5B
:1052840074FF121C8A7A087B001213638A218B2212
:10529400AE21AF22854182854283E4F0900B22E067
:1052A4006023900B2DE06401701B900B5CE0701583
:1052B40012142FAC41AD4279017A057B0312141DFF
:1052C400900B2DE4F0EEFAEFFB1214C5E970030223
:1052D40053587A00EAF8EE28F582E43FF583A3E018
:1052E40070037430F00AEAC3940640E8752100752F
:1052F40023067524007823121F0D8E828F83A3AC9E
:1053040082AD8385212374047823121C7774452588
:1053140023FA740C3524FB12145F7402121CA0E9E6
:10532400601B1214A7900ED17403F0E521A3F07A48
:10533400107B00900301E0F91212F18017740965E3
:105344002170081214AD79011212730521E521C3ED
:10535400940A409BEEFAEFFB121369740102305D6C
:1053640074F0121CFA900303E064016003025F66A8
:10537400E9600A24FE7003025996025F667A2A7B6A
:1053840003790012104575211A7522037821121F22
:105394000D7C2A7D037AC57B0F120B357402121C17
:1053A400A07C5E7D0A7AC479801213D590031AE03A
:1053B40014601D1470030255A31470030256BF2415
:1053C400FB700302593824F8700302597E025F66A9
:1053D400752300AE238E2175220074047821121CDB
:1053E40077745E2521F521740A3522F522E52124FE
:1053F40011F525E43522F52675270675280078274A
:10540400121F0D7C1B7D03AA25AB2612145F7402A8
:10541400121CA0E970030255159003047401F012E4
:10542400046F7901120487120469EE900BA3F07AD9
:10543400047B00900301E0F9121405EE900B227036
:1054440027125FA36025900B2FE0701F125FE97A8B
:105454003E7B101204ABE9900B53F07C3E7D107A36
:1054640010790112103F80037402F0E5212417F82B
:10547400E43522F9E8FAE9FB900321E0FE540FFC3D
:105484008A828B83E0540F6C7001E46002EEF07446
:105494000F5EF8740168700B900B237401F0900B8D
:1054A4002E800A7402687006900B237402F074F064
:1054B4005E703090033A7421F0E523A370047411F4
:1054C40080027421125FC112103F900B24E064012A
:1054D4007011900B3D7401F0A3E4F0793312127350
:1054E400025F66900321E054F064306003025F665B
:1054F400E5212410F582E4352212495CAA25AB2665
:10550400121465900B23E4125F99900B5E04025F02
:105514006574096523702F900B24E064017027756E
:1055240021077522007821121F0D7C1B7D037A4C04
:105534007B0B12129D7402121CA07A007B04900350
:1055440001E0F91212F1EE75F006A4FEAFF07467F3
:105554002EFE740B3FFF7521067522007821121F61
:105564000D7C1B7D03EEFAEFFB12145F7402121C18
:10557400A0E9601C90033A74CCF0A3F0A3125FC1BD
:1055840012103F7C067D007900EEFAEFFB121465E1
:105594000523E523C3940A4003025F660253D790B0
:1055A4000B5CE090034AF0900B53E0901050125FB4
:1055B400E16003025F667521037522007821121FE2
:1055C4000D7C1B7D037A4E7B1012145F7402121C37
:1055D400A0E9607D900B53E4F0780090034AE0A2C8
:1055E400E0505EE8601414601814601C1460201409
:1055F400602414602814602C804790105E744180ED
:105604002890105E7442802190105E7443801A903A
:10561400105E7444801390105E7445800C90105E8C
:105624007446800590105E7447F07C0379007A5EBE
:105634007B101204ABE9900B53F07C5E7D10025E8C
:1056440080E0C313F008E8C394074003025F668058
:105654008A900B5DE0F87003025F66900B53E4F0F0
:10566400E814601514601924FE601C24FC601F24D7
:10567400F8602224F06025802990106E7441802106
:1056840090106E7442801A90106E744380139010C0
:105694006E7444800C90106E7445800590106E7486
:1056A40046F07C6E7D107A10790112103F7C0390D5
:1056B4000B53E0F97A6E7B1002592E752102752284
:1056C400007821121F0D7C1B7D037A4E7B1012146F
:1056D4005F7402121CA0E97003025F66900B22E063
:1056E40064016003025F6690031DE0F8A3E024BF39
:1056F40060241460701470030257A11470030257DD
:10570400EB147003025833147003025882147003AC
:105714000258CB025F66900B53E0687040E4F0756A
:10572400210185212575260074047825121C7774BF
:105734006E2525FE740A3526FF7C081260101204BB
:10574400AB12527112103F0521E521C3940A40D2D5
:10575400900B5CE0C2E0F0A37401025F65125F93FA
:105764007441025917900B53E0687029E4F07C06E9
:10577400F97A5E7B0A1204ABE9900B53F07C5E7DF0
:105784000A7A10790112103F900B5D7402125FA522
:10579400C2E1025F65125F937442025917900B5382
:1057A400E068703BE4F075210085212575260074BE
:1057B400047825121C7774A52525FE740B12600B42
:1057C4001204AB12527112103F0521E521C3940A51
:1057D40040D7900B5CE0C2E2F0A37404025F651250
:1057E4005F937443025917900B53E0687039E4F0E7
:1057F40075210085212575260074047825121C77EF
:10580400125F697C061260101204AB1252711210FE
:105814003F0521E521C3940A40D9900B5CE0C2E323
:10582400F0A37408025F65125F93744402591790E1
:105834000B53E0687040E4F075210085212575263E
:105844000074047825121C7774D32525FE740E3554
:1058540026FF7C091260101204AB12527112103F21
:105864000521E521C3940F40D2900B5CE0C2E4F023
:10587400A37410025F65125F937445025917900B6D
:1058840053E068703BE4F0752100852125752600FE
:1058940074047825121C7774E62525FE740C1260B6
:1058A4000B1204AB12527112103F0521E521C3946F
:1058B4000A40D7900B5CE0C2E5F0A37420025F6558
:1058C400125F937446804C900B53E0687040E4F090
:1058D400900B5CF0A3F012147D7A0A7B001211EF96
:1058E4007521D075220E7821121F0D7CF47D009055
:1058F4000B20E0FAA3E0FB1211AD7402121CA07A93
:10590400027B00900301E0F91212F1025F66125F5C
:10591400937447F07C7E7D107A10790112103F7CDD
:1059240003900B53E0F97A7E7B101204ABE9900BE1
:1059340053025F6512109390031BE0900881F0906E
:10594400031CE0900882F090031DE0900883F0901F
:10595400031EE0900884F090031FE0900885F09007
:105964000320E0900886F012108D90033A7416F02C
:10597400A3744BF0A3744F025E7BA3E0644F6003F7
:10598400025F66A3E064506003025F66900B2E0220
:105994005B71121093900B54E4F07A2A7B03790222
:1059A40012104575211A7522037821121F0D7C2AC5
:1059B4007D037AC57B0F120B357402121CA0900371
:1059C4001BE0FE8E2175220074047821121C77A836
:1059D40021A922A3E0F52390031AE014603914707E
:1059E40003025A81147003025ADE147003025B1618
:1059F400147003025B99147003025BDE14700302DB
:105A04005C35147003025D8D147003025E8A147099
:105A140003025F61025F66745E28FE740A39FFEE5A
:105A24002410F521E43FF522900B54E0F97C08AAF8
:105A340021AB221204AB125FDC703AE523687035A7
:105A4400900B5E7401F085218285228312495EEEFB
:105A54002411FAE43FFB12146590033A7403125FB5
:105A6400FA125FC112103F7C5E7D0A7AC4798012FB
:105A740013CF025F6690033A7450025B0B900B5491
:105A8400E0F97C067A5E7B0A1204AB125FDC70429A
:105A9400EE68703E900B5E7401F07C067D00790028
:105AA4007A5E7B0A1214657521067522007821122C
:105AB4001F0D7C8E7D107A5E7B0A12129D74021279
:105AC4001CA090033A7404F0900B54E090033B0242
:105AD4005E7B90033A7451025E7774A528FE740BC2
:105AE400391260311204AB125FDC7016E523687062
:105AF40011125FCB12146590033A7405125FFA0217
:105B04005E7B90033A7452F0A374FFF0A374CC024A
:105B14005E7B900B22E064016003025F66752100E6
:105B240085212575260074047825121C77125F6977
:105B34007525067526007825121F0D7C1B7D03EE46
