:020000040000FA
:0600000002011A02275B59
:03002B00022EC4DE
:030053000227CEB3
:03007B00022E89C9
:100083000225C7E5C754F84401F5C77901220000EA
:100093000080FB120086B90003020104E47944786E
:1000A30008B800028004F709D8FCE4794C7802B858
:1000B30000028004F709D8FCE490030178B6790DB7
:1000C3008002F0A3D8FCD9FA784390014A7A01BAA6
:1000D30000028007E493A3F608DAF97AB67B0F905F
:1000E300014B781079048015E493A3AD82AE838A23
:1000F300828B83F0A3AA82AB838D828E83D8E9D9C6
:10010300E77582BD7583E1740312012C75829175C5
:100113008300740012012C75D00075817F75410135
:10012300754203759F00020096C09FF59FE473D04C
:100133009F22D083D082C09FE493C0E0740193C018
:10014300E0740293F59F220101030507FFFE778800
:1001530012993241142425360D0947656D696E697C
:100163002D424131303005120A001400020A000208
:1001730001060302E0FF2A2A47656D696E692D4275
:10018300413130302A2A00000000008A0400009622
:10019300040A0B310B320B330B340B350B360B0AC2
:1001A3000A02534A000000000000000000000000A3
:1001B30000FFFFFFFFFFFFFF02534A0000000000A4
:1001C30000000000000000004F4B00000000000092
:1001D300000000000000000000534A00000000007F
:1001E3000000000000000000004357000000000072
:1001F3000000000000000000004357000000000062
:1002030000000000000000003132333435361F4B4C
:100213004F00000000000000000000000000FF008D
:1002230000B4000028002800283075A000A000A01A
:1002330000A00000080008E001F00010001000100A
:10024300001000100010005000500050001000106B
:1002530000D0070000000000000F0001000500307F
:100263007507001000010081FF00000000FFA606D3
:10027300C406AC06FF02020208025000A000000000
:10028300E803021C820100000082022082010000B8
:10029300E3100224820100006D03022082010000AA
:1002A300E410022682010000830302208201000081
:1002B300E51002288201000085030220820100006C
:1002C300E610022A82080000860302208201000051
:1002D300E710022C82010000E810FF0100FF20025A
:1002E3001C8201000003820220820100004C1102E3
:1002F3002E820000000000022282030000D303A626
:100303000CA60CA60CA60CA60CA60CA60CA60CA65A
:100313000CA60CA60CA60CA60C3A0F520F340F0217
:100323000202020202020202010D00000010010299
:100333001C82010000FA810220820100008D11025B
:100343003E82010000FA070220820100008E1102A2
:10035300328201000015810220820100008F110208
:100363003082010000078102208201000090110207
:100373001682010000938002208201000091110285
:100383001482010000B78002208201000092110252
:100393001282010000A58002208201000093110255
:1003A300108201000081800220820100009411026A
:1003B3003882010000F980022082010000951102B9
:1003C3003A8201000096110A160A0A021C820100F1
:1003D3000009820220820100003512021E820300FE
:1003E3000004080220820100003612020E8203007C
:1003F3000014080222820300002408022082010064
:100403000037120222810300002A08022082010021
:10041300003812020C820300003A0801E803053F8A
:10042300100AFFFFFF000130750302010600000000
:1004330000000000000000000000000000000000B9
:10044300000000000000000000FFFF0600800CE831
:1004530003313233343536120135BE7F0012013594
:10046300D27F00120135D47F00120135D97F0012EB
:100473000135122F001201354431001201353D338D
:1004830000120135CD46001201353F4E00120135F1
:10049300AB4F00120135905000120135E05D0012A0
:1004A3000135235E001201359ED403120135B5D404
:1004B30003120135E6D40312013521D503120135A8
:1004C3004BD50312013575D5031201358CD50312B3
:1004D3000135A3D503120135BAD503120135E3D58E
:1004E30003120135F6D5031201350CD6031201357B
:1004F3001FD60312013546D603120135C0EC021292
:100503000135C4ED02120135FCED021201351FEE77
:10051300021201352AEE021201354DEE02120135A7
:100523005CEF0212013531F002120135ACF0021218
:10053300013534F1021201356FF102120135A6F1D2
:100543000212013534F2021201350DF302120135A4
:100553006DF30212013578F302120135F7F302123B
:100563000135FAF302120135FDF3021201358CF461
:10057300021201358FF402120135BFF40212013564
:10058300E9F402120135D7F50212013589F6021298
:100593000135DB97031201350398031201353198B6
:1005A30003120135689803120135C6980312013509
:1005B3001199031201355C99031201359C990312B9
:1005C3000135E29903120135109A03120135CD9AD0
:1005D30003120135D79A03120135E49A0312013548
:1005E300179B03120135E39B03120135EF9B0312A3
:1005F3000135079C03120135119C0312013562DF9B
:100603000312013570DF0312013588DF0312013550
:10061300A0DF03120135008002120135AC80021203
:100623000135278102120135488202120135848285
:10063300021201352D830212013514840212013591
:10064300788502120135CF850212013550860212D8
:1006530001354087021201358D8702120135138857
:1006630002120135458802120135598A02120135F9
:100673009B8A02120135B98A021201353C8B0212A0
:100683000135108C02120135D88C0212013541F864
:100693000112013514F901120135BDF901120135B9
:1006A30010FA01120135C0FA011201354CFB011297
:1006B300013538FC0112013567FC011201357AFD61
:1006C30001120135C2FD0112013597FE01120135F8
:1006D300D3FE01120135EFFE0112013563FF021251
:1006E300013507BA031201351DBA0312013543BAA6
:1006F300031201355FBB0312013569BB03120135D8
:100703009EBC0312013596BD03120135B492031248
:100713000135E493031201351794031201356194F3
:100723000312013528960312013552E801120135EF
:10073300BCE8011201351BEA011201352BEA011253
:10074300013558EA01120135AFEA0112013558EBC0
:10075300011201355FEC0112013529ED011201355A
:1007630089EE01120135CCEE0112013571EF011250
:100773000135BEEF01120135E4EF01120135F2F14B
:1007830001120135F7F101120135FCF301120135B4
:1007930049F401120135BCF401120135EFF40112E1
:1007A300013591F5011201353AF60112013572F660
:1007B3000112013575F601120135BDF6011201353D
:1007C300FDF60112013554F70112013579C6031202
:1007D300013591C603120135D9C603120135EFC69F
:1007E3000312013536C7031201354AC80312013516
:1007F300D7C80312013522C903120135A85F0012BD
:100803000135B45F00120135EF5F0012013534602A
:1008130000120135F460001201357A6100120135CE
:10082300A66100120135DF61001201351D6400125B
:100833000135016600120135E767001201352A69A7
:1008430000120135786B001201358A6C00120135F4
:10085300D56D00120135E56E00120135026F0012ED
:1008630001353D6F001201355F6F00120135C26F14
:100873000012013583740012013518750012013519
:10088300697500120135907500120135E275001289
:1008930001350076001201355A7600120135597779
:1008A30000120135DD7700120135568D0312013533
:1008B300608D03120135A38D03120135BE8D031222
:1008C30001354E8E03120135768E03120135B38E38
:1008D30003120135EA8E03120135138F031201351A
:1008E300888F031201359D8F03120135B28F0312D6
:1008F3000135E38F03120135F78F031201351C9085
:10090300031201355690031201358290031201350B
:10091300BA9003120135199103120135989103120C
:100923000135C39103120135EE910312013537925C
:10093300031201356192031201358C9203120135C2
:100943004FDC03120135BFD402120135EDD402127C
:1009530001353BD6021201351BD7021201353AD7B6
:1009630002120135B7D702120135FAD70212013547
:1009730050D90212013511DA0212013598DC021244
:10098300013539DD021201352FDE021201352CDF6C
:100993000212013586E00212013511E1021201351E
:1009A3009BD90312013504DA0312013558DA031215
:1009B30001357FDA03120135B0DA0312013580A560
:1009C30003120135EDA50312013534A603120135D7
:1009D3004CA70312013548A8031201352BA90312B2
:1009E3000135FAF6021201353CF7021201350EF811
:1009F30002120135E7F802120135E1F9021201355D
:100A0300C3FA021201352CFB02120135E2FB02127A
:100A1300013556FC02120135C2FC02120135EBFC12
:100A23000212013565FD02120135FEFD0212013588
:100A330063FE0212013578FE02120135BEFE021278
:100A43000135D7FE021201353CFF021201353FFF8B
:100A530002120135A0C003120135C8C003120135CB
:100A630006C103120135C4C1031201352BC203129F
:100A7300013547C2031201356FC2031201359FC20C
:100A830003120135AEC2031201352BC30312013524
:100A930051C30312013598D70112013576D90112DA
:100AA3000135A8DB01120135E4DB0112013511DC4C
:100AB30001120135FBDC0112013546DD011201355E
:100AC30091DD01120135A3DD01120135E3DD0112D0
:100AD300013518DE0112013566DE0112013595DE9E
:100AE30001120135B8DE0112013505DF01120135AE
:100AF3008ADF01120135A4E101120135E3E301129A
:100B0300013524E401120135C6E50112013507E67A
:100B1300011201357AE601120135CBE601120135E6
:100B2300A6E701120135D0E70112013505E80112EC
:100B3300013530E801120135AAC702120135A8C8F0
:100B43000212013541CF0212013562D10212013581
:100B53002DD30212013595D40212013546820112BA
:100B63000135F582011201352283011201356883B3
:100B7300011201359E8401120135CC840112013525
:100B8300628601120135DC8601120135F7860112F6
:100B93000135728701120135CC88011201352C8A87
:100BA30001120135328B01120135938C011201358B
:100BB300AC8C011201350A8D01120135F88D011239
:100BC30001352B8E011201359B8E01120135158FD4
:100BD300011201355F8F0112013529900112013590
:100BE300FE9001120135DD91011201356892011267
:100BF3000135D692011201354A93011201357593DD
:100C03000112013534940112013599950112013510
:100C1300B69501120135D59501120135C69601121B
:100C23000135EB96011201351597011201359097A5
:100C330001120135EA970112013553990112013569
:100C4300019A01120135429A011201355D9D02128A
:100C53000135AB9D02120135B79D02120135959EF8
:100C630002120135C69E02120135F79E02120135AA
:100C7300779F02120135F59F021201352DA0021252
:100C830001357FA002120135BCA002120135D9A2A1
:100C930002120135FFA402120135EAA60212013540
:100CA300D4A802120135F07F0012013581AF011281
:100CB3000135B1AF011201358AB6011201350FB802
:100CC300011201350CBE01120135F4BE01120135CA
:100CD30031BF0112013554BF0112013585BF011225
:100CE30001358EBF0112013598BF0112013586C04F
:100CF300011201357CC101120135729A01120135CD
:100D0300719E01120135779E01120135B2A50112C0
:100D13000135CBAA0112013539B603120135CFB61D
:100D230003120135E5B6031201355BB70312013532
:100D3300CFB7031201350DB80312013581B8031281
:100D43000135FAB80312013503B9031201350FB99E
:100D53000312013524B90312013562B903120135B7
:100D630078B903120135D7B903120135EDA903127E
:100D73000135FAA90312013514AA0312013553AA46
:100D83000312013591AA03120135F6AA03120135A4
:100D93000BAB0312013516AB0312013523AB031260
:100DA30001353AAB0312013548AB0312013553AB9E
:100DB300031201355FAB031201356EAB031201352C
:100DC30079AB031201359CAB0312013543AC03121B
:100DD300013553AC031201356DAC031201358AACF6
:100DE30003120135A6AC03120135CBAC0312013556
:100DF300D6AC03120135EBAC03120135FFAC031281
:100E0300013560AD0312013566AD031201356CADDA
:100E13000312013572AD031201358AAD0312013598
:100E2300BDAD03120135B4AB0212013538AC021269
:100E33000135E7AC0212013546AE0212013567B047
:100E43000212013553B10212013588B10212013584
:100E5300AAB10212013559B20212013551B402127C
:100E630001357AB4021201350CB5021201353EB5D3
:100E7300021201354BB502120135A2B5021201353A
:100E8300C8B50212013535B80212013538B902125C
:100E9300013590B902120135F18E02120135FB8F33
:100EA30002120135E29002120135EC900212013573
:100EB3000E91021201351A9102120135B3920212F8
:100EC3000135E29202120135FE9302120135579465
:100ED30002120135BD95021201359C9602120135AD
:100EE300F89602120135659702120135A097021296
:100EF3000135DF9702120135989A02120135B29A31
:100F0300021201353E9B021201354C9B0212013540
:100F1300A59B02120135B39B02120135269C0212D6
:100F230001358A9C02120135D49C0212013592E1EB
:100F330002120135B4E102120135DAE3021201357E
:100F4300EFE60212013507E802120135BAE8021290
:100F530001359CE90212013558D6031201357DD6BD
:100F630003120135EFD6031201354478001201351F
:100F73004D78001201355678001201352D79001293
:100F83000135DE7A00120135147B001201354E7BE8
:100F930000120135847B00120135BE7B001201353E
:100FA300F27B001201351E7C00120135677C0012B2
:100FB3000135A17C00120135EA7C00120135427D26
:100FC30000120135777D00120135D27D0012013503
:100FD3000C7E001201355D7E00120135937E0012F6
:100FE3000135CD7E00120135FB7E001201351E7FD7
:100FF3000012013573E2031201359FE2031201353A
:10100300FAE20312013504E30312013514E3031278
:1010130001354CC90312013571C9031201359BC94E
:10102300031201353AAE031201357FAE03120135C7
:101033009CAE0312013555AF03120135BBAF03124A
:1010430001357FB00312013502B203120135A0BD91
:1010530003120135BBBD03120135EABD031201358D
:10106300F0BD03120135F6BD0312013523BE031291
:10107300013548BE031201355FBE0312013574BE4C
:1010830003120135C8BE0312013541BF03120135F6
:1010930061BF03120135CFE40312013594C301127A
:1010A3000135F6C501120135ADC701120135AAC8D4
:1010B300011201353AC901120135C1C901120135C5
:1010C300E6C90112013527CD011201359DCD01126B
:1010D30001358CCE01120135C6CE0112013506CF82
:1010E30001120135ACD00112013501D101120135D4
:1010F3004ED101120135BCD101120135E2D10112E9
:101103000135FCD10112013512D30112013522D36D
:101113000112013533D40112013548D401120135CE
:101123007ED401120135FFD5011201353ED60112DD
:10113300013563D70112013526E303120135BEE3FE
:101143000312013586E403120135C5E403120135A8
:101153009DE50312013504E10312013514E1031285
:10116300013523E103120135B7E10312013568DDCF
:1011730003120135ECDD0312013552DE0312013592
:1011830010A10312013547A10312013568A103120F
:101193000135D8A10312013544A2031201359BA3E3
:1011A30003120135F6DA031201351EDB0312013592
:1011B30092DB03120135A9DB03120135F9DB0312BC
:1011C300013543DC0312013546DC03120135E7FF29
:1011D30002120135F7FF02120135FAFF021201353F
:1011E30099C303120135DDC303120135F3C303129F
:1011F30001350EC40312013529C40312013574C429
:1012030003120135C3C40312013503C503120135AB
:10121300E5C5031201352FC603120135F87F00120D
:10122300013558CE03120135E0CF0312013541D009
:101233000312013587D00312013542E5031201354C
:1012430055E50312013559E50312013560E5031233
:10125300013562E50312013528E4031201352EE45A
:10126300031201357CE40312013539E00312013521
:1012730062E0031201358BE003120135A3E0031290
:101283000135E5E003120135D68703120135E08706
:1012930003120135208803120135698803120135D1
:1012A300A38803120135F988031201351889031243
:1012B30001352189031201357289031201359B8996
:1012C30003120135A58903120135168A031201356C
:1012D300A48A03120135F98A03120135278B0312FD
:1012E3000135A38B03120135E68B03120135238CE1
:1012F30003120135358C03120135548C0312013569
:101303005D8C031201352A8D03120135C9E30312E3
:101313000135FDD7031201354ED803120135D7D855
:10132300031201353DD90312013518CC03120135DF
:1013330042CC031201350BCD03120135E6CD031266
:1013430001356BDE031201359CD203120135D2D273
:10135300031201350BD30312013564D40312013593
:1013630064FF011201357AFF0112013584FF011276
:101373000135CEFF01120135008003120135BD8016
:1013830003120135F8800312013520810312013560
:10139300828103120135CE81031201353982031292
:1013A3000135B58203120135B18303120135388546
:1013B30003120135BB85031201351F860312013564
:1013C3003686031201352C87031201357887031201
:1013D3000135989C03120135AD9C031201355D9DC7
:1013E300031201359D9D03120135B69D031201358C
:1013F300E99D03120135369E031201356A9E0312DD
:101403000135AC9E03120135AAA003120135DEB9E2
:10141300021201353BBD02120135C3BE0212013572
:101423001ABF0212013539BF02120135B7BF0212CA
:10143300013547C1021201352BC20212013537C6ED
:101443000212013507C7021201353BB203120135FF
:101453008CB20312013525B3031201354DB30312C8
:101463000135D0B3031201352EB40312013546B54D
:101473000312013587B5031201358AD003120135F2
:1014830099D003120135C4D003120135CAD0031217
:101493000135D0D003120135EBD003120135F2D060
:1014A30003120135F9D003120135FDD003120135C2
:1014B3008CD103120135DBD1031201358BE5031205
:1014C300013594E50312013516E5031201356DE587
:1014D30003E066701008A3E066700A08A3E0667074
:1014E3000408A3E06622C3E7960809E7960809E71C
:1014F300960809E79622C3E09608A3E09608A3E0BE
:101503009608A3E09622C021C3E096F52108A3E044
:1015130096422108A3E096422108A3E09645217054
:1015230001D3D02122E9799EC608CAC608CBC608D2
:10153300CCC6C370207996CACBCC7019798ECBCC2C
:1015430070137986CC700EF9802ACA33CACB33CB99
:10155300CC33CC331930E7F2CCCBCA3350147004FC
:10156300EA30E00DE4CA3ACACB3BCBCC3CCC5002C8
:1015730009C3E913C6CC182313C6CB18C6CA18C6A9
:10158300F9221215C520F01430E72B74FFFCFBFA87
:10159300747F8022E4FCFBFA7480801AB48008BC58
:1015A30000F2BB00EF800F50EBF9E4C39AFAE49B1F
:1015B300FBE49CFCE499C6CC18C6CB18C6CA18C673
:1015C300F922E4C9C608CAC608CBC6D3330308CC7C
:1015D300C63392F0C3947F402E94184019C9B907BB
:1015E30004CACBCC225025C309CA33CACB33CBCCD4
:1015F30033CC33D9F422F4600DC9CCC313CB13CB52
:10160300CA13CAD9F6CC22E4FCFBFA2214FCFBFA77
:1016130022E62618461846184622E727194719478F
:10162300194722181818E60846087009E6260870B4
:1016330005E633F4220822191919E7094709700945
:10164300E727097005E733F4220922E6084608C3B1
:10165300134608336002E633F422E7094709C3134C
:101663004709336002E733F42212164E602512163F
:101673005D6020121614700302161D080808E76641
:1016830070101819E766700A1819E76670041819BC
:10169300E76622F42212164E601C12165D601712C2
:1016A3001614700712161D7001D322C0D012161D16
:1016B3007006D0D0B322C32233D0D0501430E0F61A
:1016C300C3E7960809E7960809E7960809E796B37A
:1016D3002220E0D5E6970809E6970809E697080966
:1016E300E697B32212164E601B12165D6016121691
:1016F30014700712161D600CB322C0D012161D7091
:1017030005D0D022C32233D0D0501330E0EBC3E74F
:10171300960809E7960809E7960809E7962220E064
:10172300E4E6970809E6970809E6970809E6972289
:1017330012165D604612164E603DE9687008F61891
:10174300F618F618F622748067F712176709090965
:10175300748067F72212164E601D12165D7005190C
:101763001919801A121626701F12163AC37003E64F
:10177300673319191940071818182208080874FF45
:10178300F618F618F618F62212163A601712161DF6
:10179300702192F01216147019501720F0140808D3
:1017A30008090909E7F61819E7F61819E7F61819E9
:1017B300E7F62212161460E6E869701F0808E624AB
:1017C30080F608E436F618547FB47F0CE654806044
:1017D30007F6E418F618F622181822E9C6CC08C64C
:1017E300CD08C6CE08C6CFC0E0E8C0E0EAC0E0EB53
:1017F300C0E009E9F809E7FA09E7FBE6F918E6F8B2
:10180300C3EC98ED99EE9AEBC2E7F5F0EFC2E795DA
:10181300F0500E600CEBCFFBEACEFAE9CDF9E8CC41
:10182300F8EAA2E7D2E7FAEB33FB13F5F0EEA2E70F
:10183300D2E7FEEF33FFC5F013A2E730E601B3139F
:10184300C5F0C3C0E0C0F07F00C39BFB605E94188B
:10185300600F401D14601AD0E023F9D0E0F802199C
:10186300398AF0E9486003D2F0E4AFF0FAF9F8807E
:101873003BEB30E40D89F0EA6003D2F0E4AFF0F91A
:10188300CAF8EB30E30D88F0EF6002D2F0AFF0E47A
:10189300CAC9F8EB54076014FBC3EA13FAE913F956
:1018A300E813F8EF135002D2E0FFDBEDD0E0C0E025
:1018B30030E739C3E49FFFF5F0EC98FC42F0ED9973
:1018C300FD42F0EE9AFE42F0D0E0F9D0E0F8E5F008
:1018D300607AE923F9EE20E742D8028067C3EF3349
:1018E300FFEC33FCED33FDEE33FE80EAEC28FCED38
:1018F30039FDEE3AFED0E023F9D0E0F84002801B38
:10190300C3EE13FEED13FDEC13FCEF135002D2E014
:10191300FF08B800067F7F74FF802EEF3350178CCB
:10192300F020F00260100CBC000C0DBD00080EBED0
:10193300000408E860DFE933E813FFEE2313FE4FEA
:101943004D4C8008E95480FFE4FEFDFCEE33EF3399
:10195300F47004FCFD7E80D0E0FBD0E0FAD0E0F828
:10196300D0E0CFC618CEC618CDC618CCC6F922080B
:101973000808EAC0E0EBC0E086F0E7A4FA1809869D
:10198300F0E7A42AFA180986F0E7A42AFA180986C8
:10199300F0E7A42AFA1986F0E7A4FBE5F02AFA197E
:1019A3000886F0E7A42BFBE5F03AFA190886F0E77E
:1019B300A42BFBE5F03AFA18180986F0E7A4C5F062
:1019C3002BFBE43AFA1908E7C5F0C6A426F6E5F0BE
:1019D3003BFBE43AFA1886F0E7A4F6E5F00826F6AE
:1019E300E43B08F6E43A08F6D0E0FBD0E0FA22E460
:1019F300CFC0E0E4CEC0E0E4CDC0E0E4CCC0E0750D
:101A0300F020E626F608E633F608E633F608E63372
:101A1300F6181818EC33FCED33FDEE33FEEF33FF0D
:101A2300C3EC9709ED9709EE9709EF971919194038
:101A33000FFFEC97FC09ED97FD09EE97FE191906C8
:101A4300D5F0BFECF709EDF709EEF709EFF7191930
:101A530019D0E0FCD0E0FDD0E0FED0E0FF2260161C
:101A6300080808C6C313C618C613C618C613C61873
:101A7300C613C6D5E0EA22700908080822601618C2
:101A83001818C6C333C608C633C608C633C608C645
:101A930033C6D5E0EA22E627F60809E637F6080951
:101AA300E637F60809E637F622E026F608A3E0361D
:101AB300F608A3E036F608A3E036F622E026F0089F
:101AC300A3E036F008A3E036F008A3E036F022C323
:101AD300E697F60809E697F60809E697F60809E691
:101AE30097F622C3E096F008A3E096F008A3E096E9
:101AF300F008A3E096F022E657F60809E657F60841
:101B030009E657F60809E657F622E056F608A3E079
:101B130056F608A3E056F608A3E056F622E056F080
:101B230008A3E056F008A3E056F008A3E056F0221D
:101B3300E0F608A3E0F608A3E0F608A3E0F622E641
:101B4300F008A3E6F008A3E6F008A3E6F022E0FA23
:101B5300A3E0FBA3E0FCA3E0FD22EAF0A3EBF0A3E8
:101B6300ECF0A3EDF022E0F8A3E0F9A3E0FAA3E0A0
:101B7300FB22E8F0A3E9F0A3EAF0A3EBF022CAC04A
:101B8300E0E6F0A308DAFAD0E0FA22CAC0E0E0A364
:101B9300C582CCC582C583CDC583F0A3C582CCC520
:101BA30082C583CDC583DAE6D0E0CA22C3E498F8C0
:101BB300E499F9121BF08026C3E49AFAE49BFBE94B
:101BC30020E7E9121BF0E498F8E499F922C3E498BA
:101BD300F8E499F9121BF0E498F8E499F9C3E49A4C
:101BE300FAE49BFB22EB20E7CFE920E7E0B9001002
:101BF300BB0008E88AF084F8AAF022E4FBC8FA22C2
:101C0300EB70227B10C833C8C933C9335007C39A5A
:101C1300C3DBF280069A50012ADBEAC833F4C8C951
:101C230033F4C9FA2275F008E4C833C8C933C93399
:101C3300C99AC99B5004C92AC93BD5F0ECFBC833E8
:101C4300F4C8E4C9FA22600D08C6A2E713C618C691
:101C530013C6D5E0F322600C08C6C313C618C61317
:101C6300C6D5E0F422700422600D18C6C333C6083B
:101C7300C633C6D5E0F41822254110AF08F541401C
:101C83000C15428008F54140021542D2AF2200C034
:101C9300D0254110AF08F541500C05428008F541AD
:101CA30050020542D2AFD0D0222541F58210AF08B1
:101CB300F541400C15428008F54140021542D2AF70
:101CC300854283222541F582E43542F5832225416D
:101CD300F8E43542F9222541FAE43542FB22254155
:101CE300FCE43542FD22E4732541C582C0E0E542B0
:101CF30034FFC583C0E0E541C3958224F810AF08E3
:101D03008583428582418008858342858241D2AFA3
:101D1300CEF0A3E520F0A37821E608F0A3DEFAEFE6
:101D2300F0A3E58124FAF8E608F0A3E608F0A3E6B9
:101D330008F0A30808E608F0A3E608F0A315811548
:101D430081D0E0FED0E0F8158115811581E8C0E06F
:101D5300EEC0E0222541C582C0E0E54234FFC583E1
:101D6300C0E0E541C3958224F910AF08858342851D
:101D730082418008858342858241D2AFCEF0A3E5BC
:101D830020F0A37821E608F0A3DEFAEFF0A3E581C3
:101D930024FBF8E608F0A3E608F0A30808E608F039
:101DA300A3E608F0A315811581D0E0FED0E0F81575
:101DB300811581E8C0E0EEC0E0228542838541823F
:101DC300E0A3FEE0A3F5207821E0A3F608DFFAE024
:101DD300A3FFE0A3C0E0E0A3C0E0E0A3C0E0E0A372
:101DE300C0E0E0A3C0E010AF088582418583428054
:101DF30008858241858342D2AFD083D082020132EB
:101E0300854283854182E0A3FEE0A3F5207821E0AB
:101E1300A3F608DFFAE0A3FFE0A3C0E0E0A3C0E07D
:101E2300E0A3C0E0E0A3C0E010AF08858241858352
:101E3300428008858241858342D2AFD083D08222FB
:101E4300C0D02541C582C0E0E54234FFC583C0E070
:101E5300E541C3958224F310AF088583428582410F
:101E63008008858342858241D2AFC8F0A3E9F0A3FD
:101E7300EAF0A3EBF0A37921E709F0A3D8FAECF099
:101E8300A3EDF0A3EEF0A3EFF0A3D0E0F0A3D0E036
:101E9300F0A3D0E0F0A3E520F0A3E5F0F0A32285C2
:101EA3004283854182E0C0E0A3E0F9A3E0FAA3E026
:101EB300FBA37821E0F608A3DFFAE0FCA3E0FDA38F
:101EC300E0FEA3E0FFA3E0C0E0A3E0C0E0A3E0F5F1
:101ED300D0A3E0F520A3E0A3F5F010AF088583427B
:101EE3008582418008858342858241D2AFD082D0EA
:101EF30083D0E0F8D0E03274048006740280027468
:101F030001C0E0F404121CACD0E0121B8122740463
:101F1300800474028000CCC0E0EDC0E0E541C39CC6
:101F2300CCAD4250011D10AF068C418D4280068C12
:101F3300418D42D2AF121B8ED0E0FDD0E0FC22D007
:101F430083D082E9C0E0E493A3C386F0C5F095F0A3
:101F5300F908E493A386F0C5F095F0700BE493A31E
:101F6300C3994005E9048002A3E475F002A4258225
:101F7300F582E5F03583F583D0E0F9E493A3C0E07F
:101F8300E493C0E022D083D082ECC0E0EDC0E0E473
:101F930093A3FCE493A3FDED4C600D121FD4EC243A
:101FA300FFFCED34FFFD80EFE493A3FCE493A3FD7A
:101FB300ED4C600D122013EC24FFFCED34FFFD808B
:101FC300EFD0E0FDD0E0FCE493A3C0E0E493C0E0F5
:101FD30022C0E0C3E49396087401939618400FE47B
:101FE3009366700808740193661870007019A3A3B0
:101FF300C3E49396087401939618A3A3400DD0E00D
:10200300D0E0D0E0021FC4A3A3A3A3A3A3D0E022E4
:10201300C0E0C0F088F0E49366700808740193662A
:10202300187000A8F0A3A3700BD0F0D0E0D0E0D0DC
:0B203300E0021FC4A3A3D0F0D0E02205
:1020400074F5121D57EAFEEBFFEE2434F8EF34006E
:10205000F988218922EE2435F582EF3400F583E0FA
:10206000F8EE2437F582EF3400F583E0F523EC85B4
:1020700023F0A4FCAAF08523F0EDA42AFDE82CF8B7
:10208000E43DF97A257B00121BF0EA852182852246
:1020900083F0F8740758F97401B900028004C3335F
:1020A000D9FCFAE8131313541FF8EE28F8EF3400A4
:1020B000F9E8245DF582E93400F583E05A6008EE22
:1020C0002434F582EF802CEE2434F582EF3400F5D1
:1020D00083E0C0E0EE2436F582EF3400F583E0F5CE
:1020E000F0D0E084A8F0EE28F8EF3400F9E82438C6
:1020F000F582E93400F583E0F97F04021E0374F5EC
:10210000121D57EAFEEBFFEE2434F582EF3400F5A2
:1021100083E0C0E0EE2435F582EF3400F583D0E0B3
:10212000F08E828F83A3A3A3A3A3A3A3C082C083A3
:102130008E828F83A3A3A3A3A3E0F8A3E0F9D083A7
:10214000D082E0C398F521A3E099F522EE247FF533
:1021500082EF3400F583E064017069EE2480F5823B
:10216000EF3400F583E0F8A3E0F98E828F83A3A318
:10217000A3A3A3A3A3E0FCA3E0FD8E828F83A3A36C
:10218000A3A3A3E0FAA3E0FBC3EA9CEB9D5010C31A
:10219000EC98ED99402EC3EA98EB995027800EC336
:1021A000EA98EB994007C3EC98ED9940177C967D2F
:1021B00005EEFAEFFB120BFEEE247FF582EF340002
:1021C000F583E4F0EE2434F8EF3400F9E8FCE9FD9F
:1021D000EE2435F582EF3400F583E0F8EE2437F590
:1021E00082EF3400F583E0F523E5218523F0A4F5A3
:1021F00021AAF08523F0E522A42AF522E82521F87A
:10220000E43522F97A257B00121BF0EA8C828D835B
:10221000F0F8740758F97401B900028004C333D987
:10222000FCFAE8131313541FF8EE28F8EF3400F902
:10223000E8245DF582E93400F583E05A6008EE2475
:1022400034F582EF802CEE2434F582EF3400F583F0
:10225000E0C0E0EE2436F582EF3400F583E0F5F0DF
:10226000D0E084A8F0EE28F8EF3400F9E82438F53F
:1022700082E93400F583E0F9122E7B0220F9C08256
:10228000C083854182854283E0F8A3E0F9C3EA9CDC
:10229000EB9D5010C3EC98ED99401BC3EA98EB9965
:1022A0005014800EC3EA98EB994007C3EC98ED995F
:1022B0004004790180027900D083D08222EAC39C55
:1022C000FAEB9DFB2274EF121D5790045CE064084A
:1022D0006005E06407702A9061C8E0602490048A79
:1022E000E0F4601DE0F875F003A4C8AAF02AF974C0
:1022F0008C28FE740439FF8E828F83A3A3A3E07021
:10230000030223F5906060E0C0E0EE2468F582EF00
:102310003400F583D0E0F07525FF752605752100A2
:10232000752200E5D914F523E5D95403F527601784
:1023300074036527605CE5236010EE2467F582EF87
:102340003400F583E070030223DA9005FAE06401BB
:10235000602AEE2482F582EF3400F583E060047891
:102360000480027800852321E521C398FA95E0FBDB
:10237000120AA88A218B22EA45227005120E0880D3
:1023800074EE2482F582EF3400F583E070048A2530
:102390008B26E5236012852582852683F524E5D9E1
:1023A000F0A31524E52470F6EE2482F582EF3400C4
:1023B000F583E0604474FC2523F5237825121EFE86
:1023C000AC23A927EEFAEFFB120CA07402121C91A9
:1023D000E97026AA21AB22121318793D8E828F83D1
:1023E000A3A3A3A3E0FA7B0012097CEEFAEFFB1291
:1023F0000C16120CB2790080747403652760568540
:102400002329752A007829121EFEAC25AD26AA21A3
:10241000AB22120C7C7402121C91EE2468F582EF40
:102420003400F583E064807004747F8001E0F5255A
:102430007825121F02E527F5257825121F02A9230A
:10244000AC21AD2290048AE0FA7B001209407402AC
:10245000121C91801390045CE06408600BAC25AD05
:1024600026EEFAEFFB120D0C120E1479017F0A0210
:102470001E0374F5121D5774FC121C7BEAFEEBFF61
:102480008921A2AFE433F522C2AF806AEE2463F85B
:10249000EF3400F97A007B00A2AFE433F523C2AF3A
:1024A00088828983E0FCA3E0FDEC4D603A88828954
:1024B00083E0FAA3E0FB8A828B83E0FCA3E0FD8843
:1024C000828983ECF0A3EDF08A828B83E4F0A3F0A1
:1024D00088828983E0FCA3E0FDEC4D700A88828944
:1024E00083A3A3E4F0A3F0E523A2E092AF121318B4
:1024F00090059DE004F0EE2463F582EF3400F5834F
:10250000E0F8A3E0F9E849603DEE2463F582EF349A
:1025100000F583E02402FAA3E03400FBEA2402F58C
:1025200023EB3400F5247823121EFE8A828B83E08D
:10253000FCA3E0F9EEFAEFFB120C3A7402121C91C4
:10254000E9700302248C90059DE0606390059EE095
:10255000F890059DE0C398500C740265217050906E
:10256000059FE0604A8E828F83A3A3A3A3E08541E9
:1025700082854283F0A3E4F090059DE0F874021296
:102580001CC7E8F0A3E4F090059DE0F890059CE0FE
:1025900028F07402121CC7AC82AD8385418285424B
:1025A00083AA82AB83790112094C90059DE4F0E582
:1025B00022A2E092AF7404121C910220F9000000E4
:1025C0008544878545C622C0E0C0D0E8C0E0E9C0A8
:1025D000E0EAC0E0EBC0E0ECC0E0EDC0E0EEC0E05F
:1025E000C021C022C023C024C082C083C0F0A2AFDB
:1025F000E433FEC2AF759B00906182E0A2E050120E
:10260000E591A2E0500C7591FE74016544700312CF
:1026100022C5E0A2E55051E591A2E5504B7591DF4E
:1026200090045CE064076005E06408702374016551
:10263000447035790190048AE0FA75F003A4CAA8C1
:10264000F028FB748C2AFA74043BFB122472801865
:10265000E0640D701390047EE004F064287002E4DE
:10266000F07A00E0F9120E1A906182E0A2E64003CF
:1026700002270EE591A2E6400302270E7591BF9056
:10268000045CE064057008120D42120D4E800312C6
:102690000D48754400120DA8E990045DF079001210
:1026A0000D9C120B6E7A017B0090045BE0F9121214
:1026B000E2907803E0644270559005FEE014F070FB
:1026C0004DC2AF1226C600784DD0E0F618D0E0F625
:1026D000E59F540770057522FF800375227FC4C0F3
:1026E000E0784CE6F52108E65522F522740B7821B6
:1026F000121C59D0E02521F8906270E0A2E740F862
:10270000E8C333906272F0906270E0D2E0F09061C2
:1027100081E0A2E35009E5E9A2E3500375E9F7A3DC
:10272000E0A2E75009E591A2E7500375917FEEA280
:10273000E092AFD0F0D083D082D024D023D022D06A
:1027400021D0E0FED0E0FDD0E0FCD0E0FBD0E0FA0C
:10275000D0E0F9D0E0F8D0D0D0E032C0E0C0D0C0B6
:1027600082C083906183E0A2E05009E5BFA2E050FF
:102770000375BFFEE0A2E15009E5BFA2E150037579
:10278000BFFDE0A2E25009E5BFA2E2500375BFFB26
:10279000E0A2E35009E5BFA2E3500375BFF7E0A252
:1027A000E45009E5BFA2E4500375BFEFE0A2E55095
:1027B00009E5BFA2E5500375BFDFE0A2E65009E5D9
:1027C000BFA2E6500375BFBFD083D0828088C0E02F
:1027D000C0D0E8C0E0E9C0E0EAC0E0EBC0E0ECC097
:1027E000E0EDC0E0C0F0E5A7A2E6500FE5A1A2E64B
:1027F000500953A7BF75A1BF122833E5A7A2E55022
:102800000CE5A1A2E5500653A7DF75A1DFE5A7A25D
:10281000E15009E5A1A2E1500375A1FDE5A7A2E2FF
:10282000500CE5A1A2E2500653A7FB75A1FBD0F026
:1028300002274474F8121D5775440190045CE0644B
:10284000067015120CD08A828B83A3A3A3A3A3A323
:10285000E0FAA3E0FB120D30A2AFE433FED2AF905A
:102860000462E0640170187A207B0090045BE0F958
:102870001213F67A207B0090045BE0F91212E890C4
:102880006182E0D2E6F09005FBE0602185C64580DC
:1028900016900461E064017008E5C654F84405F53B
:1028A000C653BEFC1225C07401654460E4EEA2E08C
:1028B00092AF7F01021E03008E468F4785824B85B3
:1028C000834A854182854283E0CEA3E0CF854B8257
:1028D000854A83EBC9EAC8EDCBECCA75F010C3E8B2
:1028E00033C8E933C9EA33CAEB33CBC3EA9EF549AF
:1028F000EB9FF548B35004AB48AA49EC33CCED3319
:10290000CDD5F0DAAE46AF472274E9121D5774F800
:10291000121C7B854182854283ECF0A3EDF08A2175
:102920008B2290045CE024F7C394055006752101C6
:10293000022AA0120CD08A238B24AE23AF24EE4FA0
:102940007003022A9DAC21AD227402121CC7AA8218
:10295000AB83120D608E828F83A3A37525FF75262E
:10296000FF7527FF7528007825121B0D7402121CB5
:10297000C77529FF752AFF752BFF752C0078291262
:102980001B0D782579291214E9502A782579291206
:102990001AD27521017522C875230075240078218B
:1029A00079251214E9505285252185262285272371
:1029B0008528248050752D01752EC8752F0075301F
:1029C00000852921852A22852B23852C24782179AD
:1029D00025121AD2782D79211214E9401C75210094
:1029E00075220075230075240178217929121AD2E5
:1029F00078217925121A99800C75210175220075AC
:102A0000230075240074097821121A7A752519F5A6
:102A100026F527F528782179251219F28E828F83E1
:102A2000A3A3A3A3A3A3E0F8A3E0F97AD07B0312A6
:102A30001BF088258926E4F527F5287821792512C9
:102A40001A997406121CC7E0F8A3E0F97AD07B0348
:102A5000121BF0E8FA8A25E4F5267821792512146C
:102A6000E9500778217925121AD290045CE06408B5
:102A7000600AE064066005E06405702D75250D7838
:102A80002579211214E940217525F47526FF752753
:102A9000FF7528FF78217925121A99800C7521007D
:102AA000752200752300752400854182854283E0EC
:102AB000F8A3E0F58388827821121B427408121C67
:102AC000917F10021E0374F7121D57120D729005AC
:102AD000F9E064017010906245E4F0A3F053F4F360
:102AE00043FE0C5390F3120D1EE5C654804449F585
:102AF000C6E59E547F644970F8906185740FF0902C
:102B000005F7E0F47002A3E0604E9005F8E060087D
:102B100014601B14602E8040752101752200900501
:102B2000F7E07821121C68E521F45280802A752193
:102B3000017522009005F7E07821121C68E521F468
:102B4000529080147521017522009005F7E07821DC
:102B5000121C68E521F452A079007F02021E037462
:102B6000F7121D57E9FEEAFF74016E700C7A807B44
:102B70000090045BE0F91212E2902EF4E493F4600A
:102B800008E493F9120B62800953C680E59E547FD6
:102B900070FA120D249005F9E064017003120B80A5
:102BA0009005F7E0F47002A3E0604B9005F8E06058
:102BB0000814601A14602C803D7521017522009064
:102BC00005F7E07821121C68E521428080287521F4
:102BD000017522009005F7E07821121C68E521427A
:102BE0009080137521017522009005F7E07821127D
:102BF0001C68E52142A0120D72120CD08A218B2292
:102C0000A821A922E8496015E5E170FCE82414F543
:102C100082E93400F583E0F46003E0F5E174016FCC
:102C2000700A7A0190045BE0F912136C022B5A745B
:102C3000ED121D578A218B228C238D247413121CB4
:102C4000C77825121B33782179251214E9752901DB
:102C5000752AC8752B00752C005012782179251221
:102C60001AD2782979211214E95016801078257922
:102C700021121AD2782979251214E94004790180A9
:102C80000279007F0C021E0374ED121D578A218BFE
:102C9000228C238D247413121CC77825121B3378C1
:102CA0002579211214E9401178217925121AD2AA26
:102CB00021AB22AC23AD248022752900752A007532
:102CC0002B00752C0178297925121AD278297921BF
:102CD000121A99AA29AB2AAC2BAD2C80A68A828B1A
:102CE000837521FF7522FF7523FF7524007821125B
:102CF0001B207F04021E0374F5121D578C828D83E6
:102D00007821121B338A828B837821121AE6EA24F7
:102D100004F8EB3400F98C828D83A3A3A3A3E0FC19
:102D2000A3E0FD88828983C3E09CF0A3E09DF08846
:102D3000828983C3E09420A3E0944E40268A828B4C
:102D4000837521FF7522FF7523FF7524FF782112FB
:102D50001ABF8A828B83A3A3A3A3E02420F0A3E05D
:102D6000344EF0022CDD74F5121D57E9FE9005B1CA
:102D7000E0FAA3E0FBEEC333F8E433F974C928F5B5
:102D800082748039F583E02AF521A3E03BF52278AF
:102D900021121EFE7A407B427C0F7D001228B874FF
:102DA00002121C918A218B228C238D24741078218D
:102DB000121A61AA21AB227F04021E0374F1121DB4
:102DC000578A258B268C278D28740F121CC7E0FA92
:102DD000A3E0FB7411121CC7E0F521A3E0F52278F3
:102DE00021121EFEEA2401F521EB3400F522E4F560
:102DF00023F5247825792112197275217175220223
:102E000078257921121972AA25AB26AC27AD281294
:102E100028B87402121C918B22EA452260047A01C0
:102E200080027A00EC2AFCED3400FD7413121CC7FA
:102E3000E0F8A3E0F9E8FEE9FFECF8EDF97A717B40
:102E400002121BF0882189228E828F837821121B27
:102E500042ECF8EDF97A717B02121BF08A218B2289
:102E600074057821121C688E828F83A3A3A3A3E527
:102E700021F0A3E522F07F08021E03C082C083E98F
:102E8000906000F0D083D08222C0E074F2121E4322
:102E9000A2AFE433FED2AFE58AA2E4400CE58AA2F9
:102EA000E64006E58AA2E750031211BC538AEF53AD
:102EB0008ABF538A7FC2EB754300EEA2E092AF7FD8
:102EC00001021EA2C0E0C0D0E8C0E0E9C0E0A9A8AD
:102ED000D2AFC2C7754300E9A2E7E433F8E9A2E73D
:102EE00092AFD0E0F9D0E0F8D0D0D0E032C2AF025B
:032EF000000022BD
:102EF400FFFFFFFFFFFFFFFF121C917F02021DBDBA
:102F0400121C917F04021DBD3522F583E02274F664
:102F1400121CEB74EE121C7BE9900301F0121258A0
:102F24007C067D007A1F7B001205928541828542D2
:102F340083E4F0740C121CC77488F0A37413F07447
:102F440001121CC77401F0740A121CC7740AF0A39E
:102F5400E4F07408121CC77414F0A3E4F0740612AD
:102F64001CC7E4F0A3F07404121CC77464F0A3E457
:102F7400F0AC41AD4279017A057B0312140E740C56
:102F8400121CE179027A067B0312140E7CC67D0FB3
:102F940079177A087B0312140E7CDD7D0F79077A8A
:102FA400077B0312140E7401121CE179017A107B61
:102FB4000312140E740A121CE179027A117B0312B3
:102FC400140E7408121CE179027A127B0312140E97
:102FD4007406121CE179027A137B0312140E740432
:102FE400121CE179027A147B0312140E7CE47D0F27
:102FF4007A15790012070C7CA07D007A067B0012FA
:1030040005927CA07D007A077B001205927CA07D4E
:10301400007A087B001205927CA07D007A097B006F
:10302400120592740E121CC7124DEF04121CC774C1
:1030340001F0854182854283F07403121CC7E4F0D9
:103044007402121CC77401F0740E121CE179047A24
:10305400087B0412109C7401121CE179017A007B34
:103064000412109CAC41AD4279017A027B04121027
:103074009C7403121CE179017A037B0412109C7482
:1030840002121CE179017A067B0412109C9081EAF9
:10309400121B511207129081EA121B5112081A12C4
:1030A40010129081EA121B51121024900301E0F9CE
:1030B4001212761214BC12045A12046012149212E0
:1030C40014A412123A12104E121054121252908278
:1030D40044AC41AD427401121B8EA841A94288211F
:1030E40089227821121EFE7C017D007AF07B1F125A
:1030F40011987402121C91854182854283E064AA6E
:1031040060031204A21212047AF47B011211E07A11
:10311400FD7B0F12102A7901120916790212091087
:10312400790012091C79011209227A017B009003AB
:1031340001E0F91212E279011213667412022EFCF4
:1031440074EC121CEB74FD121C7B8923908206AC78
:1031540041AD427403121B8E7A10FB1213548A2160
:103164008B22AE21AF22C2AFA841A9428821892275
:103174007821121EFE7C017D007AFE7B1F121198BD
:103184007402121C917401121CC78582218583224A
:103194007821121EFE7C017D007AFF7B1F1211989C
:1031A4007402121C917402121CC785822185832229
:1031B4007821121EFE7C017D007AF07B1F1211988B
:1031C4007402121C91D2AF12046C8A218B22120455
:1031D4006C8A258B2612046C8A278B28A827A92899
:1031E400C3E5219525E52295265052C3E52598E5AA
:1031F40026994052C3E52198E52299405A85212910
:1032040085222AE4F52BF52C7829121528900B51E8
:103214007829121B42854182854283E0603FF5256F
:10322400E4F526F527F52878251215287829792537
:10323400121733900B517829121B428046C3E8952C
:1032440025E99526500885252985262A80B5C3E8D1
:103254009521E9952250A68829892A80A67401120D
:103264001CC7E0F8601D8825E4F526F527F52878C5
:103274002512152878257929121758900B5178258D
:10328400121B42900B517825121B339081DE782952
:10329400121B33782579291216E75006900B55E452
:1032A40080297825121585E52524BDF8E52634F90D
:1032B400F9E875F064A4F8AAF075F064E9A42AF9B1
:1032C4007A547B01121BF0E8900B55F074016523CE
:1032D40070518E828F837431F0EE2402F8E43FF94A
:1032E400E8FAE9FBA3A882A98375F00A900B55E0DC
:1032F40084940A88828983400A7401F08A828B83C9
:10330400E4801AE4F0900B55E0F875F00A84A9F013
:1033140075F00AE884C454F0298A828B83124FA181
:10332400121030EEFAEFFB12135A900B55E0F974B9
:1033340003121C917F0C021DBD74E8121CEB74F97E
:10334400121C7BEAFEEBFF5480603A900301E0F923
:103354001212CA8A218B22EA452260218A828B8337
:10336400E064C07011A3A3A3E0FA8521828B83A338
:10337400A3E0F9120484AA21AB221212B8EEFAEFE8
:10338400648002465DEEA2E050147AF97B0F1214B9
:103394001A7A067B031210BAEE640102465B5402E9
:1033A40060201204909081B2121F117A027B009067
:1033B4000301E0F91213EA7404121C91EE64020290
:1033C400465BEE5440700302362C900303E0700415
:1033D40074018001E4F07C057D0079007A177B0B91
:1033E400121456900B50E4F0900303E064018541FD
:1033F4008285428360030234C67401F0790012139B
:1034040066900B4EE4F07C4E7D0A7AC479801213E8
:10341400C6900B56E0603AC2AF75219575220B78C1
:1034240021121EFE7C2C7D037A007B0012119874FD
:1034340002121C917521C175220E7821121EFE7C88
:10344400F47D007A007B101211987402121C91D240
:10345400AF12108412121079001212647A027B00E7
:10346400900301E0F91212E29081AA121F117A006E
:103474007B01900301E0F91213EA7404121C917A9F
:10348400007B40900301E0F91212E2908186121F42
:10349400117A407B00900301E0F91213EA740412DC
:1034A4001C91121420AC41AD4279017A057B0312C0
:1034B400140E7CC67D0F79177A087B0312140E0252
:1034C4003626E4F0121420AC41AD4279017A057B32
:1034D4000312140E900B1FE4F0900B56E06025903D
:1034E4000B2DE4F0900B4FF0900B2EF0900B1DF091
:1034F400900B94F0900B1CF0900B14125D12900B37
:103504004AF0800312147412124C1214A412104EB6
:10351400900B56E06074900B4CE064426008900B92
:103524004EE06401700FC2AF7C4E7D0A7AC479808C
:103534001213C0D2AF900B4CE0F86005744268706F
:1035440008900B4EE064027041C2AF75219575225C
:103554000B7821121EFE7C2C7D037A007B00121155
:103564009E7402121C917A0A7B001211E07521C12B
:1035740075220E7821121EFE7CF47D007A007B10E9
:1035840012119E7402121C91D2AF1212167A007B91
:1035940020900301E0F91213F67A087B00900301EE
:1035A400E0F91213F67A047B00900301E0F9121398
:1035B400F67A027B00900301E0F91213F67A407B5D
:1035C40000900301E0F91213F67A007B02900301E4
:1035D400E0F91213F67A007B04900301E0F9121368
:1035E400F67A007B10900301E0F91213F67A007B5F
:1035F40008900301E0F91213F67A007B01900301AD
:10360400E0F91213F67A107B00900301E0F912132B
:10361400F67A007B40900301E0F91213F679011267
:103624001366EE644002465BEF54027003023704F3
:103634007A007B02900301E0F91213F67A007B040E
:10364400900301E0F91213F6900B1FE0700474016B
:103654008001E4F0900B2DE4F01214A4900B45E4E7
:10366400F0900B2E124E15121456900B1FE085414C
:1036740082854283602EE4F0121420AC41AD42797D
:10368400017A057B0312140E7A027B00900301E099
:10369400F91213F67A007B08900301E0F91213F68D
:1036A400790380517401F0121420AC41AD427901C8
:1036B4007A057B0312140E7CC67D0F79177A087B7A
:1036C4000312140E9081B2121F117A027B00900330
:1036D40001E0F91213EA7404121C917A007B109031
:1036E4000301E0F91213F67A007B20900301E0F95C
:1036F4001213F67927121264EEFAEF640202465DA1
:10370400EF54047003023D0F900B2EE4F0FA7B0497
:10371400900301E0F91213F67A007B10900301E0A4
:10372400F91213F6900B22E0F8900B2DE06033149D
:1037340070030237FE147003023939147003023A1D
:103744004B147003023A90147003023B1514700377
:10375400023BB0147003023C4C147003023C7E0222
:103764003CF97521067522007821121EFE7C227D0B
:103774000B7A4E7B0A1214507402121C91E96032C7
:10378400908182121F117A407B00900301E0F912AC
:1037940013EA7404121C91900B2D7401F079221217
:1037A40012647C0A7D0079FF7A227B0B1214560284
:1037B4003CF9900B2DE4F07904121264900B45E06F
:1037C40004124E05121456900B45E0C394065003A0
:1037D400023CF91210847A717B08121090EAF8EB1B
:1037E400F9ECFAEDFB900B46121B757A407B0090C6
:1037F4000301E0F91212E2023CF97521027522007C
:103804007821121EFE7C227D0B7AFF7B0F1214504E
:103814007402121C91E96032900B2D7402F0790548
:10382400121264900B2DE0C3940240179081E212AF
:103834001F117A007B10900301E0F91213EA74045B
:10384400121C91900B2EE4023CF87821121EFE7C8F
:10385400227D0B7A017B101214507402121C91E920
:10386400600A900B2D7403F0790980B47821121E3C
:10387400FE7C227D0B7A037B101214507402121CFE
:1038840091E9600F900B2D7404124E0512145679B1
:103894000D808D7821121EFE7C227D0B7A057B1013
:1038A4001214507402121C91E9601A7912121264F3
:1038B400900B2D7405F07A007B20900301E0F9123F
:1038C40012E20238277821121EFE7C227D0B7A0731
:1038D4007B101214507402121C91E9600C791212BC
:1038E4001264900B2D740680CC7821121EFE7C226B
:1038F4007D0B7A097B101214507402121C91E9603A
:103904000B900B2D7407F079190238247821121EBC
:10391400FE7C227D0B7A0B7B101214507402121C55
:1039240091E9900B2D60087408F0791D0238247415
:1039340001F00238477A107B001213548A218B223B
:10394400900B14E064016003023A36900B23E064A8
:103954000B6009A3E0640B6003023A361246BE1200
:103964001C68745E125CDC740A3524F583E0F46030
:1039740003023A19E9900B427005E044118008E013
:103984004421125D0C4441F01246BE121C68744E70
:103994002523FA740A3524FBEA2410F582E43BF566
:1039A40083E9125D02121EFE7C3C7D0BEA2411FAAF
:1039B40050010B12128E7402121C917C0679007A4B
:1039C4003C7B0B12049CE9F8852182852283742FA9
:1039D400F0900B151246B5F0900B421246B5A3F0C9
:1039E400E8852182852283A3A3A3F0AC21AD227AAA
:1039F40010790112103079071212647C077D007966
:103A0400007A3C7B0B1214567C4E7D0A7AC4798072
:103A14001213C0801D854182854283E4F012142074
:103A2400AC41AD4279017A057B0312140E7924125C
:103A34001264AA21AB2212135A900B1574FFF09052
:103A44000B14E4F0023CF375210675220078211270
:103A54001EFE7C227D0B7A2F7B0B1212A0740212A5
:103A64001C91E960207821121EFE7C2F7D0B7A4E7A
:103A74007B0A12128E7402121C91900B4CE0444289
:103A8400F0790B8002790C12126480757521067529
:103A940022007821121EFE7C227D0B7A2F7B0B12D2
:103AA40012A07402121C91E9604C900B16E0FC8C7D
:103AB4002174047821121C6874952521F8740B353F
:103AC40022F9E8FAE9FBEC8A828B83A3F0752106DC
:103AD4007522007821121EFE7C2F7D0BEA2402FA47
:103AE40050010B12128E7402121C91900B4CE04484
:103AF40044F079118002790C121264900B1674FF51
:103B0400F07C067D0079BB7A2F7B0B121456023CA5
:103B1400F37A087B001213548A218B2290815C74FF
:103B240001121CE17406121B8E900B22E0640B60E0
:103B340003023C427525008525237524007404780E
:103B440023121C68124679121EFE7403121CE1AA89
:103B540023AB241214507402121C91E9603C7525A5
:103B6400067526007825121EFE7C357D0BAA23AB34
:103B74002412128E7402121C91900B2D7401F07C8D
:103B8400067D0079BB7A357B0B121456900B4CE002
:103B94004448F07914121264800F74096525600991
:103BA4000525E525C3940A408E023C427A087B0031
:103BB4001213548A218B2275230275240078231250
:103BC4001EFE7C227D0B7A0D7B101214507402129F
:103BD4001C91E9606975250085252375240074040A
:103BE4007823121C68124679121EFE7C357D0BAABE
:103BF40023AB241214507402121C91E9602C7C062D
:103C04007D0079FFAA23AB241214567C067D00792B
:103C1400BB7A357B0B121456900B2D7401125D0C7C
:103C24004448F079181212648014740965257005EB
:103C340079171212640525E525C3940A409AAA212E
:103C4400AB2212135A023CF3740B686003023CF378
:103C54007C077D0079BB900B16E0F5218D2274045E
:103C64007821121C6874962521FA740B3522FB12F4
:103C74001456900B4CE04444806F740B687070755C
:103C840021067522007821121EFE900B15E0F52105
:103C940074047821121C68745F2521FC740A35228F
:103CA400125DAC12128E7402121C91900B93E004FC
:103CB400F0900B15124E34121C68744E2521FA74C0
:103CC4000A3522FBEA2410F582E43B124693EA24E7
:103CD40011FA50010B1214567C4E7D0A7AC4798075
:103CE4001213C0900B4CE04441F0791B1212649003
:103CF4000B2D7401F0900B1574FFF0A3F0124E110C
:103D0400121456EEFAEF640402465DEE5408603C69
:103D1400900B12E06401702E900302E0640570269B
:103D2400900B4CE06020900B1FE0701A125D687AD3
:103D34000F7B1012049CE9900B43F07C0F7D107AEA
:103D4400107901121030EE640802465BEF540870DB
:103D540003023F257A007B08900301E0F91213F671
:103D6400900B56E07003023EF175230085232185F4
:103D7400212575260074047825121C687495252560
:103D8400F525740B3526F526752706752800782742
:103D9400121EFE7C227D0BE5252443FAE526340120
:103DA400FB1214507402121C91E96027900EC27425
:103DB40004F0E523A3125D0C4460124E0512145660
:103DC4007C107D0079BBE5252442FAE5263401FB0D
:103DD400023E8E7827121EFE7C227D0BE5252402EE
:103DE400FAE43526FB1212A07402121C91E9600851
:103DF400900EC27401023E87E52175F007A4F521F7
:103E0400E5F0F52274952521F521740B3522F52270
:103E14007525067526007825121EFE7C227D0BE58D
:103E24002124E3FAE5223401FB1214507402121C1B
:103E340091E96007900EC2740580487825121EFE31
:103E44007C227D0BE5212429FAE5223402FB12149D
:103E5400507402121C91E96007900EC2740680230C
:103E64007825121EFE7C227D0BE521246FFAE522C3
:103E74003402FB1214507402121C91E9601D900E5E
:103E8400C27407F0E523A3124E051214567A107B70
:103E940000900301E0F91212E2804B74096523706B
:103EA40039900B45E004F0C39406401C1210847A48
:103EB400717B08121090900B46121B5D7A407B00B8
:103EC400900301E0F91212E279041212647C0A7D73
:103ED4000079FF7A227B0B1214560523E523C39441
:103EE4000A5003023D70900B2EE4F0802C900B4599
:103EF400E004F0C39406401C1210847A717B08120B
:103F04001090900B46121B5D7A407B00900301E0F9
:103F1400F91212E27904121264EEFAEF640802460E
:103F24005DEF5401700302402E1210847A717B08F5
:103F34001210908A218B228C238D24752700AA27A6
:103F44008A2575260074027825121C687495252527
:103F5400F52D740B3526F52EE52D24B4F525E52E27
:103F64003402F526EA75F007A4FAABF074952AF545
:103F74002F740B3BF5308525828526837829121B07
:103F8400339081DA7829121AAC782979211214E94C
:103F9400400E12469F24E2FAE5303401FB12145617
:103FA400E52D24DCF525E52E3402F526852582F55C
:103FB400837829121B339081D67829121AAC782978
:103FC40079211214E9400E12469F2428FAE5303470
:103FD40002FB121456E52D2404F525E52E3403F5D1
:103FE40026852582F5837829121B339081CE782982
:103FF400121AAC782979211214E9400E12469F2432
:104004006EFAE5303402FB1214560527E527C394F3
:104014000A5003023F427A007B01900301E0F91247
:1040240013F6EEFAEF640102465DEE5410700302DB
:104034004258900B4FE0600C7A007B40900301E003
:10404400F91213F6900B1CE0F86005740368701500
:10405400E004F0900305E0700474018001E4F09042
:1040640081AA02423E74016860030241B6900B4C7F
:10407400E04450F0900FB4E0C39410400A740FF081
:10408400900EC1F012144A900EC1E0C0E0F5217503
:10409400220074047821121C6874B4124DDC740E6E
:1040A40012468ED0E0F0900EC2E0C0E0124E311203
:1040B4001C6874B5124DDC740E12468ED0E0F0907C
:1040C4000EC3E0C0E0124E31121C6874B6124DDC0F
:1040D400740E12468ED0E0F0121084900871E0C085
:1040E400E0124E31121C6874B7124DDC740E124685
:1040F4008ED0E0F0900872E0C0E0124E31121C68DD
:1041040074B8124DDC740E12468ED0E0F090087331
:10411400E0C0E0124E31121C6874B9124DDC740E0A
:1041240012468ED0E0F0900874E0C0E0124E3112D6
:104134001C6874BA124DDC740E12468ED0E0F090F6
:104144000875E0C0E0124E31121C6874BB124DDCDD
:10415400740E12468ED0E0F0900876E0C0E0124E65
:1041640031121C6874BC124DDC740E12468ED0E001
:10417400F0900FB4E004F0900EC1F0900B1CE0043A
:10418400F01212409081B2121F117A107B0090033A
:1041940001E0F91213EA7404121C917A027B009074
:1041A4000301E0F91213F69081B6121F117A40024E
:1041B400424374046870087405F0121246807874DF
:1041C40006687053E4F0900B45F07A10FB900301FD
:1041D400E0F91213F69081AE121F117A027B00905F
:1041E4000301E0F91213EA7404121C919081A612DF
:1041F4001F117A407B00900301E0F91213EA740462
:10420400121C91900B4FE060457A007B40900301B3
:10421400E0F91212E2803774026870107403F0122D
:10422400124C791F1212649081A6800E7405687076
:104234001D7406F012124C9081B2121F117A107B79
:1042440000900301E0F91213EA7404121C91EE6465
:104254001002465BEE540460151214207A047B00AD
:10426400900301E0F91213F6EE640402465BEE5487
:10427400806048A296401B79001212647A407B0049
:10428400900301E0F91213F69081A2121F117A80B3
:1042940080147A807B00900301E0F91213F6908178
:1042A400B6121F117A407B00900301E0F91213EA61
:1042B4007404121C91EE648002465BEE5420700379
:1042C40002439B7A207B00900301E0F91213F6A2CB
:1042D40097500302439B908243AC41AD4274011258
:1042E4001B8E79011212647AC87B001211E0121439
:1042F4007412146812146E121462C2AF7C4E7D0ADA
:104304007AC479801213C075219575220B78211215
:104314001EFE7C2C7D037A007B0012119E74021217
:104324001C917A0A7B001211E07521C175220E7866
:1043340021121EFE7CF47D007A007B1012119E7403
:1043440002121C91A841A942882189227821121EB7
:10435400FE7C017D007AF07B1F12119E7402121CF8
:10436400917821121EFE7C017D007AFE7B1F1211C2
:104374009E7402121C917821121EFE7C017D007A2B
:10438400FF7B1F12119E7402121C91D2AFC2AF7533
:10439400C9AB75C95B80FEEF542070030245647A93
:1043A400087B001213548A238B247A007B10900319
:1043B40001E0F91213F6EEF521EF6420F522900BDB
:1043C4002DE0640570347525067526007825121EC7
:1043D400FE7C1F7D107AC67B0C1214507402121CD2
:1043E40091E970167928121264124E111214569023
:1043F4000B2D7401F07A00024501AA23AB24121498
:10440400B6E9700302453F7A00EAF8E52328F5820D
:10441400E43524F583A3E070037430F00AEAC3940E
:104424000640E6852382852483A3AE82AF83900B66
:104434002DE0F874056870627525007527067528E7
:10444400007827121EFEEEFCEFFD85252774047804
:1044540027121C6812466E1214507402121C91E941
:10446400602B7933121264124E11121456900B2DD4
:104474007401F090819A121F117A007B109003014D
:10448400E0F91213EA7404121C910245310525E582
:1044940025C3940A40A57913804D7406687073751A
:1044A40025007527067528007827121EFEEEFCEFFE
:1044B400FD85252774047827121C6812466E121491
:1044C400507402121C91E9602390819A121F117A90
:1044D400007B10900301E0F91213EA7404121C919A
:1044E400900B2EE4F0791612126480267409652567
:1044F40070177917121264900B2EE4F0FA7B209057
:104504000301E0F91213F680500525E525C3940A4A
:1045140040907525067526007825121EFEEEFCEFE8
:10452400FD7A357B0B12128E7402121C917A007B79
:1045340020900301E0F91213F680179081B2121F44
:10454400117A007B20900301E0F91213EA7404123B
:104554001C91AA23AB2412135AAA21AB220246644B
:10456400EF54106050854182854283E4F0FA7B1059
:10457400900301E0F91213F6900B14E0640170103B
:10458400121420AC41AD4279017A057B0312140E5A
:10459400900B2D7401F079211212647C0A7D00794C
:1045A400FF7A227B0B121456900B2EE4F0EEFAEFF6
:1045B400641002465DEF54407003024660900B4F56
:1045C400E004F0F8EF6440FF74F928C39402503219
:1045D4007A177B0B12145CE9F521120460E521C300
:1045E4009402505679251212649081B2121F117AE6
:1045F400007B40900301E0F91213EA7404121C9149
:104604008054E8C39407E8502C604B120466790088
:10461400120478900B4FE0F8C394024013900B55AA
:10462400E0C0E0741528F582E4340BF583D0E0F0A3
:104634009081AE80B7C3940A401C900B4FE4F07C89
:1046440005FDF97A177B0B1214567A007B40900310
:1046540001E0F91213F6EEFAEFFB80047A007B0016
:104664007407121C917F10021DBD74362527FA743D
:104674000C3528FB2274362523F523740C3524F5D8
:10468400247527067528007827223522F58322F51C
:104694008374FFF07C077D007900228525828526BE
:1046A40083E4F0A3F0A3F0A3F07C07FD79BBE52F2E
:1046B40022E0852182852283A322900B15E0F989CB
:1046C40023752400740478232274F0121CEB74F311
:1046D400121C7BEAFE74016E6003024D9E9003037C
:1046E400E0640160030247D0900B1CE060030247C2
:1046F400DB12120AE9901025F0F4605179001212CD
:1047040064901025E0C0E0900B2EE0F8742228F5A8
:1047140082E4340BF583D0E0F0900B2EE004F090AB
:104724000B1FE0700C7A027B00900301E0F9121376
:10473400F6900B4FE0600C7A007B40900301E0F9A7
:104744001213F6908186121F117A40800E900B1F6F
:10475400E0701E90818E121F117A027B009003017B
:10476400E0F91213EA7404121C91901025E0F4701D
:1047740012900B4FE060287A007B40900301E0F92F
:104784001212E2900B2DE0C394024013901025E026
:10479400F4602D7A007B10900301E0F91213F69077
:1047A4001025E0640A7019908162121F117A007B4F
:1047B40002900301E0F91213EA7404121C91800CB4
:1047C4007A007B02900301E0F91213F6900303E0F0
:1047D40064016003024D4A901025E0F46072900B6E
:1047E4001CE0706C900B1FE07003024D119081A6C9
:1047F400121F117A007B04900301E0F91213EA748A
:1048040004121C91900B2EE0FA900B2DE0603014F2
:10481400607E1470030248D31470030249BA147002
:1048240003024A1C147003024B40147003024B9899
:10483400147003024BE0147003024C5A024D9E1292
:104844004DE17003024C52EAC3940A4003024C52F5
:104854007A807B00900301E0F91213F674106E6005
:1048640003024DC4900303E0700C7A407B00900374
:1048740001E0F91212E290818E121F117A207B005E
:10488400900301E0F91213EA7404121C91024DD052
:1048940074026A700B901025E0640B70B3024C52E2
:1048A400EAC3940340AA7930121264900B2EE4F008
:1048B400900B2D04F07A007B04900301E0F91213AD
:1048C400F67A007B10900301E0F91213F68081EA76
:1048D400C394025003024988901025E0640B6003DE
:1048E40002498874036A7005124E20800B74026AB0
:1048F400700A900B22E024D0900B15F0900B151247
:104904004E34121C68124DDA740A122F0CF48541CD
:104914008285428370457401F07934121264121452
:1049240020AC41AD4279017A057B0312140E7CC69A
:104934007D0F79177A087B0312140E900B147401FF
:10494400F090819A121F117A007B10900301E0F914
:104954001213EA7404121C91024B31E4F012142075
:10496400AC41AD4279017A057B0312140E7906122B
:104974001264900B1574FFF0900B14E4F0900B2D5F
:1049840004024B2BEAC39404501374036A600302B9
:104994004854901025E0640B700302485479301297
:1049A4001264900B2EE4F0124DF8900B14124E1476
:1049B4001214560248B974066A6003024854900BF4
:1049C40034E064BB7521067522007821702D121E17
:1049D400FE7C227D0B7A2F7B0B12128E7402121C2A
:1049E400917C0A7D0079FF7A227B0B121456900B7E
:1049F4002EE4F0790A121264024854121EFE7C223C
:104A04007D0B7A2F7B0B1214507402121C91E960F7
:104A140003024AFF790C804EEAC39402404E901080
:104A240025E0640B704674036A7005124E20800BF7
:104A340074026A700A900B22E024D0900B16F09056
:104A44000B16124E34121C687496124DDC740B1241
:104A54002F0C64BB600E7910121264900B16124D69
:104A6400FB024CAF790E121264024B31900B16E02C
:104A7400F8EAC39404401474FF68700F793012127A
:104A840064900B2D7401F0A30249B174066A6003AB
:104A9400024854900B34E064BB703A74FF687003AE
:104AA4000248547521067522007821121EFE7C22CC
:104AB4007D0B7A2F7B0B12128E7402121C917C0ACE
:104AC4007D0079FF7A227B0B121456900B2EE4F0B2
:104AD400790F0249F974FF6870030248547521067E
:104AE4007522007821121EFE7C227D0B7A2F7B0B0F
:104AF4001212A07402121C91E9600F7A007B0490D8
:104B04000301E0F91212E2024CBC790C1212649017
:104B14000B1674FFF07C067D0079BB7A2F7B0B1299
:104B24001456900B2D7401124E051214567A007B04
:104B340004900301E0F91213F6024CBC908138741E
:104B440007121CE17406121B8E901025E0640B7092
:104B54002774016A70227521067522007821121EBD
:104B6400FE7409121CE17A357B0B12145074021284
:104B74001C91E97053024D02EAC394024003024CB3
:104B8400CA74016A6003024854E0640B6003024C77
:104B9400CA0248549081447401121CE17406121B29
:104BA4008E74026A702A7521067522007821121EFD
:104BB400FE7403121CE17A357B0B1214507402123A
:104BC4001C91E97003024D027912121264024CBC6A
:104BD400EAC394035003024854024CCA901025E0DF
:104BE400640B7051EAC39402404B74036A7005125B
:104BF4004E20800B74026A700A900B22E024D0903D
:104C04000B16F0900B16124E34121C687496124D4B
:104C1400DC740B122F0C64BB700D791C121264909F
:104C24000B16124DFB8005791A121264124E1112E2
:104C34001456024854EAC394044003024CCAE06484
:104C44000B600302485474016A6003024854900BD9
:104C54002EE4F0024D02EAC394024064901025E071
:104C6400640B705C74036A7005124E20800B74022E
:104C74006A700A900B22E024D0900B15F0900B156B
:104C8400E0F9892175220074047821121C68124D00
:104C9400DA740A122F0CF46003E9700A791C1212F8
:104CA40064124DF88012791E1212647C0A7D007918
:104CB400FF7A227B0B121456900B2EE4F002485418
:104CC400EAC3940440257930121264900B2D7401C8
:104CD400F0A3124E141214567A007B10900301E0D4
:104CE400F91213F67A007B040248C974016A60035E
:104CF400024854901025E0640B60030248547A0083
:104D04007B04900301E0F91212E2024854900B2E46
:104D1400E0FA124DE16006EAC3940A40067A007B89
:104D24000880DFEAC39406500302485490818E122F
:104D34001F117A007B08900301E0F91213EA74044E
:104D4400121C91024854900B2EE4F0900B45E0C3E2
:104D54009406403F1210847A717B081210908A21C5
:104D64008B228C238D24900B467825121B33908143
:104D7400667825121AAC782579211214E9404D90F1
:104D84000B45124DEFA3F090816A121F117A407BFC
:104D94000080A37A407B00024D0674026E60030219
:104DA4004854900303E0700C7A407B00900301E0C8
:104DB400F91212E27A807B00900301E0F91212E208
:104DC4007A207B00900301E0F91213F6740D121C93
:104DD400917F08021DBD745E2521F5822274212A6B
:104DE400F582E4340BF583E0640B22E4F0A3F0A332
:104DF400F0A3F022900B1574FFF0900B2D7401F0CA
:104E040022F07C0A7D0079FF7A227B0B22900B2E04
:104E1400E4F07C0AFD79FF7A227B0B2275F00A907C
:104E24000B22E0540FA4F8A3E0540F2822900EC1E3
:104E3400E0F521752200740478212274F4121CEB2D
:104E440074F1121C7B8921E9146010147003024E62
:104E5400E824FD7003024F16024F927409121CE1FC
:104E64007A047B031214147409121CC7E0C0E074A2
:104E740001121CC7D0E0F0740A121CC7E0C0E07431
:104E840002121CC7D0E0F0740B121CC7E0C0E0741F
:104E940003121CC7D0E0F07405121CC7E4F07404BC
:104EA400121CC7E4F0740E121CC7E0C0E0740812B0
:104EB4001CC7D0E0F0740D121CC7E0C0E0740712E8
:104EC4001CC7D0E0F0740C121CC7E0C0E0740612DA
:104ED4001CC7D0E0F07401121CE17A0879001210AA
:104EE40018024F92854182854283E4F07A04FB9054
:104EF4000301E0F91213F6900303E06003024F92FA
:104F0400121420AC41AD4279017A057B0312140ED0
:104F1400807C900B14E064017043900B1FE06401EB
:104F240070607A107B001213548A238B24AE23AF53
:104F3400248E828F837401F0A3744FF08E828F834A
:104F4400A3A3744B124FA11210307A047B00900378
:104F540001E0F91213F6EEFAEFFB12135A900B125A
:104F6400E0701F900B14E0701990818E121F117A5B
:104F7400047B00900301E0F91213EA7404121C91FB
:104F8400800C7A047B00900301E0F91213F6E5210A
:104F9400900302F0740F022F04E9900B43F0EEFC2F
:104FA400EFFD7A1079012274F4121CEB74FF121CC9
:104FB4007B7A087B001213548A218B22AE21AF2204
:104FC400854182854283E4F0900B12E06023900BCC
:104FD4001DE06401701B900B4CE07015121420ACA2
:104FE40041AD4279017A057B0312140E900B1DE446
:104FF400F0EEFAEFFB1214B6E970030250847A0063
:10500400EAF8EE28F582E43FF583A3E070037430F8
:10501400F00AEAC3940640E8752100752306752456
:10502400007823121EFE8E828F83A3AC82AD83850B
:10503400212374047823121C6874362523FA740C13
:105044003524FB1214507402121C91E9601B1214D3
:1050540098900EC27403F0E521A3F07A107B0090BF
:105064000301E0F91212E280177409652170081235
:10507400149E79011212640521E521C3940A409B10
:10508400EEFAEFFB12135A7401022F0474F0121C8F
:10509400EB900303E064016003025CD7E9600A2437
:1050A400FE70030256E9025CD77A1A7B0379001278
:1050B400103675230A7524037823121EFE7C1A7D8C
:1050C400037AB67B0F120B267402121C917C4E7D60
:1050D4000A7AC479801213C690030BE0F890030A8D
:1050E400E014601D1470030252F814700302541487
:1050F40024FB700302569024F870030256D0025C1D
:10510400D77522008522238523257526007404780B
:1051140025121C68744E2525FE740A3526FFEE24DC
:1051240011F525E43FF52675270675280078271222
:105134001EFE7C0B7D03AA25AB26121450740212AA
:105144001C91E970030252649003047401F0120488
:10515400667901120478120460E522900B94F07AC7
:10516400047B00900301E0F91213F6E522900B1280
:1051740070427401F0908186121F117A407B009076
:105184000301E0F91213EA7404121C91900B4CE031
:105194006025900B1FE0701F125D687A267B101249
:1051A400049CE9900B43F07C267D107A107901125F
:1051B400103080037402F0EE2417F8E43FF9E8FAA3
:1051C400E9FB900311E0F523540FFC8A828B83E002
:1051D400540F6C7001E46003E523F0740F5523F859
:1051E400740168700B900B137401F0900B1E800A0D
:1051F4007402687006900B137402F074F0552370F7
:105204003090032A7421F0E522A370047411800203
:105214007421125D40121030900B14E0640170117F
:10522400900B2D7401F0A3E4F07933121264025C44
:10523400D7900311E054F064306003025CD7E52298
:105244007003025CD7EE2410F582E43F124693AA61
:1052540025AB26121456900B13E4125D1202594C1E
:1052640074096522702F900B14E064017027752572
:10527400077526007825121EFE7C0B7D037A3C7B85
:105284000B12128E7402121C917A007B049003019B
:10529400E0F91212E2E52375F006A4F523E5F0F532
:1052A4002474572523FE740B125CE1121EFE7C0B42
:1052B4007D03EEFAEFFB1214507402121C91E960A4
:1052C4002490032A74CCF0A3F0A3125D4012103092
:1052D4007C067D007900EEFAEFFB121456900B93D6
:1052E400E014025CD60522E522C3940A4003025C62
:1052F400D7025108900B4CE090033AF0900B43E036
:10530400901038125D606003025CD7752303752426
:10531400007823121EFE7C0B7D037A367B10121458
:10532400507402121C91E9607D900B43E4F0780004
:1053340090033AE0A2E0505EE86014146018146030
:105344001C14602014602414602814602C8047907E
:105354001046744180289010467442802190104673
:105364007443801A90104674448013901046744518
:10537400800C901046744680059010467447F07C6B
:105384000379007A467B1012049CE9900B43F07C6D
:10539400467D10025BFDE0C313F008E8C3940740A8
:1053A40003025CD7808A900B4DE0F87003025CD74F
:1053B400900B43E4F0E814601514601924FE601C9B
:1053C40024FC601F24F8602224F0602580299010BA
:1053D40056744180219010567442801A901056746D
:1053E4004380139010567444800C9010567445807A
:1053F400059010567446F07C567D107A107901128F
:1054040010307C03900B43E0F97A567B10025686E9
:105414007523027524007823121EFE7C0B7D037A0B
:10542400367B101214507402121C91E97003025C52
:10543400D7900B12E064016003025CD790030DE087
:10544400F8A3E024BF60241460701470030254F6BF
:1054540014700302554014700302558F1470030234
:1054640055DE147003025627025CD7900B43E068A4
:105474007040E4F0752201852223752400740478B9
:1054840023121C68745E2523FE740A3524FF7C08ED
:10549400125DA212049C124F9D1210300522E522C7
:1054A400C3940A40D2900B4CE0C2E0F0A374010212
:1054B4005CD6125CFC744102566F900B43E068703A
:1054C40029E4F07C06F97A4E7B0A12049CE9900BDD
:1054D40043F07C4E7D0A7A107901121030900B4D06
:1054E4007402125D0CC2E1025CD6125CFC744202CE
:1054F400566F900B43E068703BE4F0752200852200
:105504002375240074047823121C6874962523FEE2
:10551400740B125D9D12049C124F9D1210300522D3
:10552400E522C3940A40D7900B4CE0C2E2F0A37486
:1055340004025CD6125CFC744302566F900B43E089
:10554400687040E4F07522008522237524007404F9
:105554007823121C6874362523FE740C3524FF7CD2
:1055640006125DA212049C124F9D1210300522E512
:1055740022C3940A40D2900B4CE0C2E3F0A3740817
:10558400025CD6125CFC744402566F900B43E068D4
:105594007040E4F075220085222375240074047899
:1055A40023121C6874C42523FE740E3524FF7C0961
:1055B400125DA212049C124F9D1210300522E522A6
:1055C400C3940F40D2900B4CE0C2E4F0A3741002D9
:1055D4005CD6125CFC744502566F900B43E0687015
:1055E4003BE4F0752200852223752400740478239B
:1055F400121C6874D72523FE740C125D9D12049C42
:10560400124F9D1210300522E522C3940A40D79010
:105614000B4CE0C2E5F0A37420025CD6125CFC746F
:10562400468048900B43E068703CE4F0900B4CF0EB
:10563400A3F012146E7A0A7B001211E07523C1756F
:10564400240E7823121EFE7CF47D007A007B101257
:10565400119E7402121C917A027B00900301E0F9FE
:105664001212E2025CD7125CFC7447F07C667D1077
:105674007A1079011210307C03900B43E0F97A66BA
:105684007B1012049CE9900B43025CD6E8900871ED
:10569400F090030CE0900872F090030DE090087312
:1056A400F090030EE0900874F090030FE0900875FA
:1056B400F0900310E0900876F012107E90032A74A4
:1056C40016F0A3744BF0A3744F025BF8744F686038
:1056D40003025CD790030CE064506003025CD79033
:1056E4000B1E0258E0121084900B44E4F07A1A7BEB
:1056F40003790212103675230A7524037823121EC7
:10570400FE7C1A7D037AB67B0F120B267402121CE0
:105714009190030BE0FE8E23752400740478231209
:105724001C68A823A924A3E0F52590030AE01460CB
:10573400391470030257F114700302584E147003A5
:105744000258861470030259081470030259621433
:1057540070030259BA147003025B11147003025CE3
:1057640007147003025CD2025CD7744E28FE740ADC
:1057740039FFEE2410F523E43FF524900B44E0F9BF
:105784007C08AA23AB2412049C125D5B7057E525A8
:10579400687052900B4E7401F085238285248374C3
:1057A400FF125D36121EFEEE2411FCE43F125DACC6
:1057B40012128E7402121C91900B94E004124697FC
:1057C40090030BE0F52374047823121C68745F259E
:1057D40023FA740A3524FB12145690032A74031214
:1057E4005D8C02594690032A745002587B900B44F6
:1057F400E0F97C067A4E7B0A12049C125D5B7042CF
:10580400EE68703E900B4E7401F07C067D007900CA
:105814007A4E7B0A121456752306752400782312D7
:105824001EFE7C767D107A4E7B0A12128E74021252
:105834001C9190032A7404F0900B44E090032B0213
:10584400594690032A7451025BF4749628FE740B33
:1058540039125DD312049C125D5B7016E5256870E5
:1058640011125D4A12145690032A7405125D8C02BB
:105874005BF890032A7452F0A374FFF0A374CC0273
:105884005BF8900B12E064016003025CD7752200A0
:1058940085222375240074047823121C6874362529
:1058A40023FE740C125CE1121EFE7C0B7D03EEFAE7
:1058B400EFFB1214507402121C91E960247C067DE3
:1058C4000079FFEEFAEFFB12145690032A7406F0E7
:1058D400A3744B125D40121030900B4E7402025CA4
:1058E400D674096522700F90032A7453F0A374FFD1
:1058F400125D401210300522E522C3940A400302CF
:105904005CD7808C900B44E0F97C067A0B7B031205
:10591400049C125D5B703F900311E0687038900B3B
:105924004E7401125D36121EFE7C0B7D037A4E7B93
:105934000A12128E7402121C9190032A7407F0A3A7
:10594400744B125D401210307C4E7D0A7AC479800B
:105954001213C0025CD790032A7454025BF4900BB8
:1059640044E0F97C077A0B7B0312049C125D5B70A4
:105974003D900312E0687036900B4E7402125D0283
:10598400121EFE7C0B7D0390030BE0F52374047858
:1059940023121C6874962523FA740B3524FB121207
:1059A4008E7402121C9190032A7408025BE990031E
:1059B4002A7455025BF4900B44E0F97C087A0B7B63
:1059C4000312049C125D5B6003025B09900313E005
:1059D400686003025B0990030CE0FC8C23752400CF
:1059E40075F007A4F8A9F0749528FA740B39FB90A4
:1059F400030BE024CF601214604E147003025A8823
:105A0400147003025AC1025CD7900B4E7402F074F6
:105A1400047823121C6874952523FA740B3524FB2F
:105A2400EA2442F582EB3401F583EC125D36121E52
:105A3400FE7C0D7D03EA2443FAEB3401FB12128E43
:105A44007402121C91025B01900B4E7402F0EA2462
:105A5400E2F582EB3401125CF2121EFE7C0D7D0332
:105A6400EA24E3FAEB3401FB12128E7402121C9145
:105A74007A717B08121090125D79121C68125CDA3C
:105A8400740E8070900B4E7402F0EA2428125CEDC0
:105A9400121EFE7C0D7D03EA2429FAEB3402FB126C
:105AA400128E7402121C917A717B08121090125D8E
:105AB40079121C687471125CDC740E8037900B4E82
:105AC4007402F0EA246E125CED121EFE7C0D7D035E
:105AD400EA246FFAEB3402FB12128E7402121C9148
:105AE4007A717B08121090125D79121C68749912F5
:105AF4005CDC740E3524F5837825121B4290032A4E
:105B04007409025BE990032A7456025BF4900B1249
:105B1400E064016003025CD7752600E52575F00793
:105B2400A4F8A9F0749528F8740B39F9EE24CF6021
:105B34000C14603C14605E14607E025CD7740478BC
