:020000040000FA
:0600000002011A02276B49
:03002B00022ED4CE
:030053000227DEA3
:03007B00022E99B9
:100083000225D7E5C754F84401F5C77901220000DA
:100093000080FB120086B90003020104E47944786E
:1000A30008B800028004F709D8FCE4794C7802B858
:1000B30000028004F709D8FCE490030178C5790DA8
:1000C3008002F0A3D8FCD9FA784390014A7A01BAA6
:1000D30000028007E493A3F608DAF97AC57B0F9050
:1000E300014B781979048015E493A3AD82AE838A1A
:1000F300828B83F0A3AA82AB838D828E83D8E9D9C6
:10010300E77582B57583E4740312012C75829175CA
:100113008300740012012C75D00075817F75410135
:10012300754203759F00020096C09FF59FE473D04C
:100133009F22D083D082C09FE493C0E0740193C018
:10014300E0740293F59F220101030507FFFE778800
:1001530012993241142425360201060302E0FF2AD4
:100163002A47656D696E692D42413130302A2A0074
:10017300000000000D095049534345532D425431AB
:100183003030051299040000A5040D0947656D6917
:100193006E692D424131303005120A0B310B320B9F
:1001A300330B340B350B360B0A0A02534A0000009B
:1001B30000000000000000000000FFFFFFFFFFFF42
:1001C300FF02534A0000000000000000000000008E
:1001D300004F4B0000000000000000000000000082
:1001E3000000534A0000000000000000000000006F
:1001F3000000435700000000000000000000000062
:100203000000435700000000000000000000000051
:10021300003132333435361F4B4F000000000000ED
:1002230000000000000000FF0000B40000280028C8
:1002330000283075A000A000A000A000000800085E
:10024300E001F0001000100010001000100010007A
:1002530050005000500010001000D00700000000B4
:1002630000000F00010005003075070010000100B9
:1002730081FF00000000FFB506D306BB06FF0202A4
:100283000208025000A0000000E803029F82010060
:1002930000878202A382010000FB1002A7820100F3
:1002A300007D0302A382010000FC1002A982010069
:1002B30000930302A382010000FD1002AB82010040
:1002C30000950302A382010000FE1002AD82080024
:1002D30000960302A382010000FF1002AF82010017
:1002E300000011FF0100FF20029F820100007E82B7
:1002F30002A382010000641102B182000000000029
:1003030002A582030000E303B50CB50CB50CB50CD4
:10031300B50CB50CB50CB50CB50CB50CB50CB50CD2
:10032300B50C490F610F430F0202020202020202DF
:1003330002010D0000001001029F82010000A5814F
:1003430002A382010000A51102C1820100000A0874
:1003530002A382010000A61102B982010000988164
:1003630002A382010000A71102B3820100007C8175
:1003730002A382010000A8110299820100000681F4
:1003830002A382010000A911029782010000F480F8
:1003930002A382010000AA110295820100002A81B2
:1003A30002A382010000AB110293820100001881B5
:1003B30002A382010000AC1102B7820100008A810E
:1003C30002A382010000AD1102BD82010000AE1143
:1003D3000A160A0A029F820100008A8202A382018E
:1003E30000004D1202A182030000140802A382013F
:1003F30000004E12029182030000240802A582032A
:100403000000340802A3820100004F12028D820310
:1004130000003A0802A3820100005012028F8203F7
:1004230000004A0801E803053F100AFFFFFF00012F
:100433003075030201060000000000000000000008
:1004430000000000000000000000000000000000A9
:100453000000FFFF0600800CE803313233343536E9
:10046300120135C17F00120135D57F00120135D746
:100473007F00120135DC7F00120135142F001201B9
:1004830035A130001201352934001201352336001D
:10049300120135DC4900120135645100120135D0D7
:1004A3005200120135B55300120135E56000120107
:1004B3003528610012013596D703120135ADD703F4
:1004C300120135DED70312013519D8031201354362
:1004D300D8031201356DD80312013584D8031201F4
:1004E300359BD803120135B2D803120135DBD8038B
:1004F300120135EED80312013504D9031201351761
:10050300D9031201353ED903120135C0EC021201A1
:1005130035C4ED02120135FCED021201351FEE0266
:100523001201352AEE021201354DEE021201355C3D
:10053300EF0212013531F002120135ACF002120163
:100543003534F1021201356FF102120135A6F102C1
:1005530012013534F2021201350DF3021201356D29
:10056300F30212013578F302120135F7F302120197
:1005730035FAF302120135FDF3021201358CF40250
:100583001201358FF402120135BFF402120135E96D
:10059300F402120135D7F50212013589F602120170
:1005A30035559F031201357D9F03120135AB9F0320
:1005B300120135E29F0312013540A0031201358B6E
:1005C300A003120135D6A00312013516A1031201AF
:1005D300355CA1031201358AA10312013547A20339
:1005E30012013551A2031201355EA20312013591A6
:1005F300A2031201355DA30312013569A30312019E
:100603003581A3031201358BA3031201355AE2038B
:1006130012013568E20312013580E20312013598B5
:10062300E203120135008002120135AC800212018F
:100633003527810212013548820212013584820274
:100643001201352D8302120135148402120135780B
:100653008502120135CF850212013550860212013F
:10066300354087021201358D870212013513880246
:10067300120135458802120135598A021201359B50
:100683008A02120135B98A021201353C8B0212012A
:1006930035108C02120135D88C02120135C4F801D1
:1006A30012013597F90112013540FA011201359310
:1006B300FA0112013543FB01120135CFFB0112018F
:1006C30035BBFC01120135EAFC01120135FDFD01C8
:1006D30012013545FE011201351AFF01120135568B
:1006E300FF0112013572FF01120135C1E603120148
:1006F30035FFBC0312013515BD031201353BBD03A4
:1007030012013557BE0312013561BE03120135963E
:10071300BF031201358EC0031201352E9A03120155
:10072300355E9B03120135919B03120135DB9B035D
:10073300120135A29D03120135D5E8011201353F9F
:10074300E9011201359EEA01120135AEEA011201F7
:1007530035DBEA0112013532EB01120135DBEB0126
:10076300120135E2EC01120135ACED011201350C39
:10077300EF011201354FEF01120135F4EF011201C0
:100783003541F00112013567F00112013575F201AF
:100793001201357AF2011201357FF401120135CCD1
:1007A300F4011201353FF50112013572F501120111
:1007B3003514F601120135BDF601120135F5F601C6
:1007C300120135F8F60112013540F70112013580A7
:1007D300F701120135D7F70112013571C90312016F
:1007E3003589C903120135D1C903120135E7C9039C
:1007F3001201352ECA0312013542CB03120135CF44
:10080300CB031201351ACC03120135AD620012017C
:1008130035B96200120135F4620012013539630003
:10082300120135F963001201357F6400120135AB03
:100833006400120135E464001201352267001201DD
:1008430035066900120135EC6A001201352F6C0080
:100853001201357D6E001201358F6F00120135DAFA
:100863007000120135EA710012013507720012019E
:1008730035427200120135647200120135C77200ED
:100883001201358877001201351D78001201356E8B
:100893007800120135957800120135E778001201CE
:1008A300350579001201355F79001201355E7A0052
:1008B300120135E27A00120135D09403120135DAC0
:1008C30094031201351D9503120135389503120166
:1008D30035C89503120135F095031201352D9603A2
:1008E3001201356496031201358D96031201350208
:1008F30097031201351797031201352C9703120141
:10090300355D9703120135719703120135969703ED
:10091300120135D09703120135FC970312013534C8
:1009230098031201359398031201351299031201AA
:10093300353D9903120135689903120135B19903C5
:10094300120135DB9903120135069A03120135476B
:10095300DF03120135BFD402120135EDD4021201B7
:10096300353BD6021201351BD7021201353AD702A5
:10097300120135B7D702120135FAD70212013550E9
:10098300D90212013511DA0212013598DC02120183
:100993003539DD021201352FDE021201352CDF025B
:1009A30012013586E00212013511E102120135937D
:1009B300DC03120135FCDC0312013550DD031201A7
:1009C3003577DD03120135A8DD0312013582A80353
:1009D300120135EFA80312013536A9031201354E72
:1009E300AA031201354AAB031201352DAC031201E0
:1009F30035FAF6021201353CF7021201350EF80200
:100A0300120135E7F802120135E1F902120135C38B
:100A1300FA021201352CFB02120135E2FB0212012C
:100A23003556FC02120135C2FC02120135EBFC0201
:100A330012013565FD02120135FEFD021201356317
:100A4300FE0212013578FE02120135BEFE021201CA
:100A530035D7FE021201353CFF021201353FFF027A
:100A630012013598C303120135C0C303120135FEC9
:100A7300C303120135BCC40312013523C50312019C
:100A8300353FC50312013567C50312013597C50309
:100A9300120135A6C50312013523C60312013549D8
:100AA300C6031201351BD801120135F9D901120110
:100AB300352BDC0112013567DC0112013594DC01B1
:100AC3001201357EDD01120135C9DD011201351434
:100AD300DE0112013526DE0112013566DE01120147
:100AE300359BDE01120135E9DE0112013518DF0104
:100AF3001201353BDF0112013588DF011201350D8B
:100B0300E00112013527E20112013566E401120109
:100B130035A7E40112013549E6011201358AE601E0
:100B2300120135FDE6011201354EE70112013529A7
:100B3300E80112013553E80112013588E801120179
:100B430035B3E801120135AAC702120135A8C8025C
:100B530012013541CF0212013562D1021201352D46
:100B6300D30212013595D402120135C98201120153
:100B730035788301120135A58301120135EB830119
:100B83001201352185011201354F8501120135E529
:100B930086011201355F87011201357A870112013F
:100BA30035F587011201354F8901120135AF8A01ED
:100BB300120135B58B01120135168D011201352F46
:100BC3008D011201358D8D011201357B8E011201CC
:100BD30035AE8E011201351E8F01120135988F013A
:100BE300120135E28F01120135AC900112013581FA
:100BF3009101120135609201120135EB920112014C
:100C030035599301120135CD9301120135F8930142
:100C1300120135B794011201351C960112013539C1
:100C230096011201355896011201354997011201B7
:100C3300356E97011201359897011201351398010A
:100C43001201356D9801120135D6990112013584CF
:100C53009A01120135C59A011201355D9D021201F7
:100C630035AB9D02120135B79D02120135959E02E7
:100C7300120135C69E02120135F79E021201357725
:100C83009F02120135F59F021201352DA0021201B8
:100C9300357FA002120135BCA002120135D9A20290
:100CA300120135FFA402120135EAA602120135D45E
:100CB300A802120135F37F0012013504B0011201BD
:100CC3003534B0011201350DB70112013592B80167
:100CD3001201358FBE0112013577BF01120135B400
:100CE300BF01120135D7BF0112013508C00112013E
:100CF3003511C0011201351BC00112013509C101B3
:100D0300120135FFC101120135F59A01120135F4C3
:100D13009E01120135FA9E0112013535A601120119
:100D2300354EAB0112013531B903120135C7B90391
:100D3300120135DDB90312013553BA03120135C768
:100D4300BA0312013505BB0312013579BB03120146
:100D530035F2BB03120135FBBB0312013507BC039C
:100D63001201351CBC031201355ABC031201357044
:100D7300BC03120135CFBC03120135EFAC031201E2
:100D830035FCAC0312013516AD0312013555AD0325
:100D930012013593AD03120135F8AD031201350D80
:100DA300AE0312013518AE0312013525AE0312014D
:100DB300353CAE031201354AAE0312013555AE037D
:100DC30012013561AE0312013570AE031201357B9A
:100DD300AE031201359EAE0312013545AF03120176
:100DE3003555AF031201356FAF031201358CAF03D5
:100DF300120135A8AF03120135CDAF03120135D867
:100E0300AF03120135EDAF0312013501B003120137
:100E13003562B00312013568B0031201356EB003B9
:100E230012013574B0031201358CB003120135BFC2
:100E3300B003120135B4AB0212013538AC02120112
:100E430035E7AC0212013546AE0212013567B00236
:100E530012013553B10212013588B102120135AACC
:100E6300B10212013559B20212013551B402120115
:100E7300357AB4021201350CB5021201353EB502C2
:100E83001201354BB502120135A2B502120135C864
:100E9300B50212013535B80212013538B902120113
:100EA3003590B902120135F18E02120135FB8F0222
:100EB300120135E29002120135EC90021201350E57
:100EC30091021201351A9102120135B392021201F5
:100ED30035E29202120135FE930212013557940254
:100EE300120135BD95021201359C9602120135F8A7
:100EF3009602120135659702120135A0970212017D
:100F030035DF9702120135989A02120135B29A021F
:100F13001201353E9B021201354C9B02120135A58D
:100F23009B02120135B39B02120135269C0212016A
:100F3300358A9C02120135D49C0212013592E102DA
:100F4300120135B4E102120135DAE302120135EF81
:100F5300E60212013507E802120135BAE80212016E
:100F6300359CE90212013550D90312013575D903B5
:100F7300120135E7D903120135D68703120135DF94
:100F83008703120135E88703120135BF8803120175
:100F930035708A03120135A68A03120135E08A03EC
:100FA300120135168B03120135508B031201358460
:100FB3008B03120135B08B03120135F98B03120138
:100FC30035338C031201357C8C03120135D48C0329
:100FD300120135098D03120135648D031201359E0B
:100FE3008D03120135EF8D03120135258E03120196
:100FF300355F8E031201358D8E03120135B08E03DA
:101003001201356BE50312013597E503120135F241
:10101300E503120135FCE5031201350CE603120169
:101023003544CC0312013569CC0312013593CC034B
:101033001201353CB10312013581B1031201359E12
:10104300B10312013557B203120135BDB2031201C8
:101053003581B30312013504B50312013598C0037A
:10106300120135B3C003120135E2C003120135E8A2
:10107300C003120135EEC0031201351BC103120177
:101083003540C10312013557C1031201356CC10349
:10109300120135C0C10312013539C203120135599A
:1010A300C2031201354BE80312013517C4011201C3
:1010B3003579C60112013530C8011201352DC90138
:1010C300120135BDC90112013544CA011201356946
:1010D300CA01120135AACD0112013520CE01120138
:1010E300350FCF0112013549CF0112013589CF01E7
:1010F3001201352FD10112013584D101120135D1ED
:10110300D1011201353FD20112013565D20112011D
:10111300357FD20112013595D301120135A5D301D3
:10112300120135B6D401120135CBD40112013501B8
:10113300D50112013582D601120135C1D601120142
:1011430035E6D7011201351EE603120135B6E60373
:1011530012013502E80312013541E8031201351982
:10116300E903120135FCE3031201350CE403120118
:10117300351BE403120135AFE40312013560E003CC
:10118300120135E4E0031201354AE103120135127D
:10119300A40312013549A4031201356AA403120101
:1011A30035DAA40312013546A5031201359DA603C2
:1011B300120135EEDD0312013516DE031201358A05
:1011C300DE03120135A1DE03120135F1DE03120144
:1011D300353BDF031201353EDF03120135E7FF0123
:1011E300120135F7FF01120135FAFF0112013591A2
:1011F300C603120135D5C603120135EBC60312012E
:101203003506C70312013521C7031201356CC70325
:10121300120135BBC703120135FBC703120135DDCC
:10122300C80312013527C903120135F87F001201E3
:101233003550D103120135D8D20312013539D30306
:101243001201357FD303120135BEE803120135D1F4
:10125300E803120135D5E803120135DCE803120176
:1012630035DEE803120135A4E703120135AAE703CB
:10127300120135F8E70312013531E3031201355A40
:10128300E30312013583E3031201359BE3031201E8
:1012930035DDE303120135508F031201355A8F03F5
:1012A3001201359A8F03120135E38F031201351DA5
:1012B30090031201357390031201359290031201CA
:1012C300359B9003120135EC900312013515910300
:1012D3001201351F91031201359091031201351E3E
:1012E3009203120135739203120135A19203120185
:1012F300351D93031201356093031201359D93034A
:10130300120135AF9303120135CE9303120135D782
:101313009303120135A4940312013545E703120127
:1013230035F5DA0312013546DB03120135CFDB0352
:1013330012013535DC0312013510CF031201353AA2
:10134300CF0312013503D003120135DED00312019E
:101353003563E10312013594D503120135CAD50370
:1013630012013503D6031201355CD703120135632D
:10137300FF0212013579FF0212013583FF021201C8
:1013830035CDFF02120135008003120135BD800304
:10139300120135F8800312013520810312013582D1
:1013A3008103120135CE8103120135398203120103
:1013B30035B58203120135B1830312013538850334
:1013C300120135BB85031201351F86031201353621
:1013D30086031201352C8703120135788703120126
:1013E30035497B001201355E7B001201350E7C000E
:1013F3001201354E7C00120135677C001201359ACB
:101403007C00120135E77C001201351B7D001201BF
:10141300355D7D001201355B7F00120135DEB902B7
:101423001201353BBD02120135C3BE021201351A4A
:10143300BF0212013539BF02120135B7BF021201D3
:101443003547C1021201352BC20212013537C602DC
:1014530012013507C7021201353DB5031201358E5E
:10146300B50312013527B6031201354FB603120136
:1014730035D2B60312013530B70312013549B8032B
:101483001201358AB80312013582D3031201359153
:10149300D303120135BCD303120135C2D3031201A6
:1014A30035C8D303120135E3D303120135EAD3035D
:1014B300120135F1D303120135F5D303120135843B
:1014C300D403120135D3D40312013507E903120102
:1014D3003510E90312013592E803120135E9E803F7
:1014E300E066701008A3E066700A08A3E066700463
:1014F30008A3E06622C3E7960809E7960809E7967A
:101503000809E79622C3E09608A3E09608A3E096AD
:1015130008A3E09622C021C3E096F52108A3E09634
:10152300422108A3E096422108A3E09645217001D9
:10153300D3D02122E9799EC608CAC608CBC608CCF7
:10154300C6C370207996CACBCC7019798ECBCC7078
:10155300137986CC700EF9802ACA33CACB33CBCC2D
:1015630033CC331930E7F2CCCBCA3350147004EACE
:1015730030E00DE4CA3ACACB3BCBCC3CCC50020999
:10158300C3E913C6CC182313C6CB18C6CA18C6F9A9
:10159300221215D420F01430E72B74FFFCFBFA74ED
:1015A3007F8022E4FCFBFA7480801AB48008BC00BC
:1015B300F2BB00EF800F50EBF9E4C39AFAE49BFB14
:1015C300E49CFCE499C6CC18C6CB18C6CA18C6F965
:1015D30022E4C9C608CAC608CBC6D3330308CCC69F
:1015E3003392F0C3947F402E94184019C9B907046D
:1015F300CACBCC225025C309CA33CACB33CBCC3395
:10160300CC33D9F422F4600DC9CCC313CB13CBCAAA
:1016130013CAD9F6CC22E4FCFBFA2214FCFBFA220F
:10162300E62618461846184622E727194719471988
:101633004722181818E60846087009E626087005B8
:10164300E633F4220822191919E70947097009E753
:1016530027097005E733F4220922E6084608C31375
:101663004608336002E633F422E7094709C3134708
:1016730009336002E733F42212165D602512166CFB
:101683006020121623700302162C080808E7667000
:10169300101819E766700A1819E76670041819E735
:1016A3006622F42212165D601C12166C6017121665
:1016B30023700712162C7001D322C0D012162C707F
:1016C30006D0D0B322C32233D0D0501430E0F6C3B7
:1016D300E7960809E7960809E7960809E796B3220B
:1016E30020E0D5E6970809E6970809E6970809E692
:1016F30097B32212165D601B12166C601612162326
:10170300700712162C600CB322C0D012162C700571
:10171300D0D022C32233D0D0501330E0EBC3E796AE
:101723000809E7960809E7960809E7962220E0E406
:10173300E6970809E6970809E6970809E69722124B
:10174300166C604612165D603DE9687008F618F67F
:1017530018F618F622748067F712177609090974C8
:101763008067F72212165D601D12166C7005191939
:1017730019801A121635701F121649C37003E667D3
:101783003319191940071818182208080874FFF6A6
:1017930018F618F618F622121649601712162C704E
:1017A3002192F01216237019501720F0140808081C
:1017B300090909E7F61819E7F61819E7F61819E7FA
:1017C300F62212162360E6E869701F0808E62480F3
:1017D300F608E436F618547FB47F0CE654806007AD
:1017E300F6E418F618F622181822E9C6CC08C6CD76
:1017F30008C6CE08C6CFC0E0E8C0E0EAC0E0EBC050
:10180300E009E9F809E7FA09E7FBE6F918E6F8C39E
:10181300EC98ED99EE9AEBC2E7F5F0EFC2E795F09D
:10182300500E600CEBCFFBEACEFAE9CDF9E8CCF829
:10183300EAA2E7D2E7FAEB33FB13F5F0EEA2E7D225
:10184300E7FEEF33FFC5F013A2E730E601B313C59C
:10185300F0C3C0E0C0F07F00C39BFB605E941860E0
:101863000F401D14601AD0E023F9D0E0F8021948A4
:101873008AF0E9486003D2F0E4AFF0FAF9F8803B6C
:10188300EB30E40D89F0EA6003D2F0E4AFF0F9CA7B
:10189300F8EB30E30D88F0EF6002D2F0AFF0E4CA6A
:1018A300C9F8EB54076014FBC3EA13FAE913F9E828
:1018B30013F8EF135002D2E0FFDBEDD0E0C0E030CD
:1018C300E739C3E49FFFF5F0EC98FC42F0ED99FD96
:1018D30042F0EE9AFE42F0D0E0F9D0E0F8E5F06095
:1018E3007AE923F9EE20E742D8028067C3EF33FF9A
:1018F300EC33FCED33FDEE33FE80EAEC28FCED39EE
:10190300FDEE3AFED0E023F9D0E0F84002801BC39D
:10191300EE13FEED13FDEC13FCEF135002D2E0FFC8
:1019230008B800067F7F74FF802EEF3350178CF0CA
:1019330020F00260100CBC000C0DBD00080EBE00B0
:101943000408E860DFE933E813FFEE2313FE4F4D8D
:101953004C8008E95480FFE4FEFDFCEE33EF33F4E2
:101963007004FCFD7E80D0E0FBD0E0FAD0E0F8D03C
:10197300E0CFC618CEC618CDC618CCC6F9220808C3
:1019830008EAC0E0EBC0E086F0E7A4FA180986F0A5
:10199300E7A42AFA180986F0E7A42AFA180986F0B8
:1019A300E7A42AFA1986F0E7A4FBE5F02AFA190856
:1019B30086F0E7A42BFBE5F03AFA190886F0E7A4D2
:1019C3002BFBE5F03AFA18180986F0E7A4C5F02BCB
:1019D300FBE43AFA1908E7C5F0C6A426F6E5F03B9E
:1019E300FBE43AFA1886F0E7A4F6E5F00826F6E4F5
:1019F3003B08F6E43A08F6D0E0FBD0E0FA22E4CF65
:101A0300C0E0E4CEC0E0E4CDC0E0E4CCC0E075F0DB
:101A130020E626F608E633F608E633F608E633F65C
:101A2300181818EC33FCED33FDEE33FEEF33FFC330
:101A3300EC9709ED9709EE9709EF97191919400FDC
:101A4300FFEC97FC09ED97FD09EE97FE191906D5F2
:101A5300F0BFECF709EDF709EEF709EFF7191919DC
:101A6300D0E0FCD0E0FDD0E0FED0E0FF226016081D
:101A73000808C6C313C618C613C618C613C618C6A5
:101A830013C6D5E0EA227009080808226016181860
:101A930018C6C333C608C633C608C633C608C6331A
:101AA300C6D5E0EA22E627F60809E637F60809E68E
:101AB30037F60809E637F622E026F608A3E036F6FD
:101AC30008A3E036F608A3E036F622E026F008A3E2
:101AD300E036F008A3E036F008A3E036F022C3E6D0
:101AE30097F60809E697F60809E697F60809E697D0
:101AF300F622C3E096F008A3E096F008A3E096F080
:101B030008A3E096F022E657F60809E657F6080917
:101B1300E657F60809E657F622E056F608A3E0561C
:101B2300F608A3E056F608A3E056F622E056F008BE
:101B3300A3E056F008A3E056F008A3E056F022E035
:101B4300F608A3E0F608A3E0F608A3E0F622E6F021
:101B530008A3E6F008A3E6F008A3E6F022E0FAA360
:101B6300E0FBA3E0FCA3E0FD22EAF0A3EBF0A3EC8F
:101B7300F0A3EDF022E0F8A3E0F9A3E0FAA3E0FB81
:101B830022E8F0A3E9F0A3EAF0A3EBF022CAC0E055
:101B9300E6F0A308DAFAD0E0FA22CAC0E0E0A3C56F
:101BA30082CCC582C583CDC583F0A3C582CCC58253
:101BB300C583CDC583DAE6D0E0CA22C3E498F8E44E
:101BC30099F9121BFF8026C3E49AFAE49BFBE920F0
:101BD300E7E9121BFFE498F8E499F922C3E498F8C3
:101BE300E499F9121BFFE498F8E499F9C3E49AFA2B
:101BF300E49BFB22EB20E7CFE920E7E0B90010BB31
:101C03000008E88AF084F8AAF022E4FBC8FA22EB81
:101C130070227B10C833C8C933C9335007C39AC372
:101C2300DBF280069A50012ADBEAC833F4C8C933D1
:101C3300F4C9FA2275F008E4C833C8C933C933C9F3
:101C43009AC99B5004C92AC93BD5F0ECFBC833F4AD
:101C5300C8E4C9FA22600D08C6A2E713C618C61362
:101C6300C6D5E0F322600C08C6C313C618C613C654
:101C7300D5E0F422700422600D18C6C333C608C62B
:101C830033C6D5E0F41822254110AF08F541400CC6
:101C930015428008F54140021542D2AF2200C0D060
:101CA300254110AF08F541500C05428008F541501D
:101CB300020542D2AFD0D0222541F58210AF08F5FC
:101CC30041400C15428008F54140021542D2AF85D0
:101CD3004283222541F582E43542F583222541F8EA
:101CE300E43542F9222541FAE43542FB222541FC41
:101CF300E43542FD22E4732541C582C0E0E5423468
:101D0300FFC583C0E0E541C3958224F810AF088581
:101D130083428582418008858342858241D2AFCE4A
:101D2300F0A3E520F0A37821E608F0A3DEFAEFF0B4
:101D3300A3E58124FAF8E608F0A3E608F0A3E60891
:101D4300F0A30808E608F0A3E608F0A315811581BF
:101D5300D0E0FED0E0F8158115811581E8C0E0EEF2
:101D6300C0E0222541C582C0E0E54234FFC583C0FF
:101D7300E0E541C3958224F910AF0885834285824B
:101D8300418008858342858241D2AFCEF0A3E5200E
:101D9300F0A37821E608F0A3DEFAEFF0A3E58124AF
:101DA300FBF8E608F0A3E608F0A30808E608F0A3AA
:101DB300E608F0A315811581D0E0FED0E0F8158187
:101DC3001581E8C0E0EEC0E022854283854182E0D0
:101DD300A3FEE0A3F5207821E0A3F608DFFAE0A351
:101DE300FFE0A3C0E0E0A3C0E0E0A3C0E0E0A3C045
:101DF300E0E0A3C0E010AF088582418583428008FC
:101E0300858241858342D2AFD083D082020132855D
:101E13004283854182E0A3FEE0A3F5207821E0A37D
:101E2300F608DFFAE0A3FFE0A3C0E0E0A3C0E0E030
:101E3300A3C0E0E0A3C0E010AF08858241858342E0
:101E43008008858241858342D2AFD083D08222C06D
:101E5300D02541C582C0E0E54234FFC583C0E0E53B
:101E630041C3958224F310AF088583428582418064
:101E730008858342858241D2AFC8F0A3E9F0A3EA83
:101E8300F0A3EBF0A37921E709F0A3D8FAECF0A3D0
:101E9300EDF0A3EEF0A3EFF0A3D0E0F0A3D0E0F0D9
:101EA300A3D0E0F0A3E520F0A3E5F0F0A322854260
:101EB30083854182E0C0E0A3E0F9A3E0FAA3E0FB5D
:101EC300A37821E0F608A3DFFAE0FCA3E0FDA3E09A
:101ED300FEA3E0FFA3E0C0E0A3E0C0E0A3E0F5D0F1
:101EE300A3E0F520A3E0A3F5F010AF0885834285B6
:101EF30082418008858342858241D2AFD082D083DC
:101F0300D0E0F8D0E03274048006740280027401D9
:101F1300C0E0F404121CBBD0E0121B9022740480B6
:101F23000474028000CCC0E0EDC0E0E541C39CCC6A
:101F3300AD4250011D10AF068C418D4280068C418D
:101F43008D42D2AF121B9DD0E0FDD0E0FC22D083A6
:101F5300D082E9C0E0E493A3C386F0C5F095F0F91D
:101F630008E493A386F0C5F095F0700BE493A3C344
:101F7300994005E9048002A3E475F002A42582F5E3
:101F830082E5F03583F583D0E0F9E493A3C0E0E480
:101F930093C0E022D083D082ECC0E0EDC0E0E493B4
:101FA300A3FCE493A3FDED4C600D121FE3EC24FFAF
:101FB300FCED34FFFD80EFE493A3FCE493A3FDED7C
:101FC3004C600D122022EC24FFFCED34FFFD80EF6A
:101FD300D0E0FDD0E0FCE493A3C0E0E493C0E022B2
:101FE300C0E0C3E49396087401939618400FE493FA
:101FF30066700808740193661870007019A3A3C370
:10200300E49396087401939618A3A3400DD0E0D0EF
:10201300E0D0E0021FD3A3A3A3A3A3A3D0E022C0D5
:10202300E0C0F088F0E493667008087401936618C2
:102033007000A8F0A3A3700BD0F0D0E0D0E0D0E004
:0A204300021FD3A3A3D0F0D0E022C7
:1020500074F5121D66EAFEEBFFEE2434F8EF34004F
:10206000F988218922EE2435F582EF3400F583E0EA
:10207000F8EE2437F582EF3400F583E0F523EC85A4
:1020800023F0A4FCAAF08523F0EDA42AFDE82CF8A7
:10209000E43DF97A257B00121BFFEA852182852227
:1020A00083F0F8740758F97401B900028004C3334F
:1020B000D9FCFAE8131313541FF8EE28F8EF340094
:1020C000F9E8245DF582E93400F583E05A6008EE12
:1020D0002434F582EF802CEE2434F582EF3400F5C1
:1020E00083E0C0E0EE2436F582EF3400F583E0F5BE
:1020F000F0D0E084A8F0EE28F8EF3400F9E82438B6
:10210000F582E93400F583E0F97F04021E1274F5CC
:10211000121D66EAFEEBFFEE2434F582EF3400F583
:1021200083E0C0E0EE2435F582EF3400F583D0E0A3
:10213000F08E828F83A3A3A3A3A3A3A3C082C08393
:102140008E828F83A3A3A3A3A3E0F8A3E0F9D08397
:10215000D082E0C398F521A3E099F522EE247FF523
:1021600082EF3400F583E064017069EE2480F5822B
:10217000EF3400F583E0F8A3E0F98E828F83A3A308
:10218000A3A3A3A3A3E0FCA3E0FD8E828F83A3A35C
:10219000A3A3A3E0FAA3E0FBC3EA9CEB9D5010C30A
:1021A000EC98ED99402EC3EA98EB995027800EC326
:1021B000EA98EB994007C3EC98ED9940177CA67D0F
:1021C00005EEFAEFFB120C0DEE247FF582EF3400E2
:1021D000F583E4F0EE2434F8EF3400F9E8FCE9FD8F
:1021E000EE2435F582EF3400F583E0F8EE2437F580
:1021F00082EF3400F583E0F523E5218523F0A4F593
:1022000021AAF08523F0E522A42AF522E82521F869
:10221000E43522F97A257B00121BFFEA8C828D833C
:10222000F0F8740758F97401B900028004C333D977
:10223000FCFAE8131313541FF8EE28F8EF3400F9F2
:10224000E8245DF582E93400F583E05A6008EE2465
:1022500034F582EF802CEE2434F582EF3400F583E0
:10226000E0C0E0EE2436F582EF3400F583E0F5F0CF
:10227000D0E084A8F0EE28F8EF3400F9E82438F52F
:1022800082E93400F583E0F9122E8B022109C08225
:10229000C083854182854283E0F8A3E0F9C3EA9CCC
:1022A000EB9D5010C3EC98ED99401BC3EA98EB9955
:1022B0005014800EC3EA98EB994007C3EC98ED994F
:1022C0004004790180027900D083D08222EAC39C45
:1022D000FAEB9DFB2274EF121D6690046CE064081B
:1022E0006005E06407702A9061C8E0602490049A59
:1022F000E0F4601DE0F875F003A4C8AAF02AF974B0
:102300009C28FE740439FF8E828F83A3A3A3E07000
:1023100003022405906060E0C0E0EE2468F582EFDF
:102320003400F583D0E0F075250F75260675210081
:10233000752200E5D914F523E5D95403F527601774
:1023400074036527605CE5236010EE2467F582EF77
:102350003400F583E070030223EA90060AE064018A
:10236000602AEE2482F582EF3400F583E060047881
:102370000480027800852321E521C398FA95E0FBCB
:10238000120AB78A218B22EA45227005120E1780A5
:1023900074EE2482F582EF3400F583E070048A2520
:1023A0008B26E5236012852582852683F524E5D9D1
:1023B000F0A31524E52470F6EE2482F582EF3400B4
:1023C000F583E0604474FC2523F5237825121F0D66
:1023D000AC23A927EEFAEFFB120CAF7402121CA07B
:1023E000E97026AA21AB22121327793D8E828F83B2
:1023F000A3A3A3A3E0FA7B0012098BEEFAEFFB1272
:102400000C25120CC1790080747403652760568511
:102410002329752A007829121F0DAC25AD26AA2183
:10242000AB22120C8B7402121CA0EE2468F582EF12
:102430003400F583E064807004747F8001E0F5254A
:102440007825121F11E527F5257825121F11A923DC
:10245000AC21AD2290049AE0FA7B0012094F74027D
:10246000121CA0801390046CE06408600BAC25ADD6
:1024700026EEFAEFFB120D1B120E2379017F0A02E2
:102480001E1274F5121D6674FC121C8AEAFEEBFF24
:102490008921A2AFE433F522C2AF806AEE2463F84B
:1024A000EF3400F97A007B00A2AFE433F523C2AF2A
:1024B00088828983E0FCA3E0FDEC4D603A88828944
:1024C00083E0FAA3E0FB8A828B83E0FCA3E0FD8833
:1024D000828983ECF0A3EDF08A828B83E4F0A3F091
:1024E00088828983E0FCA3E0FDEC4D700A88828934
:1024F00083A3A3E4F0A3F0E523A2E092AF12132795
:102500009005ADE004F0EE2463F582EF3400F5832E
:10251000E0F8A3E0F9E849603DEE2463F582EF348A
:1025200000F583E02402FAA3E03400FBEA2402F57C
:1025300023EB3400F5247823121F0D8A828B83E06D
:10254000FCA3E0F9EEFAEFFB120C497402121CA096
:10255000E9700302249C9005ADE060639005AEE055
:10256000F89005ADE0C398500C740265217050904E
:1025700005AFE0604A8E828F83A3A3A3A3E08541C9
:1025800082854283F0A3E4F09005ADE0F874021276
:102590001CD6E8F0A3E4F09005ADE0F89005ACE0BF
:1025A00028F07402121CD6AC82AD8385418285422C
:1025B00083AA82AB83790112095B9005ADE4F0E553
:1025C00022A2E092AF7404121CA0022109000000B4
:1025D0008544878545C622C0E0C0D0E8C0E0E9C098
:1025E000E0EAC0E0EBC0E0ECC0E0EDC0E0EEC0E04F
:1025F000C021C022C023C024C082C083C0F0A2AFCB
:10260000E433FEC2AF759B00906182E0A2E05012FD
:10261000E591A2E0500C7591FE74016544700312BF
:1026200022D5E0A2E55051E591A2E5504B7591DF2E
:1026300090046CE064076005E06408702374016531
:10264000447035790190049AE0FA75F003A4CAA8A1
:10265000F028FB749C2AFA74043BFB122482801835
:10266000E0640D701390048EE004F064287002E4BE
:10267000F07A00E0F9120E29906182E0A2E64003B0
:1026800002271EE591A2E6400302271E7591BF9026
:10269000046CE064057008120D51120D5D80031288
:1026A0000D57754400120DB7E990046DF0790012D2
:1026B0000DAB120B7D7A017B0090046BE0F91212D6
:1026C000F1907803E06442705590060EE014F070CB
:1026D0004DC2AF1226D600784DD0E0F618D0E0F605
:1026E000E59F540770057522FF800375227FC4C0E3
:1026F000E0784CE6F52108E65522F522740B7821A6
:10270000121C68D0E02521F8906270E0A2E740F842
:10271000E8C333906272F0906270E0D2E0F09061B2
:1027200081E0A2E35009E5E9A2E3500375E9F7A3CC
:10273000E0A2E75009E591A2E7500375917FEEA270
:10274000E092AFD0F0D083D082D024D023D022D05A
:1027500021D0E0FED0E0FDD0E0FCD0E0FBD0E0FAFC
:10276000D0E0F9D0E0F8D0D0D0E032C0E0C0D0C0A6
:1027700082C083906183E0A2E05009E5BFA2E050EF
:102780000375BFFEE0A2E15009E5BFA2E150037569
:10279000BFFDE0A2E25009E5BFA2E2500375BFFB16
:1027A000E0A2E35009E5BFA2E3500375BFF7E0A242
:1027B000E45009E5BFA2E4500375BFEFE0A2E55085
:1027C00009E5BFA2E5500375BFDFE0A2E65009E5C9
:1027D000BFA2E6500375BFBFD083D0828088C0E01F
:1027E000C0D0E8C0E0E9C0E0EAC0E0EBC0E0ECC087
:1027F000E0EDC0E0C0F0E5A7A2E6500FE5A1A2E63B
:10280000500953A7BF75A1BF122843E5A7A2E55001
:102810000CE5A1A2E5500653A7DF75A1DFE5A7A24D
:10282000E15009E5A1A2E1500375A1FDE5A7A2E2EF
:10283000500CE5A1A2E2500653A7FB75A1FBD0F016
:1028400002275474F8121D6675440190046CE0640C
:10285000067015120CDF8A828B83A3A3A3A3A3A304
:10286000E0FAA3E0FB120D3FA2AFE433FED2AF903B
:102870000472E0640170187A207B0090046BE0F928
:102880001214057A207B0090046BE0F91212F79085
:102890006182E0D2E6F090060BE0602185C64580BB
:1028A00016900471E064017008E5C654F84405F51B
:1028B000C653BEFC1225D07401654460E4EEA2E06C
:1028C00092AF7F01021E12008E468F4785824B8594
:1028D000834A854182854283E0CEA3E0CF854B8247
:1028E000854A83EBC9EAC8EDCBECCA75F010C3E8A2
:1028F00033C8E933C9EA33CAEB33CBC3EA9EF5499F
:10290000EB9FF548B35004AB48AA49EC33CCED3308
:10291000CDD5F0DAAE46AF472274E9121D6674F8E1
:10292000121C8A854182854283ECF0A3EDF08A2156
:102930008B2290046CE024F7C394055006752101A6
:10294000022AB0120CDF8A238B24AE23AF24EE4F71
:102950007003022AADAC21AD227402121CD6AA82E9
:10296000AB83120D6F8E828F83A3A37525FF75260F
:10297000FF7527FF7528007825121B1C7402121C96
:10298000D67529FF752AFF752BFF752C0078291243
:102990001B1C782579291214F8502A7825792912D8
:1029A0001AE17521017522C875230075240078216C
:1029B00079251214F8505285252185262285272352
:1029C0008528248050752D01752EC8752F0075300F
:1029D00000852921852A22852B23852C247821799D
:1029E00025121AE1782D79211214F8401C75210066
:1029F00075220075230075240178217929121AE1C6
:102A000078217925121AA8800C752101752200758C
:102A1000230075240074097821121A89752519F587
:102A200026F527F52878217925121A018E828F83C1
:102A3000A3A3A3A3A3A3E0F8A3E0F97AD07B031296
:102A40001BFF88258926E4F527F5287821792512AA
:102A50001AA87406121CD6E0F8A3E0F97AD07B031A
:102A6000121BFFE8FA8A25E4F5267821792512144D
:102A7000F8500778217925121AE190046CE0640877
:102A8000600AE064066005E06405702D75250D7828
:102A90002579211214F840217525F47526FF752734
:102AA000FF7528FF78217925121AA8800C7521005E
:102AB000752200752300752400854182854283E0DC
:102AC000F8A3E0F58388827821121B517408121C48
:102AD000A07F10021E1274F7121D66120D8190065F
:102AE00009E064017010906245E4F0A3F053F4F340
:102AF00043FE0C5390F3120D2DE5C654804449F566
:102B0000C6E59E547F644970F8906185740FF0901B
:102B10000607E0F47002A3E0604E900608E060084B
:102B200014601B14602E80407521017522009006F0
:102B300007E07821121C77E521F45280802A752164
:102B400001752200900607E07821121C77E521F438
:102B500052908014752101752200900607E07821BB
:102B6000121C77E521F452A079007F02021E127434
:102B7000F7121D66E9FEEAFF74016E700C7A807B25
:102B80000090046BE0F91212F1902F04E493F460CA
:102B900008E493F9120B71800953C680E59E547FB7
:102BA00070FA120D33900609E064017003120B8F66
:102BB000900607E0F47002A3E0604B900608E06026
:102BC0000814601A14602C803D7521017522009054
:102BD0000607E07821121C77E521428080287521C4
:102BE00001752200900607E07821121C77E521424A
:102BF000908013752101752200900607E07821125C
:102C00001C77E52142A0120D81120CDF8A218B2254
:102C1000A821A922E8496015E5E170FCE82414F533
:102C200082E93400F583E0F46003E0F5E174016FBC
:102C3000700A7A0190046BE0F912137B022B6A741C
:102C4000ED121D668A218B228C238D247413121C95
:102C5000D67825121B42782179251214F87529019E
:102C6000752AC8752B00752C005012782179251211
:102C70001AE1782979211214F850168010782579F4
:102C800021121AE1782979251214F840047901807B
:102C90000279007F0C021E1274ED121D668A218BD0
:102CA000228C238D247413121CD67825121B427893
:102CB0002579211214F8401178217925121AE1AAF8
:102CC00021AB22AC23AD248022752900752A007522
:102CD0002B00752C0178297925121AE178297921A0
:102CE000121AA8AA29AB2AAC2BAD2C80A68A828BFB
:102CF000837521FF7522FF7523FF7524007821124B
:102D00001B2F7F04021E1274F5121D668C828D83A8
:102D10007821121B428A828B837821121AF5EA24C9
:102D200004F8EB3400F98C828D83A3A3A3A3E0FC09
:102D3000A3E0FD88828983C3E09CF0A3E09DF08836
:102D4000828983C3E09420A3E0944E40268A828B3C
:102D5000837521FF7522FF7523FF7524FF782112EB
:102D60001ACE8A828B83A3A3A3A3E02420F0A3E03E
:102D7000344EF0022CED74F5121D66E9FE9005C18B
:102D8000E0FAA3E0FBEEC333F8E433F9745C28F512
:102D900082748139F583E02AF521A3E03BF522789E
:102DA00021121F0D7A407B427C0F7D001228C874CF
:102DB00002121CA08A218B228C238D24741078216E
:102DC000121A70AA21AB227F04021E1274F1121D86
:102DD000668A258B268C278D28740F121CD6E0FA64
:102DE000A3E0FB7411121CD6E0F521A3E0F52278D4
:102DF00021121F0DEA2401F521EB3400F522E4F540
:102E000023F5247825792112198175217175220203
:102E100078257921121981AA25AB26AC27AD281275
:102E200028C87402121CA08B22EA452260047A0191
:102E300080027A00EC2AFCED3400FD7413121CD6DB
:102E4000E0F8A3E0F9E8FEE9FFECF8EDF97A717B30
:102E500002121BFF882189228E828F837821121B08
:102E600051ECF8EDF97A717B02121BFF8A218B225B
:102E700074057821121C778E828F83A3A3A3A3E508
:102E800021F0A3E522F07F08021E12C082C083E970
:102E9000906000F0D083D08222C0E074F2121E5203
:102EA000A2AFE433FED2AFE58AA2E4400CE58AA2E9
:102EB000E64006E58AA2E750031211CB538AEF538E
:102EC0008ABF538A7FC2EB754300EEA2E092AF7FC8
:102ED00001021EB1C0E0C0D0E8C0E0E9C0E0A9A88E
:102EE000D2AFC2C7754300E9A2E7E433F8E9A2E72D
:102EF00092AFD0E0F9D0E0F8D0D0D0E032C2AF024B
:032F0000000022AC
:102F0400FFFFFFFFFFFFFFFF121CA07F02021DCC8B
:102F140074F4121CFA74E9121C8AEAFEEBFF7A10AC
:102F24007B001213638A218B227821121F0D7CF1FE
:102F34007D0F7AC57B0F120ADB7402121CA09080ED
:102F4400DDAC41AD427417121B9D8521828522831D
:102F5400E085418285428312306EE0C0E074011244
:102F64001CD6D0E012306EA3E0C0E07402121CD66E
:102F7400D0E012307BE0C0E07403121CD6D0E01223
:102F8400307BA3E0C0E07404121CD6D0E012308978
:102F9400E0C0E07405121CD6D0E0123089A3E0C072
:102FA400E07406121CD6D0E012308FE0C0E0740743
:102FB400121CD6D0E012308FA3E0C0E07408121CBB
:102FC400D6D0E012309BE0C0E07409121CD6D0E0E9
:102FD40012309BA3E0C0E0740A121CD6D0E0F0E5E6
:102FE40021240B123065C0E0740B121CD6D0E0F023
:102FF400E521240C123065C0E0740C121CD6D0E01C
:10300400F0E521240D123065C0E0740D121CD6D0F9
:10301400E0F0E521240E123065C0E0740E121CD6D7
:10302400D0E0F0E521240F123065C0E0740F121CCB
:10303400D6D0E0F0AA21AB221213697521177522AC
:10304400007821121F0D7402121CF0EEFAEFFB122D
:10305400129D7402121CA07417121CA07F04021D7E
:10306400CCF582E43522F583E02212307222F08519
:103074002182852283A32212307F221230832212DE
:103084003072A3A32212307FA3A322123093221200
:103094003083A3A3A3A322123093A3A32274F61212
:1030A4001CFA74C7121C8AE9FE90816C7404121C09
:1030B400F07410121B9D7404121CE088218922787C
:1030C40021121F0D7C077D107AC57B0F120ADB7459
:1030D40002121CA09080C6741E121CF07417121BDE
:1030E4009D7404121CD6E0C0E0741E121CD6D0E0FD
:1030F400F07405121CD6E0C0E0741F121CD6D0E098
:10310400F07406121CD6E0C0E07420121CD6D0E085
:10311400F07407121CD6E0C0E07421121CD6D0E073
:10312400F07408121CD6E0C0E07422121CD6D0E061
:10313400F07409121CD6E0C0E07423121CD6D0E04F
:10314400F0740A121CD6E0C0E07424121CD6D0E03D
:10315400F0740B121CD6E0C0E07425121CD6D0E02B
:10316400F0740C121CD6E0C0E07426121CD6D0E019
:10317400F0740D121CD6E0C0E07427121CD6D0E007
:10318400F0740E121CD6E0C0E07428121CD6D0E0F5
:10319400F0740F121CD6E0C0E07429121CD6D0E0E3
:1031A400F07410121CD6E0C0E0742A121CD6D0E0D1
:1031B400F07411121CD6E0C0E0742B121CD6D0E0BF
:1031C400F07412121CD6E0C0E0742C121CD6D0E0AD
:1031D400F07413121CD6E0C0E0742D121CD6D0E09B
:1031E400F0EE900301F01212677C067D007A1F7BDB
:1031F400001205A1854182854283E4F0741C121CEF
:10320400D67488F0A37413F07401121CD67401F000
:10321400741A121CD6740AF0A3E4F07418121CD6A3
:103224007414F0A3E4F07416121CD6E4F0A3F07442
:1032340014121CD67464F0A3E4F0AC41AD427901DD
:103244007A057B0312141D741C121CF079027A0691
:103254007B0312141D741E121CF079177A087B0369
:1032640012141D7CD57D0F79077A077B0312141D78
:103274007401121CF079017A107B0312141D741A64
:10328400121CF079027A117B0312141D7418121C9B
:10329400F079027A127B0312141D7416121CF07951
:1032A400027A137B0312141D7414121CF079027A2F
:1032B400147B0312141D75210A7522037821121F31
:1032C4000D7CDC7D0F7AC57B0F120ADB7402121CA5
:1032D400A07C0A7D037A15790012071B7CA07D006F
:1032E4007A067B001205A17CA07D007A077B001280
:1032F40005A17CA07D007A087B001205A17CA07D3D
:10330400007A097B001205A17435121CD6125114DF
:1033140004121CD67401F0854182854283F0740343
:10332400121CD6E4F07402121CD67401F074351227
:103334001CF079047A087B041210AB7401121CF09F
:1033440079017A007B041210ABAC41AD4279017A69
:10335400027B041210AB7403121CF079017A037B14
:10336400041210AB7402121CF079017A067B041269
:1033740010AB908262121B60120721908262121BB2
:1033840060120829121021908262121B60121033FD
:10339400900301E0F91212851214CB120463120493
:1033A400691214A11214B312124912105D1210639F
:1033B4001212619082C6AC41AD427401121B9DA8E9
:1033C40041A942882189227821121F0D7C017D00A8
:1033D4007AF07B1F1211A77402121CA0854182850A
:1033E4004283E064AA60031204B11212137AF47BDC
:1033F400011211EF7A057B10121039790112092597
:10340400790212091F790012092B79011209317A04
:10341400017B00900301E0F91212F1790112137596
:103424007439022F0C74EC121CFA74FD121C8A8974
:1034340023908284AC41AD427403121B9D7A10FB2D
:103444001213638A218B22AE21AF22C2AFA841A9F5
:1034540042882189227821121F0D7C017D007AFE89
:103464007B1F1211A77402121CA07401121CD685B2
:1034740082218583227821121F0D7C017D007AFF31
:103484007B1F1211A77402121CA07402121CD68591
:1034940082218583227821121F0D7C017D007AF020
:1034A4007B1F1211A77402121CA0D2AF1204758ADA
:1034B400218B221204758A258B261204758A278B88
:1034C40028A827A928C3E5219525E5229526505249
:1034D400C3E52598E526994052C3E52198E522994C
:1034E400405A85212985222AE4F52BF52C782912C6
:1034F4001537900B617829121B51854182854283CF
:10350400E0603FF525E4F526F527F5287825121522
:103514003778297925121742900B617829121B51AB
:103524008046C3E89525E9952650088525298526F2
:103534002A80B5C3E89521E9952250A68829892ACD
:1035440080A67401121CD6E0F8601D8825E4F526D7
:10355400F527F52878251215377825792912176764
:10356400900B617825121B51900B617825121B4238
:103574009082367829121B42782579291216F65042
:1035840007900B65746480297825121594E5252429
:10359400BDF8E52634F9F9E875F064A4F8AAF075E5
:1035A400F064E9A42AF97A547B01121BFFE8900B1A
:1035B40065F07401652370518E828F837431F0EE4F
:1035C4002402F8E43FF9E8FAE9FBA3A882A9837589
:1035D400F00A900B65E084940A88828983400A7417
:1035E40001F08A828B83E4801AE4F0900B65E0F8A2
:1035F40075F00A84A9F075F00AE884C454F0298AA5
:10360400828B831252C612103FEEFAEFFB1213693B
:10361400900B65E0F97403121CA07F0C021DCC749E
:10362400E8121CFA74E2121C8AEAFEEBFF54806072
:103634003A900301E0F91212D98A218B22EA452239
:1036440060218A828B83E064C07011A3A3A3E0FA93
:103654008521828B83A3A3E0F9120493AA21AB22D0
:103664001212C7EEFAEF648002496CEEA2E0501425
:103674007A017B101214297A067B031210C9EE64B6
:103684000102496A5402602012049F90822E121F84
:10369400207A027B00900301E0F91213F9740412FA
:1036A4001CA0EE640202496AEE54407003023928F9
:1036B4009080817407121CF07417121B9D900303F1
:1036C400E0700474018001E4F07C057D0079007AE7
:1036D400277B0B121465900B60E4F0900303E06405
:1036E4000185418285428360030237C27401F07907
:1036F40000121375900B5EE4F07C5E7D0A7AC47947
:10370400801213D5900B66E0603AC2AF7521A475A0
:10371400220B7821121F0D7C2C7D037A007B001272
:1037240011A77402121CA07521D075220E782112E3
:103734001F0D7CF47D007A007B101211A774021215
:103744001CA0D2AF12109312121F79001212737AB6
:10375400027B00900301E0F91212F190820A121F19
:10376400207A007B01900301E0F91213F97404122A
:103774001CA07A007B40900301E0F91212F19082C0
:1037840006121F207A407B00900301E0F91213F91E
:103794007404121CA012142FAC41AD4279017A05B5
:1037A4007B0312141D7407121CE812047B740712A5
:1037B4001CF079177A087B0312141D023922E4F0F5
:1037C40012142FAC41AD4279017A057B0312141D0A
:1037D400900B2FE4F0900B66E06025900B3DE4F035
:1037E400900B5FF0900B3EF0900B2DF0900BA3F03C
:1037F400900B2CF0900B2412600F900B5AF0800366
:1038040012148312125B1214B312105D900B66E053
:103814006074900B5CE064426008900B5EE06401AD
:10382400700FC2AF7C5E7D0A7AC479801213CFD246
:10383400AF900B5CE0F860057442687008900B5E12
:10384400E064027041C2AF7521A475220B78211285
:103854001F0D7C2C7D037A007B001211AD740212C3
:103864001CA07A0A7B001211EF7521D075220E7804
:1038740021121F0D7CF47D007A007B101211AD74AF
:1038840002121CA0D2AF1212257A007B20900301F1
:10389400E0F91214057A087B00900301E0F9121490
:1038A400057A047B00900301E0F91214057A027B87
:1038B40000900301E0F91214057A407B00900301A3
:1038C400E0F91214057A007B02900301E0F9121466
:1038D400057A007B04900301E0F91214057A007B59
:1038E40010900301E0F91214057A007B089003019B
:1038F400E0F91214057A007B01900301E0F9121437
:10390400057A107B00900301E0F91214057A007B1C
:1039140040900301E0F91214057901121375EE6465
:103924004002496AEF54027003023A159080987479
:1039340007121CF07417121B9DFA7B02900301E01E
:10394400F91214057A007B04900301E0F9121405BE
:10395400900B2FE0700474018001E4F0900B3DE4BF
:10396400F01214B3900B55E4F0900B3E12513A123E
:103974001465900B2FE0854182854283602EE4F02C
:1039840012142FAC41AD4279017A057B0312141D48
:103994007A027B00900301E0F91214057A007B0897
:1039A400900301E0F91214057903805A7401F012AE
:1039B400142FAC41AD4279017A057B0312141D74B6
:1039C40007121CE812047B7407121CF079177A089A
:1039D4007B0312141D90822E121F207A027B00900A
:1039E4000301E0F91213F97404121CA07A007B108D
:1039F400900301E0F91214057A007B20900301E0A2
:103A0400F91214057927121273EEFAEF64020249CF
:103A14006CEF5404700302401E900B3EE4F0FA7BFA
:103A240004900301E0F91214057A007B109003015D
:103A3400E0F9121405900B32E0F8900B3DE060338E
:103A4400147003023B0F147003023C4A1470030207
:103A54003D5C147003023DA1147003023E261470F1
:103A640003023EC1147003023F5B147003023F8DD6
:103A74000240087521067522007821121F0D7C3240
:103A84007D0B7A5E7B0A12145F7402121CA0E9603B
:103A940032908216121F207A407B00900301E0F9D5
:103AA4001213F97404121CA0900B3D7401F07922D6
:103AB4001212737C0A7D0079FF7A327B0B12146533
:103AC400024008900B3DE4F07904121273900B55F8
:103AD400E00412512A121465900B55E0C394065069
:103AE400030240081210937A817B0812109FEAF8AF
:103AF400EBF9ECFAEDFB900B56121B847A407B0039
:103B0400900301E0F91212F10240087521027522B6
:103B1400007821121F0D7C327D0B7A177B10121452
:103B24005F7402121CA0E96032900B3D7402F079BC
:103B340005121273900B3DE0C39402401790825E0D
:103B4400121F207A007B10900301E0F91213F9741C
:103B540004121CA0900B3EE40240077821121F0DB2
:103B64007C327D0B7A197B1012145F7402121CA034
:103B7400E9600A900B3D7403F0790980B47821124E
:103B84001F0D7C327D0B7A1B7B1012145F740212A2
:103B94001CA0E9600F900B3D740412512A121465A5
:103BA400790D808D7821121F0D7C327D0B7A1D7B5F
:103BB4001012145F7402121CA0E9601A7912121216
:103BC40073900B3D7405F07A007B20900301E0F9BB
:103BD4001212F1023B387821121F0D7C327D0B7AD0
:103BE4001F7B1012145F7402121CA0E9600C79127E
:103BF400121273900B3D740680CC7821121F0D7C39
:103C0400327D0B7A217B1012145F7402121CA0E91E
:103C1400600B900B3D7407F07919023B3578211243
:103C24001F0D7C327D0B7A237B1012145F740212F9
:103C34001CA0E9900B3D60087408F0791D023B3527
:103C44007401F0023B587A107B001213638A218BB3
:103C540022900B24E064016003023D47900B33E0A3
:103C6400640B6009A3E0640B6003023D471249CD75
:103C7400121C77746E125FDF740A3524F583E0F446
:103C84006003023D2AE9900B527005E0441180085C
:103C9400E044211260294441F01249CD121C77748A
:103CA4005E2523FA740A3524FBEA2410F582E43BEA
:103CB400F583E9126005121F0D7C4C7D0BEA24117B
:103CC400FA50010B12129D7402121CA07C0679009A
:103CD4007A4C7B0B1204ABE9F8852182852283742C
:103CE4002FF0900B251249C4F0900B521249C4A333
:103CF400F0E8852182852283A3A3A3F0AC21AD2221
:103D04007A10790112103F79071212737C077D0033
:103D140079007A4C7B0B1214657C5E7D0A7AC47937
:103D2400801213CF801D854182854283E4F01214F2
:103D34002FAC41AD4279017A057B0312141D79241D
:103D4400121273AA21AB22121369900B2574FFF08F
:103D5400900B24E4F00240027521067522007821BC
:103D6400121F0D7C327D0B7A3F7B0B1212AF740253
:103D7400121CA0E960207821121F0D7C3F7D0B7A74
:103D84005E7B0A12129D7402121CA0900B5CE0442C
:103D940042F0790B8002790C12127380757521063A
:103DA4007522007821121F0D7C327D0B7A3F7B0B2C
:103DB4001212AF7402121CA0E9604C900B26E0FCB6
:103DC4008C2174047821121C7774A42521F8740BB7
:103DD4003522F9E8FAE9FBEC8A828B83A3F075219A
:103DE400067522007821121F0D7C3F7D0BEA240208
:103DF400FA50010B12129D7402121CA0900B5CE08D
:103E04004444F079118002790C121273900B2674D9
:103E1400FFF07C067D0079BB7A3F7B0B12146502B0
:103E240040027A087B001213638A218B229081B6A8
:103E34007401121CF07406121B9D900B32E0640B8B
:103E44006003023F51752500852523752400740401
:103E54007823121C77124988121F0D7403121CF068
:103E6400AA23AB2412145F7402121CA0E9603C75EF
:103E740025067526007825121F0D7C457D0BAA2387
:103E8400AB2412129D7402121CA0900B3D7401F01D
:103E94007C067D0079BB7A457B0B121465900B5C24
:103EA400E04448F07914121273800F740965256098
:103EB400090525E525C3940A408E023F517A087B03
:103EC400001213638A218B22752302752400782340
:103ED400121F0D7C327D0B7A257B1012145F740245
:103EE400121CA0E9606775250085252375240074DC
:103EF400047823121C77124988121F0D7C457D0B10
:103F0400AA23AB2412145F7402121CA0E9602A7C59
:103F1400067D0079FFAA23AB241214657C067D007C
:103F240079BB7A457B0B121465900B3D12602744D4
:103F340048F0791812127380147409652570057994
:103F4400171212730525E525C3940A409CAA21ABD8
:103F540022121369024002740B6860030240027C5F
:103F6400077D0079BB900B26E0F5218D227404783F
:103F740021121C7774A52521FA740B3522FB121427
:103F840065900B5CE04444806F740B68707075211D
:103F9400067522007821121F0D900B25E0F521747F
:103FA400047821121C77746F2521FC740A352212BF
:103FB40060B112129D7402121CA0900BA3E004F0D5
:103FC400900B25125159121C77745E2521FA740A3C
:103FD4003522FBEA2410F582E43B1249A2EA2411BB
:103FE400FA50010B1214657C5E7D0A7AC479801242
:103FF40013CF900B5CE04441F0791B121273900BC9
:104004003D7401F0900B2574FFF0A3F012513612A9
:104014001465EEFAEF640402496CEE5408603C90B7
:104024000B22E06401702E900302E0640570269078
:104034000B5CE06020900B2FE0701A12606D7A2701
:104044007B101204ABE9900B53F07C277D107A109F
:10405400790112103FEE640802496AEF54087003B4
:104064000242347A007B08900301E0F912140590AF
:104074000B66E0700302420075230085232185212D
:104084002575260074047825121C7774A42525F55B
:1040940025740B3526F52675270675280078271212
:1040A4001F0D7C327D0BE5252443FAE5263401FB04
:1040B40012145F7402121CA0E96027900ED17404DC
:1040C400F0E523A3126029446012512A1214657C7E
:1040D400107D0079BBE5252442FAE5263401FB0274
:1040E400419D7827121F0D7C327D0BE5252402FAB1
:1040F400E43526FB12145F7402121CA0E9600890D8
:104104000ED17401024196E52175F007A4F521E56D
:10411400F0F52274A42521F521740B3522F52275BE
:1041240025067526007825121F0D7C327D0BE521AE
:1041340024E3FAE5223401FB12145F7402121CA07A
:10414400E96007900ED1740580487825121F0D7C14
:10415400327D0BE5212429FAE5223402FB12145F97
:104164007402121CA0E96007900ED17406802378B3
:1041740025121F0D7C327D0BE521246FFAE52234D4
:1041840002FB12145F7402121CA0E9601D900ED190
:104194007407F0E523A312512A1214657A107B00E8
:1041A400900301E0F91212F1804B74096523703910
:1041B400900B55E004F0C39406401C1210937A81CE
:1041C4007B0812109F900B56121B6C7A407B009058
:1041D4000301E0F91212F179041212737C0A7D00D2
:1041E40079FF7A327B0B1214650523E523C3940A05
:1041F400500302407F900B3EE4F0802C900B55E07E
:1042040004F0C39406401C1210937A817B081210A8
:104214009F900B56121B6C7A407B00900301E0F9CF
:104224001212F17904121273EEFAEF640802496C67
:10423400EF5401700302433D1210937A817B0812FC
:10424400109F8A218B228C238D24752700AA278A0C
:104254002575260074027825121C7774A42525F58B
:104264002D740B3526F52EE52D24B4F525E52E34D5
:1042740002F526EA75F007A4FAABF074A42AF52F28
:10428400740B3BF5308525828526837829121B42E1
:1042940090825A7829121ABB782979211214F8408D
:1042A4000E1249AE24E2FAE5303401FB121465E53E
:1042B4002D24DCF525E52E3402F526852582F583AB
:1042C4007829121B429082527829121ABB782979D4
:1042D400211214F8400E1249AE2428FAE5303402B3
:1042E400FB121465E52D2404F525E52E3403F5268B
:1042F400852582F5837829121B4290823A78291207
:104304001ABB782979211214F8400E1249AE246E92
:10431400FAE5303402FB1214650527E527C3940A35
:1043240050030242517A007B01900301E0F9121418
:1043340005EEFAEF640102496CEE54107003024575
:1043440067900B5FE0600C7A007B40900301E0F91A
:10435400121405900B2CE0F860057403687015E0E6
:1043640004F0900305E0700474018001E4F090828D
:104374000A02454D74016860030244C5121093900B
:104384000B5CE04450F0900FC3E0C39410400A74F7
:104394000FF0900ED0F0121459900ED0E0C0E0F55A
:1043A4002175220074047821121C7774C312510100
:1043B400740E12499DD0E0F0900ED1E0C0E012518D
:1043C40056121C7774C4125101740E12499DD0E028
:1043D400F0900ED2E0C0E0125156121C7774C51250
:1043E4005101740E12499DD0E0F0900881E0C0E0C4
:1043F400125156121C7774C6125101740E12499D43
:10440400D0E0F0900882E0C0E0125156121C77749C
:10441400C7125101740E12499DD0E0F0900883E058
:10442400C0E0125156121C7774C8125101740E1256
:10443400499DD0E0F0900884E0C0E0125156121C6F
:104444007774C9125101740E12499DD0E0F090089E
:1044540085E0C0E0125156121C7774CA12510174DF
:104464000E12499DD0E0F0900886E0C0E01251564B
:10447400121C7774CB125101740E12499DD0E0F0D6
:10448400900FC3E004F0900ED0F0900B2CE004F0F9
:1044940012124F90822E121F207A107B009003017B
:1044A400E0F91213F97404121CA07A027B00900341
:1044B40001E0F9121405908232121F207A4002455D
:1044C4005274046870087405F012125580787406EA
:1044D400687053E4F0900B55F07A10FB900301E000
:1044E400F912140590822A121F207A027B0090038D
:1044F40001E0F91213F97404121CA0908226121F11
:10450400207A407B00900301E0F91213F97404123D
:104514001CA0900B5FE060457A007B40900301E0B3
:10452400F91212F1803774026870107403F01212D9
:104534005B791F121273908226800E740568701DB9
:104544007406F012125B90822E121F207A107B00E8
:10455400900301E0F91213F97404121CA0EE641024
:1045640002496AEE5404601512142F7A047B0090F9
:104574000301E0F9121405EE640402496AEE548062
:104584006048A296401B79001212737A407B009017
:104594000301E0F912140590821E121F207A808014
:1045A400147A807B00900301E0F9121405908232A2
:1045B400121F207A407B00900301E0F91213F97472
:1045C40004121CA0EE648002496AEE5420700302B7
:1045D40046AA7A207B00900301E0F9121405A29701
:1045E40050030246AA9082C3AC41AD427401121B2F
:1045F4009D79011212737AC87B001211EF12148391
:1046040012147712147D121471C2AF7C5E7D0A7A83
:10461400C479801213CF7521A475220B7821121F3F
:104624000D7C2C7D037A007B001211AD7402121CE8
:10463400A07A0A7B001211EF7521D075220E782121
:10464400121F0D7CF47D007A007B101211AD7402F0
:10465400121CA0A841A942882189227821121F0D89
:104664007C017D007AF07B1F1211AD7402121CA034
:104674007821121F0D7C017D007AFE7B1F1211AD83
:104684007402121CA07821121F0D7C017D007AFF98
:104694007B1F1211AD7402121CA0D2AFC2AF75C938
:1046A400AB75C95B80FEEF542070030248737A082F
:1046B4007B001213638A238B247A007B10900301FE
:1046C400E0F9121405EEF521EF6420F522900B3D7C
:1046D400E0640570347525067526007825121F0DD3
:1046E4007C377D107AD57B0C12145F7402121CA0E7
:1046F400E970167928121273125136121465900B50
:104704003D7401F07A00024810AA23AB241214C5A8
:10471400E9700302484E7A00EAF8E52328F582E4BA
:104724003524F583A3E070037430F00AEAC39406D9
:1047340040E6852382852483A3AE82AF83900B3D1C
:10474400E0F8740568706275250075270675280001
:104754007827121F0DEEFCEFFD85252774047827BA
:10476400121C7712497D12145F7402121CA0E960B6
:104774002B7933121273125136121465900B3D7457
:1047840001F0908212121F207A007B10900301E046
:10479400F91213F97404121CA00248400525E525FA
:1047A400C3940A40A57913804D7406687073752507
:1047B400007527067528007827121F0DEEFCEFFD03
:1047C40085252774047827121C7712497D12145FFB
:1047D4007402121CA0E96023908212121F207A0036
:1047E4007B10900301E0F91213F97404121CA090D9
:1047F4000B3EE4F079161212738026740965257055
:10480400177917121273900B3EE4F0FA7B20900391
:1048140001E0F912140580500525E525C3940A40EA
:10482400907525067526007825121F0DEEFCEFFD08
:104834007A457B0B12129D7402121CA07A007B2015
:10484400900301E0F9121405801790822E121F20A4
:104854007A007B20900301E0F91213F97404121C0E
:10486400A0AA23AB24121369AA21AB22024973EF35
:1048740054106050854182854283E4F0FA7B1090A5
:104884000301E0F9121405900B24E0640170101286
:10489400142FAC41AD4279017A057B0312141D90AB
:1048A4000B3D7401F079211212737C0A7D0079FFAB
:1048B4007A327B0B121465900B3EE4F0EEFAEF644F
:1048C4001002496CEF5440700302496F900B5FE093
:1048D40004F0F8EF6440FF74F928C3940250327A6C
:1048E400277B0B12146BE9F521120469E521C394AB
:1048F400025056792512127390822E121F207A00CC
:104904007B40900301E0F91213F97404121CA08097
:1049140054E8C39407E8502C604B12046F790012DA
:104924000487900B5FE0F8C394024013900B65E09A
:10493400C0E0742528F582E4340BF583D0E0F090D0
:10494400822A80B7C3940A401C900B5FE4F07C0574
:10495400FDF97A277B0B1214657A007B40900301E2
:10496400E0F9121405EEFAEFFB80047A007B007480
:104974001E121CA07F10021DCC74452527FA740C4E
:104984003528FB2274452523F523740C3524F5249E
:104994007527067528007827223522F58322F583AA
:1049A40074FFF07C077D00790022852582852683AB
:1049B400E4F0A3F0A3F0A3F07C07FD79BBE52F227C
:1049C400E0852182852283A322900B25E0F98923A7
:1049D400752400740478232274F0121CFA74DC1217
:1049E4001C8AEAFE74016E60030250C3900303E064
:1049F40064016003024ADF900B2CE06003024AEA80
:104A0400121219E990103DF0F460517900121273FA
:104A140090103DE0C0E0900B3EE0F8743228F5823F
:104A2400E4340BF583D0E0F0900B3EE004F0900BFF
:104A34002FE0700C7A027B00900301E0F912140558
:104A4400900B5FE0600C7A007B40900301E0F91268
:104A54001405908206121F207A40800E900B2FE0DE
:104A6400701E90826A121F207A027B00900301E07C
:104A7400F91213F97404121CA090103DE0F47012A2
:104A8400900B5FE060287A007B40900301E0F9120C
:104A940012F1900B3DE0C39402401390103DE0F4FA
:104AA400602D7A007B10900301E0F9121405901038
:104AB4003DE0640A70199081E6121F207A007B029F
:104AC400900301E0F91213F97404121CA0800C7A0B
:104AD400007B02900301E0F9121405900303E064E3
:104AE40001600302506F90103DE0F46072900B2C53
:104AF400E0706C900B2FE070030250369082261207
:104B04001F207A007B04900301E0F91213F9740466
:104B1400121CA0900B3EE0FA900B3DE06030146054
:104B24007E147003024BE2147003024CDF14700312
:104B3400024D41147003024E65147003024EBD14FD
:104B44007003024F05147003024F7F0250C31251C9
:104B5400067003024F77EAC3940A4003024F777A40
:104B6400807B00900301E0F912140574106E600359
:104B74000250E9900303E0700C7A407B009003013B
:104B8400E0F91212F190826A121F207A207B0090C1
:104B94000301E0F91213F97404121CA00250F57415
:104BA400026A700B90103DE0640B70B3024F77EA19
:104BB400C3940340AA7930121273900B3EE4F09030
:104BC4000B3D04F07A007B04900301E0F912140514
:104BD4007A007B10900301E0F91214058081908023
:104BE400AF740D121CF07417121B9DEAC39402508B
:104BF40003024CAD90103DE0640B6003024CAD74B5
:104C0400036A7005125145800B74026A700A900B96
:104C140032E024D0900B25F0900B25125159121C30
:104C2400771250FF740A123068F4854182854283FA
:104C3400704E7401F0793412127312142FAC41AD1A
:104C44004279017A057B0312141D740D121CE812BB
:104C5400047B740D121CF079177A087B0312141D5F
:104C6400900B247401F0908212121F207A007B10A2
:104C7400900301E0F91213F97404121CA0024E56B9
:104C8400E4F012142FAC41AD4279017A057B031292
:104C9400141D7906121273900B2574FFF0900B24E7
:104CA400E4F0900B3D04024E50EAC3940450137494
:104CB400036A6003024B6390103DE0640B700302CF
:104CC4004B637930121273900B3EE4F012511D9035
:104CD4000B24125139121465024BC874066A60031E
:104CE400024B63900B44E064BB7521067522007887
:104CF40021702D121F0D7C327D0B7A3F7B0B12121B
:104D04009D7402121CA07C0A7D0079FF7A327B0B11
:104D1400121465900B3EE4F0790A121273024B638D
:104D2400121F0D7C327D0B7A3F7B0B12145F7402D1
:104D3400121CA0E96003024E24790C804EEAC3944D
:104D440002404E90103DE0640B704674036A700597
:104D5400125145800B74026A700A900B32E024D021
:104D6400900B26F0900B26125159121C7774A51241
:104D74005101740B12306864BB600E791012127307
:104D8400900B26125120024FD4790E121273024E48
:104D940056900B26E0F8EAC39404401474FF68703C
:104DA4000F7930121273900B3D7401F0A3024CD6AC
:104DB40074066A6003024B63900B44E064BB703A70
:104DC40074FF687003024B63752106752200782115
:104DD400121F0D7C327D0B7A3F7B0B12129D7402E5
:104DE400121CA07C0A7D0079FF7A327B0B121465B9
:104DF400900B3EE4F0790F024D1E74FF68700302BD
:104E04004B637521067522007821121F0D7C327DBB
:104E14000B7A3F7B0B1212AF7402121CA0E9600FD5
:104E24007A007B04900301E0F91212F1024FE17958
:104E34000C121273900B2674FFF07C067D0079BB74
:104E44007A3F7B0B121465900B3D740112512A12A8
:104E540014657A007B04900301E0F9121405024FF3
:104E6400E19081C27407121CF07406121B9D90100D
:104E74003DE0640B702774016A7022752106752267
:104E8400007821121F0D7409121CF07A457B0B1255
:104E9400145F7402121CA0E97053025027EAC394F1
:104EA400024003024FEF74016A6003024B63E06443
:104EB4000B6003024FEF024B639081E07401121CFC
:104EC400F07406121B9D74026A702A7521067522FD
:104ED400007821121F0D7403121CF07A457B0B120B
:104EE400145F7402121CA0E9700302502779121295
:104EF4001273024FE1EAC394035003024B63024F5F
:104F0400EF90103DE0640B7051EAC39402404B747F
:104F1400036A7005125145800B74026A700A900B83
:104F240032E024D0900B26F0900B26125159121C1B
:104F34007774A5125101740B12306864BB700D793B
:104F44001C121273900B261251208005791A12122A
:104F540073125136121465024B63EAC3940440037E
:104F6400024FEFE0640B6003024B6374016A600359
:104F7400024B63900B3EE4F0025027EAC3940240D4
:104F84006490103DE0640B705C74036A7005125108
:104F940045800B74026A700A900B32E024D0900BA7
:104FA40025F0900B25E0F9892175220074047821FD
:104FB400121C771250FF740A123068F46003E9700F
:104FC4000A791C12127312511D8012791E12127367
:104FD4007C0A7D0079FF7A327B0B121465900B3EBC
:104FE400E4F0024B63EAC39404402579301212734F
:104FF400900B3D7401F0A31251391214657A007BB1
:1050040010900301E0F91214057A007B04024BD8D6
:1050140074016A6003024B6390103DE0640B60030B
:10502400024B637A007B04900301E0F91212F1024F
:105034004B63900B3EE0FA1251066006EAC3940AF1
:1050440040067A007B0880DFEAC394065003024BD3
:105054006390826A121F207A007B08900301E0F9B2
:105064001213F97404121CA0024B63900B3EE4F07B
:10507400900B55E0C39406403F1210937A817B084D
:1050840012109F8A218B228C238D24900B56782515
:10509400121B429081EA7825121ABB7825792112D5
:1050A40014F8404D900B55125114A3F09081EE1258
:1050B4001F207A407B0080A37A407B0002502B742F
:1050C400026E6003024B63900303E0700C7A407B32
:1050D40000900301E0F91212F17A807B0090030141
:1050E400E0F91212F17A207B00900301E0F9121426
:1050F400057424121CA07F08021DCC746E2521F5B2
:10510400822274312AF582E4340BF583E0640B22A5
:10511400E4F0A3F0A3F0A3F022900B2574FFF09029
:105124000B3D7401F022F07C0A7D0079FF7A327B1A
:105134000B22900B3EE4F07C0AFD79FF7A327B0B64
:105144002275F00A900B32E0540FA4F8A3E0540F38
:105154002822900ED0E0F5217522007404782122D3
:1051640074F4121CFA74F1121C8A8921E914601077
:1051740014700302520D24FD700302523B0252B715
:105184007409121CF07A047B031214237409121C90
:10519400D6E0C0E07401121CD6D0E0F0740A121CF0
:1051A400D6E0C0E07402121CD6D0E0F0740B121CDE
:1051B400D6E0C0E07403121CD6D0E0F07405121CD3
:1051C400D6E4F07404121CD6E4F0740E121CD6E07B
:1051D400C0E07408121CD6D0E0F0740D121CD6E0A6
:1051E400C0E07407121CD6D0E0F0740C121CD6E098
:1051F400C0E07406121CD6D0E0F07401121CF07AE0
:105204000879001210270252B7854182854283E44F
:10521400F07A04FB900301E0F9121405900303E013
:1052240060030252B712142FAC41AD4279017A05E2
:105234007B0312141D807C900B24E0640170439066
:105244000B2FE0640170607A107B001213638A23D1
:105254008B24AE23AF248E828F837401F0A3744F0A
:10526400F08E828F83A3A3744B1252C612103F7A1E
:10527400047B00900301E0F9121405EEFAEFFB122F
:105284001369900B22E0701F900B24E07019908139
:10529400F2121F207A047B00900301E0F91213F943
:1052A4007404121CA0800C7A047B00900301E0F9C2
:1052B400121405E521900302F0740F02305DE990A9
:1052C4000B53F0EEFCEFFD7A1079012274F4121CFA
:1052D400FA74FF121C8A7A087B001213638A218BEA
:1052E40022AE21AF22854182854283E4F0900B22D5
:1052F400E06023900B2DE06401701B900B5CE07068
:105304001512142FAC41AD4279017A057B031214B6
:105314001D900B2DE4F0EEFAEFFB1214C5E97003B7
:105324000253A97A00EAF8EE28F582E43FF583A354
:10533400E070037430F00AEAC3940640E875210073
:105344007523067524007823121F0D8E828F83A384
:10535400AC82AD8385212374047823121C777445B1
:105364002523FA740C3524FB12145F7402121CA05A
:10537400E9601B1214A7900ED17403F0E521A3F089
:105384007A107B00900301E0F91212F1801774097E
:10539400652170081214AD79011212730521E521FB
:1053A400C3940A409BEEFAEFFB12136974010230B6
:1053B4005D74F0121CFA900303E064016003025F61
:1053C400DAE9600A24FE70030259EC025FDA7A2AF1
:1053D4007B03790012104575231A75240378231270
:1053E4001F0D7C2A7D037AC57B0F120B35740212C4
:1053F4001CA07C5E7D0A7AC479801213D590031AAE
:10540400E014601D1470030255F614700302571261
:1054140024FB700302598E24F870030259D4025FEE
:10542400DA752200852223852325752600740478E5
:1054340025121C77745E2525FE740A3526FFEE249A
:1054440011F525E43FF526752706752800782712FF
:105454001F0D7C1B7D03AA25AB2612145F74021258
:105464001CA0E970030255629003047401F0120455
:105474006F7901120487120469E522900BA3F07A74
:10548400047B00900301E0F9121405E522900B223D
:1054940070271260276025900B2FE0701F12606D3B
:1054A4007A3E7B101204ABE9900B53F07C3E7D10E6
:1054B4007A10790112103F80037402F0EE2417F879
:1054C400E43FF9E8FAE9FB900321E0F523540FFCEB
:1054D4008A828B83E0540F6C7001E46003E523F04F
:1054E400740F5523F8740168700B900B237401F04A
:1054F400900B2E800A7402687006900B237402F0DD
:1055040074F05523703090033A7421F0E522A370AF
:105514000474118002742112604512103F900B2410
:10552400E064017011900B3D7401F0A3E4F0793351
:10553400121273025FDA900321E054F064306003C6
:10554400025FDAEE2410F582E43F1249A2AA25ABE9
:1055540026121465900B23E412600F025C4F740949
:105564006522702F900B24E0640170277525077560
:1055740026007825121F0D7C1B7D037A4C7B0B12B1
:10558400129D7402121CA07A007B04900301E0F9BE
:105594001212F1E52375F006A4F523E5F0F5247461
:1055A400672523FE740B125FE4121F0D7C1B7D0321
:1055B400EEFAEFFB12145F7402121CA0E96024904F
:1055C400033A74CCF0A3F0A312604512103F7C069A
:1055D4007D007900EEFAEFFB121465900BA3E01442
:1055E400025FD90522E522C3940A4003025FDA026E
:1055F4005428900B5CE090034AF0900B53E0901019
:10560400501260656003025FDA7523037524007825
:1056140023121F0D7C1B7D037A4E7B1012145F74C2
:1056240002121CA0E9607D900B53E4F07800900313
:105634004AE0A2E0505EE8601414601814601C1480
:10564400602014602414602814602C804790105E3D
:105654007441802890105E7442802190105E7443DF
:10566400801A90105E7444801390105E7445800C10
:1056740090105E7446800590105E7447F07C037948
:10568400007A5E7B101204ABE9900B53F07C5E7DD4
:1056940010025F00E0C313F008E8C394074003025C
:1056A4005FDA808A900B5DE0F87003025FDA900B9A
:1056B40053E4F0E814601514601924FE601C24FC03
:1056C400601F24F8602224F06025802990106E74F5
:1056D40041802190106E7442801A90106E74438041
:1056E4001390106E7444800C90106E744580059075
:1056F400106E7446F07C6E7D107A10790112103FA2
:105704007C03900B53E0F97A6E7B10025984752365
:10571400027524007823121F0D7C1B7D037A4E7BB7
:105724001012145F7402121CA0E97003025FDA9075
:105734000B22E064016003025FDA90031DE0F8A32A
:10574400E024BF60241460701470030257F41470D2
:105754000302583E14700302588D1470030258DC7F
:10576400147003025925025FDA900B53E06870400D
:10577400E4F0752201852223752400740478231231
:105784001C77746E2523FE740A3524FF7C0812608E
:10579400A71204AB1252C212103F0522E522C39491
:1057A4000A40D2900B5CE0C2E0F0A37401025FD91E
:1057B400125FFF744102596D900B53E0687029E445
:1057C400F07C06F97A5E7B0A1204ABE9900B53F085
:1057D4007C5E7D0A7A10790112103F900B5D740291
:1057E400126029C2E1025FD9125FFF744202596D4F
:1057F400900B53E068703BE4F0752200852223751A
:10580400240074047823121C7774A52523FE740BDA
:105814001260A21204AB1252C212103F0522E522FA
:10582400C3940A40D7900B5CE0C2E2F0A374040274
:105834005FD9125FFF744302596D900B53E0687097
:1058440040E4F07522008522237524007404782333
:10585400121C7774452523FE740C3524FF7C061234
:1058640060A71204AB1252C212103F0522E522C3F4
:10587400940A40D2900B5CE0C2E3F0A37408025F88
:10588400D9125FFF744402596D900B53E068704065
:10589400E4F0752200852223752400740478231211
:1058A4001C7774D32523FE740E3524FF7C09126003
:1058B400A71204AB1252C212103F0522E522C39470
:1058C4000F40D2900B5CE0C2E4F0A37410025FD9E5
:1058D400125FFF744502596D900B53E068703BE40E
:1058E400F075220085222375240074047823121C89
:1058F4007774E62523FE740C1260A21204AB1252D4
:10590400C212103F0522E522C3940A40D7900B5CD3
:10591400E0C2E5F0A37420025FD9125FFF744680F1
:1059240048900B53E068703CE4F0900B5CF0A3F0FB
:1059340012147D7A0A7B001211EF7523D075240EA0
:105944007823121F0D7CF47D007A007B101211ADB8
:105954007402121CA07A027B00900301E0F9121277
:10596400F1025FDA125FFF7447F07C7E7D107A10DB
:10597400790112103F7C03900B53E0F97A7E7B107F
:105984001204ABE9900B53025FD912109390031BDE
:10599400E0900881F090031CE0900882F090031DD1
:1059A400E0900883F090031EE0900884F090031FB9
:1059B400E0900885F0900320E0900886F012108DA6
:1059C40090033A7416F0A3744BF0A3744F025EFB79
:1059D400A3E0644F6003025FDAA3E0645060030253
:1059E4005FDA900B2E025BE3121093900B54E4F0F9
:1059F4007A2A7B03790212104575231A75240378D9
:105A040023121F0D7C2A7D037AC57B0F120B35747C
:105A140002121CA090031BE0FE8E23752400740464
:105A24007823121C77A823A924A3E0F52590031A50
:105A3400E0146039147003025AF4147003025B51C9
:105A4400147003025B89147003025C0B147003026C
:105A54005C65147003025CBD147003025E14147060
:105A640003025F0A147003025FD5025FDA745E28D2
:105A7400FE740A39FFEE2410F523E43FF524900B5D
:105A840054E0F97C08AA23AB241204AB12606070C2
:105A940057E525687052900B5E7401F0852382856A
:105AA400248374FF12603B121F0DEE2411FCE43FAB
:105AB4001260B112129D7402121CA0900BA3E00498
:105AC4001249A690031BE0F52374047823121C7773
:105AD400746F2523FA740A3524FB12146590033A73
:105AE4007403126091025C4990033A7450025B7E25
:105AF400900B54E0F97C067A5E7B0A1204AB1260C8
:105B0400607042EE68703E900B5E7401F07C067D1E
:105B14000079007A5E7B0A121465752306752400E9
:105B24007823121F0D7C8E7D107A5E7B0A12129DE3
:105B34007402121CA090033A7404F0900B54E09089
