:020000040000FA
:0600000002011A02279321
:03002B00022EFCA6
:030053000228067A
:03007B00022EC191
:100083000225FFE5C754F84401F5C77901220000B2
:100093000080FB120086B90003020104E47944786E
:1000A30008B800028004F709D8FCE4794C7802B858
:1000B30000028004F709D8FCE49003017897790DD6
:1000C3008002F0A3D8FCD9FA784390014A7A01BAA6
:1000D30000028007E493A3F608DAF97A977B0F907E
:1000E300014B784879048015E493A3AD82AE838AEB
:1000F300828B83F0A3AA82AB838D828E83D8E9D9C6
:10010300E77582B77583E1740312012C75829175CB
:100113008300740012012C75D00075817F75410135
:10012300754203759F00020096C09FF59FE473D04C
:100133009F22D083D082C09FE493C0E0740193C018
:10014300E0740293F59F220101030507FFFE778800
:1001530012993241142425360D0947656D696E697C
:100163002D424131303005120A001400020A000208
:10017300010601022A2A47656D696E692D424131E4
:1001830030302A2A0000000000C2040000CE040A16
:100193000B310B320B330B340B350B360B0A0A02C4
:1001A300534A00000000000000000000000000FFB0
:1001B300FFFFFFFFFFFF02534A00000000000000A3
:1001C3000000000000004F4B000000000000000092
:1001D30000000000000000534A000000000000007F
:1001E3000000000000000043570000000000000072
:1001F3000000000000000043570000000000000062
:100203000000000000003132333435361F4B4F00FD
:10021300000000000000000000000000FF0000B428
:10022300000028002800283075A000A000A000A02E
:100233000000080008E001F000100010001000109A
:10024300001000100050005000500010001000D0AB
:10025300070000000000000F0001000500307507D3
:10026300001000010081FF00000000FFDE06FC0615
:10027300E406FF02020208025000A0000000E803A7
:10028300022A820100001082024C82010000C21087
:100293000234820100006D03024C82010000C3108E
:1002A3000236820100008303024C82010000C41065
:1002B3000238820100008503024C82010000C51050
:1002C300023A820800008603024C82010000C61035
:1002D300023C82010000C710FF0100FF20022A82B6
:1002E3000100001382024C820100002B11023E82A6
:1002F3000000000000023282030000D303DE0CDEA4
:100303000CDE0CDE0CDE0CDE0CDE0CDE0CDE0CDE9A
:100313000CDE0CDE0CDE0C720F8A0F6C0F02020275
:10032300020202020202010D0000001001022A82F1
:100333000100000A82024C820100006C1102428219
:10034300010000FA07024C820100006D11024E8287
:100353000100002581024C820100006E11024082DF
:100363000100000981024C820100006F1102248206
:100373000100008180024C82010000701102228280
:100383000100009380024C8201000071110220825F
:10039300010000B780024C820100007211021E822C
:1003A300010000A580024C820100007311021C822F
:1003B3000100001781024C820100007411024A827D
:1003C30001000075110A43686172616374657269A3
:1003D30073746963203100164368617261637465E5
:1003E3007269737469632032000A436861726163DE
:1003F3007465726973746963203300022A82010091
:10040300001982024C82010000141202468203008A
:100413000004080230820100001512024C82010020
:10042300002612022E820300001408023282030007
:100433000025080230820100002712024C820100CD
:10044300003812023A810300002B080230820100B7
:1004530000391201E803053F100AFFFFFF000130D6
:100463007503020106000000000000000000000008
:100473000000000000000000000000000000000079
:1004830000FFFF0600800CE80331323334353612A7
:10049300013510E50312013524E50312013526E584
:1004A300031201352BE5031201354A2F00120135E2
:1004B3007C310012013575330012013505470012F6
:1004C3000135774E00120135E34F00120135C85054
:1004D30000120135185E001201355B5E0012013512
:1004E30098D403120135AFD403120135E0D40312BB
:1004F30001351BD50312013545D5031201356FD5DF
:100503000312013586D5031201359DD5031201353A
:10051300B4D503120135DDD503120135F0D503122D
:10052300013506D60312013519D60312013540D61B
:1005330003120135C0EC02120135C4ED021201357C
:10054300FCED021201351FEE021201352AEE0212F2
:1005530001354DEE021201355CEF0212013531F027
:1005630002120135ACF00212013534F102120135E9
:100573006FF102120135A6F10212013534F20212B3
:1005830001350DF3021201356DF30212013578F3D3
:1005930002120135F7F302120135FAF302120135A3
:1005A300FDF3021201358CF4021201358FF40212AD
:1005B3000135BFF402120135E9F402120135D7F512
:1005C3000212013589F602120135DB970312013558
:1005D3000398031201353198031201356898031209
:1005E3000135C698031201351199031201355C993F
:1005F300031201359C9903120135E2990312013567
:10060300109A03120135CD9A03120135D79A0312BA
:100613000135E49A03120135179B03120135E39B5D
:1006230003120135EF9B03120135079C03120135B9
:10063300119C031201355CDF031201356ADF0312DB
:10064300013582DF031201359ADF03120135008081
:1006530002120135AC8002120135278102120135E5
:100663004882021201358482021201352D8302125F
:100673000135148402120135788502120135CF85C4
:1006830002120135508602120135408702120135EC
:100693008D87021201351388021201354588021233
:1006A3000135598A021201359B8A02120135B98A32
:1006B300021201353C8B02120135108C02120135F6
:1006C300D88C0212013551F80112013524F90112B7
:1006D3000135CDF90112013520FA01120135D0FAA5
:1006E300011201355CFB0112013548FC0112013591
:1006F30077FC011201358AFD01120135D2FD011289
:100703000135A7FE01120135E3FE01120135FFFE9B
:100713000112013574FF0112013501BA03120135CB
:1007230017BA031201353DBA0312013559BB03123F
:10073300013563BB0312013598BC0312013590BD2B
:1007430003120135B49203120135E4930312013508
:10075300179403120135619403120135289603128D
:10076300013562E801120135CCE8011201352BEAAB
:10077300011201353BEA0112013568EA0112013524
:10078300BFEA0112013568EB011201356FEC01126A
:10079300013539ED0112013599EE01120135DCEE17
:1007A3000112013581EF01120135CEEF011201353E
:1007B300F4EF0112013502F20112013507F20112C1
:1007C30001350CF40112013559F401120135CCF451
:1007D30001120135FFF401120135A1F501120135B2
:1007E3004AF60112013582F60112013585F601122E
:1007F3000135CDF6011201350DF70112013564F70C
:100803000112013573C6031201358BC6031201357C
:10081300D3C603120135E9C60312013530C70312EB
:10082300013544C803120135D1C8031201351CC96F
:1008330003120135E05F00120135EC5F0012013550
:100843002760001201356C60001201352C61001223
:100853000135B26100120135DE6100120135176204
:100863000012013555640012013539660012013555
:100873001F6800120135626900120135B06B001266
:100883000135C26C001201350D6E001201351D6F6A
:10089300001201353A6F00120135756F00120135F0
:1008A300976F00120135FA6F00120135BB74001205
:1008B3000135507500120135A17500120135C87557
:1008C300001201351A76001201353876001201350F
:1008D30092760012013591770012013515780012D6
:1008E3000135568D03120135608D03120135A38D39
:1008F30003120135BE8D031201354E8E03120135ED
:10090300768E03120135B38E03120135EA8E03127C
:100913000135138F03120135888F031201359D8F23
:1009230003120135B28F03120135E38F0312013530
:10093300F78F031201351C900312013556900312F1
:100943000135829003120135BA90031201351991D2
:1009530003120135989103120135C3910312013536
:10096300EE9103120135379203120135619203129E
:1009730001358C920312013549DC03120135BFD4D2
:1009830002120135EDD4021201353BD602120135B4
:100993001BD7021201353AD702120135B7D702121B
:1009A3000135FAD70212013550D90212013511DA95
:1009B3000212013598DC0212013539DD02120135CC
:1009C3002FDE021201352CDF0212013586E00212FE
:1009D300013511E10212013595D903120135FED912
:1009E3000312013552DA0312013579DA03120135A4
:1009F300AADA0312013580A503120135EDA503120E
:100A0300013534A6031201354CA70312013548A85A
:100A1300031201352BA903120135FAF6021201352F
:100A23003CF7021201350EF802120135E7F8021203
:100A33000135E1F902120135C3FA021201352CFB2B
:100A430002120135E2FB0212013556FC0212013596
:100A5300C2FC02120135EBFC0212013565FD0212E4
:100A63000135FEFD0212013563FE0212013578FEE7
:100A730002120135BEFE02120135D7FE0212013504
:100A83003CFF021201353FFF021201359AC00312E7
:100A93000135C2C00312013500C103120135BEC1C5
:100AA3000312013525C20312013541C20312013578
:100AB30069C20312013599C203120135A8C2031298
:100AC300013525C3031201354BC303120135A8D7E2
:100AD3000112013586D901120135B8DB0112013546
:100AE300F4DB0112013521DC011201350BDD0112AA
:100AF300013556DD01120135A1DD01120135B3DDEA
:100B030001120135F3DD0112013528DE0112013531
:100B130076DE01120135A5DE01120135C8DE0112B0
:100B2300013515DF011201359ADF01120135B4E1F8
:100B330001120135F3E30112013534E401120135E9
:100B4300D6E50112013517E6011201358AE60112D5
:100B53000135DBE601120135B6E701120135E0E7A5
:100B63000112013515E80112013540E80112013582
:100B7300AAC702120135A8C80212013541CF0212D9
:100B8300013562D1021201352DD30212013595D4FC
:100B93000212013556820112013505830112013516
:100BA300328301120135788301120135AE840112BB
:100BB3000135DC8401120135728601120135EC86A0
:100BC30001120135078701120135828701120135B0
:100BD300DC88011201353C8A01120135428B011276
:100BE3000135A38C01120135BC8C011201351A8D1C
:100BF30001120135088E011201353B8E01120135B8
:100C0300AB8E01120135258F011201356F8F011251
:100C130001353990011201350E9101120135ED9123
:100C230001120135789201120135E6920112013564
:100C33005A9301120135859301120135449401122F
:100C43000135A99501120135C69501120135E595C6
:100C530001120135D69601120135FB9601120135B9
:100C6300259701120135A09701120135FA97011258
:100C73000135639901120135119A01120135529A16
:100C8300011201355D9D02120135AB9D0212013542
:100C9300B79D02120135959E02120135C69E0212BE
:100CA3000135F79E02120135779F02120135F59F38
:100CB300021201352DA0021201357FA00212013567
:100CC300BCA002120135D9A202120135FFA40212FF
:100CD3000135EAA602120135D4A802120135F8FF44
:100CE3000112013591AF01120135C1AF0112013576
:100CF3009AB6011201351FB8011201351CBE01124B
:100D0300013504BF0112013541BF0112013564BF32
:100D13000112013595BF011201359EBF0112013544
:100D2300A8BF0112013596C0011201358CC1011211
:100D33000135829A01120135819E01120135879E88
:100D430001120135C2A501120135DBAA01120135D9
:100D530033B603120135C9B603120135DFB60312E8
:100D6300013555B703120135C9B70312013507B869
:100D7300031201357BB803120135F4B803120135B0
:100D8300FDB80312013509B9031201351EB9031267
:100D930001355CB90312013572B903120135D1B9BA
:100DA30003120135EDA903120135FAA90312013526
:100DB30014AA0312013553AA0312013591AA03128F
:100DC3000135F6AA031201350BAB0312013516AB3D
:100DD3000312013523AB031201353AAB031201357C
:100DE30048AB0312013553AB031201355FAB03125A
:100DF30001356EAB0312013579AB031201359CABA0
:100E03000312013543AC0312013553AC0312013510
:100E13006DAC031201358AAC03120135A6AC031283
:100E23000135CBAC03120135D6AC03120135EBAC63
:100E330003120135FFAC0312013560AD0312013516
:100E430066AD031201356CAD0312013572AD0312A9
:100E530001358AAD03120135BDAD03120135B4ABC3
:100E63000212013538AC02120135E7AC021201352A
:100E730046AE0212013567B00212013553B10212B8
:100E8300013588B102120135AAB10212013559B2F6
:100E93000212013551B4021201357AB4021201353E
:100EA3000CB5021201353EB5021201354BB50212E3
:100EB3000135A2B502120135C8B50212013535B8A4
:100EC3000212013538B90212013590B90212013507
:100ED300F18E02120135FB8F02120135E2900212EC
:100EE3000135EC90021201350E91021201351A916F
:100EF30002120135B39202120135E2920212013558
:100F0300FE9302120135579402120135BD95021268
:100F130001359C9602120135F89602120135659748
:100F230002120135A09702120135DF970212013533
:100F3300989A02120135B29A021201353E9B0212AF
:100F430001354C9B02120135A59B02120135B39B5F
:100F530002120135269C021201358A9C02120135C8
:100F6300D49C0212013592E102120135B4E102125E
:100F73000135DAE302120135EFE60212013507E823
:100F830002120135BAE8021201359CE90212013559
:100F930052D60312013577D603120135E9D603126F
:100FA30001357C78001201358578001201358E7881
:100FB30000120135657900120135167B00120135E7
:100FC3004C7B00120135867B00120135BC7B00127D
:100FD3000135F67B001201352A7C00120135567C5F
:100FE300001201359F7C00120135D97C00120135B6
:100FF300227D001201357A7D00120135AF7D00128A
:1010030001350A7E00120135447E00120135957EBA
:1010130000120135CB7E00120135057F0012013528
:10102300337F00120135567F001201356DE2031242
:10103300013599E203120135F4E203120135FEE2B0
:10104300031201350EE30312013546C903120135BC
:101053006BC90312013595C90312013538B2031266
:1010630001357DB2031201359AB20312013580B303
:1010730003120135D3B303120135A8B403120135AA
:10108300FAB5031201359ABD03120135B5BD03123A
:101093000135E4BD03120135EABD03120135F0BD8C
:1010A300031201351DBE0312013542BE0312013581
:1010B30059BE031201356EBE03120135C2BE0312BF
:1010C30001353BBF031201355BBF03120135C9E490
:1010D30003120135A4C30112013506C601120135FD
:1010E300BDC701120135BAC8011201354AC901123F
:1010F3000135D1C901120135F6C90112013537CDC8
:1011030001120135ADCD011201359CCE011201351D
:10111300D6CE0112013516CF01120135BCD0011212
:10112300013511D1011201355ED101120135CCD146
:1011330001120135F2D1011201350CD20112013530
:1011430022D30112013532D30112013543D40112E6
:10115300013558D4011201358ED4011201350FD651
:10116300011201354ED60112013573D70112013533
:1011730020E303120135B8E30312013580E40312BF
:101183000135BFE403120135DFE503120135FEE04B
:10119300031201350EE1031201351DE1031201357E
:1011A300B1E10312013562DD03120135E6DD0312FD
:1011B30001354CDE0312013510A10312013547A19D
:1011C3000312013568A103120135D8A103120135B9
:1011D30044A2031201359BA303120135F0DA031273
:1011E300013518DB031201358CDB03120135A3DB58
:1011F30003120135F3DB031201353DDC0312013524
:1012030040DC03120135B7E503120135C7E50312CC
:101213000135CAE50312013593C303120135D7C360
:1012230003120135EDC30312013508C4031201355E
:1012330023C4031201356EC403120135BDC4031266
:101243000135FDC403120135DFC50312013529C67B
:1012530003120135F87F0012013552CE0312013516
:10126300DACF031201353BD00312013581D00312CB
:1012730001356EE50312013581E50312013585E57C
:10128300031201358CE5031201358EE50312013596
:1012930022E40312013528E40312013576E4031234
:1012A300013533E0031201355CE00312013585E0BB
:1012B300031201359DE003120135DFE0031201350E
:1012C300D68703120135E087031201352088031204
:1012D3000135698803120135A38803120135F988A2
:1012E30003120135188903120135218903120135CF
:1012F3007289031201359B8903120135A5890312F3
:101303000135168A03120135A48A03120135F98ABD
:1013130003120135278B03120135A38B0312013509
:10132300E68B03120135238C03120135358C03122E
:101333000135548C031201355D8C031201352A8D5E
:1013430003120135C3E303120135F7D70312013545
:1013530048D803120135D1D80312013537D9031206
:10136300013512CC031201353CCC0312013505CDF6
:1013730003120135E0CD0312013565DE0312013599
:1013830096D203120135CCD20312013505D30312D1
:1013930001355ED40312013563FF0212013579FF73
:1013A3000212013583FF02120135CDFF021201350E
:1013B300008003120135BD8003120135F88003124A
:1013C3000135208103120135828103120135CE815B
:1013D30003120135398203120135B5820312013537
:1013E300B18303120135388503120135BB8503121E
:1013F30001351F86031201353686031201352C870A
:1014030003120135788703120135989C03120135C5
:10141300AD9C031201355D9D031201359D9D0312A1
:101423000135B69D03120135E99D03120135369E40
:10143300031201356A9E03120135AC9E0312013576
:10144300AAA003120135DEB9021201353BBD021217
:101453000135C3BE021201351ABF0212013539BF6D
:1014630002120135B7BF0212013547C1021201351D
:101473002BC20212013537C60212013507C7021209
:1014830001353AAE031201358BAE0312013524AF99
:10149300031201354CAF03120135CFAF03120135EF
:1014A3002DB00312013545B10312013586B1031284
:1014B300013584D00312013593D003120135BED018
:1014C30003120135C4D003120135CAD0031201350A
:1014D300E5D003120135ECD003120135F3D003122A
:1014E3000135F7D00312013586D103120135D5D169
:1014F30003120135CDE503120135D6E5031201359B
:1015030042E50312013599E503E066701008A3E094
:1015130066700A08A3E066700408A3E06622C3E7C6
:10152300960809E7960809E7960809E79622C3E0B3
:101533009608A3E09608A3E09608A3E09622C021AC
:10154300C3E096F52108A3E096422108A3E0964262
:101553002108A3E09645217001D3D02122E9799E89
:10156300C608CAC608CBC608CCC6C370207996CABB
:10157300CBCC7019798ECBCC70137986CC700EF9E5
:10158300802ACA33CACB33CBCC33CC331930E7F2FE
:10159300CCCBCA3350147004EA30E00DE4CA3ACA23
:1015A300CB3BCBCC3CCC500209C3E913C6CC1823AC
:1015B30013C6CB18C6CA18C6F9221215FD20F0149B
:1015C30030E72B74FFFCFBFA747F8022E4FCFBFA08
:1015D3007480801AB48008BC00F2BB00EF800F5007
:1015E300EBF9E4C39AFAE49BFBE49CFCE499C6CCD4
:1015F30018C6CB18C6CA18C6F922E4C9C608CAC693
:1016030008CBC6D3330308CCC63392F0C3947F40D0
:101613002E94184019C9B90704CACBCC225025C34C
:1016230009CA33CACB33CBCC33CC33D9F422F460DD
:101633000DC9CCC313CB13CBCA13CAD9F6CC22E43E
:10164300FCFBFA2214FCFBFA22E62618461846187D
:101653004622E72719471947194722181818E60899
:1016630046087009E626087005E633F422082219B5
:101673001919E70947097009E727097005E733F4E2
:10168300220922E6084608C3134608336002E633FC
:10169300F422E7094709C3134709336002E733F428
:1016A300221216866025121695602012164C7003BE
:1016B300021655080808E76670101819E766700ADD
:1016C3001819E76670041819E76622F422121686C1
:1016D300601C121695601712164C7007121655707F
:1016E30001D322C0D01216557006D0D0B322C32224
:1016F30033D0D0501430E0F6C3E7960809E79608D4
:1017030009E7960809E796B32220E0D5E69708098A
:10171300E6970809E6970809E697B322121686604A
:101723001B121695601612164C7007121655600C94
:10173300B322C0D01216557005D0D022C32233D0A5
:10174300D0501330E0EBC3E7960809E7960809E7A2
:10175300960809E7962220E0E4E6970809E6970849
:1017630009E6970809E6972212169560461216862F
:10177300603DE9687008F618F618F618F6227480CA
:1017830067F712179F090909748067F722121686F3
:10179300601D1216957005191919801A12165E70BC
:1017A3001F121672C37003E667331919194007181D
:1017B30018182208080874FFF618F618F618F62207
:1017C3001216726017121655702192F012164C7091
:1017D30019501720F014080808090909E7F6181921
:1017E300E7F61819E7F61819E7F62212164C60E621
:1017F300E869701F0808E62480F608E436F61854F2
:101803007FB47F0CE654806007F6E418F618F622DE
:10181300181822E9C6CC08C6CD08C6CE08C6CFC064
:10182300E0E8C0E0EAC0E0EBC0E009E9F809E7FA64
:1018330009E7FBE6F918E6F8C3EC98ED99EE9AEBA5
:10184300C2E7F5F0EFC2E795F0500E600CEBCFFB6B
:10185300EACEFAE9CDF9E8CCF8EAA2E7D2E7FAEB67
:1018630033FB13F5F0EEA2E7D2E7FEEF33FFC5F04B
:1018730013A2E730E601B313C5F0C3C0E0C0F07FA5
:1018830000C39BFB605E9418600F401D14601AD068
:10189300E023F9D0E0F80219718AF0E9486003D235
:1018A300F0E4AFF0FAF9F8803BEB30E40D89F0EAAD
:1018B3006003D2F0E4AFF0F9CAF8EB30E30D88F03F
:1018C300EF6002D2F0AFF0E4CAC9F8EB540760143A
:1018D300FBC3EA13FAE913F9E813F8EF135002D242
:1018E300E0FFDBEDD0E0C0E030E739C3E49FFFF574
:1018F300F0EC98FC42F0ED99FD42F0EE9AFE42F0D6
:10190300D0E0F9D0E0F8E5F0607AE923F9EE20E7DA
:1019130042D8028067C3EF33FFEC33FCED33FDEEB7
:1019230033FE80EAEC28FCED39FDEE3AFED0E023ED
:10193300F9D0E0F84002801BC3EE13FEED13FDEC7B
:1019430013FCEF135002D2E0FF08B800067F7F7448
:10195300FF802EEF3350178CF020F00260100CBC88
:10196300000C0DBD00080EBE000408E860DFE9337B
:10197300E813FFEE2313FE4F4D4C8008E95480FF1C
:10198300E4FEFDFCEE33EF33F47004FCFD7E80D007
:10199300E0FBD0E0FAD0E0F8D0E0CFC618CEC6180E
:1019A300CDC618CCC6F922080808EAC0E0EBC0E0AF
:1019B30086F0E7A4FA180986F0E7A42AFA1809863C
:1019C300F0E7A42AFA180986F0E7A42AFA1986F0A0
:1019D300E7A4FBE5F02AFA190886F0E7A42BFBE558
:1019E300F03AFA190886F0E7A42BFBE5F03AFA1867
:1019F300180986F0E7A4C5F02BFBE43AFA1908E7C7
:101A0300C5F0C6A426F6E5F03BFBE43AFA1886F0E7
:101A1300E7A4F6E5F00826F6E43B08F6E43A08F610
:101A2300D0E0FBD0E0FA22E4CFC0E0E4CEC0E0E4B3
:101A3300CDC0E0E4CCC0E075F020E626F608E6333E
:101A4300F608E633F608E633F6181818EC33FCED1F
:101A530033FDEE33FEEF33FFC3EC9709ED9709EE49
:101A63009709EF97191919400FFFEC97FC09ED97A8
:101A7300FD09EE97FE191906D5F0BFECF709EDF74E
:101A830009EEF709EFF7191919D0E0FCD0E0FDD002
:101A9300E0FED0E0FF226016080808C6C313C6188C
:101AA300C613C618C613C618C613C6D5E0EA2270F5
:101AB30009080808226016181818C6C333C608C6D2
:101AC30033C608C633C608C633C6D5E0EA22E627BE
:101AD300F60809E637F60809E637F60809E637F6A1
:101AE30022E026F608A3E036F608A3E036F608A3BC
:101AF300E036F622E026F008A3E036F008A3E0364D
:101B0300F008A3E036F022C3E697F60809E697F655
:101B13000809E697F60809E697F622C3E096F00867
:101B2300A3E096F008A3E096F008A3E096F022E67F
:101B330057F60809E657F60809E657F60809E6577F
:101B4300F622E056F608A3E056F608A3E056F60898
:101B5300A3E056F622E056F008A3E056F008A3E00F
:101B630056F008A3E056F022E0F608A3E0F608A337
:101B7300E0F608A3E0F622E6F008A3E6F008A3E601
:101B8300F008A3E6F022E0FAA3E0FBA3E0FCA3E065
:101B9300FD22EAF0A3EBF0A3ECF0A3EDF022E0F8D2
:101BA300A3E0F9A3E0FAA3E0FB22E8F0A3E9F0A3A2
:101BB300EAF0A3EBF022CAC0E0E6F0A308DAFAD019
:101BC300E0FA22CAC0E0E0A3C582CCC582C583CDBA
:101BD300C583F0A3C582CCC582C583CDC583DAE6B0
:101BE300D0E0CA22C3E498F8E499F9121C288026AD
:101BF300C3E49AFAE49BFBE920E7E9121C28E49882
:101C0300F8E499F922C3E498F8E499F9121C28E45A
:101C130098F8E499F9C3E49AFAE49BFB22EB20E7F2
:101C2300CFE920E7E0B90010BB0008E88AF084F8A8
:101C3300AAF022E4FBC8FA22EB70227B10C833C857
:101C4300C933C9335007C39AC3DBF280069A5001E4
:101C53002ADBEAC833F4C8C933F4C9FA2275F00899
:101C6300E4C833C8C933C933C99AC99B5004C92AC4
:101C7300C93BD5F0ECFBC833F4C8E4C9FA22600DC4
:101C830008C6A2E713C618C613C6D5E0F322600C34
:101C930008C6C313C618C613C6D5E0F422700422BF
:101CA300600D18C6C333C608C633C6D5E0F4182280
:101CB300254110AF08F541400C15428008F541401D
:101CC300021542D2AF2200C0D0254110AF08F54122
:101CD300500C05428008F54150020542D2AFD0D0E6
:101CE300222541F58210AF08F541400C15428008CA
:101CF300F54140021542D2AF854283222541F58248
:101D0300E43542F583222541F8E43542F9222541A1
:101D1300FAE43542FB222541FCE43542FD22E4731B
:101D23002541C582C0E0E54234FFC583C0E0E541FB
:101D3300C3958224F810AF088583428582418008C9
:101D4300858342858241D2AFCEF0A3E520F0A3780C
:101D530021E608F0A3DEFAEFF0A3E58124FAF8E622
:101D630008F0A3E608F0A3E608F0A30808E608F0E5
:101D7300A3E608F0A315811581D0E0FED0E0F815A5
:101D83008115811581E8C0E0EEC0E0222541C582BE
:101D9300C0E0E54234FFC583C0E0E541C39582243A
:101DA300F910AF0885834285824180088583428587
:101DB3008241D2AFCEF0A3E520F0A37821E608F06C
:101DC300A3DEFAEFF0A3E58124FBF8E608F0A3E62F
:101DD30008F0A30808E608F0A3E608F0A3158115A8
:101DE30081D0E0FED0E0F815811581E8C0E0EEC0B7
:101DF300E022854283854182E0A3FEE0A3F52078BB
:101E030021E0A3F608DFFAE0A3FFE0A3C0E0E0A32C
:101E1300C0E0E0A3C0E0E0A3C0E0E0A3C0E010AFF7
:101E2300088582418583428008858241858342D229
:101E3300AFD083D082020132854283854182E0A301
:101E4300FEE0A3F5207821E0A3F608DFFAE0A3FF84
:101E5300E0A3C0E0E0A3C0E0E0A3C0E0E0A3C0E0F3
:101E630010AF08858241858342800885824185833E
:101E730042D2AFD083D08222C0D02541C582C0E0F8
:101E8300E54234FFC583C0E0E541C3958224F310E6
:101E9300AF088583428582418008858342858241DC
:101EA300D2AFC8F0A3E9F0A3EAF0A3EBF0A3792142
:101EB300E709F0A3D8FAECF0A3EDF0A3EEF0A3EF5B
:101EC300F0A3D0E0F0A3D0E0F0A3D0E0F0A3E520AE
:101ED300F0A3E5F0F0A322854283854182E0C0E0D0
:101EE300A3E0F9A3E0FAA3E0FBA37821E0F608A3BB
:101EF300DFFAE0FCA3E0FDA3E0FEA3E0FFA3E0C064
:101F0300E0A3E0C0E0A3E0F5D0A3E0F520A3E0A3C5
:101F1300F5F010AF088583428582418008858342AE
:101F2300858241D2AFD082D083D0E0F8D0E0327442
:101F3300048006740280027401C0E0F404121CE4FD
:101F4300D0E0121BB9227404800474028000CCC058
:101F5300E0EDC0E0E541C39CCCAD4250011D10AFA4
:101F6300068C418D4280068C418D42D2AF121BC636
:101F7300D0E0FDD0E0FC22D083D082E9C0E0E4933E
:101F8300A3C386F0C5F095F0F908E493A386F0C5E2
:101F9300F095F0700BE493A3C3994005E904800224
:101FA300A3E475F002A42582F582E5F03583F58379
:101FB300D0E0F9E493A3C0E0E493C0E022D083D05F
:101FC30082ECC0E0EDC0E0E493A3FCE493A3FDED59
:101FD3004C600D12200CEC24FFFCED34FFFD80EF70
:101FE300E493A3FCE493A3FDED4C600D12204BECB2
:101FF30024FFFCED34FFFD80EFD0E0FDD0E0FCE4F6
:1020030093A3C0E0E493C0E022C0E0C3E493960846
:102013007401939618400FE4936670080874019353
:10202300661870007019A3A3C3E493960874019310
:102033009618A3A3400DD0E0D0E0D0E0021FFCA38C
:10204300A3A3A3A3A3D0E022C0E0C0F088F0E4934D
:102053006670080874019366187000A8F0A3A37053
:102063000BD0F0D0E0D0E0D0E0021FFCA3A3D0F06F
:03207300D0E02298
:1020780074F5121D8FEAFEEBFFEE2434F8EF3400FE
:10208800F988218922EE2435F582EF3400F583E0C2
:10209800F8EE2437F582EF3400F583E0F523EC857C
:1020A80023F0A4FCAAF08523F0EDA42AFDE82CF87F
:1020B800E43DF97A257B00121C28EA8521828522D5
:1020C80083F0F8740758F97401B900028004C33327
:1020D800D9FCFAE8131313541FF8EE28F8EF34006C
:1020E800F9E8245DF582E93400F583E05A6008EEEA
:1020F8002434F582EF802CEE2434F582EF3400F599
:1021080083E0C0E0EE2436F582EF3400F583E0F595
:10211800F0D0E084A8F0EE28F8EF3400F9E824388D
:10212800F582E93400F583E0F97F04021E3B74F57B
:10213800121D8FEAFEEBFFEE2434F582EF3400F532
:1021480083E0C0E0EE2435F582EF3400F583D0E07B
:10215800F08E828F83A3A3A3A3A3A3A3C082C0836B
:102168008E828F83A3A3A3A3A3E0F8A3E0F9D0836F
:10217800D082E0C398F521A3E099F522EE247FF5FB
:1021880082EF3400F583E064017069EE2480F58203
:10219800EF3400F583E0F8A3E0F98E828F83A3A3E0
:1021A800A3A3A3A3A3E0FCA3E0FD8E828F83A3A334
:1021B800A3A3A3E0FAA3E0FBC3EA9CEB9D5010C3E2
:1021C800EC98ED99402EC3EA98EB995027800EC3FE
:1021D800EA98EB994007C3EC98ED9940177C967DF7
:1021E80005EEFAEFFB120C36EE247FF582EF340091
:1021F800F583E4F0EE2434F8EF3400F9E8FCE9FD67
:10220800EE2435F582EF3400F583E0F8EE2437F557
:1022180082EF3400F583E0F523E5218523F0A4F56A
:1022280021AAF08523F0E522A42AF522E82521F841
:10223800E43522F97A257B00121C28EA8C828D83EA
:10224800F0F8740758F97401B900028004C333D94F
:10225800FCFAE8131313541FF8EE28F8EF3400F9CA
:10226800E8245DF582E93400F583E05A6008EE243D
:1022780034F582EF802CEE2434F582EF3400F583B8
:10228800E0C0E0EE2436F582EF3400F583E0F5F0A7
:10229800D0E084A8F0EE28F8EF3400F9E82438F507
:1022A80082E93400F583E0F9122EB3022131C082AD
:1022B800C083854182854283E0F8A3E0F9C3EA9CA4
:1022C800EB9D5010C3EC98ED99401BC3EA98EB992D
:1022D8005014800EC3EA98EB994007C3EC98ED9927
:1022E8004004790180027900D083D08222EAC39C1D
:1022F800FAEB9DFB2274EF121D8F90045CE06408DA
:102308006005E06407702A9061C8E0602490048A40
:10231800E0F4601DE0F875F003A4C8AAF02AF97487
:102328008C28FE740439FF8E828F83A3A3A3E070E8
:102338000302242D906060E0C0E0EE2468F582EF8F
:102348003400F583D0E0F07525FF7526057521006A
:10235800752200E5D914F523E5D95403F52760174C
:1023680074036527605CE5236010EE2467F582EF4F
:102378003400F583E070030224129005FAE064014A
:10238800602AEE2482F582EF3400F583E060047859
:102398000480027800852321E521C398FA95E0FBA3
:1023A800120AE08A218B22EA45227005120E40802B
:1023B80074EE2482F582EF3400F583E070048A25F8
:1023C8008B26E5236012852582852683F524E5D9A9
:1023D800F0A31524E52470F6EE2482F582EF34008C
:1023E800F583E0604474FC2523F5237825121F3615
:1023F800AC23A927EEFAEFFB120CD87402121CC901
:10240800E97026AA21AB22121350793D8E828F8360
:10241800A3A3A3A3E0FA7B001209B4EEFAEFFB1220
:102428000C4E120CEA790080747403652760568597
:102438002329752A007829121F36AC25AD26AA2132
:10244800AB22120CB47402121CC9EE2468F582EF98
:102458003400F583E064807004747F8001E0F52522
:102468007825121F3AE527F5257825121F3AA92362
:10247800AC21AD2290048AE0FA7B0012097874023C
:10248800121CC9801390045CE06408600BAC25AD95
:1024980026EEFAEFFB120D44120E4C79017F0A0268
:1024A8001E3B74F5121D8F74FC121CB3EAFEEBFF81
:1024B8008921A2AFE433F522C2AF806AEE2463F823
:1024C800EF3400F97A007B00A2AFE433F523C2AF02
:1024D80088828983E0FCA3E0FDEC4D603A8882891C
:1024E80083E0FAA3E0FB8A828B83E0FCA3E0FD880B
:1024F800828983ECF0A3EDF08A828B83E4F0A3F069
:1025080088828983E0FCA3E0FDEC4D700A8882890B
:1025180083A3A3E4F0A3F0E523A2E092AF12135043
:1025280090059DE004F0EE2463F582EF3400F58316
:10253800E0F8A3E0F9E849603DEE2463F582EF3462
:1025480000F583E02402FAA3E03400FBEA2402F554
:1025580023EB3400F5247823121F368A828B83E01C
:10256800FCA3E0F9EEFAEFFB120C727402121CC91C
:10257800E970030224C490059DE0606390059EE025
:10258800F890059DE0C398500C7402652170509036
:10259800059FE0604A8E828F83A3A3A3A3E08541B1
:1025A80082854283F0A3E4F090059DE0F87402125E
:1025B8001CFFE8F0A3E4F090059DE0F890059CE08E
:1025C80028F07402121CFFAC82AD838541828542DB
:1025D80083AA82AB83790112098490059DE4F0E512
:1025E80022A2E092AF7404121CC90221310000003B
:1025F8008544878545C622C0E0C0D0E8C0E0E9C070
:10260800E0EAC0E0EBC0E0ECC0E0EDC0E0EEC0E026
:10261800C021C022C023C024C082C083C0F0A2AFA2
:10262800E433FEC2AF759B00906182E0A2E05012D5
:10263800E591A2E0500C7591FE7401654470031297
:1026480022FDE0A2E55051E591A2E5504B7591DFDE
:1026580090045CE064076005E06408702374016519
:10266800447035790190048AE0FA75F003A4CAA889
:10267800F028FB748C2AFA74043BFB1224AA8018F5
:10268800E0640D701390047EE004F064287002E4A6
:10269800F07A00E0F9120E52906182E0A2E640035F
:1026A800022746E591A2E640030227467591BF90AE
:1026B800045CE064057008120D7A120D868003121E
:1026C8000D80754400120DE0E990045DF079001268
:1026D8000DD4120BA67A017B0090045BE0F912136B
:1026E8001A907803E0644270559005FEE014F0708B
:1026F8004DC2AF1226FE00784DD0E0F618D0E0F6B5
:10270800E59F540770057522FF800375227FC4C0BA
:10271800E0784CE6F52108E65522F522740B78217D
:10272800121C91D0E02521F8906270E0A2E740F8F1
:10273800E8C333906272F0906270E0D2E0F090618A
:1027480081E0A2E35009E5E9A2E3500375E9F7A3A4
:10275800E0A2E75009E591A2E7500375917FEEA248
:10276800E092AFD0F0D083D082D024D023D022D032
:1027780021D0E0FED0E0FDD0E0FCD0E0FBD0E0FAD4
:10278800D0E0F9D0E0F8D0D0D0E032C0E0C0D0C07E
:1027980082C083906183E0A2E05009E5BFA2E050C7
:1027A8000375BFFEE0A2E15009E5BFA2E150037541
:1027B800BFFDE0A2E25009E5BFA2E2500375BFFBEE
:1027C800E0A2E35009E5BFA2E3500375BFF7E0A21A
:1027D800E45009E5BFA2E4500375BFEFE0A2E5505D
:1027E80009E5BFA2E5500375BFDFE0A2E65009E5A1
:1027F800BFA2E6500375BFBFD083D0828088C0E0F7
:10280800C0D0E8C0E0E9C0E0EAC0E0EBC0E0ECC05E
:10281800E0EDC0E0C0F0E5A7A2E6500FE5A1A2E612
:10282800500953A7BF75A1BF12286BE5A7A2E550B1
:102838000CE5A1A2E5500653A7DF75A1DFE5A7A225
:10284800E15009E5A1A2E1500375A1FDE5A7A2E2C7
:10285800500CE5A1A2E2500653A7FB75A1FBD0F0EE
:1028680002277C74F8121D8F75440190045CE064A3
:10287800067015120D088A828B83A3A3A3A3A3A3B2
:10288800E0FAA3E0FB120D68A2AFE433FED2AF90EA
:102898000462E0640170187A207B0090045BE0F920
:1028A80012142E7A207B0090045BE0F9121320901A
:1028B8006182E0D2E6F09005FBE0602185C64580A4
:1028C80016900461E064017008E5C654F84405F503
:1028D800C653BEFC1225F87401654460E4EEA2E01C
:1028E80092AF7F01021E3B008E468F4785824B8543
:1028F800834A854182854283E0CEA3E0CF854B821F
:10290800854A83EBC9EAC8EDCBECCA75F010C3E879
:1029180033C8E933C9EA33CAEB33CBC3EA9EF54976
:10292800EB9FF548B35004AB48AA49EC33CCED33E0
:10293800CDD5F0DAAE46AF472274E9121D8F74F890
:10294800121CB3854182854283ECF0A3EDF08A2105
:102958008B2290045CE024F7C3940550067521018E
:10296800022AD8120D088A238B24AE23AF24EE4FF7
:102978007003022AD5AC21AD227402121CFFAA8270
:10298800AB83120D988E828F83A3A37525FF7526BE
:10299800FF7527FF7528007825121B457402121C45
:1029A800FF7529FF752AFF752BFF752C00782912F2
:1029B8001B4578257929121521502A78257929125D
:1029C8001B0A7521017522C875230075240078211A
:1029D8007925121521505285252185262285272300
:1029E8008528248050752D01752EC8752F007530E7
:1029F80000852921852A22852B23852C2478217975
:102A080025121B0A782D7921121521401C752100E9
:102A180075220075230075240178217929121B0A73
:102A280078217925121AD1800C752101752200753B
:102A3800230075240074097821121AB2752519F536
:102A480026F527F52878217925121A2A8E828F8370
:102A5800A3A3A3A3A3A3E0F8A3E0F97AD07B03126E
:102A68001C2888258926E4F527F528782179251258
:102A78001AD17406121CFFE0F8A3E0F97AD07B03A0
:102A8800121C28E8FA8A25E4F526782179251215FA
:102A980021500778217925121B0A90045CE064080C
:102AA800600AE064066005E06405702D75250D7800
:102AB80025792112152140217525F47526FF7527E2
:102AC800FF7528FF78217925121AD1800C7521000D
:102AD800752200752300752400854182854283E0B4
:102AE800F8A3E0F58388827821121B7A7408121CF7
:102AF800C97F10021E3B74F7121D8F120DAA900594
:102B0800F9E064017010906245E4F0A3F053F4F327
:102B180043FE0C5390F3120D56E5C654804449F514
:102B2800C6E59E547F644970F8906185740FF090F3
:102B380005F7E0F47002A3E0604E9005F8E0600845
:102B480014601B14602E80407521017522009005C9
:102B5800F7E07821121CA0E521F45280802A752123
:102B6800017522009005F7E07821121CA0E521F4F8
:102B7800529080147521017522009005F7E07821A4
:102B8800121CA0E521F452A079007F02021E3B74BA
:102B9800F7121D8FE9FEEAFF74016E700C7A807BD4
:102BA8000090045BE0F912131A902F2CE493F46060
:102BB80008E493F9120B9A800953C680E59E547F66
:102BC80070FA120D5C9005F9E064017003120BB8FD
:102BD8009005F7E0F47002A3E0604B9005F8E06020
:102BE8000814601A14602C803D752101752200902C
:102BF80005F7E07821121CA0E52142808028752184
:102C0800017522009005F7E07821121CA0E5214209
:102C18009080137521017522009005F7E078211244
:102C28001CA0E52142A0120DAA120D088A218B22B0
:102C3800A821A922E8496015E5E170FCE82414F50B
:102C480082E93400F583E0F46003E0F5E174016F94
:102C5800700A7A0190045BE0F91213A4022B9274B3
:102C6800ED121D8F8A218B228C238D247413121C44
:102C7800FF7825121B6B78217925121521752901FA
:102C8800752AC8752B00752C0050127821792512E9
:102C98001B0A782979211215215016801078257978
:102CA80021121B0A782979251215214004790180FF
:102CB8000279007F0C021E3B74ED121D8F8A218B56
:102CC800228C238D247413121CFF7825121B6B7819
:102CD800257921121521401178217925121B0AAA7C
:102CE80021AB22AC23AD248022752900752A0075FA
:102CF8002B00752C0178297925121B0A782979214E
:102D0800121AD1AA29AB2AAC2BAD2C80A68A828BA9
:102D1800837521FF7522FF7523FF75240078211222
:102D28001B587F04021E3B74F5121D8F8C828D8305
:102D38007821121B6B8A828B837821121B1EEA244E
:102D480004F8EB3400F98C828D83A3A3A3A3E0FCE1
:102D5800A3E0FD88828983C3E09CF0A3E09DF0880E
:102D6800828983C3E09420A3E0944E40268A828B14
:102D7800837521FF7522FF7523FF7524FF782112C3
:102D88001AF78A828B83A3A3A3A3E02420F0A3E0ED
:102D9800344EF0022D1574F5121D8FE9FE9005B121
:102DA800E0FAA3E0FBEEC333F8E433F974E928F55D
:102DB80082748039F583E02AF521A3E03BF5227877
:102DC80021121F367A407B427C0F7D001228F07456
:102DD80002121CC98A218B228C238D24741078211D
:102DE800121A99AA21AB227F04021E3B74F1121D0C
:102DF8008F8A258B268C278D28740F121CFFE0FAEA
:102E0800A3E0FB7411121CFFE0F521A3E0F5227882
:102E180021121F36EA2401F521EB3400F522E4F5EE
:102E280023F524782579211219AA752171752202B2
:102E3800782579211219AAAA25AB26AC27AD281224
:102E480028F07402121CC98B22EA452260047A0118
:102E580080027A00EC2AFCED3400FD7413121CFF8A
:102E6800E0F8A3E0F9E8FEE9FFECF8EDF97A717B08
:102E780002121C28882189228E828F837821121BB6
:102E88007AECF8EDF97A717B02121C288A218B22E0
:102E980074057821121CA08E828F83A3A3A3A3E5B7
:102EA80021F0A3E522F07F08021E3BC082C083E91F
:102EB800906000F0D083D08222C0E074F2121E7BB2
:102EC800A2AFE433FED2AFE58AA2E4400CE58AA2C1
:102ED800E64006E58AA2E750031211F4538AEF533D
:102EE8008ABF538A7FC2EB754300EEA2E092AF7FA0
:102EF80001021EDAC0E0C0D0E8C0E0E9C0E0A9A83D
:102F0800D2AFC2C7754300E9A2E7E433F8E9A2E704
:102F180092AFD0E0F9D0E0F8D0D0D0E032C2AF0222
:032F280000002284
:102F2C00FFFFFFFFFFFFFFFF121CC97F02021DF511
:102F3C00121CC97F04021DF53522F583E02274F6BC
:102F4C00121D2374EE121CB3E9900301F0121290BF
:102F5C007C067D007A1F7B001205CA854182854262
:102F6C0083E4F0740C121CFF7488F0A37413F074D7
:102F7C0001121CFF7401F0740A121CFF740AF0A3F6
:102F8C00E4F07408121CFF7414F0A3E4F07406123D
:102F9C001CFFE4F0A3F07404121CFF7464F0A3E4AF
:102FAC00F0AC41AD4279017A057B03121446740CE6
:102FBC00121D1979027A067B031214467CA77D0F29
:102FCC0079177A087B031214467CBE7D0F79057A3B
:102FDC00077B031214467401121D1979017A107BB8
:102FEC0003121446740A121D1979027A117B03120A
:102FFC0014467408121D1979027A127B03121446B6
:10300C007406121D1979027A137B03121446740488
:10301C00121D1979027A147B031214467CC37D0F9E
:10302C007A1579001207447CA07D007A067B001289
:10303C0005CA7CA07D007A077B001205CA7CA07DA6
:10304C00007A087B001205CA7CA07D007A097B00FF
:10305C001205CA740E121CFF124E2704121CFF74A8
:10306C0001F0854182854283F07403121CFFE4F069
:10307C007402121CFF7401F0740E121D1979047A7B
:10308C00087B041210D47401121D1979017A007B8B
:10309C00041210D4AC41AD4279017A027B041210B7
:1030AC00D47403121D1979017A037B041210D474A1
:1030BC0002121D1979017A067B041210D490819AA0
:1030CC00121B8912074A90819A121B8912085212FC
:1030DC00104A90819A121B8912105C900301E0F93E
:1030EC001212AE1214F41204921204981214CA1290
:1030FC0014DC12127212108612108C12128A908228
:10310C0054AC41AD427401121BC6A841A94288219E
:10311C0089227821121F367C017D007AF07B1F12E8
:10312C0011D07402121CC9854182854283E064AAC5
:10313C0060031204DA12123C7AF47B011212187A30
:10314C00DC7B0F121062790112094E7902120948C8
:10315C007900120954790112095A7A017B00900303
:10316C0001E0F912131A790112139E7412022F3412
:10317C0074EC121D2374FD121CB38923908216ACBF
:10318C0041AD427403121BC67A10FB12138C8A21B8
:10319C008B22AE21AF22C2AFA841A942882189223D
:1031AC007821121F367C017D007AFE7B1F1211D014
:1031BC007402121CC97401121CFF858221858322A2
:1031CC007821121F367C017D007AFF7B1F1211D0F3
:1031DC007402121CC97402121CFF85822185832281
:1031EC007821121F367C017D007AF07B1F1211D0E2
:1031FC007402121CC9D2AF1204A48A218B221204AD
:10320C00A48A258B261204A48A278B28A827A928F0
:10321C00C3E5219525E52295265052C3E52598E571
:10322C0026994052C3E52198E52299405A852129D7
:10323C0085222AE4F52BF52C7829121560900B3297
:10324C007829121B7A854182854283E0603FF525FF
:10325C00E4F526F527F528782512156078297925C7
:10326C0012176B900B327829121B7A8046C3E895A3
:10327C0025E99526500885252985262A80B5C3E899
:10328C009521E9952250A68829892A80A6740112D5
:10329C001CFFE0F8601D8825E4F526F527F5287855
:1032AC002512156078257929121790900B32782504
:1032BC00121B7A900B327825121B6B9081F67829B1
:1032CC00121B6B7825792912171F5006900B36E4C8
:1032DC00802978251215BDE52524BDF8E52634F99D
:1032EC00F9E875F064A4F8AAF075F064E9A42AF979
:1032FC007A547B01121C28E8900B36F0740165237C
:10330C0070518E828F837431F0EE2402F8E43FF911
:10331C00E8FAE9FBA3A882A98375F00A900B36E0C2
:10332C0084940A88828983400A7401F08A828B8390
:10333C00E4801AE4F0900B36E0F875F00A84A9F0FA
:10334C0075F00AE884C454F0298A828B83124FD911
:10335C00121068EEFAEFFB121392900B36E0F97430
:10336C0003121CC97F0C021DF574E8121D2374F99D
:10337C00121CB3EAFEEBFF5480603A900301E0F9B3
:10338C001213028A218B22EA452260218A828B83C6
:10339C00E064C07011A3A3A3E0FA8521828B83A300
:1033AC00A3E0F91204BCAA21AB221212F0EEFAEF40
:1033BC006480024695EEA2E050147AD87B0F12146A
:1033CC00527A067B031210F2EE6401024693540209
:1033DC0060201204C89081F2121F497A027B00907F
:1033EC000301E0F91214227404121CC9EE640202E7
:1033FC004693EE54407003023664900303E070046D
:10340C0074018001E4F07C057D0079007AF87B0A78
:10341C0012148E900B31E4F0900303E064018541AB
:10342C008285428360030234FE7401F0790012132A
:10343C009E900B2FE4F07C2F7D0A7AC479801213B6
:10344C00FE900B37E0603AC2AF75217675220B788F
:10345C0021121F367C2C7D037A007B001211D07454
:10346C0002121CC97521A275220E7821121F367CFE
:10347C00F47D007A007B101211D07402121CC9D298
:10348C00AF1210BC121248790012129C7A027B0007
:10349C00900301E0F912131A9081EE121F497A0081
:1034AC007B01900301E0F91214227404121CC97AF6
:1034BC00007B40900301E0F912131A9081EA121F6D
:1034CC00497A407B00900301E0F912142274041233
:1034DC001CC9121458AC41AD4279017A057B031218
:1034EC0014467CA77D0F79177A087B0312144602C9
:1034FC00365EE4F0121458AC41AD4279017A057B8A
:10350C0003121446900B00E4F0900B37E06025900A
:10351C000B0EE4F0900B30F0900B0FF0900AFEF0D5
:10352C00900B75F0900AFDF0900AF5125D4A900B25
:10353C002BF080031214AC1212841214DC121086BD
:10354C00900B37E06074900B2DE064426008900B98
:10355C002FE06401700FC2AF7C2F7D0A7AC4798092
:10356C001213F8D2AF900B2DE0F86005744268701E
:10357C0008900B2FE064027041C2AF752176752262
:10358C000B7821121F367C2C7D037A007B001211E4
:10359C00D67402121CC97A0A7B001212187521A269
:1035AC0075220E7821121F367CF47D007A007B1078
:1035BC001211D67402121CC9D2AF12124E7A007BB1
:1035CC0020900301E0F912142E7A087B009003017D
:1035DC00E0F912142E7A047B00900301E0F9121426
:1035EC002E7A027B00900301E0F912142E7A407BB4
:1035FC0000900301E0F912142E7A007B0290030173
:10360C00E0F912142E7A007B04900301E0F91214F5
:10361C002E7A007B10900301E0F912142E7A007BB5
:10362C0008900301E0F912142E7A007B019003013B
:10363C00E0F912142E7A107B00900301E0F91214B9
:10364C002E7A007B40900301E0F912142E790112BE
:10365C00139EEE6440024693EF5402700302373C13
:10366C007A007B02900301E0F912142E7A007B049D
:10367C00900301E0F912142E900B00E07004740119
:10368C008001E4F0900B0EE4F01214DC900B26E4B5
:10369C00F0900B0F124E4D12148E900B00E08541E2
:1036AC0082854283602EE4F0121458AC41AD42790D
:1036BC00017A057B031214467A027B00900301E029
:1036CC00F912142E7A007B08900301E0F912142EE3
:1036DC00790380517401F0121458AC41AD42790158
:1036EC007A057B031214467CA77D0F79177A087B29
:1036FC00031214469081F2121F497A027B00900348
:10370C0001E0F91214227404121CC97A007B109087
:10371C000301E0F912142E7A007B20900301E0F9EA
:10372C0012142E792712129CEEFAEF6402024695BF
:10373C00EF54047003023D47900B0FE4F0FA7B0446
:10374C00900301E0F912142E7A007B10900301E033
:10375C00F912142E900B03E0F8900B0EE06033146A
:10376C007003023836147003023971147003023A74
:10377C0083147003023AC8147003023B4D14700397
:10378C00023BE8147003023C84147003023CB60242
:10379C003D317521067522007821121F367C037D80
:1037AC000B7A2F7B0A1214887402121CC9E960323E
:1037BC009081E6121F497A407B00900301E0F912D8
:1037CC0014227404121CC9900B0E7401F07922128D
:1037DC00129C7C0A7D0079FF7A037B0B12148E02FB
:1037EC003D31900B0EE4F0790412129C900B26E004
:1037FC0004124E3D12148E900B26E0C39406500317
:10380C00023D311210BC7A527B081210C8EAF8EB58
:10381C00F9ECFAEDFB900B27121BAD7A407B009074
:10382C000301E0F912131A023D31752102752200D1
:10383C007821121F367C037D0B7ADE7B0F121488E5
:10384C007402121CC9E96032900B0E7402F07905F7
:10385C0012129C900B0EE0C3940240179081E2125E
:10386C001F497A007B10900301E0F91214227404B2
:10387C00121CC9900B0FE4023D307821121F367CCC
:10388C00037D0B7AE07B0F1214887402121CC9E9B9
:10389C00600A900B0E7403F0790980B47821121F22
:1038AC00367C037D0B7AE27B0F1214887402121C97
:1038BC00C9E9600F900B0E7404124E3D12148E79F0
:1038CC000D808D7821121F367C037D0B7AE47B0FE3
:1038DC001214887402121CC9E9601A791212129C13
:1038EC00900B0E7405F07A007B20900301E0F91226
:1038FC00131A02385F7821121F367C037D0B7AE68F
:10390C007B0F1214887402121CC9E9600C79121214
:10391C00129C900B0E740680CC7821121F367C03FF
:10392C007D0B7AE87B0F1214887402121CC9E960B3
:10393C000B900B0E7407F0791902385C7821121F6A
:10394C00367C037D0B7AEA7B0F1214887402121CEE
:10395C00C9E9900B0E60087408F0791D02385C748C
:10396C0001F002387F7A107B0012138C8A218B2293
:10397C00900AF5E064016003023A6E900B04E06477
:10398C000B6009A3E0640B6003023A6E1246F61258
:10399C001CA0743F125D14740A3524F583E0F460A6
:1039AC0003023A51E9900B237005E044118008E0C2
:1039BC004421125D444441F01246F6121CA0742FAF
:1039CC002523FA740A3524FBEA2410F582E43BF52E
:1039DC0083E9125D3A121F367C1D7D0BEA2411FA25
:1039EC0050010B1212C67402121CC97C0679007AA3
:1039FC001D7B0B1204D4E9F8852182852283742F58
:103A0C00F0900AF61246EDF0900B231246EDA3F05F
:103A1C00E8852182852283A3A3A3F0AC21AD227A71
:103A2C00107901121068790712129C7C077D0079BD
:103A3C00007A1D7B0B12148E7C2F7D0A7AC4798040
:103A4C001213F8801D854182854283E4F0121458CC
:103A5C00AC41AD4279017A057B03121446792412EC
:103A6C00129CAA21AB22121392900AF674FFF090CA
:103A7C000AF5E4F0023D2B7521067522007821121F
:103A8C001F367C037D0B7A107B0B1212D87402123A
:103A9C001CC9E960207821121F367C107D0B7A2F0F
:103AAC007B0A1212C67402121CC9900B2DE0444200
:103ABC00F0790B8002790C12129C807575210675B9
:103ACC0022007821121F367C037D0B7A107B0B129F
:103ADC0012D87402121CC9E9604C900AF7E0FC8CF5
:103AEC002174047821121CA074762521F8740B35EE
:103AFC0022F9E8FAE9FBEC8A828B83A3F0752106A4
:103B0C007522007821121F367C107D0BEA2402FAF4
:103B1C0050010B1212C67402121CC9900B2DE044FA
:103B2C0044F079118002790C12129C900AF774FF00
:103B3C00F07C067D0079BB7A107B0B12148E023D53
:103B4C002B7A087B0012138C8A218B22908166744D
:103B5C0001121D197406121BC6900B03E0640B6056
:103B6C0003023C7A7525008525237524007404789E
:103B7C0023121CA01246B1121F367403121D19AA6F
:103B8C0023AB241214887402121CC9E9603C7525FD
:103B9C00067526007825121F367C167D0BAA23ABE2
:103BAC00241212C67402121CC9900B0E7401F07C04
:103BBC00067D0079BB7A167B0B12148E900B2DE0D0
:103BCC004448F0791412129C800F74096525600921
:103BDC000525E525C3940A408E023C7A7A087B00C1
:103BEC0012138C8A218B22752302752400782312E0
:103BFC001F367C037D0B7AEC7B0F12148874021237
:103C0C001CC9E96069752500852523752400740499
:103C1C007823121CA01246B1121F367C167D0BAAFB
:103C2C0023AB241214887402121CC9E9602C7C0684
:103C3C007D0079FFAA23AB2412148E7C067D0079BB
:103C4C00BB7A167B0B12148E900B0E7401125D4412
:103C5C004448F0791812129C80147409652570057B
:103C6C00791712129C0525E525C3940A409AAA21BE
:103C7C00AB22121392023D2B740B686003023D2B96
:103C8C007C077D0079BB900AF7E0F5218D22740446
:103C9C007821121CA074772521FA740B3522FB12A3
:103CAC00148E900B2DE04444806F740B687070750B
:103CBC0021067522007821121F36900AF6E0F521B4
:103CCC0074047821121CA074402521FC740A35223E
:103CDC00125DE41212C67402121CC9900B74E0043B
:103CEC00F0900AF6124E6C121CA0742F2521FA7457
:103CFC000A3522FBEA2410F582E43B1246CBEA2477
:103D0C0011FA50010B12148E7C2F7D0A7AC4798023
:103D1C001213F8900B2DE04441F0791B12129C9079
:103D2C000B0E7401F0900AF674FFF0A3F0124E49DA
:103D3C0012148EEEFAEF6404024695EE5408603CC1
:103D4C00900AF3E06401702E900302E06405702683
:103D5C00900B2DE06020900B00E0701A125DA07AA1
:103D6C00EE7B0F1204D4E9900B24F07CEE7D0F7ADD
:103D7C00107901121068EE6408024693EF54087033
:103D8C0003023F5D7A007B08900301E0F912142EC8
:103D9C00900B37E07003023F2975230085232185A2
:103DAC00212575260074047825121CA0747625250F
:103DBC00F525740B3526F52675270675280078270A
:103DCC00121F367C037D0BE5252443FAE5263401CE
:103DDC00FB1214887402121CC9E96027900EA3749C
:103DEC0004F0E523A3125D444460124E3D12148E80
:103DFC007C107D0079BBE5252442FAE5263401FBD5
:103E0C00023EC67827121F367C037D0BE525240263
:103E1C00FAE43526FB1212D87402121CC9E96008A8
:103E2C00900EA37401023EBFE52175F007A4F521A5
:103E3C00E5F0F52274762521F521740B3522F52257
:103E4C007525067526007825121F367C037D0BE53B
:103E5C002124E3FAE5223401FB1214887402121CAB
:103E6C00C9E96007900EA3740580487825121F36A7
:103E7C007C037D0BE5212429FAE5223402FB121484
:103E8C00887402121CC9E96007900EA37406802383
:103E9C007825121F367C037D0BE521246FFAE52271
:103EAC003402FB1214887402121CC9E9601D900EB6
:103EBC00A37407F0E523A3124E3D12148E7A107BE7
:103ECC0000900301E0F912131A804B7409652370FA
:103EDC0039900B26E004F0C39406401C1210BC7AF7
:103EEC00527B081210C8900B27121B957A407B004E
:103EFC00900301E0F912131A790412129C7C0A7DCA
:103F0C000079FF7A037B0B12148E0523E523C394EF
:103F1C000A5003023DA8900B0FE4F0802C900B2666
:103F2C00E004F0C39406401C1210BC7A527B0812B9
:103F3C0010C8900B27121B957A407B00900301E070
:103F4C00F912131A790412129CEEFAEF6408024665
:103F5C0095EF540170030240661210BC7A527B0834
:103F6C001210C88A218B228C238D24752700AA2736
:103F7C008A2575260074027825121CA074762525D6
:103F8C00F52D740B3526F52EE52D24B4F525E52EEF
:103F9C003402F526EA75F007A4FAABF074762AF52C
:103FAC002F740B3BF5308525828526837829121BCF
:103FBC006B9081DA7829121AE4782979211215216B
:103FCC00400E1246D724E2FAE5303401FB12148E6F
:103FDC00E52D24DCF525E52E3402F526852582F524
:103FEC00837829121B6B9081C27829121AE47829E4
:103FFC007921121521400E1246D72428FAE53034C7
:10400C0002FB12148EE52D2404F525E52E3403F560
:10401C0026852582F5837829121B6B9081BE782921
:10402C00121AE478297921121521400E1246D72450
:10403C006EFAE5303402FB12148E0527E527C39483
:10404C000A5003023F7A7A007B01900301E0F912D7
:10405C00142EEEFAEF6401024695EE541070030232
:10406C004290900B30E0600C7A007B40900301E0B2
:10407C00F912142E900AFDE0F860057403687015AF
:10408C00E004F0900305E0700474018001E4F0900A
:10409C0081EE02427674016860030241EE900B2DB2
:1040AC00E04450F0900F95E0C39410400A740FF068
:1040BC00900EA2F0121482900EA2E0C0E0F52175D1
:1040CC00220074047821121CA07495124E14740EE4
:1040DC001246C6D0E0F0900EA3E0C0E0124E69127A
:1040EC001CA07496124E14740E1246C6D0E0F090BA
:1040FC000EA4E0C0E0124E69121CA07497124E146C
:10410C00740E1246C6D0E0F01210BC900852E0C0FB
:10411C00E0124E69121CA07498124E14740E1246C2
:10412C00C6D0E0F0900853E0C0E0124E69121CA01B
:10413C007499124E14740E1246C6D0E0F0900854C6
:10414C00E0C0E0124E69121CA0749A124E14740E48
:10415C001246C6D0E0F0900855E0C0E0124E69124D
:10416C001CA0749B124E14740E1246C6D0E0F09034
:10417C000856E0C0E0124E69121CA0749C124E143A
:10418C00740E1246C6D0E0F0900857E0C0E0124E14
:10419C0069121CA0749D124E14740E1246C6D0E007
:1041AC00F0900F95E004F0900EA2F0900AFDE00460
:1041BC00F01212789081F2121F497A107B00900352
:1041CC0001E0F91214227404121CC97A027B0090CB
:1041DC000301E0F912142E9081BA121F497A4002A1
:1041EC00427B74046870087405F012127E80787437
:1041FC0006687053E4F0900B26F07A10FB900301E4
:10420C00E0F912142E9081B6121F497A027B0090AD
:10421C000301E0F91214227404121CC99081B21229
:10422C001F497A407B00900301E0F91214227404B8
:10423C00121CC9900B30E060457A007B4090030162
:10424C00E0F912131A803774026870107403F012BC
:10425C001284791F12129C9081B2800E74056870C2
:10426C001D7406F01212849081F2121F497A107B91
:10427C0000900301E0F91214227404121CC9EE64BC
:10428C0010024693EE540460151214587A047B0005
:10429C00900301E0F912142EEE6404024693EE54DE
:1042AC00806048A296401B790012129C7A407B00D9
:1042BC00900301E0F912142E9081AE121F497A80FE
:1042CC0080147A807B00900301E0F912142E908107
:1042DC00BA121F497A407B00900301E0F9121422B4
:1042EC007404121CC9EE6480024693EE54207003D1
:1042FC000243D37A207B00900301E0F912142EA222
:10430C009750030243D3908253AC41AD42740112D7
:10431C001BC6790112129C7AC87B00121218121457
:10432C00AC1214A01214A612149AC2AF7C2F7D0AE0
:10433C007AC479801213F875217675220B782112C4
:10434C001F367C2C7D037A007B001211D67402126E
:10435C001CC97A0A7B001212187521A275220E78DC
:10436C0021121F367CF47D007A007B101211D6745A
:10437C0002121CC9A841A942882189227821121F46
:10438C00367C017D007AF07B1F1211D67402121C50
:10439C00C97821121F367C017D007AFE7B1F121119
:1043AC00D67402121CC97821121F367C017D007A4A
:1043BC00FF7B1F1211D67402121CC9D2AFC2AF758B
:1043CC00C9AB75C95B80FEEF5420700302459C7A23
:1043DC00087B0012138C8A238B247A007B109003A9
:1043EC0001E0F912142EEEF521EF6420F522900B6A
:1043FC000EE0640570347525067526007825121FAD
:10440C00367CFE7D0F7AA77B0C1214887402121C6A
:10441C00C9E97016792812129C124E4912148E900A
:10442C000B0E7401F07A00024539AA23AB24121446
:10443C00EEE970030245777A00EAF8E52328F58265
:10444C00E43524F583A3E070037430F00AEAC394D6
:10445C000640E6852382852483A3AE82AF83900B2E
:10446C000EE0F874056870627525007527067528CE
:10447C00007827121F36EEFCEFFD85252774047893
:10448C0027121CA01246A61214887402121CC9E929
:10449C00602B793312129C124E4912148E900B0E13
:1044AC007401F09081A6121F497A007B10900301D1
:1044BC00E0F91214227404121CC90245690525E5A1
:1044CC0025C3940A40A57913804D740668707375E2
:1044DC0025007527067528007827121F36EEFCEF8D
:1044EC00FD85252774047827121CA01246A61214E9
:1044FC00887402121CC9E960239081A6121F497AA4
:10450C00007B10900301E0F91214227404121CC9F0
:10451C00900B0FE4F0791612129C80267409652515
:10452C007017791712129C900B0FE4F0FA7B209005
:10453C000301E0F912142E80500525E525C3940AD9
:10454C0040907525067526007825121F36EEFCEF77
:10455C00FD7A167B0B1212C67402121CC97A007BF0
:10456C0020900301E0F912142E80179081F2121F93
:10457C00497A007B20900301E0F912142274041292
:10458C001CC9AA23AB24121392AA21AB2202469C6B
:10459C00EF54106050854182854283E4F0FA7B1021
:1045AC00900301E0F912142E900AF5E064017010EA
:1045BC00121458AC41AD4279017A057B03121446B2
:1045CC00900B0E7401F0792112129C7C0A7D0079FB
:1045DC00FF7A037B0B12148E900B0FE4F0EEFAEFC4
:1045EC006410024695EF54407003024698900B30CD
:1045FC00E004F0F8EF6440FF74F928C394025032E1
:10460C007AF87B0A121494E9F521120498E521C377
:10461C0094025056792512129C9081F2121F497AFD
:10462C00007B40900301E0F91214227404121CC99F
:10463C008054E8C39407E8502C604B12049E790018
:10464C001204B0900B30E0F8C394024013900B3678
:10465C00E0C0E074F628F582E4340AF583D0E0F08B
:10466C009081B680B7C3940A401C900B30E4F07C68
:10467C0005FDF97AF87B0A12148E7A007B409003C0
:10468C0001E0F912142EEEFAEFFB80047A007B00A5
:10469C007407121CC97F10021DF574172527FA74B4
:1046AC000C3528FB2274172523F523740C3524F5BF
:1046BC00247527067528007827223522F58322F5E4
:1046CC008374FFF07C077D00790022852582852686
:1046DC0083E4F0A3F0A3F0A3F07C07FD79BBE52FF6
:1046EC0022E0852182852283A322900AF6E0F989B3
:1046FC0023752400740478232274F0121D2374F3A0
:10470C00121CB3EAFE74016E6003024DD6900303D3
:10471C00E064016003024808900AFDE0600302486F
:10472C0013121242E9901004F0F460517900121245
:10473C009C901004E0C0E0900B0FE0F8740328F597
:10474C0082E4340BF583D0E0F0900B0FE004F09092
:10475C000B00E0700C7A027B00900301E0F912145C
:10476C002E900B30E0600C7A007B40900301E0F956
:10477C0012142E9081EA121F497A40800E900B0081
:10478C00E0701E908196121F497A027B0090030103
:10479C00E0F91214227404121CC9901004E0F47095
:1047AC0012900B30E060287A007B40900301E0F916
:1047BC0012131A900B0EE0C394024013901004E0F5
:1047CC00F4602D7A007B10900301E0F912142E9006
:1047DC001004E0640A701990818E121F497A007BD4
:1047EC0002900301E0F91214227404121CC9800C0B
:1047FC007A007B02900301E0F912142E900303E07F
:10480C0064016003024D82901004E0F46072900A1F
:10481C00FDE0706C900B00E07003024D499081B28A
:10482C00121F497A007B04900301E0F912142274E0
:10483C0004121CC9900B0FE0FA900B0EE0603014C0
:10484C00607E14700302490B1470030249F2147059
:10485C0003024A54147003024B78147003024BD0B9
:10486C00147003024C18147003024C92024DD612B1
:10487C004E197003024C8AEAC3940A4003024C8A14
:10488C007A807B00900301E0F912142E74106E6094
:10489C0003024DFC900303E0700C7A407B00900304
:1048AC0001E0F912131A908196121F497A207B00AD
:1048BC00900301E0F91214227404121CC9024E0870
:1048CC0074026A700B901004E0640B70B3024C8A93
:1048DC00EAC3940340AA793012129C900B0FE4F0B7
:1048EC00900B0E04F07A007B04900301E0F9121493
:1048FC002E7A007B10900301E0F912142E8081EACD
:10490C00C3940250030249C0901004E0640B60038E
:10491C000249C074036A7005124E58800B74026A07
:10492C00700A900B03E024D0900AF6F0900AF6126D
:10493C004E6C121CA0124E12740A122F44F48541B4
:10494C008285428370457401F0793412129C1214E2
:10495C0058AC41AD4279017A057B031214467CA711
:10496C007D0F79177A087B03121446900AF57401AF
:10497C00F09081A6121F497A007B10900301E0F998
:10498C001214227404121CC9024B69E4F01214585C
:10499C00AC41AD4279017A057B03121446790612BB
:1049AC00129C900AF674FFF0900AF5E4F0900B0E4E
:1049BC0004024B63EAC39404501374036A60030249
:1049CC00488C901004E0640B700302488C79301210
:1049DC00129C900B0FE4F0124E30900AF5124E4CD4
:1049EC0012148E0248F174066A600302488C900B14
:1049FC0015E064BB7521067522007821702D121FFD
:104A0C00367C037D0B7A107B0B1212C67402121CBF
:104A1C00C97C0A7D0079FF7A037B0B12148E900BF4
:104A2C000FE4F0790A12129C02488C121F367C0398
:104A3C007D0B7A107B0B1214887402121CC9E9606E
:104A4C0003024B37790C804EEAC39402404E90100F
:104A5C0004E0640B704674036A7005124E58800BA8
:104A6C0074026A700A900B03E024D0900AF7F0905D
:104A7C000AF7124E6C121CA07477124E14740B129F
:104A8C002F4464BB600E791012129C900AF7124EE0
:104A9C0033024CE7790E12129C024B69900AF7E034
:104AAC00F8EAC39404401474FF68700F7930121242
:104ABC009C900B0E7401F0A30249E974066A600322
:104ACC0002488C900B15E064BB703A74FF6870035D
:104ADC0002488C7521067522007821121F367C0342
:104AEC007D0B7A107B0B1212C67402121CC97C0A45
:104AFC007D0079FF7A037B0B12148E900B0FE4F080
:104B0C00790F024A3174FF68700302488C752106D4
:104B1C007522007821121F367C037D0B7A107B0BDB
:104B2C001212D87402121CC9E9600F7A007B04902F
:104B3C000301E0F912131A024CF4790C12129C9036
:104B4C000AF774FFF07C067D0079BB7A107B0B12A0
:104B5C00148E900B0E7401124E3D12148E7A007B43
:104B6C0004900301E0F912142E024CF490815A7453
:104B7C0007121D197406121BC6901004E0640B700A
:104B8C002774016A70227521067522007821121F84
:104B9C00367409121D197A167B0B121488740212C2
:104BAC001CC9E97053024D3AEAC394024003024D0A
:104BBC000274016A600302488CE0640B6003024DCE
:104BCC000202488C90814E7401121D197406121B3E
:104BDC00C674026A702A7521067522007821121F8C
:104BEC00367403121D197A167B0B12148874021278
:104BFC001CC9E97003024D3A791212129C024CF452
:104C0C00EAC39403500302488C024D02901004E056
:104C1C00640B7051EAC39402404B74036A70051222
:104C2C004E58800B74026A700A900B03E024D090EB
:104C3C000AF7F0900AF7124E6C121CA07477124E01
:104C4C0014740B122F4464BB700D791C12129C90BF
:104C5C000AF7124E338005791A12129C124E491221
:104C6C00148E02488CEAC394044003024D02E064A3
:104C7C000B600302488C74016A600302488C900B31
:104C8C000FE4F0024D3AEAC394024064901004E041
:104C9C00640B705C74036A7005124E58800B7402BE
:104CAC006A700A900B03E024D0900AF6F0900AF692
:104CBC00E0F9892175220074047821121CA0124E8F
:104CCC0012740A122F44F46003E9700A791C121250
:104CDC009C124E308012791E12129C7C0A7D007937
:104CEC00FF7A037B0B12148E900B0FE4F002488CAE
:104CFC00EAC394044025793012129C900B0E740177
:104D0C00F0A3124E4C12148E7A007B10900301E02B
:104D1C00F912142E7A007B0402490174016A6003B3
:104D2C0002488C901004E0640B600302488C7A00FB
:104D3C007B04900301E0F912131A02488C900B0FBC
:104D4C00E0FA124E196006EAC3940A40067A007B18
:104D5C000880DFEAC39406500302488C90819612B7
:104D6C001F497A007B08900301E0F91214227404A5
:104D7C00121CC902488C900B0FE4F0900B26E0C378
:104D8C009406403F1210BC7A527B081210C88A213C
:104D9C008B228C238D24900B277825121B6B9081F2
:104DAC00727825121AE478257921121521404D903C
:104DBC000B26124E27A3F0908176121F497A407B66
:104DCC000080A37A407B00024D3E74026E600302A9
:104DDC00488C900303E0700C7A407B00900301E058
:104DEC00F912131A7A807B00900301E0F912131A5E
:104DFC007A207B00900301E0F912142E740D121C22
:104E0C00C97F08021DF5743F2521F5822274022A00
:104E1C00F582E4340BF583E0640B22E4F0A3F0A3F9
:104E2C00F0A3F022900AF674FFF0900B0E7401F0D0
:104E3C0022F07C0A7D0079FF7A037B0B22900B0F0A
:104E4C00E4F07C0AFD79FF7A037B0B2275F00A9063
:104E5C000B03E0540FA4F8A3E0540F2822900EA2E9
:104E6C00E0F521752200740478212274F4121D23BC
:104E7C0074F1121CB38921E9146010147003024FF1
:104E8C002024FD7003024F4E024FCA7409121D19E3
:104E9C007A047B0312144C7409121CFFE0C0E074FA
:104EAC0001121CFFD0E0F0740A121CFFE0C0E07489
:104EBC0002121CFFD0E0F0740B121CFFE0C0E07477
:104ECC0003121CFFD0E0F07405121CFFE4F0740414
:104EDC00121CFFE4F0740E121CFFE0C0E074081208
:104EEC001CFFD0E0F0740D121CFFE0C0E074071240
:104EFC001CFFD0E0F0740C121CFFE0C0E074061232
:104F0C001CFFD0E0F07401121D197A087900121000
:104F1C0050024FCA854182854283E4F07A04FB90AB
:104F2C000301E0F912142E900303E06003024FCA50
:104F3C00121458AC41AD4279017A057B0312144628
:104F4C00807C900AF5E064017043900B00E06401F2
:104F5C0070607A107B0012138C8A238B24AE23AFE3
:104F6C00248E828F837401F0A3744FF08E828F8312
:104F7C00A3A3744B124FD91210687A047B009003D0
:104F8C0001E0F912142EEEFAEFFB121392900AF3D1
:104F9C00E0701F900AF5E07019908196121F497A03
:104FAC00047B00900301E0F91214227404121CC952
:104FBC00800C7A047B00900301E0F912142EE52199
:104FCC00900302F0740F022F3CE9900B24F0EEFCDE
:104FDC00EFFD7A1079012274F4121D2374FF121C58
:104FEC00B37A087B0012138C8A218B22AE21AF225C
:104FFC00854182854283E4F0900AF3E06023900AB5
:10500C00FEE06401701B900B2DE07015121458AC6F
:10501C0041AD4279017A057B03121446900AFEE4F5
:10502C00F0EEFAEFFB1214EEE970030250BC7A00BA
:10503C00EAF8EE28F582E43FF583A3E070037430C0
:10504C00F00AEAC3940640E875210075230675241E
:10505C00007823121F368E828F83A3AC82AD83859A
:10506C00212374047823121CA074172523FA740CC2
:10507C003524FB1214887402121CC9E9601B12142B
:10508C00D0900EA37403F0E521A3F07A107B00906E
:10509C000301E0F912131A801774096521700812C4
:1050AC0014D6790112129C0521E521C3940A409B68
:1050BC00EEFAEFFB1213927401022F3C74F0121DE6
:1050CC0023900303E064016003025D0FE9600A248E
:1050DC00FE7003025721025D0F7A1A7B03790012CE
:1050EC00106E75230A7524037823121F367C1A7DE3
:1050FC00037A977B0F120B5E7402121CC97C2F7DF6
:10510C000A7AC479801213FE90030BE0F890030A1C
:10511C00E014601D14700302533014700302544CDD
:10512C0024FB70030256C824F87003025708025D72
:10513C000F7522008522238523257526007404789B
:10514C0025121CA0742F2525FE740A3526FFEE248B
:10515C0011F525E43FF526752706752800782712EA
:10516C001F367C0B7D03AA25AB2612148874021201
:10517C001CC9E9700302529C9003047401F01204E0
:10518C009E79011204B0120498E522900B75F07A06
:10519C00047B00900301E0F912142EE522900AF32F
:1051AC0070427401F09081EA121F497A407B0090A2
:1051BC000301E0F91214227404121CC9900B2DE0A7
:1051CC006025900B00E0701F125DA07A057B101219
:1051DC0004D4E9900B24F07C057D107A107901122F
:1051EC00106880037402F0EE2417F8E43FF9E8FA33
:1051FC00E9FB900311E0F523540FFC8A828B83E0CA
:10520C00540F6C7001E46003E523F0740F5523F820
:10521C00740168700B900AF47401F0900AFF800A14
:10522C007402687006900AF47402F074F0552370DE
:10523C003090032A7421F0E522A3700474118002CB
:10524C007421125D78121068900AF5E064017011F7
:10525C00900B0E7401F0A3E4F0793312129C025DF2
:10526C000F900311E054F064306003025D0FE522EF
:10527C007003025D0FEE2410F582E43F1246CBAAB8
:10528C0025AB2612148E900AF4E4125D4A0259845E
:10529C0074096522702F900AF5E06401702775255A
:1052AC00077526007825121F367C0B7D037A1D7B33
:1052BC000B1212C67402121CC97A007B04900301F3
:1052CC00E0F912131AE52375F006A4F523E5F0F5C1
:1052DC002474382523FE740B125D19121F367C0BB7
:1052EC007D03EEFAEFFB1214887402121CC9E960FC
:1052FC002490032A74CCF0A3F0A3125D78121068EA
:10530C007C067D007900EEFAEFFB12148E900B7484
:10531C00E014025D0E0522E522C3940A4003025DEF
:10532C000F025140900B2DE090033AF0900B24E0CB
:10533C00901017125D986003025D0F75230375249E
:10534C00007823121F367C0B7D037A157B10121408
:10535C00887402121CC9E9607D900B24E4F078007B
:10536C0090033AE0A2E0505EE860141460181460F8
:10537C001C14602014602414602814602C80479046
:10538C00102574418028901025744280219010259E
:10539C007443801A90102574448013901025744522
:1053AC00800C901025744680059010257447F07C75
:1053BC000379007A257B101204D4E9900B24F07C3D
:1053CC00257D10025C35E0C313F008E8C394074058
:1053DC0003025D0F808A900B2EE0F87003025D0FC4
:1053EC00900B24E4F0E814601514601924FE601C82
:1053FC0024FC601F24F8602224F060258029901082
:10540C0035744180219010357442801A9010357497
:10541C004380139010357444800C90103574458083
:10542C00059010357446F07C357D107A1079011298
:10543C0010687C03900B24E0F97A357B100256BE81
:10544C007523027524007823121F367C0B7D037A9A
:10545C00157B101214887402121CC9E97003025DCA
:10546C000F900AF3E064016003025D0F90030DE0FE
:10547C00F8A3E024BF602414607014700302552E4E
:10548C001470030255781470030255C7147003028C
:10549C00561614700302565F025D0F900B24E068E1
:1054AC007040E4F075220185222375240074047881
:1054BC0023121CA0743F2523FE740A3524FF7C089C
:1054CC00125DDA1204D4124FD51210680522E522AF
:1054DC00C3940A40D2900B2DE0C2E0F0A3740102F9
:1054EC005D0E125D3474410256A7900B24E0687077
:1054FC0029E4F07C06F97A2F7B0A1204D4E9900B8C
:10550C0024F07C2F7D0A7A107901121068900B2EF2
:10551C007402125D44C2E1025D0E125D34744202EB
:10552C0056A7900B24E068703BE4F07522008522AE
:10553C002375240074047823121CA074772523FE91
:10554C00740B125DD51204D4124FD51210680522BB
:10555C00E522C3940A40D7900B2DE0C2E2F0A3746D
:10556C0004025D0E125D3474430256A7900B24E0C6
:10557C00687040E4F07522008522237524007404C1
:10558C007823121CA074172523FE740C3524FF7C81
:10559C0006125DDA1204D4124FD51210680522E5FA
:1055AC0022C3940A40D2900B2DE0C2E3F0A37408FE
:1055BC00025D0E125D3474440256A7900B24E06811
:1055CC007040E4F075220085222375240074047861
:1055DC0023121CA074A52523FE740E3524FF7C0910
:1055EC00125DDA1204D4124FD51210680522E5228E
:1055FC00C3940F40D2900B2DE0C2E4F0A3741002C0
:10560C005D0E125D3474450256A7900B24E0687051
:10561C003BE4F07522008522237524007404782362
:10562C00121CA074B82523FE740C125DD51204D480
:10563C00124FD51210680522E522C3940A40D79068
:10564C000B2DE0C2E5F0A37420025D0E125D3474E4
:10565C00468048900B24E068703CE4F0900B2DF0F1
:10566C00A3F01214A67A0A7B001212187523A275E5
:10567C00240E7823121F367CF47D007A007B1012E6
:10568C0011D67402121CC97A027B00900301E0F956
:10569C0012131A025D0F125D347447F07C457D10B5
:1056AC007A1079011210687C03900B24E0F97A458A
:1056BC007B101204D4E9900B24025D0EE890085282
:1056CC00F090030CE0900853F090030DE090085418
:1056DC00F090030EE0900855F090030FE090085600
:1056EC00F0900310E0900857F01210B690032A7453
:1056FC0016F0A3744BF0A3744F025C30744F6860C7
:10570C0003025D0F90030CE064506003025D0F9088
:10571C000AFF0259181210BC900B25E4F07A1A7B80
:10572C0003790212106E75230A7524037823121F55
:10573C00367C1A7D037A977B0F120B5E7402121C57
:10574C00C990030BE0FE8E23752400740478231299
:10575C001CA0A823A924A3E0F52590030AE014605B
:10576C0039147003025829147003025886147003FC
:10577C000258BE14700302594014700302599A1453
:10578C0070030259F2147003025B49147003025C3B
:10579C003F147003025D0A025D0F742F28FE740A19
:1057AC0039FFEE2410F523E43FF524900B25E0F9A6
:1057BC007C08AA23AB241204D4125D937057E52500
:1057CC00687052900B2F7401F085238285248374AA
:1057DC00FF125D6E121F36EE2411FCE43F125DE4E5
:1057EC001212C67402121CC9900B75E0041246CF3B
:1057FC0090030BE0F52374047823121CA07440254D
:10580C0023FA740A3524FB12148E90032A740312A3
:10581C005DC402597E90032A74500258B3900B2534
:10582C00E0F97C067A2F7B0A1204D4125D93704245
:10583C00EE68703E900B2F7401F07C067D007900B1
:10584C007A2F7B0A12148E75230675240078231286
:10585C001F367C557D107A2F7B0A1212C6740212E9
:10586C001CC990032A7404F0900B25E090032B02C2
:10587C00597E90032A7451025C2C747728FE740BA9
:10588C0039125E0B1204D4125D937016E525687004
:10589C0011125D8212148E90032A7405125DC402DB
:1058AC005C3090032A7452F0A374FFF0A374CC0202
:1058BC005C30900AF3E064016003025D0F75220016
:1058CC0085222375240074047823121CA0741725D8
:1058DC0023FE740C125D19121F367C0B7D03EEFA3D
:1058EC00EFFB1214887402121CC9E960247C067D3B
:1058FC000079FFEEFAEFFB12148E90032A7406F077
:10590C00A3744B125D78121068900B2F7402025D19
:10591C000E74096522700F90032A7453F0A374FF60
:10592C00125D781210680522E522C3940A40030226
:10593C005D0F808C900B25E0F97C067A0B7B0312B3
:10594C0004D4125D93703F900311E0687038900B93
:10595C002F7401125D6E121F367C0B7D037A2F7B28
:10596C000A1212C67402121CC990032A7407F0A3FF
:10597C00744B125D781210687C2F7D0A7AC4798082
:10598C001213F8025D0F90032A7454025C2C900BD6
:10599C0025E0F97C077A0B7B031204D4125D93701B
:1059AC003D900312E0687036900B2F7402125D3A32
:1059BC00121F367C0B7D0390030BE0F523740478E7
:1059CC0023121CA074772523FA740B3524FB1212B6
:1059DC00C67402121CC990032A7408025C2190033D
:1059EC002A7455025C2C900B25E0F97C087A0B7B11
:1059FC00031204D4125D936003025B41900313E025
:105A0C00686003025B4190030CE0FC8C237524005E
:105A1C0075F007A4F8A9F0747628FA740B39FB908A
:105A2C00030BE024CF601214604E147003025AC0B2
:105A3C00147003025AF9025D0F900B2F7402F0746C
:105A4C00047823121CA074762523FA740B3524FBDE
:105A5C00EA2442F582EB3401F583EC125D6E121FE1
:105A6C00367C0D7D03EA2443FAEB3401FB1212C69B
:105A7C007402121CC9025B39900B2F7402F0EA24D9
:105A8C00E2F582EB3401125D2A121F367C0D7D0388
:105A9C00EA24E3FAEB3401FB1212C67402121CC99D
:105AAC007A527B081210C8125DB1121CA0125D1242
:105ABC00740E8070900B2F7402F0EA2428125D256E
:105ACC00121F367C0D7D03EA2429FAEB3402FB12FB
:105ADC0012C67402121CC97A527B081210C8125DCD
:105AEC00B1121CA07452125D14740E8037900B2FDF
:105AFC007402F0EA246E125D25121F367C0D7D03B4
:105B0C00EA246FFAEB3402FB1212C67402121CC99F
:105B1C007A527B081210C8125DB1121CA0747A1252
:105B2C005D14740E3524F5837825121B7A90032AA4
