:020000040000FA
:0600000002011A02275361
:03002B00022EBCE6
:030053000227C6BB
:03007B00022E81D1
:100083000225BFE5C754F84401F5C77901220000F2
:100093000080FB120086B90003020104E47944786E
:1000A30008B800028004F709D8FCE4794C7802B858
:1000B30000028004F709D8FCE490030178C5790DA8
:1000C3008002F0A3D8FCD9FA784390014A7A01BAA6
:1000D30000028007E493A3F608DAF97AC57B0F9050
:1000E300014B780979048015E493A3AD82AE838A2A
:1000F300828B83F0A3AA82AB838D828E83D8E9D9C6
:10010300E77582AF7583E1740312012C75829175D3
:100113008300740012012C75D00075817F75410135
:10012300754203759F00020096C09FF59FE473D04C
:100133009F22D083D082C09FE493C0E0740193C018
:10014300E0740293F59F220101030507FFFE778800
:1001530012993241142425360201060302E0FF2AD4
:100163002A47656D696E692D42413130302A2A0074
:1001730000000000830400008F040D0947656D69CA
:100183006E692D424131303005120A0B310B320BAF
:10019300330B340B350B360B0A0A02534A000000AB
:1001A30000000000000000000000FFFFFFFFFFFF52
:1001B300FF02534A0000000000000000000000009E
:1001C300004F4B0000000000000000000000000092
:1001D3000000534A0000000000000000000000007F
:1001E3000000435700000000000000000000000072
:1001F3000000435700000000000000000000000062
:10020300003132333435361F4B4F000000000000FD
:1002130000000000000000FF0000B40000280028D8
:1002230000283075A000A000A000A000000800086E
:10023300E001F0001000100010001000100010008A
:1002430050005000500010001000D00700000000C4
:1002530000000F00010005003075070010000100C9
:1002630081FF00000000FF9F06BD06A506FF0202F6
:100273000208025000A0000000E803024B820100C4
:10028300003382024F82010000EB1002538201000F
:10029300007D03024F82010000EC10025582010031
:1002A300009303024F82010000ED10025782010008
:1002B300009503024F82010000EE100259820800EC
:1002C300009603024F82010000EF10025B820100DF
:1002D30000F010FF0100FF20024B820100002A8280
:1002E300024F820100005411025D820000000000F1
:1002F300025182030000E3039F0C9F0C9F0C9F0C91
:100303009F0C9F0C9F0C9F0C9F0C9F0C9F0C9F0C92
:100313009F0C330F4B0F2D0F020202020202020247
:1003230002010D0000001001024B8201000049810F
:10033300024F8201000095110265820100000A0844
:10034300024F820100009611026D820100003C8180
:10035300024F820100009711025F820100002E818B
:10036300024F820100009811024582010000AA8019
:10037300024F820100009911024382010000BC80F8
:10038300024F820100009A11024182010000CE80D7
:10039300024F820100009B11023F820100009880FE
:1003A300024F820100009C11026382010000208140
:1003B300024F820100009D110269820100009E111B
:1003C3000A160A0A024B820100003682024F82019A
:1003D30000003D12024D820300001408024F820107
:1003E30000003E12023D82030000240802518203F2
:1003F30000003408024F820100003F1202398203D9
:1004030000003A08024F820100004012023B8203BF
:1004130000004A0801E803053F100AFFFFFF00013F
:100423003075030201060000000000000000000018
:1004330000000000000000000000000000000000B9
:100443000000FFFF0600800CE803313233343536F9
:10045300120135B47F00120135C87F00120135CA7D
:100463007F00120135CF7F00120135FC2E001201EF
:10047300358432001201357E3400120135AC470059
:10048300120135FD4E001201356650001201354B45
:1004930051001201352D5E00120135705E0012010C
:1004A3003590D403120135A7D403120135D8D403F0
:1004B30012013513D5031201353DD50312013567FA
:1004C300D5031201357ED50312013595D5031201EB
:1004D30035ACD503120135D5D503120135E8D50363
:1004E300120135FED50312013511D6031201353839
:1004F300D603120135C0EC02120135C4ED0212011C
:1005030035FCED021201351FEE021201352AEE020F
:100513001201354DEE021201355CEF021201353145
:10052300F002120135ACF00212013534F10212016E
:10053300356FF102120135A6F10212013534F202D0
:100543001201350DF3021201356DF30212013578F4
:10055300F302120135F7F302120135FAF302120125
:1005630035FDF3021201358CF4021201358FF402CA
:10057300120135BFF402120135E9F402120135D735
:10058300F50212013589F602120135DB97031201D8
:100593003503980312013531980312013568980326
:1005A300120135C698031201351199031201355C06
:1005B30099031201359C9903120135E29903120143
:1005C30035109A03120135CD9A03120135D79A03D8
:1005D300120135E49A03120135179B03120135E327
:1005E3009B03120135EF9B03120135079C03120194
:1005F30035119C0312013554DF0312013562DF0309
:100603001201357ADF0312013592DF03120135003F
:100613008002120135AC80021201352781021201DA
:10062300354882021201358482021201352D83027C
:10063300120135148402120135788502120135CF77
:1006430085021201355086021201354087021201DC
:10065300358D870212013513880212013545880250
:10066300120135598A021201359B8A02120135B9EA
:100673008A021201353C8B02120135108C021201E1
:1006830035D88C0212013591780012013564790056
:100693001201350D7A00120135607A00120135100E
:1006A3007B001201359C7B00120135887C0012010E
:1006B30035B77C00120135CA7D00120135127E0068
:1006C300120135E77E00120135237F001201353F09
:1006D3007F00120135BBE303120135F9B90312019F
:1006E300350FBA0312013535BA0312013551BB0375
:1006F3001201355BBB0312013590BC03120135882F
:10070300BD03120135B49203120135E493031201C0
:1007130035179403120135619403120135289603AA
:1007230012013581E801120135EBE8011201354A66
:10073300EA011201355AEA0112013587EA01120171
:1007430035DEEA0112013587EB011201358EEC012A
:1007530012013558ED01120135B8EE01120135FBD6
:10076300EE01120135A0EF01120135EDEF01120187
:100773003513F00112013521F20112013526F20180
:100783001201352BF40112013578F401120135EB16
:10079300F4011201351EF501120135C0F5011201F4
:1007A3003569F601120135A1F601120135A4F601EE
:1007B300120135ECF6011201352CF70112013583D4
:1007C300F7011201356BC60312013583C60312010B
:1007D30035CBC603120135E1C60312013528C70321
:1007E3001201353CC803120135C9C803120135147F
:1007F300C903120135F55F001201350160001201D2
:10080300353C600012013581600012013541610001
:10081300120135C76100120135F361001201352C55
:1008230062001201356A64001201354E660012013E
:1008330035346800120135776900120135C56B0044
:10084300120135D76C00120135226E0012013532C8
:100853006F001201354F6F001201358A6F001201CC
:1008630035AC6F001201350F7000120135D07400E2
:10087300120135657500120135B67500120135DDBB
:1008830075001201352F76001201354D76001201E5
:1008930035A77600120135A677001201352A7800B4
:1008A300120135568D03120135608D03120135A3F4
:1008B3008D03120135BE8D031201354E8E031201D5
:1008C30035768E03120135B38E03120135EA8E039A
:1008D300120135138F03120135888F031201359DE1
:1008E3008F03120135B28F03120135E38F03120117
:1008F30035F78F031201351C90031201355690030F
:10090300120135829003120135BA90031201351991
:100913009103120135989103120135C3910312011A
:1009230035EE9103120135379203120135619203BB
:100933001201358C920312013541DC03120135BFDC
:10094300D402120135EDD4021201353BD602120155
:10095300351BD7021201353AD702120135B7D70238
:10096300120135FAD70212013550D902120135119D
:10097300DA0212013598DC0212013539DD02120167
:10098300352FDE021201352CDF0212013586E0021B
:1009930012013511E1021201358DD903120135F629
:1009A300D9031201354ADA0312013571DA03120150
:1009B30035A2DA0312013580A503120135EDA50333
:1009C30012013534A6031201354CA7031201354831
:1009D300A8031201352BA903120135FAF6021201FD
:1009E300353CF7021201350EF802120135E7F80221
:1009F300120135E1F902120135C3FA021201352C55
:100A0300FB02120135E2FB0212013556FC02120110
:100A130035C2FC02120135EBFC0212013565FD0201
:100A2300120135FEFD0212013563FE021201357813
:100A3300FE02120135BEFE02120135D7FE0212017B
:100A4300353CFF021201353FFF0212013592C0030C
:100A5300120135BAC003120135F8C003120135B6CD
:100A6300C1031201351DC20312013539C20312013C
:100A73003561C20312013591C203120135A0C203CD
:100A83001201351DC30312013543C303120135C7D8
:100A9300D701120135A5D901120135D7DB011201A6
:100AA3003513DC0112013540DC011201352ADD0169
:100AB30012013575DD01120135C0DD01120135D298
:100AC300DD0112013512DE0112013547DE0112018B
:100AD3003595DE01120135C4DE01120135E7DE0171
:100AE30012013534DF01120135B9DF01120135D3AB
:100AF300E10112013512E40112013553E40112013F
:100B030035F5E50112013536E601120135A9E60195
:100B1300120135FAE601120135D5E701120135FF5D
:100B2300E70112013534E8011201355FE8011201D2
:100B330035AAC702120135A8C80212013541CF02F6
:100B430012013562D1021201352DD30212013595FE
:100B5300D402120135758201120135248301120179
:100B630035518301120135978301120135CD84017B
:100B7300120135FB84011201359186011201350BF7
:100B83008701120135268701120135A18701120160
:100B930035FB88011201355B8A01120135618B0136
:100BA300120135C28C01120135DB8C01120135397A
:100BB3008D01120135278E011201355A8E01120162
:100BC30035CA8E01120135448F011201358E8F0112
:100BD3001201355890011201352D91011201350C86
:100BE3009201120135979201120135059301120109
:100BF30035799301120135A49301120135639401F0
:100C0300120135C89501120135E59501120135042C
:100C13009601120135F596011201351A9701120159
:100C230035449701120135BF970112013519980117
:100C3300120135829901120135309A011201357181
:100C43009A011201355D9D02120135AB9D0212011D
:100C530035B79D02120135959E02120135C69E02DB
:100C6300120135F79E02120135779F02120135F505
:100C73009F021201352DA0021201357FA00212013D
:100C830035BCA002120135D9A202120135FFA4021C
:100C9300120135EAA602120135D4A8021201351257
:100CA300E603120135B0AF01120135E0AF011201C5
:100CB30035B9B6011201353EB8011201353BBE010B
:100CC30012013523BF0112013560BF0112013583C3
:100CD300BF01120135B4BF01120135BDBF011201BD
:100CE30035C7BF01120135B5C001120135ABC101D2
:100CF300120135A19A01120135A09E01120135A6F8
:100D03009E01120135E1A501120135FAAA01120172
:100D1300352BB603120135C1B603120135D7B6031D
:100D23001201354DB703120135C1B703120135FF67
:100D3300B70312013573B803120135ECB80312017E
:100D430035F5B80312013501B90312013516B9039C
:100D530012013554B9031201356AB903120135C9B9
:100D6300B903120135EDA903120135FAA9031201E2
:100D73003514AA0312013553AA0312013591AA03AC
:100D8300120135F6AA031201350BAB031201351616
:100D9300AB0312013523AB031201353AAB03120146
:100DA3003548AB0312013553AB031201355FAB0377
:100DB3001201356EAB0312013579AB031201359C79
:100DC300AB0312013543AC0312013553AC031201DB
:100DD300356DAC031201358AAC03120135A6AC03A1
:100DE300120135CBAC03120135D6AC03120135EB3E
:100DF300AC03120135FFAC0312013560AD031201E0
:100E03003566AD031201356CAD0312013572AD03C6
:100E13001201358AAD03120135BDAD03120135B49C
:100E2300AB0212013538AC02120135E7AC021201F4
:100E33003546AE0212013567B00212013553B102D5
:100E430012013588B102120135AAB10212013559D6
:100E5300B20212013551B4021201357AB402120101
:100E6300350CB5021201353EB5021201354BB50200
:100E7300120135A2B502120135C8B502120135358A
:100E8300B80212013538B90212013590B9021201C4
:100E930035F18E02120135FB8F02120135E2900209
:100EA300120135EC90021201350E91021201351A2E
:100EB3009102120135B39202120135E2920212013C
:100EC30035FE9302120135579402120135BD950286
:100ED3001201359C9602120135F89602120135650E
:100EE3009702120135A09702120135DF9702120112
:100EF30035989A02120135B29A021201353E9B02CD
:100F03001201354C9B02120135A59B02120135B328
:100F13009B02120135269C021201358A9C021201A2
:100F230035D49C0212013592E102120135B4E1027B
:100F3300120135DAE302120135EFE6021201350739
:100F4300E802120135BAE8021201359CE9021201E6
:100F5300354AD6031201356FD603120135E1D603A4
:100F630012013570F80112013579F8011201358249
:100F7300F80112013559F9011201350AFB01120179
:100F83003540FB011201357AFB01120135B0FB013B
:100F9300120135EAFB011201351EFC011201354A2B
:100FA300FC0112013593FC01120135CDFC01120144
:100FB3003516FD011201356EFD01120135A3FD0148
:100FC300120135FEFD0112013538FE01120135898A
:100FD300FE01120135BFFE01120135F9FE011201B6
:100FE3003527FF011201354AFF0112013565E2037E
:100FF30012013591E203120135ECE203120135F6D9
:10100300E20312013506E3031201353EC90312015F
:101013003563C9031201358DC9031201353AAE0395
:101023001201357FAE031201359CAE031201355513
:10103300AF03120135BBAF031201357FB0031201B9
:101043003502B20312013592BD03120135ADBD0362
:10105300120135DCBD03120135E2BD03120135E88F
:10106300BD0312013515BE031201353ABE03120149
:101073003551BE0312013566BE03120135BABE03F4
:1010830012013533BF0312013553BF031201354536
:10109300E503120135C3C30112013525C60112014F
:1010A30035DCC701120135D9C80112013569C901FF
:1010B300120135F0C90112013515CA011201355665
:1010C300CD01120135CCCD01120135BBCE01120188
:1010D30035F5CE0112013535CF01120135DBD001D3
:1010E30012013530D1011201357DD101120135EBE9
:1010F300D10112013511D2011201352BD201120196
:101103003541D30112013551D30112013562D401A6
:1011130012013577D401120135ADD4011201352EF8
:10112300D6011201356DD60112013592D701120194
:101133003518E303120135B0E303120135FCE40370
:101143001201353BE50312013501E603120135F6C1
:10115300E00312013506E10312013515E103120123
:1011630035A9E1031201355ADD03120135DEDD0332
:1011730012013544DE0312013510A1031201354774
:10118300A10312013568A103120135D8A10312018D
:101193003544A2031201359BA303120135E8DA0398
:1011A30012013510DB0312013584DB031201359B79
:1011B300DB03120135EBDB0312013535DC031201CE
:1011C3003538DC03120135EAFF01120135FAFF015C
:1011D300120135FDFF011201358BC303120135CF17
:1011E300C303120135E5C30312013500C403120121
:1011F300351BC40312013566C403120135B5C4039C
:10120300120135F5C403120135D7C5031201352187
:10121300C603120135F87F001201354ACE031201CD
:1012230035D2CF0312013533D00312013579D00300
:10123300120135B8E503120135CBE503120135CFB1
:10124300E503120135D6E503120135D8E503120192
:10125300359EE403120135A4E403120135F2E403DD
:101263001201352BE00312013554E0031201357DE1
:10127300E00312013595E003120135D7E0031201B3
:1012830035D68703120135E0870312013520880321
:10129300120135698803120135A38803120135F958
:1012A30088031201351889031201352189031201BC
:1012B300357289031201359B8903120135A5890310
:1012C300120135168A03120135A48A03120135F976
:1012D3008A03120135278B03120135A38B031201F5
:1012E30035E68B03120135238C03120135358C034C
:1012F300120135548C031201355D8C031201352A1A
:101303008D031201353FE403120135EFD7031201B8
:101313003540D803120135C9D8031201352FD9033B
:101323001201350ACC0312013534CC03120135FD09
:10133300CC03120135D8CD031201355DDE03120152
:10134300358ED203120135C4D203120135FDD20307
:1013530012013556D40312013563FF0212013579A8
:10136300FF0212013583FF02120135CDFF02120184
:1013730035008003120135BD8003120135F8800367
:10138300120135208103120135828103120135CE0A
:101393008103120135398203120135B5820312012B
:1013A30035B18303120135388503120135BB85033B
:1013B3001201351F86031201353686031201352CBF
:1013C3008703120135788703120135989C031201B4
:1013D30035AD9C031201355D9D031201359D9D03BF
:1013E300120135B69D03120135E99D03120135360D
:1013F3009E031201356A9E03120135AC9E0312014E
:1014030035AAA003120135DEB9021201353BBD0234
:10141300120135C3BE021201351ABF02120135395A
:10142300BF02120135B7BF0212013547C1021201D3
:10143300352BC20212013537C60212013507C70226
:101443001201353BB2031201358CB203120135256B
:10145300B3031201354DB303120135D0B3031201A7
:10146300352EB40312013547B50312013588B50390
:101473001201357CD0031201358BD003120135B62E
:10148300D003120135BCD003120135C2D0031201BF
:1014930035DDD003120135E4D003120135EBD0035F
:1014A300120135EFD0031201357ED103120135CD80
:1014B300D103120135E67F00120135EF7F001201DF
:1014C300358CE503120135E3E503E066701008A3EC
:1014D300E066700A08A3E066700408A3E06622C30E
:1014E300E7960809E7960809E7960809E79622C3ED
:1014F300E09608A3E09608A3E09608A3E09622C02E
:1015030021C3E096F52108A3E096422108A3E096C3
:10151300422108A3E09645217001D3D02122E97925
:101523009EC608CAC608CBC608CCC6C37020799627
:10153300CACBCC7019798ECBCC70137986CC700E54
:10154300F9802ACA33CACB33CBCC33CC331930E737
:10155300F2CCCBCA3350147004EA30E00DE4CA3A3B
:10156300CACB3BCBCC3CCC500209C3E913C6CC1845
:101573002313C6CB18C6CA18C6F9221215BE20F00B
:101583001430E72B74FFFCFBFA747F8022E4FCFB2E
:10159300FA7480801AB48008BC00F2BB00EF800F9D
:1015A30050EBF9E4C39AFAE49BFBE49CFCE499C690
:1015B300CC18C6CB18C6CA18C6F922E4C9C608CACD
:1015C300C608CBC6D3330308CCC63392F0C3947F8B
:1015D300402E94184019C9B90704CACBCC22502510
:1015E300C309CA33CACB33CBCC33CC33D9F422F4BB
:1015F300600DC9CCC313CB13CBCA13CAD9F6CC2203
:10160300E4FCFBFA2214FCFBFA22E62618461846F1
:10161300184622E72719471947194722181818E6C9
:101623000846087009E626087005E633F422082206
:10163300191919E70947097009E727097005E733FD
:10164300F4220922E6084608C3134608336002E67B
:1016530033F422E7094709C3134709336002E73329
:10166300F4221216476025121656602012160D70CA
:1016730003021616080808E76670101819E7667063
:101683000A1819E76670041819E76622F42212167D
:1016930047601C121656601712160D7007121616A5
:1016A3007001D322C0D01216167006D0D0B322C355
:1016B3002233D0D0501430E0F6C3E7960809E796FA
:1016C3000809E7960809E796B32220E0D5E69708CC
:1016D30009E6970809E6970809E697B32212164721
:1016E300601B121656601612160D7007121616603E
:1016F3000CB322C0D01216167005D0D022C32233E9
:10170300D0D0501330E0EBC3E7960809E7960809F9
:10171300E7960809E7962220E0E4E6970809E697AA
:101723000809E6970809E69722121656604612162C
:1017330047603DE9687008F618F618F618F6227443
:101743008067F7121760090909748067F722121678
:1017530047601D1216567005191919801A12161FA3
:10176300701F121633C37003E66733191919400744
:101773001818182208080874FFF618F618F618F651
:10178300221216336017121616702192F012160DDC
:101793007019501720F014080808090909E7F6180A
:1017A30019E7F61819E7F61819E7F62212160D606D
:1017B300E6E869701F0808E62480F608E436F618A0
:1017C300547FB47F0CE654806007F6E418F618F6ED
:1017D30022181822E9C6CC08C6CD08C6CE08C6CF43
:1017E300C0E0E8C0E0EAC0E0EBC0E009E9F809E7DF
:1017F300FA09E7FBE6F918E6F8C3EC98ED99EE9AD7
:10180300EBC2E7F5F0EFC2E795F0500E600CEBCFBB
:10181300FBEACEFAE9CDF9E8CCF8EAA2E7D2E7FA97
:10182300EB33FB13F5F0EEA2E7D2E7FEEF33FFC590
:10183300F013A2E730E601B313C5F0C3C0E0C0F074
:101843007F00C39BFB605E9418600F401D14601AF9
:10185300D0E023F9D0E0F80219328AF0E9486003B6
:10186300D2F0E4AFF0FAF9F8803BEB30E40D89F005
:10187300EA6003D2F0E4AFF0F9CAF8EB30E30D8885
:10188300F0EF6002D2F0AFF0E4CAC9F8EB5407609E
:1018930014FBC3EA13FAE913F9E813F8EF13500240
:1018A300D2E0FFDBEDD0E0C0E030E739C3E49FFFD7
:1018B300F5F0EC98FC42F0ED99FD42F0EE9AFE4211
:1018C300F0D0E0F9D0E0F8E5F0607AE923F9EE2012
:1018D300E742D8028067C3EF33FFEC33FCED33FDFF
:1018E300EE33FE80EAEC28FCED39FDEE3AFED0E063
:1018F30023F9D0E0F84002801BC3EE13FEED13FD85
:10190300EC13FCEF135002D2E0FF08B800067F7F10
:1019130074FF802EEF3350178CF020F00260100C10
:10192300BC000C0DBD00080EBE000408E860DFE932
:1019330033E813FFEE2313FE4F4D4C8008E9548028
:10194300FFE4FEFDFCEE33EF33F47004FCFD7E8018
:10195300D0E0FBD0E0FAD0E0F8D0E0CFC618CEC696
:1019630018CDC618CCC6F922080808EAC0E0EBC0B7
:10197300E086F0E7A4FA180986F0E7A42AFA180922
:1019830086F0E7A42AFA180986F0E7A42AFA19864A
:10199300F0E7A4FBE5F02AFA190886F0E7A42BFB8D
:1019A300E5F03AFA190886F0E7A42BFBE5F03AFADA
:1019B30018180986F0E7A4C5F02BFBE43AFA1908D6
:1019C300E7C5F0C6A426F6E5F03BFBE43AFA188631
:1019D300F0E7A4F6E5F00826F6E43B08F6E43A0857
:1019E300F6D0E0FBD0E0FA22E4CFC0E0E4CEC0E0E2
:1019F300E4CDC0E0E4CCC0E075F020E626F608E6CE
:101A030033F608E633F608E633F6181818EC33FC19
:101A1300ED33FDEE33FEEF33FFC3EC9709ED97098A
:101A2300EE9709EF97191919400FFFEC97FC09ED91
:101A330097FD09EE97FE191906D5F0BFECF709EDEE
:101A4300F709EEF709EFF7191919D0E0FCD0E0FD1B
:101A5300D0E0FED0E0FF226016080808C6C313C614
:101A630018C613C618C613C618C613C6D5E0EA228D
:101A73007009080808226016181818C6C333C60868
:101A8300C633C608C633C608C633C6D5E0EA22E65F
:101A930027F60809E637F60809E637F60809E637B0
:101AA300F622E026F608A3E036F608A3E036F608A9
:101AB300A3E036F622E026F008A3E036F008A3E020
:101AC30036F008A3E036F022C3E697F60809E69756
:101AD300F60809E697F60809E697F622C3E096F0BA
:101AE30008A3E096F008A3E096F008A3E096F0229E
:101AF300E657F60809E657F60809E657F60809E631
:101B030057F622E056F608A3E056F608A3E056F689
:101B130008A3E056F622E056F008A3E056F008A327
:101B2300E056F008A3E056F022E0F608A3E0F6083A
:101B3300A3E0F608A3E0F622E6F008A3E6F008A384
:101B4300E6F008A3E6F022E0FAA3E0FBA3E0FCA39F
:101B5300E0FD22EAF0A3EBF0A3ECF0A3EDF022E02A
:101B6300F8A3E0F9A3E0FAA3E0FB22E8F0A3E9F08D
:101B7300A3EAF0A3EBF022CAC0E0E6F0A308DAFA86
:101B8300D0E0FA22CAC0E0E0A3C582CCC582C583F7
:101B9300CDC583F0A3C582CCC582C583CDC583DA09
:101BA300E6D0E0CA22C3E498F8E499F9121BE9806D
:101BB30026C3E49AFAE49BFBE920E7E9121BE9E474
:101BC30098F8E499F922C3E498F8E499F9121BE927
:101BD300E498F8E499F9C3E49AFAE49BFB22EB2036
:101BE300E7CFE920E7E0B90010BB0008E88AF084FA
:101BF300F8AAF022E4FBC8FA22EB70227B10C83368
:101C0300C8C933C9335007C39AC3DBF280069A505D
:101C1300012ADBEAC833F4C8C933F4C9FA2275F0E0
:101C230008E4C833C8C933C933C99AC99B5004C926
:101C33002AC93BD5F0ECFBC833F4C8E4C9FA2260E7
:101C43000D08C6A2E713C618C613C6D5E0F3226073
:101C53000C08C6C313C618C613C6D5E0F422700415
:101C630022600D18C6C333C608C633C6D5E0F418C0
:101C730022254110AF08F541400C15428008F5417B
:101C830040021542D2AF2200C0D0254110AF08F563
:101C930041500C05428008F54150020542D2AFD0B5
:101CA300D0222541F58210AF08F541400C15428042
:101CB30008F54140021542D2AF854283222541F502
:101CC30082E43542F583222541F8E43542F92225A1
:101CD30041FAE43542FB222541FCE43542FD22E48E
:101CE300732541C582C0E0E54234FFC583C0E0E50A
:101CF30041C3958224F810AF0885834285824180D1
:101D030008858342858241D2AFCEF0A3E520F0A3BC
:101D13007821E608F0A3DEFAEFF0A3E58124FAF8D0
:101D2300E608F0A3E608F0A3E608F0A30808E6082F
:101D3300F0A3E608F0A315811581D0E0FED0E0F80A
:101D4300158115811581E8C0E0EEC0E0222541C56B
:101D530082C0E0E54234FFC583C0E0E541C395821C
:101D630024F910AF08858342858241800885834228
:101D7300858241D2AFCEF0A3E520F0A37821E60817
:101D8300F0A3DEFAEFF0A3E58124FBF8E608F0A365
:101D9300E608F0A30808E608F0A3E608F0A3158117
:101DA3001581D0E0FED0E0F815811581E8C0E0EEA2
:101DB300C0E022854283854182E0A3FEE0A3F520B3
:101DC3007821E0A3F608DFFAE0A3FFE0A3C0E0E098
:101DD300A3C0E0E0A3C0E0E0A3C0E0E0A3C0E01044
:101DE300AF0885824185834280088582418583428D
:101DF300D2AFD083D082020132854283854182E013
:101E0300A3FEE0A3F5207821E0A3F608DFFAE0A320
:101E1300FFE0A3C0E0E0A3C0E0E0A3C0E0E0A3C014
:101E2300E010AF0885824185834280088582418521
:101E33008342D2AFD083D08222C0D02541C582C095
:101E4300E0E54234FFC583C0E0E541C3958224F356
:101E530010AF08858342858241800885834285824D
:101E630041D2AFC8F0A3E9F0A3EAF0A3EBF0A37962
:101E730021E709F0A3D8FAECF0A3EDF0A3EEF0A369
:101E8300EFF0A3D0E0F0A3D0E0F0A3D0E0F0A3E51F
:101E930020F0A3E5F0F0A322854283854182E0C0D0
:101EA300E0A3E0F9A3E0FAA3E0FBA37821E0F608BE
:101EB300A3DFFAE0FCA3E0FDA3E0FEA3E0FFA3E0C1
:101EC300C0E0A3E0C0E0A3E0F5D0A3E0F520A3E0E9
:101ED300A3F5F010AF08858342858241800885838E
:101EE30042858241D2AFD082D083D0E0F8D0E032B5
:101EF30074048006740280027401C0E0F404121CAE
:101F0300A5D0E0121B7A227404800474028000CCF2
:101F1300C0E0EDC0E0E541C39CCCAD4250011D10D3
:101F2300AF068C418D4280068C418D42D2AF121B8D
:101F330087D0E0FDD0E0FC22D083D082E9C0E0E48A
:101F430093A3C386F0C5F095F0F908E493A386F054
:101F5300C5F095F0700BE493A3C3994005E90480A1
:101F630002A3E475F002A42582F582E5F03583F53A
:101F730083D0E0F9E493A3C0E0E493C0E022D083EC
:101F8300D082ECC0E0EDC0E0E493A3FCE493A3FDB6
:101F9300ED4C600D121FCDEC24FFFCED34FFFD80F2
:101FA300EFE493A3FCE493A3FDED4C600D12200C2E
:101FB300EC24FFFCED34FFFD80EFD0E0FDD0E0FC2E
:101FC300E493A3C0E0E493C0E022C0E0C3E49396AB
:101FD300087401939618400FE4936670080874011F
:101FE30093661870007019A3A3C3E4939608740151
:101FF300939618A3A3400DD0E0D0E0D0E0021FBD1C
:10200300A3A3A3A3A3A3D0E022C0E0C0F088F0E47D
:10201300936670080874019366187000A8F0A3A370
:10202300700BD0F0D0E0D0E0D0E0021FBDA3A3D06E
:04203300F0D0E022E7
:1020380074F5121D50EAFEEBFFEE2434F8EF34007D
:10204800F988218922EE2435F582EF3400F583E002
:10205800F8EE2437F582EF3400F583E0F523EC85BC
:1020680023F0A4FCAAF08523F0EDA42AFDE82CF8BF
:10207800E43DF97A257B00121BE9EA852182852255
:1020880083F0F8740758F97401B900028004C33367
:10209800D9FCFAE8131313541FF8EE28F8EF3400AC
:1020A800F9E8245DF582E93400F583E05A6008EE2A
:1020B8002434F582EF802CEE2434F582EF3400F5D9
:1020C80083E0C0E0EE2436F582EF3400F583E0F5D6
:1020D800F0D0E084A8F0EE28F8EF3400F9E82438CE
:1020E800F582E93400F583E0F97F04021DFC74F5FC
:1020F800121D50EAFEEBFFEE2434F582EF3400F5B2
:1021080083E0C0E0EE2435F582EF3400F583D0E0BB
:10211800F08E828F83A3A3A3A3A3A3A3C082C083AB
:102128008E828F83A3A3A3A3A3E0F8A3E0F9D083AF
:10213800D082E0C398F521A3E099F522EE247FF53B
:1021480082EF3400F583E064017069EE2480F58243
:10215800EF3400F583E0F8A3E0F98E828F83A3A320
:10216800A3A3A3A3A3E0FCA3E0FD8E828F83A3A374
:10217800A3A3A3E0FAA3E0FBC3EA9CEB9D5010C322
:10218800EC98ED99402EC3EA98EB995027800EC33E
:10219800EA98EB994007C3EC98ED9940177CA67D27
:1021A80005EEFAEFFB120BF7EE247FF582EF340011
:1021B800F583E4F0EE2434F8EF3400F9E8FCE9FDA7
:1021C800EE2435F582EF3400F583E0F8EE2437F598
:1021D80082EF3400F583E0F523E5218523F0A4F5AB
:1021E80021AAF08523F0E522A42AF522E82521F882
:1021F800E43522F97A257B00121BE9EA8C828D836B
:10220800F0F8740758F97401B900028004C333D98F
:10221800FCFAE8131313541FF8EE28F8EF3400F90A
:10222800E8245DF582E93400F583E05A6008EE247D
:1022380034F582EF802CEE2434F582EF3400F583F8
:10224800E0C0E0EE2436F582EF3400F583E0F5F0E7
:10225800D0E084A8F0EE28F8EF3400F9E82438F547
:1022680082E93400F583E0F9122E730220F1C0826E
:10227800C083854182854283E0F8A3E0F9C3EA9CE4
:10228800EB9D5010C3EC98ED99401BC3EA98EB996D
:102298005014800EC3EA98EB994007C3EC98ED9967
:1022A8004004790180027900D083D08222EAC39C5D
:1022B800FAEB9DFB2274EF121D5090046CE0640849
:1022C8006005E06407702A9061C8E0602490049A71
:1022D800E0F4601DE0F875F003A4C8AAF02AF974C8
:1022E8009C28FE740439FF8E828F83A3A3A3E07019
:1022F800030223ED906060E0C0E0EE2468F582EF11
:102308003400F583D0E0F075250F75260675210099
:10231800752200E5D914F523E5D95403F52760178C
:1023280074036527605CE5236010EE2467F582EF8F
:102338003400F583E070030223D290060AE06401BA
:10234800602AEE2482F582EF3400F583E060047899
:102358000480027800852321E521C398FA95E0FBE3
:10236800120AA18A218B22EA45227005120E0180E9
:1023780074EE2482F582EF3400F583E070048A2538
:102388008B26E5236012852582852683F524E5D9E9
:10239800F0A31524E52470F6EE2482F582EF3400CC
:1023A800F583E0604474FC2523F5237825121EF795
:1023B800AC23A927EEFAEFFB120C997402121C8ABF
:1023C800E97026AA21AB22121311793D8E828F83E0
:1023D800A3A3A3A3E0FA7B00120975EEFAEFFB12A0
:1023E8000C0F120CAB790080747403652760568556
:1023F8002329752A007829121EF7AC25AD26AA21B3
:10240800AB22120C757402121C8AEE2468F582EF56
:102418003400F583E064807004747F8001E0F52562
:102428007825121EFBE527F5257825121EFBA92322
:10243800AC21AD2290049AE0FA7B001209397402AB
:10244800121C8A801390046CE06408600BAC25AD04
:1024580026EEFAEFFB120D05120E0D79017F0A0226
:102468001DFC74F5121D5074FC121C74EAFEEBFF7F
:102478008921A2AFE433F522C2AF806AEE2463F863
:10248800EF3400F97A007B00A2AFE433F523C2AF42
:1024980088828983E0FCA3E0FDEC4D603A8882895C
:1024A80083E0FAA3E0FB8A828B83E0FCA3E0FD884B
:1024B800828983ECF0A3EDF08A828B83E4F0A3F0A9
:1024C80088828983E0FCA3E0FDEC4D700A8882894C
:1024D80083A3A3E4F0A3F0E523A2E092AF121311C3
:1024E8009005ADE004F0EE2463F582EF3400F58347
:1024F800E0F8A3E0F9E849603DEE2463F582EF34A3
:1025080000F583E02402FAA3E03400FBEA2402F594
:1025180023EB3400F5247823121EF78A828B83E09C
:10252800FCA3E0F9EEFAEFFB120C337402121C8ADA
:10253800E970030224849005ADE060639005AEE085
:10254800F89005ADE0C398500C7402652170509066
:1025580005AFE0604A8E828F83A3A3A3A3E08541E1
:1025680082854283F0A3E4F09005ADE0F87402128E
:102578001CC0E8F0A3E4F09005ADE0F89005ACE0ED
:1025880028F07402121CC0AC82AD8385418285425A
:1025980083AA82AB8379011209459005ADE4F0E581
:1025A80022A2E092AF7404121C8A0220F1000000FB
:1025B8008544878545C622C0E0C0D0E8C0E0E9C0B0
:1025C800E0EAC0E0EBC0E0ECC0E0EDC0E0EEC0E067
:1025D800C021C022C023C024C082C083C0F0A2AFE3
:1025E800E433FEC2AF759B00906182E0A2E0501216
:1025F800E591A2E0500C7591FE74016544700312D8
:1026080022BDE0A2E55051E591A2E5504B7591DF5E
:1026180090046CE064076005E06408702374016549
:10262800447035790190049AE0FA75F003A4CAA8B9
:10263800F028FB749C2AFA74043BFB12246A801865
:10264800E0640D701390048EE004F064287002E4D6
:10265800F07A00E0F9120E13906182E0A2E64003DE
:10266800022706E591A2E640030227067591BF906E
:10267800046CE064057008120D3B120D47800312CC
:102688000D41754400120DA1E990046DF079001216
:102698000D95120B677A017B0090046BE0F912121A
:1026A800DB907803E06442705590060EE014F070F9
:1026B8004DC2AF1226BE00784DD0E0F618D0E0F635
:1026C800E59F540770057522FF800375227FC4C0FB
:1026D800E0784CE6F52108E65522F522740B7821BE
:1026E800121C52D0E02521F8906270E0A2E740F871
:1026F800E8C333906272F0906270E0D2E0F09061CB
:1027080081E0A2E35009E5E9A2E3500375E9F7A3E4
:10271800E0A2E75009E591A2E7500375917FEEA288
:10272800E092AFD0F0D083D082D024D023D022D072
:1027380021D0E0FED0E0FDD0E0FCD0E0FBD0E0FA14
:10274800D0E0F9D0E0F8D0D0D0E032C0E0C0D0C0BE
:1027580082C083906183E0A2E05009E5BFA2E05007
:102768000375BFFEE0A2E15009E5BFA2E150037581
:10277800BFFDE0A2E25009E5BFA2E2500375BFFB2E
:10278800E0A2E35009E5BFA2E3500375BFF7E0A25A
:10279800E45009E5BFA2E4500375BFEFE0A2E5509D
:1027A80009E5BFA2E5500375BFDFE0A2E65009E5E1
:1027B800BFA2E6500375BFBFD083D0828088C0E037
:1027C800C0D0E8C0E0E9C0E0EAC0E0EBC0E0ECC09F
:1027D800E0EDC0E0C0F0E5A7A2E6500FE5A1A2E653
:1027E800500953A7BF75A1BF12282BE5A7A2E55032
:1027F8000CE5A1A2E5500653A7DF75A1DFE5A7A266
:10280800E15009E5A1A2E1500375A1FDE5A7A2E207
:10281800500CE5A1A2E2500653A7FB75A1FBD0F02E
:1028280002273C74F8121D5075440190046CE06452
:10283800067015120CC98A828B83A3A3A3A3A3A332
:10284800E0FAA3E0FB120D29A2AFE433FED2AF9069
:102858000472E0640170187A207B0090046BE0F940
:102868001213EF7A207B0090046BE0F91212E190CA
:102878006182E0D2E6F090060BE0602185C64580D3
:1028880016900471E064017008E5C654F84405F533
:10289800C653BEFC1225B87401654460E4EEA2E09C
:1028A80092AF7F01021DFC008E468F4785824B85C3
:1028B800834A854182854283E0CEA3E0CF854B825F
:1028C800854A83EBC9EAC8EDCBECCA75F010C3E8BA
:1028D80033C8E933C9EA33CAEB33CBC3EA9EF549B7
:1028E800EB9FF548B35004AB48AA49EC33CCED3321
:1028F800CDD5F0DAAE46AF472274E9121D5074F810
:10290800121C74854182854283ECF0A3EDF08A2184
:102918008B2290046CE024F7C394055006752101BE
:10292800022A98120CC98A238B24AE23AF24EE4FB7
:102938007003022A95AC21AD227402121CC0AA822F
:10294800AB83120D598E828F83A3A37525FF75263D
:10295800FF7527FF7528007825121B067402121CC4
:10296800C07529FF752AFF752BFF752C0078291271
:102978001B06782579291214E2502A78257929121C
:102988001ACB7521017522C875230075240078219A
:1029980079251214E2505285252185262285272380
:1029A8008528248050752D01752EC8752F00753027
:1029B80000852921852A22852B23852C24782179B5
:1029C80025121ACB782D79211214E2401C752100AA
:1029D80075220075230075240178217929121ACBF4
:1029E80078217925121A92800C75210175220075BB
:1029F800230075240074097821121A73752519F5B6
:102A080026F527F528782179251219EB8E828F83F0
:102A1800A3A3A3A3A3A3E0F8A3E0F97AD07B0312AE
:102A28001BE988258926E4F527F5287821792512D8
:102A38001A927406121CC0E0F8A3E0F97AD07B035E
:102A4800121BE9E8FA8A25E4F5267821792512147B
:102A5800E2500778217925121ACB90046CE06408BB
:102A6800600AE064066005E06405702D75250D7840
:102A78002579211214E240217525F47526FF752762
:102A8800FF7528FF78217925121A92800C7521008C
:102A9800752200752300752400854182854283E0F4
:102AA800F8A3E0F58388827821121B3B7408121C76
:102AB8008A7F10021DFC74F7121D50120D6B9006D0
:102AC80009E064017010906245E4F0A3F053F4F358
:102AD80043FE0C5390F3120D17E5C654804449F594
:102AE800C6E59E547F644970F8906185740FF09034
:102AF8000607E0F47002A3E0604E900608E0600864
:102B080014601B14602E8040752101752200900608
:102B180007E07821121C61E521F45280802A752192
:102B280001752200900607E07821121C61E521F466
:102B380052908014752101752200900607E07821D3
:102B4800121C61E521F452A079007F02021DFC7479
:102B5800F7121D50E9FEEAFF74016E700C7A807B53
:102B68000090046BE0F91212DB902EECE493F46011
:102B780008E493F9120B5B800953C680E59E547FE5
:102B880070FA120D1D900609E064017003120B79AA
:102B9800900607E0F47002A3E0604B900608E0603E
:102BA8000814601A14602C803D752101752200906C
:102BB8000607E07821121C61E521428080287521F2
:102BC80001752200900607E07821121C61E5214278
:102BD800908013752101752200900607E078211274
:102BE8001C61E52142A0120D6B120CC98A218B22AF
:102BF800A821A922E8496015E5E170FCE82414F54C
:102C080082E93400F583E0F46003E0F5E174016FD4
:102C1800700A7A0190046BE0F9121365022B527462
:102C2800ED121D508A218B228C238D247413121CC3
:102C3800C07825121B2C782179251214E2752901F8
:102C4800752AC8752B00752C005012782179251229
:102C58001ACB782979211214E25016801078257938
:102C680021121ACB782979251214E24004790180BF
:102C78000279007F0C021DFC74ED121D508A218B15
:102C8800228C238D247413121CC07825121B2C78D7
:102C98002579211214E2401178217925121ACBAA3C
:102CA80021AB22AC23AD248022752900752A00753A
:102CB8002B00752C0178297925121ACB78297921CE
:102CC800121A92AA29AB2AAC2BAD2C80A68A828B29
:102CD800837521FF7522FF7523FF75240078211263
:102CE8001B197F04021DFC74F5121D508C828D8304
:102CF8007821121B2C8A828B837821121ADFEA240E
:102D080004F8EB3400F98C828D83A3A3A3A3E0FC21
:102D1800A3E0FD88828983C3E09CF0A3E09DF0884E
:102D2800828983C3E09420A3E0944E40268A828B54
:102D3800837521FF7522FF7523FF7524FF78211203
:102D48001AB88A828B83A3A3A3A3E02420F0A3E06C
:102D5800344EF0022CD574F5121D50E9FE9005C1D1
:102D6800E0FAA3E0FBEEC333F8E433F9740028F586
:102D780082748139F583E02AF521A3E03BF52278B6
:102D880021121EF77A407B427C0F7D001228B07416
:102D980002121C8A8A218B228C238D24741078219C
:102DA800121A5AAA21AB227F04021DFC74F1121DCB
:102DB800508A258B268C278D28740F121CC0E0FAA8
:102DC800A3E0FB7411121CC0E0F521A3E0F5227802
:102DD80021121EF7EA2401F521EB3400F522E4F56F
:102DE80023F5247825792112196B75217175220232
:102DF8007825792112196BAA25AB26AC27AD2812A4
:102E080028B07402121C8A8B22EA452260047A01D7
:102E180080027A00EC2AFCED3400FD7413121CC009
:102E2800E0F8A3E0F9E8FEE9FFECF8EDF97A717B48
:102E380002121BE9882189228E828F837821121B36
:102E48003BECF8EDF97A717B02121BE98A218B229F
:102E580074057821121C618E828F83A3A3A3A3E536
:102E680021F0A3E522F07F08021DFCC082C083E99F
:102E7800906000F0D083D08222C0E074F2121E3C31
:102E8800A2AFE433FED2AFE58AA2E4400CE58AA201
:102E9800E64006E58AA2E750031211B5538AEF53BC
:102EA8008ABF538A7FC2EB754300EEA2E092AF7FE0
:102EB80001021E9BC0E0C0D0E8C0E0E9C0E0A9A8BC
:102EC800D2AFC2C7754300E9A2E7E433F8E9A2E745
:102ED80092AFD0E0F9D0E0F8D0D0D0E032C2AF0263
:032EE800000022C5
:102EEC00FFFFFFFFFFFFFFFF121C8A7F02021DB6D0
:102EFC0074F6121CE474C7121C74E9FE9080E07422
:102F0C0004121CDA7410121B877404121CCA882158
:102F1C0089227821121EF77CF77D0F7AC57B0F1260
:102F2C000AC57402121C8A908081741E121CDA74F9
:102F3C0017121B877404121CC0E0C0E0741E121C14
:102F4C00C0D0E0F07405121CC0E0C0E0741F121C6D
:102F5C00C0D0E0F07406121CC0E0C0E07420121C5B
:102F6C00C0D0E0F07407121CC0E0C0E07421121C49
:102F7C00C0D0E0F07408121CC0E0C0E07422121C37
:102F8C00C0D0E0F07409121CC0E0C0E07423121C25
:102F9C00C0D0E0F0740A121CC0E0C0E07424121C13
:102FAC00C0D0E0F0740B121CC0E0C0E07425121C01
:102FBC00C0D0E0F0740C121CC0E0C0E07426121CEF
:102FCC00C0D0E0F0740D121CC0E0C0E07427121CDD
:102FDC00C0D0E0F0740E121CC0E0C0E07428121CCB
:102FEC00C0D0E0F0740F121CC0E0C0E07429121CB9
:102FFC00C0D0E0F07410121CC0E0C0E0742A121CA7
:10300C00C0D0E0F07411121CC0E0C0E0742B121C94
:10301C00C0D0E0F07412121CC0E0C0E0742C121C82
:10302C00C0D0E0F07413121CC0E0C0E0742D121C70
:10303C00C0D0E0F0EE900301F01212517C017D0043
:10304C007A1F7B0012058B854182854283E4F074E4
:10305C001C121CC07488F0A37413F07401121CC0F1
:10306C007401F0741A121CC07408F0A3E4F0741804
:10307C00121CC0740AF0A3E4F07416121CC0E4F025
:10308C00A3F07414121CC07464F0A3E4F0AC41AD52
:10309C004279017A057B03121407741C121CDA792D
:1030AC00027A067B03121407741E121CDA79177A43
:1030BC00087B031214077CD57D0F79077A077B03F5
:1030CC001214077401121CDA79017A107B031214A2
:1030DC0007741A121CDA79027A117B031214077422
:1030EC0018121CDA79027A127B0312140774161266
:1030FC001CDA79027A137B031214077414121CDA8B
:10310C0079027A147B0312140775210A752203784D
:10311C0021121EF77CDC7D0F7AC57B0F120AC57459
:10312C0002121C8A7C0A7D037A1579001207057C31
:10313C00A07D007A067B0012058B7CA07D007A07AF
:10314C007B0012058B7CA07D007A087B0012058B1E
:10315C007CA07D007A097B0012058B7435121CC093
:10316C00124EAD04121CC07401F08541828542835D
:10317C00F07403121CC0E4F07402121CC07401F051
:10318C007435121CDA79047A087B041210957401D8
:10319C00121CDA79017A007B04121095AC41AD4215
:1031AC0079017A027B041210957403121CDA7901EE
:1031BC007A037B041210957402121CDA79017A06D8
:1031CC007B041210959081E2121B4A12070B90811E
:1031DC00E2121B4A12081312100B9081E2121B4AC6
:1031EC0012101D900301E0F912126F1214B51204A3
:1031FC005312045912148B12149D121233121047CD
:10320C0012104D12124B908272AC41AD42740112ED
:10321C001B87A841A942882189227821121EF77C9C
:10322C00017D007AF07B1F1211917402121C8A85A9
:10323C004182854283E064AA600312049B1211FD53
:10324C007AF47B011211D97AF57B0F1210237901D4
:10325C0012090F7902120909790012091579011264
:10326C00091B7A017B00900301E0F91212DB790152
:10327C0012135F7439022EF474EC121CE474FD12F8
:10328C001C748923908230AC41AD427403121B87AD
:10329C007A10FB12134D8A218B22AE21AF22C2AFC2
:1032AC00A841A942882189227821121EF77C017D30
:1032BC00007AFE7B1F1211917402121C8A74011287
:1032CC001CC08582218583227821121EF77C017D0A
:1032DC00007AFF7B1F1211917402121C8A74021265
:1032EC001CC08582218583227821121EF77C017DEA
:1032FC00007AF07B1F1211917402121C8AD2AF1249
:10330C0004658A218B221204658A258B261204659A
:10331C008A278B28A827A928C3E5219525E522957E
:10332C00265052C3E52598E526994052C3E52198CD
:10333C00E52299405A85212985222AE4F52BF52C82
:10334C007829121521900B617829121B3B8541823B
:10335C00854283E0603FF525E4F526F527F52878CE
:10336C00251215217829792512172C900B617829B3
:10337C00121B3B8046C3E89525E995265008852508
:10338C002985262A80B5C3E89521E9952250A6887F
:10339C0029892A80A67401121CC0E0F8601D8825BA
:1033AC00E4F526F527F528782512152178257929B5
:1033BC00121751900B617825121B3B900B617825ED
:1033CC00121B2C9081DA7829121B2C782579291262
:1033DC0016E05007900B6574648029782512157ED1
:1033EC00E52524BDF8E52634F9F9E875F064A4F870
:1033FC00AAF075F064E9A42AF97A547B01121BE94E
:10340C00E8900B65F07401652370518E828F837484
:10341C0031F0EE2402F8E43FF9E8FAE9FBA3A882C4
:10342C00A98375F00A900B65E084940A88828983DD
:10343C00400A7401F08A828B83E4801AE4F0900BCA
:10344C0065E0F875F00A84A9F075F00AE884C454B4
:10345C00F0298A828B8312505C121029EEFAEFFB52
:10346C00121353900B65E0F97403121C8A7F0C0243
:10347C001DB674E8121CE474F9121C74EAFEEBFF1E
:10348C005480603A900301E0F91212C38A218B2216
:10349C00EA452260218A828B83E064C07011A3A369
:1034AC00A3E0FA8521828B83A3A3E0F912047DAA01
:1034BC0021AB221212B1EEFAEF6480024741EEA268
:1034CC00E050147AF17B0F1214137A067B0312105E
:1034DC00B3EE640102473F540260201204899081CC
:1034EC00B2121F0A7A027B00900301E0F91213E377
:1034FC007404121C8AEE640202473FEE54407003BF
:10350C00023760900303E0700474018001E4F07CE6
:10351C00057D0079007A277B0B12144F900B60E429
:10352C00F0900303E06401854182854283600302CD
:10353C0035FA7401F0790012135F900B5EE4F07CA5
:10354C005E7D0A7AC479801213BF900B66E0603AF4
:10355C00C2AF7521A475220B7821121EF77C2C7D2D
:10356C00037A007B001211917402121C8A7521D00F
:10357C0075220E7821121EF77CF47D007A007B10E8
:10358C001211917402121C8AD2AF12107D12120900
:10359C00790012125D7A027B00900301E0F912129D
:1035AC00DB90821A121F0A7A007B01900301E0F96A
:1035BC001213E37404121C8A7A007B40900301E01E
:1035CC00F91212DB90820E121F0A7A407B009003D4
:1035DC0001E0F91213E37404121C8A121419AC41A1
:1035EC00AD4279017A057B0312140702375AE4F0D5
:1035FC00121419AC41AD4279017A057B0312140700
:10360C00900B2FE4F0900B66E06025900B3DE4F0FE
:10361C00900B5FF0900B3EF0900B2DF0900BA3F005
:10362C00900B2CF0900B24125D88900B5AF08003B9
:10363C0012146D12124512149D121047900B66E075
:10364C006074900B5CE064426008900B5EE0640177
:10365C00700FC2AF7C5E7D0A7AC479801213B9D226
:10366C00AF900B5CE0F860057442687008900B5EDC
:10367C00E064027041C2AF7521A475220B7821124F
:10368C001EF77C2C7D037A007B00121197740212BA
:10369C001C8A7A0A7B001211D97521D075220E78FA
:1036AC0021121EF77CF47D007A007B1012119774A6
:1036BC0002121C8AD2AF12120F7A007B20900301E7
:1036CC00E0F91213EF7A087B00900301E0F9121372
:1036DC00EF7A047B00900301E0F91213EF7A027B7E
:1036EC0000900301E0F91213EF7A407B0090030184
:1036FC00E0F91213EF7A007B02900301E0F9121348
:10370C00EF7A007B04900301E0F91213EF7A007B4F
:10371C0010900301E0F91213EF7A007B089003017B
:10372C00E0F91213EF7A007B01900301E0F9121318
:10373C00EF7A107B00900301E0F91213EF7A007B13
:10374C0040900301E0F91213EF790112135FEE645C
:10375C004002473FEF5402700302382B7A007B0281
:10376C00900301E0F91213EF7A007B04900301E05F
:10377C00F91213EF900B2FE0700474018001E4F048
:10378C00900B3DE4F012149D900B55E4F0900B3E21
:10379C00124ED312144F900B2FE085418285428339
:1037AC00602EE4F0121419AC41AD4279017A057B1C
:1037BC00031214077A027B00900301E0F91213EF55
:1037CC007A007B08900301E0F91213EF790380442F
:1037DC007401F0121419AC41AD4279017A057B03E6
:1037EC001214079081B2121F0A7A027B0090030117
:1037FC00E0F91213E37404121C8A7A007B10900314
:10380C0001E0F91213EF7A007B20900301E0F9122A
:10381C0013EF792712125DEEFAEF6402024741EFC3
:10382C0054047003023DEB900B3EE4F0FA7B0490E1
:10383C000301E0F91213EF7A007B10900301E0F919
:10384C001213EF900B32E0F8900B3DE060331470E4
:10385C0003023925147003023A60147003023B7999
:10386C00147003023BBE147003023C3D147003023F
:10387C003CD8147003023D71147003023D99023D53
:10388C00D77521067522007821121EF77C327D0B2C
:10389C007A5E7B0A1214497402121C8AE960329017
:1038AC00820A121F0A7A407B00900301E0F912137E
:1038BC00E37404121C8A900B3D7401F079221212ED
:1038CC005D7C0A7D0079FF7A327B0B12144F023D2E
:1038DC00D7900B3DE4F0790412125D900B55E00487
:1038EC00124EC312144F900B55E0C39406500302B2
:1038FC003DD712107D7A817B08121089EAF8EBF91A
:10390C00ECFAEDFB900B56121B6E7A407B00900389
:10391C0001E0F91212DB023DD77521027522007805
:10392C0021121EF77C327D0B7A077B10121449741E
:10393C0002121C8AE96032900B3D7402F079051278
:10394C00125D900B3DE0C3940240179081BE121F94
:10395C000A7A007B10900301E0F91213E37404124D
:10396C001C8A900B3EE4023DD67821121EF77C3265
:10397C007D0B7A097B101214497402121C8AE960BF
:10398C000A900B3D7403F0790980B47821121EF76C
:10399C007C327D0B7A0B7B101214497402121C8A38
:1039AC00E9600F900B3D7404124EC312144F790D45
:1039BC00808D7821121EF77C327D0B7A0D7B1012D4
:1039CC0014497402121C8AE9601A791212125D9061
:1039DC000B3D7405F07A007B20900301E0F9121284
:1039EC00DB02394E7821121EF77C327D0B7A0F7B6D
:1039FC00101214497402121C8AE9600C791212120A
:103A0C005D900B3D740680CC7821121EF77C327DC4
:103A1C000B7A117B101214497402121C8AE9600B88
:103A2C00900B3D7407F0791902394B7821121EF76F
:103A3C007C327D0B7A137B101214497402121C8A8F
:103A4C00E9900B3D60087408F0791D02394B740144
:103A5C00F002396E7A107B0012134D8A218B229062
:103A6C000B24E064016003023B64900B33E0640BB5
:103A7C006009A3E0640B6003023B6412479D121CB7
:103A8C0061746E2523F582740A3524F583E0F460A5
:103A9C0003023B47E9900B527005E044118008E0AB
:103AAC004421125D944441F012479D121C61745ED6
:103ABC002523FA740A3524FBEA2410F582E43BF53D
:103ACC0083E9F07523077524007823121EF77C4CCC
:103ADC007D0BEA2411FA50010B1212877402121C8E
:103AEC008A7C0679007A4C7B0B120495E9F88521C7
:103AFC0082852283742FF0900B25124794F0900B43
:103B0C0052124794A3F0E8852182852283A3A3A3B4
:103B1C00F0AC21AD227A107901121029790712121A
:103B2C005D7C077D0079007A4C7B0B12144F7C5E18
:103B3C007D0A7AC479801213B9801D854182854231
:103B4C0083E4F0121419AC41AD4279017A057B0380
:103B5C00121407792412125DAA21AB22121353906E
:103B6C000B2574FFF0900B24E4F0023DD175210677
:103B7C007522007821121EF77C327D0B7A3F7B0B6D
:103B8C001212997402121C8AE960207821121EF715
:103B9C007C3F7D0B7A5E7B0A1212877402121C8AA0
:103BAC00900B5CE04442F0790B8002790C12125DB0
:103BBC00806F7521067522007821121EF77C327DEC
:103BCC000B7A3F7B0B1212997402121C8AE9604625
:103BDC00900B26E0FC8C2174047821121C6174A4D7
:103BEC002521F8740B3522F9E8FAE9FBEC8A828B73
:103BFC0083A3125DA6121EF77C3F7D0BEA2402FA0A
:103C0C0050010B1212877402121C8A900B5CE04458
:103C1C0044F079118002790C12125D900B2674FF1E
:103C2C00F07C067D0079BB7A3F7B0B12144F023D72
:103C3C00D17A087B0012134D8A218B2290815A7401
:103C4C0001121CDA7406121B87900B32E0640B60B5
:103C5C0003023D68752500852523752400740478BE
:103C6C0023121C6112475D121EF77403121CDAAA90
:103C7C0023AB241214497402121C8AE9603C75258A
:103C8C00067526007825121EF77C457D0BAA23AB02
:103C9C00241212877402121C8A900B3D7401F07C62
:103CAC00067D0079BB7A457B0B12144F900B5CE0C0
:103CBC004448F0791412125D800F7409652560096F
:103CCC000525E525C3940A408E023D687A087B00E1
:103CDC0012134D8A218B227523027524007823122E
:103CEC001EF77C327D0B7A157B101214497402126C
:103CFC001C8AE960677525008525237524007404EA
:103D0C007823121C6112475D121EF77C457D0BAAAD
:103D1C0023AB241214497402121C8AE9602A7C0613
:103D2C007D0079FFAA23AB2412144F7C067D007909
:103D3C00BB7A457B0B12144F900B3D125D9244489D
:103D4C00F0791812125D80147409652570057917C5
:103D5C0012125D0525E525C3940A409CAA21AB22CD
:103D6C001213538060740B68705B7C077D0079BB09
:103D7C00900B26E0F5218D2274047821121C61121F
:103D8C005D5412144F900B5CE044448032740B6809
:103D9C007033900B25124EF2121C61745E2521FAC1
:103DAC00740A3522FBEA2410F582E43B124772EACE
:103DBC002411FA50010B12144F900B5CE04441F0AB
:103DCC00791B12125D900B3D7401F0900B2674FF61
:103DDC00F0124ECF12144FEEFAEF6404024741EE8C
:103DEC0054086044900B22E064017036900302E0AA
:103DFC006405702E900B5CE06028900B2FE0702215
:103E0C00900B5CE0A2E7401A125DD87A177B101277
:103E1C000495E9900B53F07C177D107A1079011200
:103E2C001029EE640802473FEF5408700302400962
:103E3C007A007B08900301E0F91213EF900B66E017
:103E4C007003023FD5752300852321852125752616
:103E5C000074047825121C6174A42525F525740BB7
:103E6C003526F5267527067528007827121EF77C4F
:103E7C00327D0BE5252443FAE5263401FB12144967
:103E8C007402121C8AE96027900ED17404F0E523A9
:103E9C00A3125D944460124EC312144F7C107D002B
:103EAC0079BBE5252442FAE5263401FB023F727802
:103EBC0027121EF77C327D0BE5252402FAE4352609
:103ECC00FB1214497402121C8AE96008900ED1741A
:103EDC0001023F6BE52175F007A4F521E5F0F52211
:103EEC0074A42521F521740B3522F5227525067550
:103EFC0026007825121EF77C327D0BE52124E3FA8F
:103F0C00E5223401FB1214497402121C8AE9600781
:103F1C00900ED1740580487825121EF77C327D0BEB
:103F2C00E5212429FAE5223402FB12144974021209
:103F3C001C8AE96007900ED1740680237825121E26
:103F4C00F77C327D0BE521246FFAE5223402FB125B
:103F5C0014497402121C8AE9601D900ED17407F08A
:103F6C00E523A3124EC312144F7A107B0090030169
:103F7C00E0F91212DB804B740965237039900B55F4
:103F8C00E004F0C39406401C12107D7A817B081269
:103F9C001089900B56121B567A407B00900301E05F
:103FAC00F91212DB790412125D7C0A7D0079FF7A1A
:103FBC00327B0B12144F0523E523C3940A500302E2
:103FCC003E54900B3EE4F0802C900B55E004F0C373
:103FDC009406401C12107D7A817B08121089900B7C
:103FEC0056121B567A407B00900301E0F91212DB4B
:103FFC00790412125DEEFAEF6408024741EF5401A6
:10400C00700302411212107D7A817B081210898A8A
:10401C00218B228C238D24752700AA278A257526AF
:10402C000074027825121C6174A42525F52D740BDF
:10403C003526F52EE52D24B4F525E52E3402F5268E
:10404C00EA75F007A4FAABF074A42AF52F740B3BB5
:10405C00F5308525828526837829121B2C908206C3
:10406C007829121AA5782979211214E2400E1247E8
:10407C007E24E2FAE5303401FB12144FE52D24DCEA
:10408C00F525E52E3402F526852582F5837829124F
:10409C001B2C9081FE7829121AA5782979211214EB
:1040AC00E2400E12477E2428FAE5303402FB12144B
:1040BC004FE52D2404F525E52E3403F526852582C0
:1040CC00F5837829121B2C9081E67829121AA57891
:1040DC002979211214E2400E12477E246EFAE53043
:1040EC003402FB12144F0527E527C3940A50030230
:1040FC0040267A007B01900301E0F91213EFEEFAEF
:10410C00EF6401024741EE5410700302433C900BE4
:10411C005FE0600C7A007B40900301E0F91213EF32
:10412C00900B2CE0F860057403687015E004F090B7
:10413C000305E0700474018001E4F090821A0243DC
:10414C0022740168600302429A12107D900B5CE0AD
:10415C004450F0900FC3E0C39410400A740FF090D9
:10416C000ED0F0121443900ED0E0C0E0F521752271
:10417C000074047821121C6174C3125D61740E12F8
:10418C005D6ED0E0F0900ED1E0C0E0124EEF121C4C
:10419C006174C4125D61740E125D6ED0E0F0900E0D
:1041AC00D2E0C0E0124EEF121C6174C5125D617456
:1041BC000E125D6ED0E0F0900881E0C0E0124EEF80
:1041CC00121C6174C6125D61740E125D6ED0E0F04B
:1041DC00900882E0C0E0124EEF121C6174C7125DB1
:1041EC0061740E125D6ED0E0F0900883E0C0E012B6
:1041FC004EEF121C6174C8125D61740E125D6ED0AC
:10420C00E0F0900884E0C0E0124EEF121C6174C91B
:10421C00125D61740E125D6ED0E0F0900885E0C006
:10422C00E0124EEF121C6174CA125D61740E125DC5
:10423C006ED0E0F0900886E0C0E0124EEF121C61E8
:10424C0074CB125D61740E125D6ED0E0F0900FC3F2
:10425C00E004F0900ED0F0900B2CE004F012123928
:10426C009081B2121F0A7A107B00900301E0F912C0
:10427C0013E37404121C8A7A027B00900301E0F9A8
:10428C001213EF9081DE121F0A7A40024327740446
:10429C006870087405F012123F80787406687053C9
:1042AC00E4F0900B55F07A10FB900301E0F9121337
:1042BC00EF9081D6121F0A7A027B00900301E0F97D
:1042CC001213E37404121C8A9081D2121F0A7A40D2
:1042DC007B00900301E0F91213E37404121C8A9022
:1042EC000B5FE060457A007B40900301E0F912120D
:1042FC00DB803774026870107403F0121245791F5A
:10430C0012125D9081D2800E740568701D7406F0D7
:10431C001212459081B2121F0A7A107B0090030191
:10432C00E0F91213E37404121C8AEE641002473F86
:10433C00EE540460151214197A047B00900301E00A
:10434C00F91213EFEE640402473FEE54806048A26A
:10435C0096401B790012125D7A407B00900301E0BD
:10436C00F91213EF9081CA121F0A7A8080147A8096
:10437C007B00900301E0F91213EF9081DE121F0A0B
:10438C007A407B00900301E0F91213E37404121CD1
:10439C008AEE648002473FEE5420700302447F7A19
:1043AC00207B00900301E0F91213EFA29750030257
:1043BC00447F90826FAC41AD427401121B8779012E
:1043CC0012125D7AC87B001211D912146D1214618D
:1043DC0012146712145BC2AF7C5E7D0A7AC47980BA
:1043EC001213B97521A475220B7821121EF77C2C9F
:1043FC007D037A007B001211977402121C8A7A0AD0
:10440C007B001211D97521D075220E7821121EF75E
:10441C007CF47D007A007B101211977402121C8AB6
:10442C00A841A942882189227821121EF77C017D9E
:10443C00007AF07B1F1211977402121C8A782112D9
:10444C001EF77C017D007AFE7B1F121197740212FD
:10445C001C8A7821121EF77C017D007AFF7B1F12CB
:10446C0011977402121C8AD2AFC2AF75C9AB75C951
:10447C005B80FEEF542070030246487A087B0012E2
:10448C00134D8A238B247A007B10900301E0F912E0
:10449C0013EFEEF521EF6420F522900B3DE064055F
:1044AC0070347525067526007825121EF77C277D3D
:1044BC00107AD57B0C1214497402121C8AE97016FE
:1044CC00792812125D124ECF12144F900B3D7401CD
:1044DC00F07A000245E5AA23AB241214AFE970036D
:1044EC000246237A00EAF8E52328F582E43524F520
:1044FC0083A3E070037430F00AEAC3940640E685A7
:10450C002382852483A3AE82AF83900B3DE0F874A5
:10451C0005687062752500752706752800782712C6
:10452C001EF7EEFCEFFD85252774047827121C611D
:10453C001247521214497402121C8AE9602B793307
:10454C0012125D124ECF12144F900B3D7401F0906D
:10455C0081C2121F0A7A007B10900301E0F912133A
:10456C00E37404121C8A0246150525E525C3940A3A
:10457C0040A57913804D74066870737525007527F6
:10458C00067528007827121EF7EEFCEFFD8525270F
:10459C0074047827121C61124752121449740212C7
:1045AC001C8AE960239081C2121F0A7A007B10904A
:1045BC000301E0F91213E37404121C8A900B3EE41D
:1045CC00F0791612125D802674096525701779171B
:1045DC0012125D900B3EE4F0FA7B20900301E0F99F
:1045EC001213EF80500525E525C3940A40907525DC
:1045FC00067526007825121EF7EEFCEFFD7A457B3A
:10460C000B1212877402121C8A7A007B2090030111
:10461C00E0F91213EF80179081B2121F0A7A007B17
:10462C0020900301E0F91213E37404121C8AAA23EC
:10463C00AB24121353AA21AB22024748EF5410604B
:10464C0050854182854283E4F0FA7B10900301E0AF
:10465C00F91213EF900B24E064017010121419ACD2
:10466C0041AD4279017A057B03121407900B3D741E
:10467C0001F0792112125D7C0A7D0079FF7A327B80
:10468C000B12144F900B3EE4F0EEFAEF641002475D
:10469C0041EF54407003024744900B5FE004F0F884
:1046AC00EF6440FF74F928C3940250327A277B0BD5
:1046BC00121455E9F521120459E521C3940B5056F7
:1046CC00792512125D9081B2121F0A7A007B4090FC
:1046DC000301E0F91213E37404121C8A8054E8C33A
:1046EC009407E8502C604B12045F7900120471900F
:1046FC000B5FE0F8C394024013900B65E0C0E074CC
:10470C002528F582E4340BF583D0E0F09081D68037
:10471C00B7C3940A401C900B5FE4F07C05FDF97A5A
:10472C00277B0B12144F7A007B40900301E0F912A7
:10473C0013EFEEFAEFFB80047A007B007407121C77
:10474C008A7F10021DB674452527FA740C3528FB98
:10475C002274452523F523740C3524F5247527067E
:10476C00752800782722F58374FFF07C077D00798B
:10477C000022852582852683E4F0A3F0A3F0A3F024
:10478C007C07FD79BBE52F22E0852182852283A35E
:10479C0022900B25E0F989237524007404782322D8
:1047AC0074F0121CE474F3121C74EAFE74016E6053
:1047BC0003024E53900303E0640160030248AF9080
:1047CC000B2CE060030248BA121203E990102DF092
:1047DC00F46051790012125D90102DE0C0E0900B46
:1047EC003EE0F8743228F582E4340BF583D0E0F027
:1047FC00900B3EE004F0900B2FE0700C7A027B00E3
:10480C00900301E0F91213EF900B5FE0600C7A005B
:10481C007B40900301E0F91213EF90820E121F0AF5
:10482C007A40800E900B2FE0701E9081B6121F0AFA
:10483C007A027B00900301E0F91213E37404121C5A
:10484C008A90102DE0F47012900B5FE060287A00D3
:10485C007B40900301E0F91212DB900B3DE0C39416
:10486C0002401390102DE0F4602D7A007B10900321
:10487C0001E0F91213EF90102DE0640A7019908189
:10488C008A121F0A7A007B02900301E0F91213E3EB
:10489C007404121C8A800C7A007B02900301E0F9EC
:1048AC001213EF900303E064016003024DFF9010BC
:1048BC002DE0F46072900B2CE0706C900B2FE0707C
:1048CC0003024DC69081D2121F0A7A007B0490031A
:1048DC0001E0F91213E37404121C8A900B3EE0FA07
:1048EC00900B3DE0603014607E1470030249B214EA
:1048FC007003024A85147003024AE7147003024CD9
:10490C0002147003024C5A147003024CA21470036C
:10491C00024D13024E53124E9F7003024D0BEAC30D
:10492C00940A4003024D0B7A807B00900301E0F95E
:10493C001213EF74106E6003024E79900303E07053
:10494C000C7A407B00900301E0F91212DB9081B6E7
:10495C00121F0A7A207B00900301E0F91213E37412
:10496C0004121C8A024E8574026A700B90102DE0A2
:10497C00640B70B3024D0BEAC3940340AA79301256
:10498C00125D900B3EE4F0900B3D04F07A007B043A
:10499C00900301E0F91213EF7A007B10900301E011
:1049AC00F91213EF8081EAC394025003024A539028
:1049BC00102DE0640B6003024A5374036A700512F5
:1049CC004EDE800B74026A700A900B32E024D09099
:1049DC000B25F0900B25124EF2121C61125D66E055
:1049EC00F485418285428370387401F07934121257
:1049FC005D121419AC41AD4279017A057B03121496
:104A0C0007900B247401F09081C2121F0A7A007B6C
:104A1C0010900301E0F91213E37404121C8A024B88
:104A2C00F3E4F0121419AC41AD4279017A057B0321
:104A3C00121407790612125D900B2574FFF0900B7F
:104A4C0024E4F0FA024BF5EAC39404501374036A9D
:104A5C00600302493390102DE0640B70030249335C
:104A6C00793012125D900B3EE4F0124EB6900B248E
:104A7C00124ED212144F02499874066A600302490E
:104A8C0033900B44E064BB752106752200782170CD
:104A9C002D121EF77C327D0B7A3F7B0B1212877422
:104AAC0002121C8A7C0A7D0079FF7A327B0B12146D
:104ABC004F900B3EE4F0790A12125D024933121E3C
:104ACC00F77C327D0B7A3F7B0B1214497402121C5B
:104ADC008AE96003024BC1790C8045EAC394024019
:104AEC004590102DE0640B703D74036A7005124EF6
:104AFC00DE800B74026A700A900B32E024D0900BAB
:104B0C0026F0900B26124EF2121C61124E8F600E84
:104B1C00791012125D900B26124EB9024D64790E6B
:104B2C0012125D024BF3900B26E0F8EAC39404409A
:104B3C001474FF68700F793012125D900B3D740184
:104B4C00F0A3024A7C74066A6003024933900B445A
:104B5C00E064BB703A74FF68700302493375210638
:104B6C007522007821121EF77C327D0B7A3F7B0B6D
:104B7C001212877402121C8A7C0A7D0079FF7A3229
:104B8C007B0B12144F900B3EE4F0790F024AC47465
:104B9C00FF687003024933752106752200782112D3
:104BAC001EF77C327D0B7A3F7B0B1212997402122A
:104BBC001C8AE9600F7A007B04900301E0F9121261
:104BCC00DB024D71790C12125D900B2674FFF07C98
:104BDC00067D0079BB7A3F7B0B12144F900B3D7412
:104BEC0001124EC312144F7A007B04900301E0F9BA
:104BFC001213EF024D719081667407121CDA740661
:104C0C00121B8790102DE0640B702774016A7022C0
:104C1C007521067522007821121EF77409121CDA10
:104C2C007A457B0B1214497402121C8AE9705302E8
:104C3C004DB7EAC394024003024D7F74016A6003CE
:104C4C00024933E0640B6003024D7F0249339081CB
:104C5C007E7401121CDA7406121B8774026A702AA5
:104C6C007521067522007821121EF77403121CDAC6
:104C7C007A457B0B1214497402121C8AE9700302E8
:104C8C004DB7791212125D024D71EAC394035003B1
:104C9C00024933024D7F90102DE0640B7048EAC33B
:104CAC009402404274036A7005124EDE800B74024B
:104CBC006A700A900B32E024D0900B26F0900B26F1
:104CCC00124EF2121C61124E8F700D791C12125D75
:104CDC00900B26124EB98005791A12125D124ECF26
:104CEC0012144F024933EAC394044003024D7FE08F
:104CFC00640B600302493374016A60030249339008
:104D0C000B3EE4F0024DB7EAC39402406090102DC4
:104D1C00E0640B705874036A7005124EDE800B74DD
:104D2C00026A700A900B32E024D0900B25F0900BA5
:104D3C0025E0F9892175220074047821121C611276
:104D4C005D66E0F46003E9700A791C12125D124E84
:104D5C00B68012791E12125D7C0A7D0079FF7A32C0
:104D6C007B0B12144F900B3EE4F0024933EAC394D0
:104D7C00044025793012125D900B3D7401F0A312A2
:104D8C004ED212144F7A007B10900301E0F91213EB
:104D9C00EF7A007B040249A874016A60030249336C
:104DAC0090102DE0640B60030249337A007B049071
:104DBC000301E0F91212DB024933900B3EE0FA12C8
:104DCC004E9F6006EAC3940A40067A007B0880DF97
:104DDC00EAC3940650030249339081B6121F0A7A33
:104DEC00007B08900301E0F91213E37404121C8A8F
:104DFC00024933900B3EE4F0900B55E0C39406400F
:104E0C003F12107D7A817B081210898A218B228CAB
:104E1C00238D24900B567825121B2C90818E78258F
:104E2C00121AA5782579211214E2404D900B5512D7
:104E3C004EADA3F0908192121F0A7A407B0080A3A2
:104E4C007A407B00024DBB74026E600302493390C2
:104E5C000303E0700C7A407B00900301E0F912121E
:104E6C00DB7A807B00900301E0F91212DB7A207B65
:104E7C0000900301E0F91213EF740D121C8A7F08E5
:104E8C00021DB674A52521F582740B3522F583E03D
:104E9C0064BB2274312AF582E4340BF583E0640B95
:104EAC0022E4F0A3F0A3F0A3F022900B2574FFF002
:104EBC00900B3D7401F022F07C0A7D0079FF7A3270
:104ECC007B0B22900B3EE4F07C0AFD79FF7A327B5F
:104EDC000B2275F00A900B32E0540FA4F8A3E054A7
:104EEC000F2822900ED0E0F5217522007404782151
:104EFC002274F4121CE474F1121C748921E91460FC
:104F0C0010147003024FA624FD7003024FD40250FC
:104F1C00487409121CDA7A047B0312140D740912FA
:104F2C001CC0E0C0E07401121CC0D0E0F0740A1286
:104F3C001CC0E0C0E07402121CC0D0E0F0740B1274
:104F4C001CC0E0C0E07403121CC0D0E0F074051269
:104F5C001CC0E4F07404121CC0E4F0740E121CC0EB
:104F6C00E0C0E07408121CC0D0E0F0740D121CC03C
:104F7C00E0C0E07407121CC0D0E0F0740C121CC02E
:104F8C00E0C0E07406121CC0D0E0F07401121CDA10
:104F9C007A087900121011025048854182854283AB
:104FAC00E4F07A04FB900301E0F91213EF90030391
:104FBC00E06003025048121419AC41AD4279017AF9
:104FCC00057B031214078074900B24E06401703B82
:104FDC007A107B0012134D8A238B24AE23AF248EC0
:104FEC00828F837401F0A3744FF08E828F83A3A3FE
:104FFC00744B12505C1210297A047B00900301E070
:10500C00F91213EFEEFAEFFB121353900B22E07030
:10501C001F900B24E07019908196121F0A7A047B62
:10502C0000900301E0F91213E37404121C8A800C43
:10503C007A047B00900301E0F91213EFE521900351
:10504C0002F0740F121C8A7F04021DB6E9900B53F8
:10505C00F0EEFCEFFD7A1079012274F4121CE4746A
:10506C00FF121C747A087B0012134D8A218B22AE1E
:10507C0021AF22854182854283E4F0900B22E060CF
:10508C0023900B2DE06401701B900B5CE0701512EB
:10509C001419AC41AD4279017A057B0312140790C7
:1050AC000B2DE4F0EEFAEFFB1214AFE97003025192
:1050BC003F7A00EAF8EE28F582E43FF583A3E0702E
:1050CC00037430F00AEAC3940640E8752100752396
:1050DC00067524007823121EF78E828F83A3AC8270
:1050EC00AD8385212374047823121C617445252318
:1050FC00FA740C3524FB1214497402121C8AE960F0
:10510C001B121491900ED17403F0E521A3F07A10C8
:10511C007B00900301E0F91212DB80177409652102
:10512C007008121497790112125D0521E521C394C0
:10513C000A409BEEFAEFFB121353740102505074A9
:10514C00F0121CE4900303E064016003025D46E985
:10515C00600A24FE700302577D025D467A2A7B03A7
:10516C00790012102F75211A7522037821121EF75F
:10517C007C2A7D037AC57B0F120B1F7402121C8ACA
:10518C007C5E7D0A7AC479801213BF90031AE014F6
:10519C00601D14700302538A1470030254A624FB7E
:1051AC00700302571F24F87003025765025D4675A1
:1051BC002300AE238E2175220074047821121C6109
:1051CC00745E2521F521740A3522F522E52124117E
:1051DC00F525E43522F52675270675280078271263
:1051EC001EF77C1B7D03AA25AB26121449740212F0
:1051FC001C8AE970030252FC9003047401F012043F
:10520C005F7901120471120459EE900BA3F07A0429
:10521C007B00900301E0F91213EFEE900B22702744
:10522C00125D926025900B2FE0701F125DD87A2EC4
:10523C007B10120495E9900B53F07C2E7D107A10A4
:10524C00790112102980037402F0E5212417F8E487
:10525C003522F9E8FAE9FB900321E0FE540FFC8AB1
:10526C00828B83E0540F6C7001E46002EEF0740FDB
:10527C005EF8740168700B900B237401F0900B2E88
:10528C00800A7402687006900B237402F074F05E4E
:10529C00703090033A7421F0E523A37004741180EC
:1052AC00027421125DB0121029900B24E06401707D
:1052BC0011900B3D7401F0A3E4F0793312125D02EE
:1052CC005D46900321E054F064306003025D46E5D6
:1052DC00212410F582E43522124772AA25AB26123E
:1052EC00144F900B23E4125D88900B5E04025D4515
:1052FC0074096523702F900B24E0640170277521CD
:10530C00077522007821121EF77C1B7D037A4C7BDB
:10531C000B1212877402121C8A7A007B0490030110
:10532C00E0F91212DBEE75F006A4FEAFF074672EF6
:10533C00FE740B3FFF7521067522007821121EF7B3
:10534C007C1B7D03EEFAEFFB1214497402121C8ACB
:10535C00E9601C90033A74CCF0A3F0A3125DB01278
:10536C0010297C067D007900EEFAEFFB12144F0534
:10537C0023E523C3940A4003025D460251BE900B01
:10538C005CE090034AF0900B53E0901040125DD01B
:10539C006003025D467521037522007821121EF709
:1053AC007C1B7D037A3E7B101214497402121C8AFA
:1053BC00E9607D900B53E4F0780090034AE0A2E0A2
:1053CC00505EE8601414601814601C1460201460A3
:1053DC002414602814602C804790104E744180284F
:1053EC0090104E7442802190104E7443801A90108D
:1053FC004E7444801390104E7445800C90104E7473
:10540C0046800590104E7447F07C0379007A4E7BF1
:10541C0010120495E9900B53F07C4E7D10025C60E9
:10542C00E0C313F008E8C394074003025D46808A8A
:10543C00900B5DE0F87003025D46900B53E4F0E8CE
:10544C0014601514601924FE601C24FC601F24F8E1
:10545C00602224F06025802990105E744180219098
:10546C00105E7442801A90105E7443801390105E2C
:10547C007444800C90105E7445800590105E7446E8
:10548C00F07C5E7D107A1079011210297C03900B50
:10549C0053E0F97A5E7B10025715752102752200D4
:1054AC007821121EF77C1B7D037A3E7B1012144967
:1054BC007402121C8AE97003025D46900B22E064B0
:1054CC00016003025D4690031DE0F8A3E024BF6079
:1054DC00241460701470030255881470030255D2A2
:1054EC0014700302561A14700302566914700302E6
:1054FC0056B2025D46900B53E0687040E4F07521A3
:10550C000185212575260074047825121C61746EA2
:10551C002525FE740A3526FF7C08125DFF120495C2
:10552C001250581210290521E521C3940A40D2903B
:10553C000B5CE0C2E0F0A37401025D45125D827465
:10554C00410256FE900B53E0687029E4F07C06F99A
:10555C007A5E7B0A120495E9900B53F07C5E7D0A0F
:10556C007A107901121029900B5D7402125D94C2AD
:10557C00E1025D45125D8274420256FE900B53E0CF
:10558C0068703BE4F07521008521257526007404B4
:10559C007825121C6174A52525FE740B125DFA1278
:1055AC0004951250581210290521E521C3940A4084
:1055BC00D7900B5CE0C2E2F0A37404025D45125D6F
:1055CC008274430256FE900B53E0687039E4F07518
:1055DC00210085212575260074047825121C611282
:1055EC005D497C06125DFF12049512505812102969
:1055FC000521E521C3940A40D9900B5CE0C2E3F08D
:10560C00A37408025D45125D8274440256FE900B31
:10561C0053E0687040E4F075210085212575260063
:10562C0074047825121C6174D32525FE740E35265E
:10563C00FF7C09125DFF12049512505812102905B7
:10564C0021E521C3940F40D2900B5CE0C2E4F0A39F
:10565C007410025D45125D8274450256FE900B5328
:10566C00E068703BE4F075210085212575260074F7
:10567C00047825121C6174E62525FE740C125DFA63
:10568C001204951250581210290521E521C3940AD1
:10569C0040D7900B5CE0C2E5F0A37420025D45128C
:1056AC005D827446804C900B53E0687040E4F0903F
:1056BC000B5CF0A3F01214677A0A7B001211D975F7
:1056CC0021D075220E7821121EF77CF47D00900BF0
:1056DC0020E0FAA3E0FB1211977402121C8A7A02E2
:1056EC007B00900301E0F91212DB025D46125D8231
:1056FC007447F07C6E7D107A1079011210297C03AE
:10570C00900B53E0F97A6E7B10120495E9900B53D1
:10571C00025D4512107D90031BE0900881F0900310
:10572C001CE0900882F090031DE0900883F0900339
:10573C001EE0900884F090031FE0900885F0900321
:10574C0020E0900886F012107790033A7416F0A3BC
:10575C00744BF0A3744F025C5BA3E0644F600302D4
:10576C005D46A3E064506003025D46900B2E025927
:10577C005812107D900B54E4F07A2A7B03790212B4
:10578C00102F75211A7522037821121EF77C2A7DA1
:10579C00037AC57B0F120B1F7402121C8A90031B19
:1057AC00E0FE8E2175220074047821121C61A82160
:1057BC00A922A3E0F52390031AE0146039147003B6
:1057CC000258681470030258C51470030258FD1473
:1057DC0070030259801470030259C5147003025AE5
:1057EC001C147003025B72147003025C6A14700365
:1057FC00025D41025D46745E28FE740A39FFEE2498
:10580C0010F521E43FF522900B54E0F97C08AA2115
:10581C00AB22120495125DCB703AE523687035907B
:10582C000B5E7401F0852182852283124774EE246D
:10583C0011FAE43FFB12144F90033A7403125DE922
:10584C00125DB01210297C5E7D0A7AC47980121325
:10585C00B9025D4690033A74500258F2900B54E032
:10586C00F97C067A5E7B0A120495125DCB7042EECF
:10587C0068703E900B5E7401F07C067D0079007AB6
:10588C005E7B0A12144F7521067522007821121EB8
:10589C00F77C7E7D107A5E7B0A1212877402121CD2
:1058AC008A90033A7404F0900B54E090033B025C32
:1058BC005B90033A7451025C5774A528FE740B3943
:1058CC00125E20120495125DCB7016E523687011E0
:1058DC00125DBA12144F90033A7405125DE9025C22
:1058EC005B90033A7452F0A374FFF0A374CC025C87
:1058FC005B900B22E064016003025D46752100851C
:10590C00212575260074047825121C61125D4975D9
:10591C0025067526007825121EF77C1B7D03EEFAF2
:10592C00EFFB1214497402121C8AE960247C067D78
:10593C000079FFEEFAEFFB12144F90033A7406F065
:10594C00A3744B125DB0121029900B5E7402025DB1
:10595C004574096521700F90033A7453F0A374FFDA
:10596C00125DB01210290521E521C3940A400302EF
:10597C005D46808B900B54E0F97C067A1B7B0312FE
:10598C000495125DCB702A900321E0687023900B74
:10599C005E7401125DA6121EF77C1B7D037A5E7B82
:1059AC000A1212877402121C8A90033A7407025C62
:1059BC004C90033A7454025C57900B54E0F97C07FA
:1059CC007A1B7B03120495125DCB703C900322E092
:1059DC00687035900B5E7402F075210775220078A3
:1059EC0021121EF77C1B7D0390031BE0F521740430
:1059FC007821121C61125D541212877402121C8AD7
:105A0C0090033A7408025C4C90033A7455025C574C
:105A1C00900B54E0F97C087A1B7B03120495125D01
:105A2C00CB6003025B6A900323E0686003025B6A4D
:105A3C0090031CE0FC8C2175220075F007A4F8A9DA
:105A4C00F074A428FA740B39FB90031BE024CF608C
:105A5C001214604E147003025AEA147003025B2392
:105A6C00025D46900B5E7402F074047821121C6186
:105A7C0074A42521FA740B3522FBEA2442F582EB3F
:105A8C003401F583EC125DA6121EF77C1D7D03EA32
:105A9C002443FAEB3401FB1212877402121C8A02A3
:105AAC005B62900B5E7402F0EA24E2F582EB340147
:105ABC00125D78121EF77C1D7D03EA24E3FAEB34A9
:105ACC0001FB1212877402121C8A7A817B08121055
:105ADC0089125E09121C61125D5F740E8070900B4E
:105AEC005E7402F0EA2428125D73121EF77C1D7D91
:105AFC0003EA2429FAEB3402FB1212877402121CFB
:105B0C008A7A817B08121089125E09121C617480DA
:105B1C00125D61740E8037900B5E7402F0EA246E95
:105B2C00125D73121EF77C1D7D03EA246FFAEB34B1
