:020000040000FA
:0600000002011A02279321
:03002B00022EFCA6
:030053000228067A
:03007B00022EC191
:100083000225FFE5C754F84401F5C77901220000B2
:100093000080FB120086B90003020104E47944786E
:1000A30008B800028004F709D8FCE4794C7802B858
:1000B30000028004F709D8FCE49003017897790DD6
:1000C3008002F0A3D8FCD9FA784390014A7A01BAA6
:1000D30000028007E493A3F608DAF97A977B0F907E
:1000E300014B784A79048015E493A3AD82AE838AE9
:1000F300828B83F0A3AA82AB838D828E83D8E9D9C6
:10010300E77582B77583E1740312012C75829175CB
:100113008300740012012C75D00075817F75410135
:10012300754203759F00020096C09FF59FE473D04C
:100133009F22D083D082C09FE493C0E0740193C018
:10014300E0740293F59F220101030507FFFE778800
:1001530012993241142425360D0947656D696E697C
:100163002D424131303005120A001400020A000208
:1001730001060302E0FF2A2A47656D696E692D4275
:10018300413130302A2A0000000000C4040000D0AE
:10019300040A0B310B320B330B340B350B360B0AC2
:1001A3000A02534A000000000000000000000000A3
:1001B30000FFFFFFFFFFFFFF02534A0000000000A4
:1001C30000000000000000004F4B00000000000092
:1001D300000000000000000000534A00000000007F
:1001E3000000000000000000004357000000000072
:1001F3000000000000000000004357000000000062
:1002030000000000000000003132333435361F4B4C
:100213004F00000000000000000000000000FF008D
:1002230000B4000028002800283075A000A000A01A
:1002330000A00000080008E001F00010001000100A
:10024300001000100010005000500050001000106B
:1002530000D0070000000000000F0001000500307F
:100263007507001000010081FF00000000FFE00699
:10027300FE06E606FF02020208025000A00000008C
:10028300E803022A820100001082024C820100006E
:10029300C4100234820100006D03024C820100008D
:1002A300C5100236820100008303024C8201000064
:1002B300C6100238820100008503024C820100004F
:1002C300C710023A820800008603024C8201000034
:1002D300C810023C82010000C910FF0100FF200288
:1002E3002A820100001382024C820100002D1102B8
:1002F3003E820000000000023282030000D303E0CC
:100303000CE00CE00CE00CE00CE00CE00CE00CE08A
:100313000CE00CE00CE00CE00C740F8C0F6E0F0281
:100323000202020202020202010D00000010010299
:100333002A820100000A82024C820100006E11022F
:100343004282010000FA07024C820100006F110291
:100353004E820100002581024C82010000701102CF
:1003630040820100000981024C82010000711102E8
:1003730024820100008180024C820100007211027C
:1003830022820100009380024C820100007311025B
:100393002082010000B780024C8201000074110228
:1003A3001E82010000A580024C820100007511022B
:1003B3001C820100001781024C82010000761102A9
:1003C3004A8201000077110A4368617261637465B0
:1003D30072697374696320310016436861726163E3
:1003E30074657269737469632032000A43686172C9
:1003F30061637465726973746963203300022A82CE
:100403000100001982024C8201000016120246828A
:1004130003000004080230820100001712024C821C
:100423000100002812022E82030000140802328207
:1004330003000025080230820100002912024C82C9
:100443000100003A12023A810300002B08023082B5
:100453000100003B1201E803053F100AFFFFFF0004
:1004630001307503020106000000000000000000D7
:100473000000000000000000000000000000000079
:10048300000000FFFF0600800CE8033132333435EF
:100493003612013510E50312013524E50312013547
:1004A30026E5031201352BE5031201354A2F00120D
:1004B30001357C31001201357533001201350247D5
:1004C30000120135744E00120135E04F0012013560
:1004D300C55000120135155E00120135585E001239
:1004E300013598D403120135AFD403120135E0D49A
:1004F300031201351BD50312013545D5031201350E
:100503006FD50312013586D5031201359DD503122C
:100513000135B4D503120135DDD503120135F0D50C
:100523000312013506D60312013519D6031201351C
:1005330040D603120135C0EC02120135C4ED02129C
:100543000135FCED021201351FEE021201352AEED0
:10055300021201354DEE021201355CEF0212013534
:1005630031F002120135ACF00212013534F10212FE
:1005730001356FF102120135A6F10212013534F291
:10058300021201350DF3021201356DF3021201352A
:1005930078F302120135F7F302120135FAF302126E
:1005A3000135FDF3021201358CF4021201358FF48B
:1005B30002120135BFF402120135E9F402120135CA
:1005C300D7F50212013589F602120135DB970312C2
:1005D30001350398031201353198031201356898E8
:1005E30003120135C698031201351199031201351F
:1005F3005C99031201359C9903120135E2990312A8
:100603000135109A03120135CD9A03120135D79A99
:1006130003120135E49A03120135179B03120135C6
:10062300E39B03120135EF9B03120135079C031271
:100633000135119C031201355CDF031201356ADFBA
:100643000312013582DF031201359ADF03120135EC
:10065300008002120135AC8002120135278102129B
:1006630001354882021201358482021201352D833D
:100673000212013514840212013578850212013504
:10068300CF850212013550860212013540870212CE
:1006930001358D8702120135138802120135458811
:1006A30002120135598A021201359B8A0212013561
:1006B300B98A021201353C8B02120135108C0212E9
:1006C3000135D88C0212013551F80112013524F994
:1006D30001120135CDF90112013520FA011201355C
:1006E300D0FA011201355CFB0112013548FC0112FD
:1006F300013577FC011201358AFD01120135D2FD66
:1007030001120135A7FE01120135E3FE0112013585
:10071300FFFE0112013574FF0112013501BA031204
:10072300013517BA031201353DBA0312013559BB1E
:100733000312013563BB0312013598BC0312013563
:1007430090BD03120135B49203120135E4930312F1
:10075300013517940312013561940312013528966C
:100763000312013562E801120135CCE801120135AB
:100773002BEA011201353BEA0112013568EA011245
:100783000135BFEA0112013568EB011201356FEC47
:100793000112013539ED0112013599EE01120135CE
:1007A300DCEE0112013581EF01120135CEEF0112AA
:1007B3000135F4EF0112013502F20112013507F29E
:1007C300011201350CF40112013559F401120135FE
:1007D300CCF401120135FFF401120135A1F5011228
:1007E30001354AF60112013582F60112013585F60B
:1007F30001120135CDF6011201350DF70112013554
:1008030064F70112013573C6031201358BC6031257
:100813000135D3C603120135E9C60312013530C7CA
:100823000312013544C803120135D1C8031201353F
:100833001CC903120135DD5F00120135E95F0012A7
:100843000135246000120135696000120135296108
:1008530000120135AF6100120135DB610012013571
:10086300146200120135526400120135366600121B
:1008730001351C68001201355F6900120135AD6B4B
:1008830000120135BF6C001201350A6E00120135EA
:100893001A6F00120135376F00120135726F0012A3
:1008A3000135946F00120135F76F00120135B874EA
:1008B300001201354D75001201359E750012013588
:1008C300C575001201351776001201353576001211
:1008D30001358F76001201358E77001201351278BB
:1008E30000120135568D03120135608D0312013557
:1008F300A38D03120135BE8D031201354E8E0312F3
:100903000135768E03120135B38E03120135EA8E5B
:1009130003120135138F03120135888F031201353A
:100923009D8F03120135B28F03120135E38F03123A
:100933000135F78F031201351C90031201355690D0
:1009430003120135829003120135BA900312013567
:10095300199103120135989103120135C3910312C2
:100963000135EE910312013537920312013561927D
:10097300031201358C920312013549DC0312013550
:10098300BFD402120135EDD4021201353BD6021257
:1009930001351BD7021201353AD702120135B7D7F9
:1009A30002120135FAD70212013550D9021201356C
:1009B30011DA0212013598DC0212013539DD021217
:1009C30001352FDE021201352CDF0212013586E0DC
:1009D3000212013511E10212013595D903120135D5
:1009E300FED90312013552DA0312013579DA031203
:1009F3000135AADA0312013580A503120135EDA5ED
:100A03000312013534A6031201354CA70312013535
:100A130048A8031201352BA903120135FAF6021275
:100A230001353CF7021201350EF802120135E7F8E1
:100A330002120135E1F902120135C3FA021201353E
:100A43002CFB02120135E2FB0212013556FC0212A5
:100A53000135C2FC02120135EBFC0212013565FDC2
:100A630002120135FEFD0212013563FE0212013549
:100A730078FE02120135BEFE02120135D7FE0212C4
:100A830001353CFF021201353FFF021201359AC0C6
:100A930003120135C2C00312013500C1031201352F
:100AA300BEC10312013525C20312013541C203122F
:100AB300013569C20312013599C203120135A8C277
:100AC3000312013525C3031201354BC3031201354C
:100AD300A8D70112013586D901120135B8DB0112FD
:100AE3000135F4DB0112013521DC011201350BDD87
:100AF3000112013556DD01120135A1DD0112013567
:100B0300B3DD01120135F3DD0112013528DE0112D7
:100B1300013576DE01120135A5DE01120135C8DE8D
:100B23000112013515DF011201359ADF011201357A
:100B3300B4E101120135F3E30112013534E401128A
:100B43000135D6E50112013517E6011201358AE6B2
:100B530001120135DBE601120135B6E70112013559
:100B6300E0E70112013515E80112013540E80112F1
:100B73000135AAC702120135A8C80212013541CFB7
:100B83000212013562D1021201352DD30212013551
:100B930095D40212013556820112013505830112E3
:100BA3000135328301120135788301120135AE8498
:100BB30001120135DC8401120135728601120135FF
:100BC300EC86011201350787011201358287011274
:100BD3000135DC88011201353C8A01120135428B53
:100BE30001120135A38C01120135BC8C01120135B0
:100BF3001A8D01120135088E011201353B8E011247
:100C03000135AB8E01120135258F011201356F8F2E
:100C1300011201353990011201350E91011201358E
:100C2300ED9101120135789201120135E69201121C
:100C330001355A930112013585930112013544940C
:100C430001120135A99501120135C695011201352D
:100C5300E59501120135D69601120135FB96011275
:100C63000135259701120135A09701120135FA9735
:100C730001120135639901120135119A01120135EF
:100C8300529A011201355D9D02120135AB9D02128C
:100C93000135B79D02120135959E02120135C69E9C
:100CA30002120135F79E02120135779F02120135B8
:100CB300F59F021201352DA0021201357FA0021209
:100CC3000135BCA002120135D9A202120135FFA4DD
:100CD30002120135EAA602120135D4A80212013527
:100CE300F37F0012013591AF01120135C1AF01123B
:100CF30001359AB6011201351FB8011201351CBE28
:100D03000112013504BF0112013541BF0112013542
:100D130064BF0112013595BF011201359EBF011257
:100D23000135A8BF0112013596C0011201358CC1EE
:100D330001120135829A01120135819E011201359A
:100D4300879E01120135C2A501120135DBAA0112EA
:100D5300013533B603120135C9B603120135DFB6C7
:100D63000312013555B703120135C9B70312013513
:100D730007B8031201357BB803120135F4B8031227
:100D83000135FDB80312013509B9031201351EB946
:100D9300031201355CB90312013572B9031201352F
:100DA300D1B903120135EDA903120135FAA90312D2
:100DB300013514AA0312013553AA0312013591AA6E
:100DC30003120135F6AA031201350BAB03120135E9
:100DD30016AB0312013523AB031201353AAB0312F1
:100DE300013548AB0312013553AB031201355FAB39
:100DF300031201356EAB0312013579AB03120135D2
:100E03009CAB0312013543AC0312013553AC0312FF
:100E130001356DAC031201358AAC03120135A6AC62
:100E230003120135CBAC03120135D6AC03120135E5
:100E3300EBAC03120135FFAC0312013560AD0312B5
:100E4300013566AD031201356CAD0312013572AD88
:100E5300031201358AAD03120135BDAD031201350D
:100E6300B4AB0212013538AC02120135E7AC021201
:100E7300013546AE0212013567B00212013553B196
:100E83000212013588B102120135AAB102120135ED
:100E930059B20212013551B4021201357AB4021269
:100EA30001350CB5021201353EB5021201354BB5C1
:100EB30002120135A2B502120135C8B5021201357D
:100EC30035B80212013538B90212013590B9021250
:100ED3000135F18E02120135FB8F02120135E290CA
:100EE30002120135EC90021201350E910212013506
:100EF3001A9102120135B39202120135E2920212E3
:100F03000135FE9302120135579402120135BD9546
:100F1300021201359C9602120135F8960212013530
:100F2300659702120135A09702120135DF9702126D
:100F33000135989A02120135B29A021201353E9B8D
:100F4300021201354C9B02120135A59B0212013599
:100F5300B39B02120135269C021201358A9C0212B0
:100F63000135D49C0212013592E102120135B4E13C
:100F730002120135DAE302120135EFE602120135FE
:100F830007E802120135BAE8021201359CE90212A0
:100F9300013552D60312013577D603120135E9D64E
:100FA3000312013579780012013582780012013578
:100FB3008B7800120135627900120135137B001220
:100FC3000135497B00120135837B00120135B97B62
:100FD30000120135F37B00120135277C0012013525
:100FE300537C001201359C7C00120135D67C001223
:100FF30001351F7D00120135777D00120135AC7D6F
:1010030000120135077E00120135417E00120135C1
:10101300927E00120135C87E00120135027F001254
:101023000135307F00120135537F001201356DE227
:101033000312013599E203120135F4E2031201357B
:10104300FEE2031201350EE30312013546C9031212
:1010530001356BC90312013595C90312013538B245
:10106300031201357DB2031201359AB20312013521
:1010730080B303120135D3B303120135A8B40312AD
:101083000135FAB5031201359ABD03120135B5BD19
:1010930003120135E4BD03120135EABD0312013524
:1010A300F0BD031201351DBE0312013542BE03120A
:1010B300013559BE031201356EBE03120135C2BE9E
:1010C300031201353BBF031201355BBF0312013528
:1010D300C9E403120135A4C30112013506C6011286
:1010E3000135BDC701120135BAC8011201354AC91C
:1010F30001120135D1C901120135F6C901120135B9
:1011030037CD01120135ADCD011201359CCE01124F
:101113000135D6CE0112013516CF01120135BCD0EF
:101123000112013511D1011201355ED101120135D0
:10113300CCD101120135F2D1011201350CD20112C9
:10114300013522D30112013532D30112013543D4C3
:101153000112013558D4011201358ED40112013523
:101163000FD6011201354ED60112013573D7011284
:10117300013520E303120135B8E30312013580E49E
:1011830003120135BFE403120135DFE50312013514
:10119300FEE0031201350EE1031201351DE10312D6
:1011A3000135B1E10312013562DD03120135E6DDDC
:1011B300031201354CDE0312013510A10312013570
:1011C30047A10312013568A103120135D8A1031207
:1011D300013544A2031201359BA303120135F0DA52
:1011E3000312013518DB031201358CDB03120135C1
:1011F300A3DB03120135F3DB031201353DDC0312DC
:10120300013540DC03120135B7E503120135C7E5AB
:1012130003120135CAE50312013593C303120135E5
:10122300D7C303120135EDC30312013508C40312FA
:10123300013523C4031201356EC403120135BDC445
:1012430003120135FDC403120135DFC50312013555
:1012530029C603120135F87F0012013552CE03125D
:101263000135DACF031201353BD00312013581D0AA
:10127300031201356EE50312013581E503120135D1
:1012830085E5031201358CE5031201358EE5031262
:10129300013522E40312013528E40312013576E413
:1012A3000312013533E0031201355CE0031201350B
:1012B30085E0031201359DE003120135DFE00312DF
:1012C3000135D68703120135E087031201352088E3
:1012D30003120135698803120135A388031201350E
:1012E300F988031201351889031201352189031284
:1012F30001357289031201359B8903120135A589D2
:1013030003120135168A03120135A48A031201352B
:10131300F98A03120135278B03120135A38B0312BC
:101323000135E68B03120135238C03120135358C0D
:1013330003120135548C031201355D8C0312013500
:101343002A8D03120135C3E303120135F7D70312C4
:10135300013548D803120135D1D80312013537D9E5
:101363000312013512CC031201353CCC03120135B3
:1013730005CD03120135E0CD0312013565DE0312FD
:10138300013596D203120135CCD20312013505D3B0
:10139300031201355ED40312013563FF02120135D6
:1013A30079FF0212013583FF02120135CDFF0212CC
:1013B3000135008003120135BD8003120135F88029
:1013C3000312013520810312013582810312013595
:1013D300CE8103120135398203120135B58203121E
:1013E3000135B18303120135388503120135BB85FD
:1013F300031201351F8603120135368603120135A8
:101403002C8703120135788703120135989C031248
:101413000135AD9C031201355D9D031201359D9D80
:1014230003120135B69D03120135E99D03120135FF
:10143300369E031201356A9E03120135AC9E0312D8
:101443000135AAA003120135DEB9021201353BBDF5
:1014530002120135C3BE021201351ABF0212013551
:1014630039BF02120135B7BF0212013547C102125B
:1014730001352BC20212013537C60212013507C7E7
:10148300021201353AAE031201358BAE0312013558
:1014930024AF031201354CAF03120135CFAF031252
:1014A30001352DB00312013545B10312013586B163
:1014B3000312013584D00312013593D00312013591
:1014C300BED003120135C4D003120135CAD00312B2
:1014D3000135E5D003120135ECD003120135F3D009
:1014E30003120135F7D00312013586D103120135FA
:1014F300D5D103120135CDE503120135D6E503122B
:10150300013542E50312013599E503E066701008E1
:10151300A3E066700A08A3E066700408A3E06622ED
:10152300C3E7960809E7960809E7960809E79622AC
:10153300C3E09608A3E09608A3E09608A3E09622EA
:10154300C021C3E096F52108A3E096422108A3E059
:1015530096422108A3E09645217001D3D02122E9C8
:10156300799EC608CAC608CBC608CCC6C370207904
:1015730096CACBCC7019798ECBCC70137986CC708C
:101583000EF9802ACA33CACB33CBCC33CC331930D0
:10159300E7F2CCCBCA3350147004EA30E00DE4CA4E
:1015A3003ACACB3BCBCC3CCC500209C3E913C6CCE3
:1015B300182313C6CB18C6CA18C6F9221215FF2062
:1015C300F01430E72B74FFFCFBFA747F8022E4FCF9
:1015D300FBFA7480801AB48008BC00F2BB00EF8071
:1015E3000F50EBF9E4C39AFAE49BFBE49CFCE49907
:1015F300C6CC18C6CB18C6CA18C6F922E4C9C60891
:10160300CAC608CBC6D3330308CCC63392F0C394FF
:101613007F402E94184019C9B90704CACBCC225075
:1016230025C309CA33CACB33CBCC33CC33D9F42249
:10163300F4600DC9CCC313CB13CBCA13CAD9F6CCF0
:1016430022E4FCFBFA2214FCFBFA22E626184618D5
:1016530046184622E7271947194719472218181829
:10166300E60846087009E626087005E633F4220802
:1016730022191919E70947097009E727097005E7CE
:1016830033F4220922E6084608C3134608336002EE
:10169300E633F422E7094709C3134709336002E736
:1016A30033F4221216886025121697602012164E04
:1016B3007003021657080808E76670101819E766E2
:1016C300700A1819E76670041819E76622F42212E3
:1016D3001688601C121697601712164E70071216A2
:1016E300577001D322C0D01216577006D0D0B32240
:1016F300C32233D0D0501430E0F6C3E7960809E78D
:10170300960809E7960809E796B32220E0D5E697FD
:101713000809E6970809E6970809E697B32212161F
:1017230088601B121697601612164E700712165712
:10173300600CB322C0D01216577005D0D022C3223A
:1017430033D0D0501330E0EBC3E7960809E796088F
:1017530009E7960809E7962220E0E4E6970809E6F8
:10176300970809E6970809E697221216976046122A
:101773001688603DE9687008F618F618F618F62220
:10178300748067F71217A1090909748067F7221299
:101793001688601D1216977005191919801A1216EA
:1017A30060701F121674C37003E66733191919406A
:1017B300071818182208080874FFF618F618F61800
:1017C300F6221216746017121657702192F0121631
:1017D3004E7019501720F014080808090909E7F694
:1017E3001819E7F61819E7F61819E7F62212164E34
:1017F30060E6E869701F0808E62480F608E436F618
:1018030018547FB47F0CE654806007F6E418F6188A
:10181300F622181822E9C6CC08C6CD08C6CE08C6DB
:10182300CFC0E0E8C0E0EAC0E0EBC0E009E9F809B6
:10183300E7FA09E7FBE6F918E6F8C3EC98ED99EE49
:101843009AEBC2E7F5F0EFC2E795F0500E600CEBB0
:10185300CFFBEACEFAE9CDF9E8CCF8EAA2E7D2E782
:10186300FAEB33FB13F5F0EEA2E7D2E7FEEF33FF1B
:10187300C5F013A2E730E601B313C5F0C3C0E0C05F
:10188300F07F00C39BFB605E9418600F401D1460E3
:101893001AD0E023F9D0E0F80219738AF0E948601E
:1018A30003D2F0E4AFF0FAF9F8803BEB30E40D89B2
:1018B300F0EA6003D2F0E4AFF0F9CAF8EB30E30DDD
:1018C30088F0EF6002D2F0AFF0E4CAC9F8EB540736
:1018D3006014FBC3EA13FAE913F9E813F8EF1350A2
:1018E30002D2E0FFDBEDD0E0C0E030E739C3E49F94
:1018F300FFF5F0EC98FC42F0ED99FD42F0EE9AFE14
:1019030042F0D0E0F9D0E0F8E5F0607AE923F9EEAF
:1019130020E742D8028067C3EF33FFEC33FCED339B
:10192300FDEE33FE80EAEC28FCED39FDEE3AFED005
:10193300E023F9D0E0F84002801BC3EE13FEED1361
:10194300FDEC13FCEF135002D2E0FF08B800067F52
:101953007F74FF802EEF3350178CF020F00260105D
:101963000CBC000C0DBD00080EBE000408E860DFCF
:10197300E933E813FFEE2313FE4F4D4C8008E9547F
:1019830080FFE4FEFDFCEE33EF33F47004FCFD7ED8
:1019930080D0E0FBD0E0FAD0E0F8D0E0CFC618CE9C
:1019A300C618CDC618CCC6F922080808EAC0E0EB71
:1019B300C0E086F0E7A4FA180986F0E7A42AFA182B
:1019C3000986F0E7A42AFA180986F0E7A42AFA1987
:1019D30086F0E7A4FBE5F02AFA190886F0E7A42BC2
:1019E300FBE5F03AFA190886F0E7A42BFBE5F03A99
:1019F300FA18180986F0E7A4C5F02BFBE43AFA19A4
:101A030008E7C5F0C6A426F6E5F03BFBE43AFA186E
:101A130086F0E7A4F6E5F00826F6E43B08F6E43A98
:101A230008F6D0E0FBD0E0FA22E4CFC0E0E4CEC079
:101A3300E0E4CDC0E0E4CCC0E075F020E626F60893
:101A4300E633F608E633F608E633F6181818EC33EF
:101A5300FCED33FDEE33FEEF33FFC3EC9709ED9757
:101A630009EE9709EF97191919400FFFEC97FC0935
:101A7300ED97FD09EE97FE191906D5F0BFECF709AE
:101A8300EDF709EEF709EFF7191919D0E0FCD0E0EB
:101A9300FDD0E0FED0E0FF226016080808C6C3139D
:101AA300C618C613C618C613C618C613C6D5E0EAA9
:101AB300227009080808226016181818C6C333C60E
:101AC30008C633C608C633C608C633C6D5E0EA22FD
:101AD300E627F60809E637F60809E637F60809E6C1
:101AE30037F622E026F608A3E036F608A3E036F63A
:101AF30008A3E036F622E026F008A3E036F008A3B8
:101B0300E036F008A3E036F022C3E697F60809E6CC
:101B130097F60809E697F60809E697F622C3E096D2
:101B2300F008A3E096F008A3E096F008A3E096F08F
:101B330022E657F60809E657F60809E657F60809B4
:101B4300E657F622E056F608A3E056F608A3E05659
:101B5300F608A3E056F622E056F008A3E056F00894
:101B6300A3E056F008A3E056F022E0F608A3E0F65F
:101B730008A3E0F608A3E0F622E6F008A3E6F008DF
:101B8300A3E6F008A3E6F022E0FAA3E0FBA3E0FC5F
:101B9300A3E0FD22EAF0A3EBF0A3ECF0A3EDF02227
:101BA300E0F8A3E0F9A3E0FAA3E0FB22E8F0A3E95D
:101BB300F0A3EAF0A3EBF022CAC0E0E6F0A308DA50
:101BC300FAD0E0FA22CAC0E0E0A3C582CCC582C540
:101BD30083CDC583F0A3C582CCC582C583CDC58320
:101BE300DAE6D0E0CA22C3E498F8E499F9121C2A91
:101BF3008026C3E49AFAE49BFBE920E7E9121C2A56
:101C0300E498F8E499F922C3E498F8E499F9121CEA
:101C13002AE498F8E499F9C3E49AFAE49BFB22EBEB
:101C230020E7CFE920E7E0B90010BB0008E88AF01D
:101C330084F8AAF022E4FBC8FA22EB70227B10C8D6
:101C430033C8C933C9335007C39AC3DBF280069A3A
:101C530050012ADBEAC833F4C8C933F4C9FA227540
:101C6300F008E4C833C8C933C933C99AC99B5004BF
:101C7300C92AC93BD5F0ECFBC833F4C8E4C9FA223E
:101C8300600D08C6A2E713C618C613C6D5E0F32233
:101C9300600C08C6C313C618C613C6D5E0F4227079
:101CA3000422600D18C6C333C608C633C6D5E0F494
:101CB3001822254110AF08F541400C15428008F564
:101CC3004140021542D2AF2200C0D0254110AF08D7
:101CD300F541500C05428008F54150020542D2AF50
:101CE300D0D0222541F58210AF08F541400C1542B2
:101CF3008008F54140021542D2AF85428322254137
:101D0300F582E43542F583222541F8E43542F92290
:101D13002541FAE43542FB222541FCE43542FD220C
:101D2300E4732541C582C0E0E54234FFC583C0E0CA
:101D3300E541C3958224F810AF088583428582412B
:101D43008008858342858241D2AFCEF0A3E520F09F
:101D5300A37821E608F0A3DEFAEFF0A3E58124FAE5
:101D6300F8E608F0A3E608F0A3E608F0A30808E6FF
:101D730008F0A3E608F0A315811581D0E0FED0E0BA
:101D8300F8158115811581E8C0E0EEC0E0222541F8
:101D9300C582C0E0E54234FFC583C0E0E541C39599
:101DA3008224F910AF0885834285824180088583A8
:101DB30042858241D2AFCEF0A3E520F0A37821E69D
:101DC30008F0A3DEFAEFF0A3E58124FBF8E608F0C0
:101DD300A3E608F0A30808E608F0A3E608F0A315B5
:101DE300811581D0E0FED0E0F815811581E8C0E0CF
:101DF300EEC0E022854283854182E0A3FEE0A3F5A5
:101E0300207821E0A3F608DFFAE0A3FFE0A3C0E017
:101E1300E0A3C0E0E0A3C0E0E0A3C0E0E0A3C0E033
:101E230010AF08858241858342800885824185837E
:101E330042D2AFD083D08202013285428385418270
:101E4300E0A3FEE0A3F5207821E0A3F608DFFAE0A3
:101E5300A3FFE0A3C0E0E0A3C0E0E0A3C0E0E0A3F1
:101E6300C0E010AF088582418583428008858241A6
:101E7300858342D2AFD083D08222C0D02541C58290
:101E8300C0E0E54234FFC583C0E0E541C395822449
:101E9300F310AF088583428582418008858342859C
:101EA3008241D2AFC8F0A3E9F0A3EAF0A3EBF0A319
:101EB3007921E709F0A3D8FAECF0A3EDF0A3EEF053
:101EC300A3EFF0A3D0E0F0A3D0E0F0A3D0E0F0A321
:101ED300E520F0A3E5F0F0A322854283854182E06B
:101EE300C0E0A3E0F9A3E0FAA3E0FBA37821E0F6C6
:101EF30008A3DFFAE0FCA3E0FDA3E0FEA3E0FFA359
:101F0300E0C0E0A3E0C0E0A3E0F5D0A3E0F520A3A8
:101F1300E0A3F5F010AF08858342858241800885F0
:101F23008342858241D2AFD082D083D0E0F8D0E023
:101F33003274048006740280027401C0E0F4041257
:101F43001CE6D0E0121BBB227404800474028000E0
:101F5300CCC0E0EDC0E0E541C39CCCAD4250011DD7
:101F630010AF068C418D4280068C418D42D2AF1258
:101F73001BC8D0E0FDD0E0FC22D083D082E9C0E0D2
:101F8300E493A3C386F0C5F095F0F908E493A38620
:101F9300F0C5F095F0700BE493A3C3994005E904F1
:101FA3008002A3E475F002A42582F582E5F035836F
:101FB300F583D0E0F9E493A3C0E0E493C0E022D03A
:101FC30083D082ECC0E0EDC0E0E493A3FCE493A3F0
:101FD300FDED4C600D12200EEC24FFFCED34FFFDF3
:101FE30080EFE493A3FCE493A3FDED4C600D12207A
:101FF3004DEC24FFFCED34FFFD80EFD0E0FDD0E09D
:10200300FCE493A3C0E0E493C0E022C0E0C3E49304
:1020130096087401939618400FE493667008087449
:102023000193661870007019A3A3C3E49396087410
:1020330001939618A3A3400DD0E0D0E0D0E0021F97
:10204300FEA3A3A3A3A3A3D0E022C0E0C0F088F023
:10205300E4936670080874019366187000A8F0A3EF
:10206300A3700BD0F0D0E0D0E0D0E0021FFEA3A31A
:10207300D0F0D0E02274F5121D91EAFEEBFFEE24BE
:1020830034F8EF3400F988218922EE2435F582EF04
:102093003400F583E0F8EE2437F582EF3400F5835E
:1020A300E0F523EC8523F0A4FCAAF08523F0EDA44E
:1020B3002AFDE82CF8E43DF97A257B00121C2AEA74
:1020C300852182852283F0F8740758F97401B900D9
:1020D300028004C333D9FCFAE8131313541FF8EE38
:1020E30028F8EF3400F9E8245DF582E93400F5833C
:1020F300E05A6008EE2434F582EF802CEE2434F5A8
:1021030082EF3400F583E0C0E0EE2436F582EF344D
:1021130000F583E0F5F0D0E084A8F0EE28F8EF3482
:1021230000F9E82438F582E93400F583E0F97F0407
:10213300021E3D74F5121D91EAFEEBFFEE2434F509
:1021430082EF3400F583E0C0E0EE2435F582EF340E
:1021530000F583D0E0F08E828F83A3A3A3A3A3A370
:10216300A3C082C0838E828F83A3A3A3A3A3E0F81B
:10217300A3E0F9D083D082E0C398F521A3E099F5D9
:1021830022EE247FF582EF3400F583E06401706969
:10219300EE2480F582EF3400F583E0F8A3E0F98EB6
:1021A300828F83A3A3A3A3A3A3A3E0FCA3E0FD8E39
:1021B300828F83A3A3A3A3A3E0FAA3E0FBC3EA9CB8
:1021C300EB9D5010C3EC98ED99402EC3EA98EB9920
:1021D3005027800EC3EA98EB994007C3EC98ED991A
:1021E30040177C967D05EEFAEFFB120C38EE247F48
:1021F300F582EF3400F583E4F0EE2434F8EF340095
:10220300F9E8FCE9FDEE2435F582EF3400F583E0CF
:10221300F8EE2437F582EF3400F583E0F523E5216A
:102223008523F0A4F521AAF08523F0E522A42AF55D
:1022330022E82521F8E43522F97A257B00121C2AAD
:10224300EA8C828D83F0F8740758F97401B900029F
:102253008004C333D9FCFAE8131313541FF8EE2890
:10226300F8EF3400F9E8245DF582E93400F583E002
:102273005A6008EE2434F582EF802CEE2434F58284
:10228300EF3400F583E0C0E0EE2436F582EF34004E
:10229300F583E0F5F0D0E084A8F0EE28F8EF340001
:1022A300F9E82438F582E93400F583E0F9122EB316
:1022B300022131C082C083854182854283E0F8A335
:1022C300E0F9C3EA9CEB9D5010C3EC98ED99401BD9
:1022D300C3EA98EB995014800EC3EA98EB99400730
:1022E300C3EC98ED994004790180027900D083D042
:1022F3008222EAC39CFAEB9DFB2274EF121D91909C
:10230300045CE064086005E06407702A9061C8E03B
:10231300602490048AE0F4601DE0F875F003A4C81B
:10232300AAF02AF9748C28FE740439FF8E828F83F5
:10233300A3A3A3E0700302242D906060E0C0E0EE4D
:102343002468F582EF3400F583D0E0F07525FF753E
:102353002605752100752200E5D914F523E5D95426
:1023630003F527601774036527605CE5236010EEAF
:102373002467F582EF3400F583E0700302241290A2
:1023830005FAE06401602AEE2482F582EF3400F559
:1023930083E06004780480027800852321E521C36B
:1023A30098FA95E0FB120AE28A218B22EA45227011
:1023B30005120E428074EE2482F582EF3400F58319
:1023C300E070048A258B26E5236012852582852605
:1023D30083F524E5D9F0A31524E52470F6EE2482D1
:1023E300F582EF3400F583E0604474FC2523F52384
:1023F3007825121F38AC23A927EEFAEFFB120CDA6B
:102403007402121CCBE97026AA21AB221213527953
:102413003D8E828F83A3A3A3A3E0FA7B001209B6A8
:10242300EEFAEFFB120C50120CEC7900807474037B
:1024330065276056852329752A007829121F38AC31
:1024430025AD26AA21AB22120CB67402121CCBEEC8
:102453002468F582EF3400F583E064807004747FB0
:102463008001E0F5257825121F3CE527F525782521
:10247300121F3CA923AC21AD2290048AE0FA7B0011
:1024830012097A7402121CCB801390045CE0640876
:10249300600BAC25AD26EEFAEFFB120D46120E4E85
:1024A30079017F0A021E3D74F5121D9174FC121C02
:1024B300B5EAFEEBFF8921A2AFE433F522C2AF8078
:1024C3006AEE2463F8EF3400F97A007B00A2AFE4EC
:1024D30033F523C2AF88828983E0FCA3E0FDEC4D92
:1024E300603A88828983E0FAA3E0FB8A828B83E0E7
:1024F300FCA3E0FD88828983ECF0A3EDF08A828B54
:1025030083E4F0A3F088828983E0FCA3E0FDEC4D33
:10251300700A88828983A3A3E4F0A3F0E523A2E0F1
:1025230092AF12135290059DE004F0EE2463F582FE
:10253300EF3400F583E0F8A3E0F9E849603DEE24C9
:1025430063F582EF3400F583E02402FAA3E034005C
:10255300FBEA2402F523EB3400F5247823121F3819
:102563008A828B83E0FCA3E0F9EEFAEFFB120C7492
:102573007402121CCBE970030224C490059DE06031
:102583006390059EE0F890059DE0C398500C74029B
:102593006521705090059FE0604A8E828F83A3A3CC
:1025A300A3A3E0854182854283F0A3E4F090059DD7
:1025B300E0F87402121D01E8F0A3E4F090059DE039
:1025C300F890059CE028F07402121D01AC82AD83E3
:1025D300854182854283AA82AB8379011209869061
:1025E300059DE4F0E522A2E092AF7404121CCB0235
:1025F30021310000008544878545C622C0E0C0D054
:10260300E8C0E0E9C0E0EAC0E0EBC0E0ECC0E0ED28
:10261300C0E0EEC0E0C021C022C023C024C082C0FD
:1026230083C0F0A2AFE433FEC2AF759B009061821A
:10263300E0A2E05012E591A2E0500C7591FE740106
:10264300654470031222FDE0A2E55051E591A2E535
:10265300504B7591DF90045CE064076005E064080B
:102663007023740165447035790190048AE0FA752A
:10267300F003A4CAA8F028FB748C2AFA74043BFB69
:102683001224AA8018E0640D701390047EE004F015
:1026930064287002E4F07A00E0F9120E549061822B
:1026A300E0A2E64003022746E591A2E640030227A3
:1026B300467591BF90045CE064057008120D7C12AE
:1026C3000D888003120D82754400120DE2E9900417
:1026D3005DF07900120DD6120BA87A017B009004ED
:1026E3005BE0F912131C907803E064427055900587
:1026F300FEE014F0704DC2AF1226FE00784DD0E01C
:10270300F618D0E0F6E59F540770057522FF8003A5
:1027130075227FC4C0E0784CE6F52108E65522F522
:1027230022740B7821121C93D0E02521F89062705B
:10273300E0A2E740F8E8C333906272F0906270E081
:10274300D2E0F0906181E0A2E35009E5E9A2E35011
:102753000375E9F7A3E0A2E75009E591A2E7500367
:1027630075917FEEA2E092AFD0F0D083D082D024D7
:10277300D023D022D021D0E0FED0E0FDD0E0FCD0A9
:10278300E0FBD0E0FAD0E0F9D0E0F8D0D0D0E032EE
:10279300C0E0C0D0C082C083906183E0A2E0500952
:1027A300E5BFA2E0500375BFFEE0A2E15009E5BF1B
:1027B300A2E1500375BFFDE0A2E25009E5BFA2E22A
:1027C300500375BFFBE0A2E35009E5BFA2E350034A
:1027D30075BFF7E0A2E45009E5BFA2E4500375BF5B
:1027E300EFE0A2E55009E5BFA2E5500375BFDFE0C6
:1027F300A2E65009E5BFA2E6500375BFBFD083D060
:10280300828088C0E0C0D0E8C0E0E9C0E0EAC0E070
:10281300EBC0E0ECC0E0EDC0E0C0F0E5A7A2E650FD
:102823000FE5A1A2E6500953A7BF75A1BF12286BFC
:10283300E5A7A2E5500CE5A1A2E5500653A7DF7575
:10284300A1DFE5A7A2E15009E5A1A2E1500375A12B
:10285300FDE5A7A2E2500CE5A1A2E2500653A7FBB7
:1028630075A1FBD0F002277C74F8121D9175440109
:1028730090045CE064067015120D0A8A828B83A3B0
:10288300A3A3A3A3A3E0FAA3E0FB120D6AA2AFE400
:1028930033FED2AF900462E0640170187A207B00AB
:1028A30090045BE0F91214307A207B0090045BE023
:1028B300F9121322906182E0D2E6F09005FBE0600A
:1028C3002185C6458016900461E064017008E5C661
:1028D30054F84405F5C653BEFC1225F8740165444B
:1028E30060E4EEA2E092AF7F01021E3D008E468FB0
:1028F3004785824B85834A854182854283E0CEA307
:10290300E0CF854B82854A83EBC9EAC8EDCBECCA9D
:1029130075F010C3E833C8E933C9EA33CAEB33CBE4
:10292300C3EA9EF549EB9FF548B35004AB48AA4967
:10293300EC33CCED33CDD5F0DAAE46AF472274E9B4
:10294300121D9174F8121CB5854182854283ECF007
:10295300A3EDF08A218B2290045CE024F7C3940555
:102963005006752101022AD8120D0A8A238B24AE40
:1029730023AF24EE4F7003022AD5AC21AD2274029B
:10298300121D01AA82AB83120D9A8E828F83A3A399
:102993007525FF7526FF7527FF7528007825121BFF
:1029A300477402121D017529FF752AFF752BFF75E8
:1029B3002C007829121B4778257929121523502AD0
:1029C30078257929121B0C7521017522C8752300FE
:1029D30075240078217925121523505285252185E8
:1029E30026228527238528248050752D01752EC81E
:1029F300752F00753000852921852A22852B238593
:102A03002C2478217925121B0C782D79211215237A
:102A1300401C75210075220075230075240178215F
:102A23007929121B0C78217925121AD3800C752170
:102A33000175220075230075240074097821121A88
:102A4300B4752519F526F527F52878217925121A65
:102A53002C8E828F83A3A3A3A3A3A3E0F8A3E0F9FF
:102A63007AD07B03121C2A88258926E4F527F528CA
:102A730078217925121AD37406121D01E0F8A3E018
:102A8300F97AD07B03121C2AE8FA8A25E4F5267822
:102A9300217925121523500778217925121B0C90D3
:102AA300045CE06408600AE064066005E0640570A5
:102AB3002D75250D7825792112152340217525F4CF
:102AC3007526FF7527FF7528FF78217925121AD3FC
:102AD300800C752100752200752300752400854143
:102AE30082854283E0F8A3E0F58388827821121B74
:102AF3007C7408121CCB7F10021E3D74F7121D91CB
:102B0300120DAC9005F9E064017010906245E4F099
:102B1300A3F053F4F343FE0C5390F3120D58E5C6A0
:102B230054804449F5C6E59E547F644970F890612A
:102B330085740FF09005F7E0F47002A3E0604E9007
:102B430005F8E0600814601B14602E8040752101B5
:102B53007522009005F7E07821121CA2E521F452BA
:102B630080802A7521017522009005F7E0782112F3
:102B73001CA2E521F4529080147521017522009066
:102B830005F7E07821121CA2E521F452A079007F19
:102B930002021E3D74F7121D91E9FEEAFF74016EF5
:102BA300700C7A807B0090045BE0F912131C902F69
:102BB3002CE493F46008E493F9120B9C800953C648
:102BC30080E59E547F70FA120D5E9005F9E0640172
:102BD3007003120BBA9005F7E0F47002A3E0604BA8
:102BE3009005F8E0600814601A14602C803D75218C
:102BF300017522009005F7E07821121CA2E521421D
:102C03008080287521017522009005F7E078211254
:102C13001CA2E521429080137521017522009005C5
:102C2300F7E07821121CA2E52142A0120DAC120D8F
:102C33000A8A218B22A821A922E8496015E5E170BF
:102C4300FCE82414F582E93400F583E0F46003E042
:102C5300F5E174016F700A7A0190045BE0F91213D5
:102C6300A6022B9274ED121D918A218B228C238D47
:102C7300247413121D017825121B6D7821792512F6
:102C83001523752901752AC8752B00752C00501260
:102C930078217925121B0C782979211215235016D6
:102CA300801078257921121B0C7829792512152398
:102CB30040047901800279007F0C021E3D74ED12FD
:102CC3001D918A218B228C238D247413121D01786C
:102CD30025121B6D7825792112152340117821794E
:102CE30025121B0CAA21AB22AC23AD24802275290B
:102CF30000752A00752B00752C0178297925121B84
:102D03000C78297921121AD3AA29AB2AAC2BAD2C22
:102D130080A68A828B837521FF7522FF7523FF7539
:102D230024007821121B5A7F04021E3D74F5121DE4
:102D3300918C828D837821121B6D8A828B837821FB
:102D4300121B20EA2404F8EB3400F98C828D83A350
:102D5300A3A3A3E0FCA3E0FD88828983C3E09CF0E6
:102D6300A3E09DF088828983C3E09420A3E0944E7E
:102D730040268A828B837521FF7522FF7523FF7599
:102D830024FF7821121AF98A828B83A3A3A3A3E0D9
:102D93002420F0A3E0344EF0022D1574F5121D919A
:102DA300E9FE9005B1E0FAA3E0FBEEC333F8E433A8
:102DB300F974E928F582748039F583E02AF521A3B3
:102DC300E03BF5227821121F387A407B427C0F7D4D
:102DD300001228F07402121CCB8A218B228C238DC3
:102DE3002474107821121A9BAA21AB227F04021E9D
:102DF3003D74F1121D918A258B268C278D28740F23
:102E0300121D01E0FAA3E0FB7411121D01E0F5218C
:102E1300A3E0F5227821121F38EA2401F521EB34CF
:102E230000F522E4F523F524782579211219AC75F0
:102E33002171752202782579211219ACAA25AB26B6
:102E4300AC27AD281228F07402121CCB8B22EA4562
:102E53002260047A0180027A00EC2AFCED3400FD42
:102E63007413121D01E0F8A3E0F9E8FEE9FFECF8A2
:102E7300EDF97A717B02121C2A882189228E828FB6
:102E8300837821121B7CECF8EDF97A717B02121C1A
:102E93002A8A218B2274057821121CA28E828F83A9
:102EA300A3A3A3A3E521F0A3E522F07F08021E3D1F
:102EB300C082C083E9906000F0D083D08222C0E05A
:102EC30074F2121E7DA2AFE433FED2AFE58AA2E410
:102ED300400CE58AA2E64006E58AA2E750031211F8
:102EE300F6538AEF538ABF538A7FC2EB754300EED2
:102EF300A2E092AF7F01021EDCC0E0C0D0E8C0E0D8
:102F0300E9C0E0A9A8D2AFC2C7754300E9A2E7E4CC
:102F130033F8E9A2E792AFD0E0F9D0E0F8D0D0D00F
:082F2300E032C2AF02000022FF
:102F2C00FFFFFFFFFFFFFFFF121CCB7F02021DF70D
:102F3C00121CCB7F04021DF73522F583E02274F6B8
:102F4C00121D2574EE121CB5E9900301F0121292B9
:102F5C007C067D007A1F7B001205CC854182854260
:102F6C0083E4F0740C121D017488F0A37413F074D4
:102F7C0001121D017401F0740A121D01740AF0A3F0
:102F8C00E4F07408121D017414F0A3E4F07406123A
:102F9C001D01E4F0A3F07404121D017464F0A3E4A9
:102FAC00F0AC41AD4279017A057B03121448740CE4
:102FBC00121D1B79027A067B031214487CA77D0F25
:102FCC0079177A087B031214487CBE7D0F79077A37
:102FDC00077B031214487401121D1B79017A107BB4
:102FEC0003121448740A121D1B79027A117B031206
:102FFC0014487408121D1B79027A127B03121448B0
:10300C007406121D1B79027A137B03121448740484
:10301C00121D1B79027A147B031214487CC57D0F98
:10302C007A1579001207467CA07D007A067B001287
:10303C0005CC7CA07D007A077B001205CC7CA07DA2
:10304C00007A087B001205CC7CA07D007A097B00FD
:10305C001205CC740E121D01124E2404121D0174A3
:10306C0001F0854182854283F07403121D01E4F066
:10307C007402121D017401F0740E121D1B79047A76
:10308C00087B041210D67401121D1B79017A007B87
:10309C00041210D6AC41AD4279017A027B041210B5
:1030AC00D67403121D1B79017A037B041210D6749B
:1030BC0002121D1B79017A067B041210D690819A9C
:1030CC00121B8B12074C90819A121B8B12085412F4
:1030DC00104C90819A121B8B12105E900301E0F938
:1030EC001212B01214F612049412049A1214CC1286
:1030FC0014DE12127412108812108E12128C90821E
:10310C0054AC41AD427401121BC8A841A94288219C
:10311C0089227821121F387C017D007AF07B1F12E6
:10312C0011D27402121CCB854182854283E064AAC1
:10313C0060031204DC12123E7AF47B0112121A7A2A
:10314C00DE7B0F1210647901120950790212094AC0
:10315C007900120956790112095C7A017B009003FF
:10316C0001E0F912131C79011213A07412022F340E
:10317C0074EC121D2574FD121CB58923908216ACBB
:10318C0041AD427403121BC87A10FB12138E8A21B4
:10319C008B22AE21AF22C2AFA841A942882189223D
:1031AC007821121F387C017D007AFE7B1F1211D210
:1031BC007402121CCB7401121D018582218583229D
:1031CC007821121F387C017D007AFF7B1F1211D2EF
:1031DC007402121CCB7402121D018582218583227C
:1031EC007821121F387C017D007AF07B1F1211D2DE
:1031FC007402121CCBD2AF1204A68A218B221204A9
:10320C00A68A258B261204A68A278B28A827A928EC
:10321C00C3E5219525E52295265052C3E52598E571
:10322C0026994052C3E52198E52299405A852129D7
:10323C0085222AE4F52BF52C7829121562900B3295
:10324C007829121B7C854182854283E0603FF525FD
:10325C00E4F526F527F528782512156278297925C5
:10326C0012176D900B327829121B7C8046C3E8959F
:10327C0025E99526500885252985262A80B5C3E899
:10328C009521E9952250A68829892A80A6740112D5
:10329C001D01E0F8601D8825E4F526F527F5287852
:1032AC002512156278257929121792900B32782500
:1032BC00121B7C900B327825121B6D9081F67829AD
:1032CC00121B6D782579291217215006900B36E4C4
:1032DC00802978251215BFE52524BDF8E52634F99B
:1032EC00F9E875F064A4F8AAF075F064E9A42AF979
:1032FC007A547B01121C2AE8900B36F0740165237A
:10330C0070518E828F837431F0EE2402F8E43FF911
:10331C00E8FAE9FBA3A882A98375F00A900B36E0C2
:10332C0084940A88828983400A7401F08A828B8390
:10333C00E4801AE4F0900B36E0F875F00A84A9F0FA
:10334C0075F00AE884C454F0298A828B83124FD614
:10335C0012106AEEFAEFFB121394900B36E0F9742C
:10336C0003121CCB7F0C021DF774E8121D2574F997
:10337C00121CB5EAFEEBFF5480603A900301E0F9B1
:10338C001213048A218B22EA452260218A828B83C4
:10339C00E064C07011A3A3A3E0FA8521828B83A300
:1033AC00A3E0F91204BEAA21AB221212F2EEFAEF3C
:1033BC006480024692EEA2E050147ADA7B0F12146B
:1033CC00547A067B031210F4EE6401024690540208
:1033DC0060201204CA9081F2121F4B7A027B00907B
:1033EC000301E0F91214247404121CCBEE640202E3
:1033FC004690EE54407003023664900303E0700470
:10340C0074018001E4F07C057D0079007AF87B0A78
:10341C00121490900B31E4F0900303E064018541A9
:10342C008285428360030234FE7401F0790012132A
:10343C00A0900B2FE4F07C2F7D0A7AC479801214B3
:10344C0000900B37E0603AC2AF75217675220B788D
:10345C0021121F387C2C7D037A007B001211D27450
:10346C0002121CCB7521A275220E7821121F387CFA
:10347C00F47D007A007B101211D27402121CCBD294
:10348C00AF1210BE12124A790012129E7A027B0001
:10349C00900301E0F912131C9081EE121F4B7A007D
:1034AC007B01900301E0F91214247404121CCB7AF2
:1034BC00007B40900301E0F912131C9081EA121F6B
:1034CC004B7A407B00900301E0F91214247404122F
:1034DC001CCB12145AAC41AD4279017A057B031214
:1034EC0014487CA77D0F79177A087B0312144802C5
:1034FC00365EE4F012145AAC41AD4279017A057B88
:10350C0003121448900B00E4F0900B37E060259008
:10351C000B0EE4F0900B30F0900B0FF0900AFEF0D5
:10352C00900B75F0900AFDF0900AF5125D47900B28
:10353C002BF080031214AE1212861214DE121088B5
:10354C00900B37E06074900B2DE064426008900B98
:10355C002FE06401700FC2AF7C2F7D0A7AC4798092
:10356C001213FAD2AF900B2DE0F86005744268701C
:10357C0008900B2FE064027041C2AF752176752262
:10358C000B7821121F387C2C7D037A007B001211E2
:10359C00D87402121CCB7A0A7B0012121A7521A263
:1035AC0075220E7821121F387CF47D007A007B1076
:1035BC001211D87402121CCBD2AF1212507A007BAB
:1035CC0020900301E0F91214307A087B009003017B
:1035DC00E0F91214307A047B00900301E0F9121424
:1035EC00307A027B00900301E0F91214307A407BB0
:1035FC0000900301E0F91214307A007B0290030171
:10360C00E0F91214307A007B04900301E0F91214F3
:10361C00307A007B10900301E0F91214307A007BB1
:10362C0008900301E0F91214307A007B0190030139
:10363C00E0F91214307A107B00900301E0F91214B7
:10364C00307A007B40900301E0F9121430790112BA
:10365C0013A0EE6440024690EF5402700302373C14
:10366C007A007B02900301E0F91214307A007B049B
:10367C00900301E0F9121430900B00E07004740117
:10368C008001E4F0900B0EE4F01214DE900B26E4B3
:10369C00F0900B0F124E4A121490900B00E08541E3
:1036AC0082854283602EE4F012145AAC41AD42790B
:1036BC00017A057B031214487A027B00900301E027
:1036CC00F91214307A007B08900301E0F9121430DF
:1036DC00790380517401F012145AAC41AD42790156
:1036EC007A057B031214487CA77D0F79177A087B27
:1036FC00031214489081F2121F4B7A027B00900344
:10370C0001E0F91214247404121CCB7A007B109083
:10371C000301E0F91214307A007B20900301E0F9E8
:10372C00121430792712129EEEFAEF6402024692BE
:10373C00EF54047003023D47900B0FE4F0FA7B0446
:10374C00900301E0F91214307A007B10900301E031
:10375C00F9121430900B03E0F8900B0EE060331468
:10376C007003023836147003023971147003023A74
:10377C0083147003023AC8147003023B4D14700397
:10378C00023BE8147003023C84147003023CB60242
:10379C003D317521067522007821121F387C037D7E
:1037AC000B7A2F7B0A12148A7402121CCBE960323A
:1037BC009081E6121F4B7A407B00900301E0F912D6
:1037CC0014247404121CCB900B0E7401F079221289
:1037DC00129E7C0A7D0079FF7A037B0B12149002F7
:1037EC003D31900B0EE4F0790412129E900B26E002
:1037FC0004124E3A121490900B26E0C39406500318
:10380C00023D311210BE7A527B081210CAEAF8EB54
:10381C00F9ECFAEDFB900B27121BAF7A407B009072
:10382C000301E0F912131C023D31752102752200CF
:10383C007821121F387C037D0B7AE07B0F12148ADF
:10384C007402121CCBE96032900B0E7402F07905F5
:10385C0012129E900B0EE0C3940240179081E2125C
:10386C001F4B7A007B10900301E0F91214247404AE
:10387C00121CCB900B0FE4023D307821121F387CC8
:10388C00037D0B7AE27B0F12148A7402121CCBE9B3
:10389C00600A900B0E7403F0790980B47821121F22
:1038AC00387C037D0B7AE47B0F12148A7402121C91
:1038BC00CBE9600F900B0E7404124E3A12149079EF
:1038CC000D808D7821121F387C037D0B7AE67B0FDF
:1038DC0012148A7402121CCBE9601A791212129E0D
:1038EC00900B0E7405F07A007B20900301E0F91226
:1038FC00131C02385F7821121F387C037D0B7AE889
:10390C007B0F12148A7402121CCBE9600C79121210
:10391C00129E900B0E740680CC7821121F387C03FB
:10392C007D0B7AEA7B0F12148A7402121CCBE960AD
:10393C000B900B0E7407F0791902385C7821121F6A
:10394C00387C037D0B7AEC7B0F12148A7402121CE8
:10395C00CBE9900B0E60087408F0791D02385C748A
:10396C0001F002387F7A107B0012138E8A218B2291
:10397C00900AF5E064016003023A6E900B04E06477
:10398C000B6009A3E0640B6003023A6E1246F3125B
:10399C001CA2743F125D11740A3524F583E0F460A7
:1039AC0003023A51E9900B237005E044118008E0C2
:1039BC004421125D414441F01246F3121CA2742FB3
:1039CC002523FA740A3524FBEA2410F582E43BF52E
:1039DC0083E9125D37121F387C1D7D0BEA2411FA26
:1039EC0050010B1212C87402121CCB7C0679007A9F
:1039FC001D7B0B1204D6E9F8852182852283742F56
:103A0C00F0900AF61246EAF0900B231246EAA3F065
:103A1C00E8852182852283A3A3A3F0AC21AD227A71
:103A2C0010790112106A790712129E7C077D0079B9
:103A3C00007A1D7B0B1214907C2F7D0A7AC479803E
:103A4C001213FA801D854182854283E4F012145AC8
:103A5C00AC41AD4279017A057B03121448792412EA
:103A6C00129EAA21AB22121394900AF674FFF090C6
:103A7C000AF5E4F0023D2B7521067522007821121F
:103A8C001F387C037D0B7A107B0B1212DA74021236
:103A9C001CCBE960207821121F387C107D0B7A2F0B
:103AAC007B0A1212C87402121CCB900B2DE04442FC
:103ABC00F0790B8002790C12129E807575210675B7
:103ACC0022007821121F387C037D0B7A107B0B129D
:103ADC0012DA7402121CCBE9604C900AF7E0FC8CF1
:103AEC002174047821121CA274762521F8740B35EC
:103AFC0022F9E8FAE9FBEC8A828B83A3F0752106A4
:103B0C007522007821121F387C107D0BEA2402FAF2
:103B1C0050010B1212C87402121CCB900B2DE044F6
:103B2C0044F079118002790C12129E900AF774FFFE
:103B3C00F07C067D0079BB7A107B0B121490023D51
:103B4C002B7A087B0012138E8A218B22908166744B
:103B5C0001121D1B7406121BC8900B03E0640B6052
:103B6C0003023C7A7525008525237524007404789E
:103B7C0023121CA21246AE121F387403121D1BAA6C
:103B8C0023AB2412148A7402121CCBE9603C7525F9
:103B9C00067526007825121F387C167D0BAA23ABE0
:103BAC00241212C87402121CCB900B0E7401F07C00
:103BBC00067D0079BB7A167B0B121490900B2DE0CE
:103BCC004448F0791412129E800F7409652560091F
:103BDC000525E525C3940A408E023C7A7A087B00C1
:103BEC0012138E8A218B22752302752400782312DE
:103BFC001F387C037D0B7AEE7B0F12148A74021231
:103C0C001CCBE96069752500852523752400740497
:103C1C007823121CA21246AE121F387C167D0BAAFA
:103C2C0023AB2412148A7402121CCBE9602C7C0680
:103C3C007D0079FFAA23AB241214907C067D0079B9
:103C4C00BB7A167B0B121490900B0E7401125D4113
:103C5C004448F0791812129E801474096525700579
:103C6C00791712129E0525E525C3940A409AAA21BC
:103C7C00AB22121394023D2B740B686003023D2B94
:103C8C007C077D0079BB900AF7E0F5218D22740446
:103C9C007821121CA274772521FA740B3522FB12A1
:103CAC001490900B2DE04444806F740B6870707509
:103CBC0021067522007821121F38900AF6E0F521B2
:103CCC0074047821121CA274402521FC740A35223C
:103CDC00125DE11212C87402121CCB900B74E0043A
:103CEC00F0900AF6124E69121CA2742F2521FA7458
:103CFC000A3522FBEA2410F582E43B1246C8EA247A
:103D0C0011FA50010B1214907C2F7D0A7AC4798021
:103D1C001213FA900B2DE04441F0791B12129E9075
:103D2C000B0E7401F0900AF674FFF0A3F0124E46DD
:103D3C00121490EEFAEF6404024692EE5408603CC2
:103D4C00900AF3E06401702E900302E06405702683
:103D5C00900B2DE06020900B00E0701A125D9D7AA4
:103D6C00F07B0F1204D6E9900B24F07CF07D0F7AD7
:103D7C0010790112106AEE6408024690EF54087034
:103D8C0003023F5D7A007B08900301E0F9121430C6
:103D9C00900B37E07003023F2975230085232185A2
:103DAC00212575260074047825121CA2747625250D
:103DBC00F525740B3526F52675270675280078270A
:103DCC00121F387C037D0BE5252443FAE5263401CC
:103DDC00FB12148A7402121CCBE96027900EA37498
:103DEC0004F0E523A3125D414460124E3A12149084
:103DFC007C107D0079BBE5252442FAE5263401FBD5
:103E0C00023EC67827121F387C037D0BE525240261
:103E1C00FAE43526FB1212DA7402121CCBE96008A4
:103E2C00900EA37401023EBFE52175F007A4F521A5
:103E3C00E5F0F52274762521F521740B3522F52257
:103E4C007525067526007825121F387C037D0BE539
:103E5C002124E3FAE5223401FB12148A7402121CA9
:103E6C00CBE96007900EA3740580487825121F38A3
:103E7C007C037D0BE5212429FAE5223402FB121484
:103E8C008A7402121CCBE96007900EA3740680237F
:103E9C007825121F387C037D0BE521246FFAE5226F
:103EAC003402FB12148A7402121CCBE9601D900EB2
:103EBC00A37407F0E523A3124E3A1214907A107BE8
:103ECC0000900301E0F912131C804B7409652370F8
:103EDC0039900B26E004F0C39406401C1210BE7AF5
:103EEC00527B081210CA900B27121B977A407B004A
:103EFC00900301E0F912131C790412129E7C0A7DC6
:103F0C000079FF7A037B0B1214900523E523C394ED
:103F1C000A5003023DA8900B0FE4F0802C900B2666
:103F2C00E004F0C39406401C1210BE7A527B0812B7
:103F3C0010CA900B27121B977A407B00900301E06C
:103F4C00F912131C790412129EEEFAEF6408024661
:103F5C0092EF540170030240661210BE7A527B0835
:103F6C001210CA8A218B228C238D24752700AA2734
:103F7C008A2575260074027825121CA274762525D4
:103F8C00F52D740B3526F52EE52D24B4F525E52EEF
:103F9C003402F526EA75F007A4FAABF074762AF52C
:103FAC002F740B3BF5308525828526837829121BCF
:103FBC006D9081DA7829121AE67829792112152365
:103FCC00400E1246D424E2FAE5303401FB12149070
:103FDC00E52D24DCF525E52E3402F526852582F524
:103FEC00837829121B6D9081C27829121AE67829E0
:103FFC007921121523400E1246D42428FAE53034C8
:10400C0002FB121490E52D2404F525E52E3403F55E
:10401C0026852582F5837829121B6D9081BE78291F
:10402C00121AE678297921121523400E1246D4244F
:10403C006EFAE5303402FB1214900527E527C39481
:10404C000A5003023F7A7A007B01900301E0F912D7
:10405C001430EEFAEF6401024692EE541070030233
:10406C004290900B30E0600C7A007B40900301E0B2
:10407C00F9121430900AFDE0F860057403687015AD
:10408C00E004F0900305E0700474018001E4F0900A
:10409C0081EE02427674016860030241EE900B2DB2
:1040AC00E04450F0900F95E0C39410400A740FF068
:1040BC00900EA2F0121484900EA2E0C0E0F52175CF
:1040CC00220074047821121CA27495124E11740EE5
:1040DC001246C3D0E0F0900EA3E0C0E0124E661280
:1040EC001CA27496124E11740E1246C3D0E0F090BE
:1040FC000EA4E0C0E0124E66121CA27497124E1170
:10410C00740E1246C3D0E0F01210BE900852E0C0FC
:10411C00E0124E66121CA27498124E11740E1246C6
:10412C00C3D0E0F0900853E0C0E0124E66121CA21F
:10413C007499124E11740E1246C3D0E0F0900854CC
:10414C00E0C0E0124E66121CA2749A124E11740E4C
:10415C001246C3D0E0F0900855E0C0E0124E661253
:10416C001CA2749B124E11740E1246C3D0E0F09038
:10417C000856E0C0E0124E66121CA2749C124E113E
:10418C00740E1246C3D0E0F0900857E0C0E0124E17
:10419C0066121CA2749D124E11740E1246C3D0E00E
:1041AC00F0900F95E004F0900EA2F0900AFDE00460
:1041BC00F012127A9081F2121F4B7A107B0090034E
:1041CC0001E0F91214247404121CCB7A027B0090C7
:1041DC000301E0F91214309081BA121F4B7A40029D
:1041EC00427B74046870087405F012128080787435
:1041FC0006687053E4F0900B26F07A10FB900301E4
:10420C00E0F91214309081B6121F4B7A027B0090A9
:10421C000301E0F91214247404121CCB9081B21225
:10422C001F4B7A407B00900301E0F91214247404B4
:10423C00121CCB900B30E060457A007B4090030160
:10424C00E0F912131C803774026870107403F012BA
:10425C001286791F12129E9081B2800E74056870BE
:10426C001D7406F01212869081F2121F4B7A107B8D
:10427C0000900301E0F91214247404121CCBEE64B8
:10428C0010024690EE5404601512145A7A047B0006
:10429C00900301E0F9121430EE6404024690EE54DF
:1042AC00806048A296401B790012129E7A407B00D7
:1042BC00900301E0F91214309081AE121F4B7A80FA
:1042CC0080147A807B00900301E0F9121430908105
:1042DC00BA121F4B7A407B00900301E0F9121424B0
:1042EC007404121CCBEE6480024690EE54207003D2
:1042FC000243D37A207B00900301E0F9121430A220
:10430C009750030243D3908253AC41AD42740112D7
:10431C001BC8790112129E7AC87B0012121A121451
:10432C00AE1214A21214A812149CC2AF7C2F7D0AD8
:10433C007AC479801213FA75217675220B782112C2
:10434C001F387C2C7D037A007B001211D87402126A
:10435C001CCB7A0A7B0012121A7521A275220E78D8
:10436C0021121F387CF47D007A007B101211D87456
:10437C0002121CCBA841A942882189227821121F44
:10438C00387C017D007AF07B1F1211D87402121C4C
:10439C00CB7821121F387C017D007AFE7B1F121115
:1043AC00D87402121CCB7821121F387C017D007A44
:1043BC00FF7B1F1211D87402121CCBD2AFC2AF7587
:1043CC00C9AB75C95B80FEEF5420700302459C7A23
:1043DC00087B0012138E8A238B247A007B109003A7
:1043EC0001E0F9121430EEF521EF6420F522900B68
:1043FC000EE0640570347525067526007825121FAD
:10440C00387C007D107AA77B0C12148A7402121C63
:10441C00CBE97016792812129E124E461214909007
:10442C000B0E7401F07A00024539AA23AB24121446
:10443C00F0E970030245777A00EAF8E52328F58263
:10444C00E43524F583A3E070037430F00AEAC394D6
:10445C000640E6852382852483A3AE82AF83900B2E
:10446C000EE0F874056870627525007527067528CE
:10447C00007827121F38EEFCEFFD85252774047891
:10448C0027121CA21246A312148A7402121CCBE926
:10449C00602B793312129E124E46121490900B0E12
:1044AC007401F09081A6121F4B7A007B10900301CF
:1044BC00E0F91214247404121CCB0245690525E59D
:1044CC0025C3940A40A57913804D740668707375E2
:1044DC0025007527067528007827121F38EEFCEF8B
:1044EC00FD85252774047827121CA21246A31214EA
:1044FC008A7402121CCBE960239081A6121F4B7A9E
:10450C00007B10900301E0F91214247404121CCBEC
:10451C00900B0FE4F0791612129E80267409652513
:10452C007017791712129E900B0FE4F0FA7B209003
:10453C000301E0F912143080500525E525C3940AD7
:10454C0040907525067526007825121F38EEFCEF75
:10455C00FD7A167B0B1212C87402121CCB7A007BEC
:10456C0020900301E0F912143080179081F2121F91
:10457C004B7A007B20900301E0F91214247404128E
:10458C001CCBAA23AB24121394AA21AB220246996A
:10459C00EF54106050854182854283E4F0FA7B1021
:1045AC00900301E0F9121430900AF5E064017010E8
:1045BC0012145AAC41AD4279017A057B03121448AE
:1045CC00900B0E7401F0792112129E7C0A7D0079F9
:1045DC00FF7A037B0B121490900B0FE4F0EEFAEFC2
:1045EC006410024692EF54407003024695900B30D3
:1045FC00E004F0F8EF6440FF74F92870327AF87B2D
:10460C000A121496E9F52112049AE521C39402507A
:10461C0056792512129E9081F2121F4B7A007B4024
:10462C00900301E0F91214247404121CCB8054E89A
:10463C00C39407E8502C604B1204A079001204B20A
:10464C00900B30E0F8C394024013900B36E0C0E0BE
:10465C0074F628F582E4340AF583D0E0F09081B644
:10466C0080B7C39409401C900B30E4F07C05FDF935
:10467C007AF87B0A1214907A007B40900301E0F9DF
:10468C00121430EEFAEFFB80047A007B00740712F0
:10469C001CCB7F10021DF774172527FA740C3528D4
:1046AC00FB2274172523F523740C3524F524752768
:1046BC00067528007827223522F58322F58374FFAE
:1046CC00F07C077D00790022852582852683E4F025
:1046DC00A3F0A3F0A3F07C07FD79BBE52F22E085C6
:1046EC002182852283A322900AF6E0F9892375247E
:1046FC0000740478232274F0121D2574F3121CB577
:10470C00EAFE74016E6003024DD3900303E0640172
:10471C006003024805900AFDE06003024810121283
:10472C0044E9901006F0F46051790012129E90103A
:10473C0006E0C0E0900B0FE0F8740328F582E43437
:10474C000BF583D0E0F0900B0FE004F0900B00E041
:10475C00700C7A027B00900301E0F9121430900B7C
:10476C0030E0600C7A007B40900301E0F9121430C9
:10477C009081EA121F4B7A40800E900B00E0701E65
:10478C00908196121F4B7A027B00900301E0F91284
:10479C0014247404121CCB901006E0F47012900BCD
:1047AC0030E060287A007B40900301E0F912131C82
:1047BC00900B0EE0C394024013901006E0F4602DB1
:1047CC007A007B10900301E0F9121430901006E08F
:1047DC00640A701990818E121F4B7A007B02900331
:1047EC0001E0F91214247404121CCB800C7A007BA7
:1047FC0002900301E0F9121430900303E0640160AD
:10480C0003024D7F901006E0F46072900AFDE07098
:10481C006C900B00E07003024D469081B2121F4B5E
:10482C007A007B04900301E0F91214247404121C26
:10483C00CB900B0FE0FA900B0EE0603014607E14FE
:10484C0070030249081470030249EF147003024A02
:10485C0051147003024B75147003024BCD1470038A
:10486C00024C15147003024C8F024DD3124E16706D
:10487C0003024C87EAC3940A4003024C877A807B7C
:10488C0000900301E0F912143074106E6003024DB5
:10489C00F9900303E0700C7A407B00900301E0F97F
:1048AC0012131C908196121F4B7A207B00900301EF
:1048BC00E0F91214247404121CCB024E0574026A23
:1048CC00700B901006E0640B70B3024C87EAC39433
:1048DC000340AA793012129E900B0FE4F0900B0E4D
:1048EC0004F07A007B04900301E0F91214307A0092
:1048FC007B10900301E0F91214308081EAC394021A
:10490C0050030249BD901006E0640B60030249BDE0
:10491C0074036A7005124E55800B74026A700A900B
:10492C000B03E024D0900AF6F0900AF6124E6912AE
:10493C001CA2124E0F740A122F44F4854182854238
:10494C008370457401F0793412129E12145AAC41E2
:10495C00AD4279017A057B031214487CA77D0F794F
:10496C00177A087B03121448900AF57401F09081B1
:10497C00A6121F4B7A007B10900301E0F91214244D
:10498C007404121CCB024B66E4F012145AAC41AD09
:10499C004279017A057B03121448790612129E9013
:1049AC000AF674FFF0900AF5E4F0900B0E04024B3B
:1049BC0060EAC39404501374036A6003024889903C
:1049CC001006E0640B7003024889793012129E9035
:1049DC000B0FE4F0124E2D900AF5124E4912149062
:1049EC000248EE74066A6003024889900B15E06475
:1049FC00BB7521067522007821702D121F387C039F
:104A0C007D0B7A107B0B1212C87402121CCB7C0A21
:104A1C007D0079FF7A037B0B121490900B0FE4F05E
:104A2C00790A12129E024889121F387C037D0B7A78
:104A3C00107B0B12148A7402121CCBE96003024B1C
:104A4C0034790C804EEAC39402404E901006E06418
:104A5C000B704674036A7005124E55800B74026A13
:104A6C00700A900B03E024D0900AF7F0900AF7122A
:104A7C004E69121CA27477124E11740B122F4464DF
:104A8C00BB600E791012129E900AF7124E30024C37
:104A9C00E4790E12129E024B66900AF7E0F8EAC314
:104AAC009404401474FF68700F793012129E900BAE
:104ABC000E7401F0A30249E674066A600302488989
:104ACC00900B15E064BB703A74FF68700302488960
:104ADC007521067522007821121F387C037D0B7A14
:104AEC00107B0B1212C87402121CCB7C0A7D00794D
:104AFC00FF7A037B0B121490900B0FE4F0790F02EA
:104B0C004A2E74FF687003024889752106752200CD
:104B1C007821121F387C037D0B7A107B0B1212DA72
:104B2C007402121CCBE9600F7A007B04900301E045
:104B3C00F912131C024CF1790C12129E900AF774A4
:104B4C00FFF07C067D0079BB7A107B0B12149090E1
:104B5C000B0E7401124E3A1214907A007B049003DF
:104B6C0001E0F9121430024CF190815A7407121DB5
:104B7C001B7406121BC8901006E0640B702774019E
:104B8C006A70227521067522007821121F3874096B
:104B9C00121D1B7A167B0B12148A7402121CCBE9A1
:104BAC007053024D37EAC394024003024CFF740168
:104BBC006A6003024889E0640B6003024CFF024800
:104BCC008990814E7401121D1B7406121BC874024D
:104BDC006A702A7521067522007821121F38740319
:104BEC00121D1B7A167B0B12148A7402121CCBE951
:104BFC007003024D37791212129E024CF1EAC394E3
:104C0C00035003024889024CFF901006E0640B70BD
:104C1C0051EAC39402404B74036A7005124E5580DE
:104C2C000B74026A700A900B03E024D0900AF7F020
:104C3C00900AF7124E69121CA27477124E11740B63
:104C4C00122F4464BB700D791C12129E900AF7123D
:104C5C004E308005791A12129E124E461214900292
:104C6C004889EAC394044003024CFFE0640B6003E0
:104C7C0002488974016A6003024889900B0FE4F0C2
:104C8C00024D37EAC394024064901006E0640B7046
:104C9C005C74036A7005124E55800B74026A700ABC
:104CAC00900B03E024D0900AF6F0900AF6E0F98914
:104CBC002175220074047821121CA2124E0F740A62
:104CCC00122F44F46003E9700A791C12129E124EE2
:104CDC002D8012791E12129E7C0A7D0079FF7A03B8
:104CEC007B0B121490900B0FE4F0024889EAC394EA
:104CFC00044025793012129E900B0E7401F0A31211
:104D0C004E491214907A007B10900301E0F91214B2
:104D1C00307A007B040248FE74016A600302488901
:104D2C00901006E0640B60030248897A007B0490C3
:104D3C000301E0F912131C024889900B0FE0FA12E0
:104D4C004E166006EAC3940A40067A007B0880DFA0
:104D5C00EAC394065003024889908196121F4B7A3D
:104D6C00007B08900301E0F91214247404121CCB8C
:104D7C00024889900B0FE4F0900B26E0C394064098
:104D8C003F1210BE7A527B081210CA8A218B228CD9
:104D9C00238D24900B277825121B6D90817278251A
:104DAC00121AE678257921121523404D900B261204
:104DBC004E24A3F0908176121F4B7A407B0080A387
:104DCC007A407B00024D3B74026E6003024889906E
:104DDC000303E0700C7A407B00900301E0F912139E
:104DEC001C7A807B00900301E0F912131C7A207B63
:104DFC0000900301E0F9121430740D121CCB7F08E3
:104E0C00021DF7743F2521F5822274022AF582E4F3
:104E1C00340BF583E0640B22E4F0A3F0A3F0A3F0D1
:104E2C0022900AF674FFF0900B0E7401F022F07CC5
:104E3C000A7D0079FF7A037B0B22900B0FE4F07C48
:104E4C000AFD79FF7A037B0B2275F00A900B03E0C5
:104E5C00540FA4F8A3E0540F2822900EA2E0F521E1
:104E6C00752200740478212274F4121D2574F11239
:104E7C001CB58921E9146010147003024F1D24FD28
:104E8C007003024F4B024FC77409121D1B7A047B2F
:104E9C000312144E7409121D01E0C0E07401121DBE
:104EAC0001D0E0F0740A121D01E0C0E07402121D82
:104EBC0001D0E0F0740B121D01E0C0E07403121D70
:104ECC0001D0E0F07405121D01E4F07404121D0110
:104EDC00E4F0740E121D01E0C0E07408121D01D044
:104EEC00E0F0740D121D01E0C0E07407121D01D03A
:104EFC00E0F0740C121D01E0C0E07406121D01D02C
:104F0C00E0F07401121D1B7A087900121052024F46
:104F1C00C7854182854283E4F07A04FB900301E06B
:104F2C00F9121430900303E06003024FC712145AB5
:104F3C00AC41AD4279017A057B03121448807C9018
:104F4C000AF5E064017043900B00E0640170607A34
:104F5C00107B0012138E8A238B24AE23AF248E82F7
:104F6C008F837401F0A3744FF08E828F83A3A3748C
:104F7C004B124FD612106A7A047B00900301E0F9B1
:104F8C00121430EEFAEFFB121394900AF3E0701F38
:104F9C00900AF5E07019908196121F4B7A047B00F1
:104FAC00900301E0F91214247404121CCB800C7AC7
:104FBC00047B00900301E0F9121430E52190030208
:104FCC00F0740F022F3CE9900B24F0EEFCEFFD7A0D
:104FDC001079012274F4121D2574FF121CB57A0885
:104FEC007B0012138E8A218B22AE21AF2285418247
:104FFC00854283E4F0900AF3E06023900AFEE064BB
:10500C0001701B900B2DE0701512145AAC41AD427F
:10501C0079017A057B03121448900AFEE4F0EEFA4B
:10502C00EFFB1214F0E970030250B97A00EAF8EEC3
:10503C0028F582E43FF583A3E070037430F00AEAAC
:10504C00C3940640E8752100752306752400782367
:10505C00121F388E828F83A3AC82AD83852123747B
:10506C00047823121CA274172523FA740C3524FB24
:10507C0012148A7402121CCBE9601B1214D2900E0B
:10508C00A37403F0E521A3F07A107B00900301E0F8
:10509C00F912131C80177409652170081214D87941
:1050AC000112129E0521E521C3940A409BEEFAEFF2
:1050BC00FB1213947401022F3C74F0121D25900303
:1050CC0003E064016003025D0CE9600A24FE7003D6
:1050DC0002571E025D0C7A1A7B0379001210707550
:1050EC00230A7524037823121F387C1A7D037A97C0
:1050FC007B0F120B607402121CCB7C2F7D0A7AC4BE
:10510C00798012140090030BE0F890030AE014600D
:10511C001D14700302532D14700302544924FB70A8
:10512C00030256C524F87003025705025D0C752264
:10513C000085222385232575260074047825121CEE
:10514C00A2742F2525FE740A3526FFEE2411F525B1
:10515C00E43FF5267527067528007827121F387C42
:10516C000B7D03AA25AB2612148A7402121CCBE900
:10517C0070030252999003047401F01204A0790197
:10518C001204B212049AE522900B75F07A047B009B
:10519C00900301E0F9121430E522900AF370427486
:1051AC0001F09081EA121F4B7A407B00900301E0E2
:1051BC00F91214247404121CCB900B2DE060259072
:1051CC000B00E0701F125D9D7A077B101204D6E96C
:1051DC00900B24F07C077D107A10790112106A80F4
:1051EC00037402F0EE2417F8E43FF9E8FAE9FB90B7
:1051FC000311E0F523540FFC8A828B83E0540F6C6F
:10520C007001E46003E523F0740F5523F874016812
:10521C00700B900AF47401F0900AFF800A74026813
:10522C007006900AF47402F074F0552370309003F9
:10523C002A7421F0E522A3700474118002742112E7
:10524C005D7512106A900AF5E064017011900B0EF6
:10525C007401F0A3E4F0793312129E025D0C9003FA
:10526C0011E054F064306003025D0CE5227003021F
:10527C005D0CEE2410F582E43F1246C8AA25AB263D
:10528C00121490900AF4E4125D4702598174096576
:10529C0022702F900AF5E06401702775250775269A
:1052AC00007825121F387C0B7D037A1D7B0B1212A4
:1052BC00C87402121CCB7A007B04900301E0F91233
:1052CC00131CE52375F006A4F523E5F0F5247438DA
:1052DC002523FE740B125D16121F387C0B7D03EE1A
:1052EC00FAEFFB12148A7402121CCBE960249003AF
:1052FC002A74CCF0A3F0A3125D7512106A7C067DA3
:10530C00007900EEFAEFFB121490900B74E014028B
:10531C005D0B0522E522C3940A4003025D0C025189
:10532C003D900B2DE090033AF0900B24E090101977
:10533C00125D956003025D0C7523037524007823C0
:10534C00121F387C0B7D037A177B1012148A74029F
:10535C00121CCBE9607D900B24E4F0780090033AAA
:10536C00E0A2E0505EE8601414601814601C146035
:10537C002014602414602814602C8047901027742B
:10538C00418028901027744280219010277443800C
:10539C001A901027744480139010277445800C9039
:1053AC001027744680059010277447F07C03790011
:1053BC007A277B101204D6E9900B24F07C277D1001
:1053CC00025C32E0C313F008E8C394074003025DAB
:1053DC000C808A900B2EE0F87003025D0C900B246D
:1053EC00E4F0E814601514601924FE601C24FC60C1
:1053FC001F24F8602224F060258029901037744116
:10540C0080219010377442801A90103774438013A7
:10541C009010377444800C901037744580059010B0
:10542C00377446F07C377D107A10790112106A7C43
:10543C0003900B24E0F97A377B100256BB752302DC
:10544C007524007823121F387C0B7D037A177B1090
:10545C0012148A7402121CCBE97003025D0C900AC0
:10546C00F3E064016003025D0C90030DE0F8A3E02F
:10547C0024BF602414607014700302552B14700345
:10548C000255751470030255C4147003025613149C
:10549C00700302565C025D0C900B24E0687040E4D3
:1054AC00F075220185222375240074047823121CC4
:1054BC00A2743F2523FE740A3524FF7C08125DD7A5
:1054CC001204D6124FD212106A0522E522C3940A96
:1054DC0040D2900B2DE0C2E0F0A37401025D0B12E0
:1054EC005D3174410256A4900B24E0687029E4F0FD
:1054FC007C06F97A2F7B0A1204D6E9900B24F07CF7
:10550C002F7D0A7A10790112106A900B2E740212F8
:10551C005D41C2E1025D0B125D3174420256A490F2
:10552C000B24E068703BE4F075220085222375247F
:10553C000074047823121CA274772523FE740B12BA
:10554C005DD21204D6124FD212106A0522E522C384
:10555C00940A40D7900B2DE0C2E2F0A37404025DD4
:10556C000B125D3174430256A4900B24E06870401A
:10557C00E4F075220085222375240074047823122C
:10558C001CA274172523FE740C3524FF7C06125DB7
:10559C00D71204D6124FD212106A0522E522C394F8
:1055AC000A40D2900B2DE0C2E3F0A37408025D0B0D
:1055BC00125D3174440256A4900B24E0687040E4F0
:1055CC00F075220085222375240074047823121CA4
:1055DC00A274A52523FE740E3524FF7C09125DD719
:1055EC001204D6124FD212106A0522E522C3940F70
:1055FC0040D2900B2DE0C2E4F0A37410025D0B12AC
:10560C005D3174450256A4900B24E068703BE4F0C5
:10561C0075220085222375240074047823121CA2A1
:10562C0074B82523FE740C125DD21204D6124FD21C
:10563C0012106A0522E522C3940A40D7900B2DE084
:10564C00C2E5F0A37420025D0B125D3174468048F4
:10565C00900B24E068703CE4F0900B2DF0A3F0125A
:10566C0014A87A0A7B0012121A7523A275240E78DC
:10567C0023121F387CF47D007A007B101211D87431
:10568C0002121CCB7A027B00900301E0F912131C6E
:10569C00025D0C125D317447F07C477D107A1079F5
:1056AC000112106A7C03900B24E0F97A477B1012EC
:1056BC0004D6E9900B24025D0BE8900852F090039D
:1056CC000CE0900853F090030DE0900854F0900318
:1056DC000EE0900855F090030FE0900856F0900300
:1056EC0010E0900857F01210B890032A7416F0A32B
:1056FC00744BF0A3744F025C2D744F686003025D11
:10570C000C90030CE064506003025D0C900AFF02E5
:10571C0059151210BE900B25E4F07A1A7B0379020E
:10572C0012107075230A7524037823121F387C1A03
:10573C007D037A977B0F120B607402121CCB9003C3
:10574C000BE0FE8E2375240074047823121CA2A88F
:10575C0023A924A3E0F52590030AE0146039147002
:10576C00030258261470030258831470030258BBAA
:10577C0014700302593D14700302599714700302FC
:10578C0059EF147003025B46147003025C3C1470F6
:10579C0003025D07025D0C742F28FE740A39FFEEBC
:1057AC002410F523E43FF524900B25E0F97C08AA9E
:1057BC0023AB241204D6125D907057E52568705205
:1057CC00900B2F7401F085238285248374FF125D66
:1057DC006B121F38EE2411FCE43F125DE11212C86B
:1057EC007402121CCB900B74E0041246CC90030B89
:1057FC00E0F52374047823121CA274402523FA7458
:10580C000A3524FB12149090032A7403125DC10212
:10581C00597B90032A74500258B0900B25E0F97C08
:10582C00067A2F7B0A1204D6125D907042EE6870D5
:10583C003E900B2F7401F07C067D0079007A2F7B53
:10584C000A1214907523067524007823121F387CD5
:10585C00577D107A2F7B0A1212C87402121CCB903F
:10586C00032A7404F0900B25E090032B02597B90D3
:10587C00032A7451025C29747728FE740B39125E6A
:10588C00081204D6125D907016E525687011125D31
:10589C007F12149090032A7405125DC1025C2D9046
:1058AC00032A7452F0A374FFF0A374CC025C2D9005
:1058BC000AF3E064016003025D0C7522008522236B
:1058CC0075240074047823121CA274172523FE740B
:1058DC000C125D16121F387C0B7D03EEFAEFFB12D7
:1058EC00148A7402121CCBE960247C067D0079FFBB
:1058FC00EEFAEFFB12149090032A7406F0A3744B8B
:10590C00125D7512106A900B2F7402025D0B7409F4
:10591C006522700F90032A7453F0A374FF125D7507
:10592C0012106A0522E522C3940A4003025D0C8022
:10593C008C900B25E0F97C067A0B7B031204D612B3
:10594C005D90703F900311E0687038900B2F7401DC
:10595C00125D6B121F387C0B7D037A2F7B0A12129F
:10596C00C87402121CCB90032A7407F0A3744B1258
:10597C005D7512106A7C2F7D0A7AC479801213FA35
:10598C00025D0C90032A7454025C29900B25E0F9FB
:10599C007C077A0B7B031204D6125D90703D90034A
:1059AC0012E0687036900B2F7402125D37121F389C
:1059BC007C0B7D0390030BE0F52374047823121CFD
:1059CC00A274772523FA740B3524FB1212C87402C7
:1059DC00121CCB90032A7408025C1E90032A745587
:1059EC00025C29900B25E0F97C087A0B7B031204EE
:1059FC00D6125D906003025B3E900313E068600377
:105A0C00025B3E90030CE0FC8C2375240075F007C0
:105A1C00A4F8A9F0747628FA740B39FB90030BE008
:105A2C0024CF601214604E147003025ABD1470031C
:105A3C00025AF6025D0C900B2F7402F0740478235A
:105A4C00121CA274762523FA740B3524FBEA24422B
:105A5C00F582EB3401F583EC125D6B121F387C0D73
:105A6C007D03EA2443FAEB3401FB1212C8740212D0
:105A7C001CCB025B36900B2F7402F0EA24E2F58209
:105A8C00EB3401125D27121F387C0D7D03EA24E3F1
:105A9C00FAEB3401FB1212C87402121CCB7A527B43
:105AAC00081210CA125DAE121CA2125D0F740E8089
:105ABC0070900B2F7402F0EA2428125D22121F380A
:105ACC007C0D7D03EA2429FAEB3402FB1212C87414
:105ADC0002121CCB7A527B081210CA125DAE121C39
:105AEC00A27452125D11740E8037900B2F7402F059
:105AFC00EA246E125D22121F387C0D7D03EA246F9E
:105B0C00FAEB3402FB1212C87402121CCB7A527BD1
:105B1C00081210CA125DAE121CA2747A125D1174B6
:105B2C000E3524F5837825121B7C90032A74090208
