:020000040000FA
:0600000002011A0227CBE9
:03002B00022F346D
:0300530002283E42
:03007B00022EF959
:10008300022637E5C754F84401F5C7790122000079
:100093000080FB120086B90003020104E47944786E
:1000A30008B800028004F709D8FCE4794C7802B858
:1000B30000028004F709D8FCE49002817898790D56
:1000C3008002F0A3D8FCD9FA784390014A7A01BAA6
:1000D30000028007E493A3F608DAF97A187B0F90FD
:1000E300014B786A79048015E493A3AD82AE838AC9
:1000F300828B83F0A3AA82AB838D828E83D8E9D9C6
:10010300E77582577583E1740312012C758291752B
:100113008300740012012C75D00075817F754181B5
:10012300754202759F00020096C09FF59FE473D04D
:100133009F22D083D082C09FE493C0E0740193C018
:10014300E0740293F59F220101030507FFFE778800
:1001530012993241142425360D0947656D696E697C
:100163002D424131303005120A001400020A000208
:1001730001060302E0FF2A2A47656D696E692D4275
:10018300413130302A2A0000000000FC040000083E
:10019300050A0B310B320B330B340B350B360B0AC1
:1001A3000A02534A000000000000000000000000A3
:1001B30000FFFFFFFFFFFFFF1122330000000000DD
:1001C300000000000000000044556600000000002D
:1001D300000000000000000002534A00000000007D
:1001E30000000000000000004F4B00000000000072
:1001F300000000000000000000534A00000000005F
:100203000000000000000000004357000000000051
:100213000000000000000000004357000000000041
:1002230000000000000000003132333435361F4B2C
:100233004F00000000000000000000000000FF006D
:1002430000B4000028002800283075A000A000A0FA
:1002530000A00000080008E001F0001000100010EA
:10026300001000100010005000500050001000104B
:1002730000D0070000000000000F0001000500305F
:100283007507001000010081FF00000000FF180740
:1002930036071E07FF02020208025000A0000000FA
:1002A300E803027E820100004082026282010000B4
:1002B3006510026882010000ED0202628201000003
:1002C3006610026A820100000303026282010000D9
:1002D3006710026C820100000503026282010000C4
:1002E3006810026E820800000603026282010000A9
:1002F30069100270820100006A10FF0100FF2002F2
:100303007E820100004382026282010000CE10025D
:10031300728200000000000266820300005303188B
:100323000D180D180D180D180D180D180D180D18A2
:100333000D180D180D180D180DAC0FC40FA60F02D4
:100343000202020202020202010D00000010010279
:100353007E8201000046820262820100000F1102C8
:1003630058820100007A0702628201000010110224
:1003730056820100005581026282010000111102C0
:1003830054820100004781026282010000121102BF
:100393005282010000938002628201000013110265
:1003A3005082010000B78002628201000014110232
:1003B3007682010000A5800262820100001511020D
:1003C300788201000081800262820100001611021E
:1003D3007A82010000398102628201000017110252
:1003E3007C8201000018110A4368617261637465BD
:1003F30072697374696320310016436861726163C3
:1004030074657269737469632032000A43686172A8
:1004130061637465726973746963203300027E8259
:100423000100004982026282010000B711024E827C
:100433000300008407026482010000B81102628293
:10044300010000C911026281030000940702668261
:10045300030000A507026482010000CA1102628240
:10046300010000DB11024C82030000AB070264822F
:10047300010000DC1101E803053F100AFFFFFF0044
:1004830001307503020106000000000000000000B7
:100493000000000000000000000000000000000059
:1004A300000000FFFF0600800CE8033132333435CF
:1004B3003612013502E90312013516E9031201353B
:1004C30018E9031201351DE9031201356C2F0012DF
:1004D3000135B82F00120135C62F001201350D3238
:1004E30000120135A13200120135D3340012013557
:1004F300CC3600120135DE4A001201355A52001281
:100503000135DA5300120135BF5400120135F7618A
:10051300001201353A62001201358AD70312013500
:10052300A1D703120135D2D7031201350DD8031217
:10053300013537D80312013561D80312013578D854
:10054300031201358FD803120135A6D803120135E2
:10055300CFD803120135E2D803120135F8D80312BC
:1005630001350BD90312013532D903120135C0EC21
:1005730002120135C4ED02120135FCED0212013500
:100583001FEE021201352AEE021201354DEE021260
:1005930001355CEF0212013531F002120135ACF086
:1005A3000212013534F1021201356FF102120135E5
:1005B300A6F10212013534F2021201350DF30212D3
:1005C30001356DF30212013578F302120135F7F3A9
:1005D30002120135FAF302120135FDF3021201355D
:1005E3008CF4021201358FF402120135BFF40212AA
:1005F3000135E9F402120135D7F50212013589F606
:1006030002120135FE9E03120135269F03120135A6
:10061300549F031201358B9F03120135E99F031287
:10062300013534A0031201357FA003120135BFA0A9
:100633000312013505A10312013533A1031201355C
:10064300F0A103120135FAA10312013507A2031227
:1006530001353AA20312013506A30312013512A391
:10066300031201352AA30312013534A30312013502
:100673004EE3031201355CE30312013574E3031205
:1006830001358CE303120135008002120135AC8081
:100693000212013527810212013548820212013507
:1006A3008482021201352D83021201351484021251
:1006B3000135788502120135CF8502120135508646
:1006C300021201354087021201358D87021201356E
:1006D300138802120135458802120135598A021224
:1006E30001359B8A02120135B98A021201353C8B0E
:1006F30002120135108C02120135D88C0212013519
:10070300D68703120135A9880312013552890312D2
:100713000135A58903120135558A03120135E18A92
:1007230003120135CD8B03120135FC8B0312013506
:100733000F8D03120135578D031201352C8E0312D1
:100743000135688E03120135848E03120135FFE6ED
:10075300031201355B7C00120135717C00120135F7
:10076300977C00120135B37D00120135BD7D001267
:100773000135F27E00120135EA7F00120135D79967
:1007830003120135079B031201353A9B031201350E
:10079300849B031201354B9D0312013592E801122C
:1007A3000135FCE8011201355BEA011201356BEA00
:1007B3000112013598EA01120135EFEA0112013500
:1007C30098EB011201359FEC0112013569ED01121D
:1007D3000135C9EE011201350CEF01120135B1EFFC
:1007E30001120135FEEF0112013524F0011201352A
:1007F30032F20112013537F2011201353CF40112D4
:10080300013589F401120135FCF4011201352FF58C
:1008130001120135D1F5011201357AF601120135C4
:10082300B2F601120135B5F601120135FDF60112DA
:1008330001353DF70112013594F70112013519C74E
:100843000312013531C70312013579C7031201358C
:100853008FC703120135D6C703120135EAC8031245
:10086300013577C903120135C2C903120135BF63CC
:1008730000120135CB630012013506640012013505
:100883004B64001201350B650012013591650012AE
:100893000135BD6500120135F66500120135346876
:1008A30000120135186A00120135FE6B0012013582
:1008B300416D001201358F6F00120135A1700012D6
:1008C3000135EC7100120135FC7200120135197308
:1008D300001201355473001201357673001201358D
:1008E300D973001201359A78001201352F7900125D
:1008F3000135807900120135A77900120135F979A4
:1009030000120135177A00120135717A0012013590
:10091300707B00120135F47B0012013579940312C8
:100923000135839403120135C69403120135E19412
:10093300031201357195031201359995031201359F
:10094300D695031201350D9603120135369603121F
:100953000135AB9603120135C09603120135D596C6
:10096300031201350697031201351A970312013555
:100973003F9703120135799703120135A5970312A7
:100983000135DD97031201353C9803120135BB98FD
:1009930003120135E698031201351199031201354B
:1009A3005A9903120135849903120135AF99031241
:1009B30001353BDF03120135BFD402120135EDD4FB
:1009C300021201353BD6021201351BD70212013543
:1009D3003AD702120135B7D702120135FAD70212FC
:1009E300013550D90212013511DA0212013598DCB2
:1009F3000212013539DD021201352FDE02120135F3
:100A03002CDF0212013586E00212013511E10212D8
:100A1300013587DC03120135F0DC0312013544DDB7
:100A2300031201356BDD031201359CDD0312013521
:100A3300A3AC0312013510AD0312013557AD0312F8
:100A430001356FAE031201356BAF031201354EB0A2
:100A530003120135FAF6021201353CF70212013591
:100A63000EF802120135E7F802120135E1F902121C
:100A73000135C3FA021201352CFB02120135E2FBE8
:100A83000212013556FC02120135C2FC0212013575
:100A9300EBFC0212013565FD02120135FEFD021267
:100AA300013563FE0212013578FE02120135BEFEE6
:100AB30002120135D7FE021201353CFF0212013545
:100AC3003FFF0212013520C40312013548C403124B
:100AD300013586C40312013544C503120135ABC584
:100AE30003120135C7C503120135EFC503120135E2
:100AF3001FC6031201352EC603120135ABC60312FE
:100B03000135D1C603120135D8D701120135B6D943
:100B130001120135E8DB0112013524DC0112013534
:100B230051DC011201353BDD0112013586DD011275
:100B33000135D1DD01120135E3DD0112013523DE7B
:100B43000112013558DE01120135A6DE011201350D
:100B5300D5DE01120135F8DE0112013545DF011240
:100B63000135CADF01120135E4E10112013523E445
:100B73000112013564E40112013506E60112013563
:100B830047E601120135BAE6011201350BE70112FE
:100B93000135E6E70112013510E80112013545E898
:100BA3000112013570E801120135AAC7021201359D
:100BB300A8C80212013541CF0212013562D10212D7
:100BC30001352DD30212013595D4021201358682E7
:100BD300011201353583011201356283011201359A
:100BE300A88301120135DE84011201350C8501123F
:100BF3000135A286011201351C87011201353787A1
:100C030001120135B287011201350C890112013538
:100C13006C8A01120135728B01120135D38C0112DA
:100C23000135EC8C011201354A8D01120135388EE4
:100C3300011201356B8E01120135DB8E0112013574
:100C4300558F011201359F8F0112013569900112F1
:100C530001353E91011201351D9201120135A89211
:100C6300011201351693011201358A9301120135E0
:100C7300B59301120135749401120135D99501120E
:100C83000135F695011201351596011201350697C6
:100C9300011201352B9701120135559701120135C8
:100CA300D097011201352A98011201359399011247
:100CB3000135419A01120135829A011201355D9D78
:100CC30002120135AB9D02120135B79D02120135A7
:100CD300959E02120135C69E02120135F79E02123D
:100CE3000135779F02120135F59F021201352DA0C0
:100CF300021201357FA002120135BCA00212013598
:100D0300D9A202120135FFA402120135EAA602128A
:100D13000135D4A802120135F47F00120135C1AFA9
:100D230001120135F1AF01120135CAB601120135C5
:100D33004FB8011201354CBE0112013534BF011207
:100D4300013571BF0112013594BF01120135C5BFD1
:100D530001120135CEBF01120135D8BF0112013591
:100D6300C6C001120135BCC101120135B29A01128C
:100D73000135B19E01120135B79E01120135F2A56D
:100D8300011201350BAB0112013552BD03120135BE
:100D9300E8BD03120135FEBD0312013574BE031213
:100DA3000135E8BE0312013526BF031201359ABF90
:100DB3000312013513C0031201351CC003120135A0
:100DC30028C0031201353DC0031201357BC0031255
:100DD300013591C003120135F0C00312013510B182
:100DE300031201351DB10312013537B10312013569
:100DF30076B103120135B4B10312013519B20312EE
:100E030001352EB20312013539B20312013546B250
:100E1300031201355DB2031201356BB203120135C2
:100E230076B20312013582B20312013591B2031275
:100E330001359CB203120135BFB20312013566B30B
:100E43000312013576B30312013590B30312013552
:100E5300ADB303120135C9B303120135EEB3031267
:100E63000135F9B3031201350EB40312013522B46F
:100E73000312013583B40312013589B4031201351A
:100E83008FB40312013595B403120135ADB40312C7
:100E93000135E0B403120135B4AB0212013538ACAD
:100EA30002120135E7AC0212013546AE02120135DA
:100EB30067B00212013553B10212013588B1021233
:100EC3000135AAB10212013559B20212013551B4EA
:100ED300021201357AB4021201350CB50212013542
:100EE3003EB5021201354BB502120135A2B502120D
:100EF3000135C8B50212013535B80212013538B9CA
:100F03000212013590B902120135F18E0212013538
:100F1300FB8F02120135E29002120135EC900212AE
:100F230001350E91021201351A9102120135B39265
:100F330002120135E29202120135FE9302120135CB
:100F4300579402120135BD95021201359C96021287
:100F53000135F89602120135659702120135A09703
:100F630002120135DF9702120135989A02120135F8
:100F7300B29A021201353E9B021201354C9B0212BA
:100F83000135A59B02120135B39B02120135269C44
:100F9300021201358A9C02120135D49C02120135DA
:100FA30092E102120135B4E102120135DAE30212D1
:100FB3000135EFE60212013507E802120135BAE8FE
:100FC300021201359CE90212013544D9031201359D
:100FD30069D903120135DBD90312013581F80112F6
:100FE30001358AF80112013593F8011201356AF9C6
:100FF300011201351BFB0112013551FB01120135B1
:101003008BFB01120135C1FB01120135FBFB011200
:1010130001352FFC011201355BFC01120135A4FCE3
:1010230001120135DEFC0112013527FD01120135E4
:101033007FFD01120135B4FD011201350FFE0112CE
:10104300013549FE011201359AFE01120135D0FE28
:10105300011201350AFF0112013538FF0112013572
:101063005BFF0112013554E60312013580E60312DA
:101073000135DBE603120135E5E603120135F5E63A
:1010830003120135ECC90312013511CA03120135EC
:101093003BCA031201355DB503120135A2B5031234
:1010A3000135BFB503120135A5B603120135F8B6F4
:1010B30003120135CDB7031201351FB903120135F0
:1010C30020C1031201353BC1031201356AC103126A
:1010D300013570C10312013576C103120135A3C175
:1010E30003120135C8C103120135DFC103120135F3
:1010F300F4C10312013548C203120135C1C2031200
:101103000135E1C20312013589E803120135D4C365
:101113000112013536C601120135EDC70112013541
:10112300EAC8011201357AC90112013501CA011257
:10113300013526CA0112013567CD01120135DDCD16
:1011430001120135CCCE0112013506CF0112013552
:1011530046CF01120135ECD00112013541D1011204
:1011630001358ED101120135FCD10112013522D294
:10117300011201353CD20112013552D3011201355E
:1011830062D30112013573D40112013588D40112DF
:101193000135BED4011201353FD6011201357ED689
:1011A30001120135A3D701120135B1E5031201354F
:1011B30049E60312013540E8031201357FE80312C3
:1011C3000135A6E903120135F0E40312013500E508
:1011D300031201350FE503120135A3E503120135AF
:1011E30054E003120135D8E0031201353EE1031246
:1011F300013533A8031201356AA8031201358BA800
:1012030003120135FBA80312013567A90312013547
:10121300BEAA03120135E2DD031201350ADE031211
:1012230001357EDE0312013595DE03120135E5DE5D
:10123300031201352FDF0312013532DF03120135AB
:101243007EE9031201358EE90312013591E9031298
:101253000135B8CC03120135FCCC0312013512CD94
:10126300031201352DCD0312013548CD031201358B
:1012730093CD03120135E2CD0312013522CE0312C1
:101283000135F87F0012013544D103120135CCD268
:10129300031201352DD30312013573D30312013524
:1012A300D0E803120135E3E803120135E7E803123E
:1012B3000135EEE803120135F0E803120135FBE8CE
:1012C3000312013500E903120135E2E70312013588
:1012D300E8E70312013536E80312013525E403126A
:1012E30001354EE40312013577E4031201358FE42F
:1012F30003120135D1E403120135F98E03120135CE
:10130300038F03120135438F031201358C8F0312B0
:101313000135C68F031201351C90031201353B9032
:1013230003120135449003120135959003120135E0
:10133300BE9003120135C89003120135399103128F
:101343000135C791031201351C92031201354A92EC
:1013530003120135C69203120135099303120135B5
:101363004693031201355893031201357793031201
:1013730001358093031201354D940312013583E740
:1013830003120135E9DA031201353ADB03120135A1
:10139300C3DB0312013529DC0312013504CF031229
:1013A30001352ECF03120135F7CF03120135D2D009
:1013B3000312013557E20312013588D503120135B3
:1013C300BED503120135F7D50312013550D70312E9
:1013D300013563FF0212013579FF0212013583FFE4
:1013E30002120135CDFF02120135008003120135CF
:1013F300BD8003120135F8800312013520810312E9
:101403000135828103120135CE8103120135398200
:1014130003120135B58203120135B183031201357D
:10142300388503120135BB85031201351F8603126C
:1014330001353686031201352C870312013578876F
:1014430003120135BBA303120135D0A303120135E7
:1014530080A403120135C0A403120135D9A40312D9
:1014630001350CA50312013559A5031201358DA5CC
:1014730003120135CFA503120135CDA703120135A0
:10148300DEB9021201353BBD02120135C3BE0212A1
:1014930001351ABF0212013539BF02120135B7BF38
:1014A3000212013547C1021201352BC20212013566
:1014B30037C60212013507C70212013558B90312A4
:1014C3000135A9B90312013542BA031201356ABACB
:1014D30003120135EDBA031201354BBB031201357B
:1014E30063BC03120135A4BC0312013576D3031286
:1014F300013585D303120135B0D303120135B6D3B9
:1015030003120135BCD303120135D7D303120135BE
:10151300DED303120135E5D303120135E9D30312F8
:10152300013578D403120135C7D40312013594E988
:10153300031201359DE90312013534E90312013524
:1015430060E903E066701008A3E066700A08A3E090
:1015530066700408A3E06622C3E7960809E79608C5
:1015630009E7960809E79622C3E09608A3E09608E0
:10157300A3E09608A3E09622C021C3E096F52108D4
:10158300A3E096422108A3E096422108A3E09645F2
:10159300217001D3D02122E9799EC608CAC608CB9F
:1015A300C608CCC6C370207996CACBCC7019798E85
:1015B300CBCC70137986CC700EF9802ACA33CACB90
:1015C30033CBCC33CC331930E7F2CCCBCA33501402
:1015D3007004EA30E00DE4CA3ACACB3BCBCC3CCC36
:1015E300500209C3E913C6CC182313C6CB18C6CAC5
:1015F30018C6F92212163720F01430E72B74FFFCBB
:10160300FBFA747F8022E4FCFBFA7480801AB480B6
:1016130008BC00F2BB00EF800F50EBF9E4C39AFA69
:10162300E49BFBE49CFCE499C6CC18C6CB18C6CA61
:1016330018C6F922E4C9C608CAC608CBC6D3330301
:1016430008CCC63392F0C3947F402E94184019C936
:10165300B90704CACBCC225025C309CA33CACB333A
:10166300CBCC33CC33D9F422F4600DC9CCC313CB28
:1016730013CBCA13CAD9F6CC22E4FCFBFA2214FC1E
:10168300FBFA22E62618461846184622E72719478A
:101693001947194722181818E60846087009E6265C
:1016A300087005E633F4220822191919E7094709D6
:1016B3007009E727097005E733F4220922E6084693
:1016C30008C3134608336002E633F422E7094709E7
:1016D300C3134709336002E733F4221216C06025AF
:1016E3001216CF6020121686700302168F080808A0
:1016F300E76670101819E766700A1819E766700430
:101703001819E76622F4221216C0601C1216CF6065
:1017130017121686700712168F7001D322C0D012CB
:10172300168F7006D0D0B322C32233D0D0501430DA
:10173300E0F6C3E7960809E7960809E7960809E77C
:1017430096B32220E0D5E6970809E6970809E697BD
:101753000809E697B3221216C0601B1216CF601653
:10176300121686700712168F600CB322C0D01216A1
:101773008F7005D0D022C32233D0D0501330E0EB8A
:10178300C3E7960809E7960809E7960809E796224A
:1017930020E0E4E6970809E6970809E6970809E6D2
:1017A30097221216CF60461216C0603DE968700892
:1017B300F618F618F618F622748067F71217D90987
:1017C3000909748067F7221216C0601D1216CF70C4
:1017D30005191919801A121698701F1216ACC370C6
:1017E30003E667331919194007181818220808085F
:1017F30074FFF618F618F618F6221216AC601712D4
:10180300168F702192F01216867019501720F0145B
:10181300080808090909E7F61819E7F61819E7F699
:101823001819E7F62212168660E6E869701F0808A1
:10183300E62480F608E436F618547FB47F0CE654A9
:10184300806007F6E418F618F622181822E9C6CCC9
:1018530008C6CD08C6CE08C6CFC0E0E8C0E0EAC0DF
:10186300E0EBC0E009E9F809E7FA09E7FBE6F91854
:10187300E6F8C3EC98ED99EE9AEBC2E7F5F0EFC208
:10188300E795F0500E600CEBCFFBEACEFAE9CDF909
:10189300E8CCF8EAA2E7D2E7FAEB33FB13F5F0EE74
:1018A300A2E7D2E7FEEF33FFC5F013A2E730E6016C
:1018B300B313C5F0C3C0E0C0F07F00C39BFB605E01
:1018C3009418600F401D14601AD0E023F9D0E0F89B
:1018D3000219AB8AF0E9486003D2F0E4AFF0FAF9F9
:1018E300F8803BEB30E40D89F0EA6003D2F0E4AF1B
:1018F300F0F9CAF8EB30E30D88F0EF6002D2F0AFF5
:10190300F0E4CAC9F8EB54076014FBC3EA13FAE91D
:1019130013F9E813F8EF135002D2E0FFDBEDD0E048
:10192300C0E030E739C3E49FFFF5F0EC98FC42F0E8
:10193300ED99FD42F0EE9AFE42F0D0E0F9D0E0F8E6
:10194300E5F0607AE923F9EE20E742D8028067C325
:10195300EF33FFEC33FCED33FDEE33FE80EAEC288E
:10196300FCED39FDEE3AFED0E023F9D0E0F8400279
:10197300801BC3EE13FEED13FDEC13FCEF135002BB
:10198300D2E0FF08B800067F7F74FF802EEF33504C
:10199300178CF020F00260100CBC000C0DBD000889
:1019A3000EBE000408E860DFE933E813FFEE2313FB
:1019B300FE4F4D4C8008E95480FFE4FEFDFCEE33FE
:1019C300EF33F47004FCFD7E80D0E0FBD0E0FAD06E
:1019D300E0F8D0E0CFC618CEC618CDC618CCC6F9ED
:1019E30022080808EAC0E0EBC0E086F0E7A4FA1892
:1019F3000986F0E7A42AFA180986F0E7A42AFA1858
:101A03000986F0E7A42AFA1986F0E7A4FBE5F02A91
:101A1300FA190886F0E7A42BFBE5F03AFA190886D1
:101A2300F0E7A42BFBE5F03AFA18180986F0E7A4CF
:101A3300C5F02BFBE43AFA1908E7C5F0C6A426F66D
:101A4300E5F03BFBE43AFA1886F0E7A4F6E5F00884
:101A530026F6E43B08F6E43A08F6D0E0FBD0E0FAD9
:101A630022E4CFC0E0E4CEC0E0E4CDC0E0E4CCC0EB
:101A7300E075F020E626F608E633F608E633F608C6
:101A8300E633F6181818EC33FCED33FDEE33FEEFB6
:101A930033FFC3EC9709ED9709EE9709EF971919EF
:101AA30019400FFFEC97FC09ED97FD09EE97FE191E
:101AB3001906D5F0BFECF709EDF709EEF709EFF7D3
:101AC300191919D0E0FCD0E0FDD0E0FED0E0FF22F0
:101AD3006016080808C6C313C618C613C618C6136B
:101AE300C618C613C6D5E0EA2270090808082260A2
:101AF30016181818C6C333C608C633C608C633C675
:101B030008C633C6D5E0EA22E627F60809E637F623
:101B13000809E637F60809E637F622E026F608A3B1
:101B2300E036F608A3E036F608A3E036F622E02610
:101B3300F008A3E036F008A3E036F008A3E036F09F
:101B430022C3E697F60809E697F60809E697F6082A
:101B530009E697F622C3E096F008A3E096F008A3FF
:101B6300E096F008A3E096F022E657F60809E65758
:101B7300F60809E657F60809E657F622E056F6088E
:101B8300A3E056F608A3E056F608A3E056F622E0D3
:101B930056F008A3E056F008A3E056F008A3E05679
:101BA300F022E0F608A3E0F608A3E0F608A3E0F6C7
:101BB30022E6F008A3E6F008A3E6F008A3E6F02285
:101BC300E0FAA3E0FBA3E0FCA3E0FD22EAF0A3EB31
:101BD300F0A3ECF0A3EDF022E0F8A3E0F9A3E0FA20
:101BE300A3E0FB22E8F0A3E9F0A3EAF0A3EBF022E1
:101BF300CAC0E0E6F0A308DAFAD0E0FA22CAC0E0ED
:101C0300E0A3C582CCC582C583CDC583F0A3C582BD
:101C1300CCC582C583CDC583DAE6D0E0CA22C3E44E
:101C230098F8E499F9121C628026C3E49AFAE49BBB
:101C3300FBE920E7E9121C62E498F8E499F922C36E
:101C4300E498F8E499F9121C62E498F8E499F9C36A
:101C5300E49AFAE49BFB22EB20E7CFE920E7E0B923
:101C63000010BB0008E88AF084F8AAF022E4FBC85D
:101C7300FA22EB70227B10C833C8C933C93350072B
:101C8300C39AC3DBF280069A50012ADBEAC833F415
:101C9300C8C933F4C9FA2275F008E4C833C8C93394
:101CA300C933C99AC99B5004C92AC93BD5F0ECFB77
:101CB300C833F4C8E4C9FA22600D08C6A2E713C604
:101CC30018C613C6D5E0F322600C08C6C313C618A2
:101CD300C613C6D5E0F422700422600D18C6C333C0
:101CE300C608C633C6D5E0F41822254110AF08F55F
:101CF30041400C15428008F54140021542D2AF2203
:101D030000C0D0254110AF08F541500C05428008B2
:101D1300F54150020542D2AFD0D0222541F58210C1
:101D2300AF08F541400C15428008F54140021542C9
:101D3300D2AF854283222541F582E43542F58322E1
:101D43002541F8E43542F9222541FAE43542FB22E4
:101D53002541FCE43542FD22E4732541C582C0E000
:101D6300E54234FFC583C0E0E541C3958224F81002
:101D7300AF088583428582418008858342858241FD
:101D8300D2AFCEF0A3E520F0A37821E608F0A3DEDE
:101D9300FAEFF0A3E58124FAF8E608F0A3E608F0E9
:101DA300A3E608F0A30808E608F0A3E608F0A315E5
:101DB300811581D0E0FED0E0F8158115811581E809
:101DC300C0E0EEC0E0222541C582C0E0E54234FF19
:101DD300C583C0E0E541C3958224F910AF0885832C
:101DE300428582418008858342858241D2AFCEF00D
:101DF300A3E520F0A37821E608F0A3DEFAEFF0A331
:101E0300E58124FBF8E608F0A3E608F0A30808E65A
:101E130008F0A3E608F0A315811581D0E0FED0E019
:101E2300F815811581E8C0E0EEC0E0228542838584
:101E33004182E0A3FEE0A3F5207821E0A3F608DFCA
:101E4300FAE0A3FFE0A3C0E0E0A3C0E0E0A3C0E0AA
:101E5300E0A3C0E0E0A3C0E010AF08858241858322
:101E6300428008858241858342D2AFD083D08202EB
:101E73000132854283854182E0A3FEE0A3F5207809
:101E830021E0A3F608DFFAE0A3FFE0A3C0E0E0A3AC
:101E9300C0E0E0A3C0E0E0A3C0E010AF088582414A
:101EA3008583428008858241858342D2AFD083D027
:101EB3008222C0D02541C582C0E0E54234FFC583FC
:101EC300C0E0E541C3958224F310AF0885834285C2
:101ED30082418008858342858241D2AFC8F0A3E95D
:101EE300F0A3EAF0A3EBF0A37921E709F0A3D8FA72
:101EF300ECF0A3EDF0A3EEF0A3EFF0A3D0E0F0A39A
:101F0300D0E0F0A3D0E0F0A3E520F0A3E5F0F0A348
:101F130022854283854182E0C0E0A3E0F9A3E0FA91
:101F2300A3E0FBA37821E0F608A3DFFAE0FCA3E03B
:101F3300FDA3E0FEA3E0FFA3E0C0E0A3E0C0E0A3B5
:101F4300E0F5D0A3E0F520A3E0A3F5F010AF0885FA
:101F530083428582418008858342858241D2AFD006
:101F630082D083D0E0F8D0E032740480067402801B
:101F7300027401C0E0F404121D1ED0E0121BF32210
:101F83007404800474028000CCC0E0EDC0E0E5413D
:101F9300C39CCCAD4250011D10AF068C418D4280D5
:101FA300068C418D42D2AF121C00D0E0FDD0E0FC84
:101FB30022D083D082E9C0E0E493A3C386F0C5F0C6
:101FC30095F0F908E493A386F0C5F095F0700BE45F
:101FD30093A3C3994005E9048002A3E475F002A426
:101FE3002582F582E5F03583F583D0E0F9E493A308
:101FF300C0E0E493C0E022D083D082ECC0E0EDC027
:10200300E0E493A3FCE493A3FDED4C600D122046A2
:10201300EC24FFFCED34FFFD80EFE493A3FCE49399
:10202300A3FDED4C600D122085EC24FFFCED34FF85
:10203300FD80EFD0E0FDD0E0FCE493A3C0E0E493A7
:10204300C0E022C0E0C3E49396087401939618405D
:102053000FE4936670080874019366187000701992
:10206300A3A3C3E49396087401939618A3A3400D06
:10207300D0E0D0E0D0E0022036A3A3A3A3A3A3D053
:10208300E022C0E0C0F088F0E493667008087401B1
:102093009366187000A8F0A3A3700BD0F0D0E0D023
:1020A300E0D0E0022036A3A3D0F0D0E02274F512F2
:1020B3001DC9EAFEEBFFEE2434F8EF3400F9882162
:1020C3008922EE2435F582EF3400F583E0F8EE241F
:1020D30037F582EF3400F583E0F523EC8523F0A494
:1020E300FCAAF08523F0EDA42AFDE82CF8E43DF9E1
:1020F3007A257B00121C62EA852182852283F0F80F
:10210300740758F97401B900028004C333D9FCFA87
:10211300E8131313541FF8EE28F8EF3400F9E824FA
:102123005DF582E93400F583E05A6008EE2434F566
:1021330082EF802CEE2434F582EF3400F583E0C087
:10214300E0EE2436F582EF3400F583E0F5F0D0E0DD
:1021530084A8F0EE28F8EF3400F9E82438F582E992
:102163003400F583E0F97F04021E7574F5121DC96E
:10217300EAFEEBFFEE2434F582EF3400F583E0C092
:10218300E0EE2435F582EF3400F583D0E0F08E8263
:102193008F83A3A3A3A3A3A3A3C082C0838E828F91
:1021A30083A3A3A3A3A3E0F8A3E0F9D083D082E0A1
:1021B300C398F521A3E099F522EE247FF582EF344D
:1021C30000F583E064017069EE2480F582EF34004A
:1021D300F583E0F8A3E0F98E828F83A3A3A3A3A3DF
:1021E300A3A3E0FCA3E0FD8E828F83A3A3A3A3A3F9
:1021F300E0FAA3E0FBC3EA9CEB9D5010C3EC98ED1F
:1022030099402EC3EA98EB995027800EC3EA98EBC6
:10221300994007C3EC98ED9940177C167D05EEFABB
:10222300EFFB120C70EE247FF582EF3400F583E4AC
:10223300F0EE2434F8EF3400F9E8FCE9FDEE243540
:10224300F582EF3400F583E0F8EE2437F582EF34BE
:1022530000F583E0F523E5218523F0A4F521AAF019
:102263008523F0E522A42AF522E82521F8E4352286
:10227300F97A257B00121C62EA8C828D83F0F87454
:102283000758F97401B900028004C333D9FCFAE892
:10229300131313541FF8EE28F8EF3400F9E8245D04
:1022A300F582E93400F583E05A6008EE2434F582C0
:1022B300EF802CEE2434F582EF3400F583E0C0E0A8
:1022C300EE2436F582EF3400F583E0F5F0D0E084B8
:1022D300A8F0EE28F8EF3400F9E82438F582E93461
:1022E30000F583E0F9122EEB022169C082C08385D9
:1022F3004182854283E0F8A3E0F9C3EA9CEB9D5059
:1023030010C3EC98ED99401BC3EA98EB99501480E5
:102313000EC3EA98EB994007C3EC98ED9940047912
:102323000180027900D083D08222EAC39CFAEB9D1C
:10233300FB2274EF121DC99003DCE064086005E022
:102343006407702A9061C8E0602490040AE0F46096
:102353001DE0F875F003A4C8AAF02AF9740C28FE4E
:10236300740439FF8E828F83A3A3A3E07003022436
:1023730065906060E0C0E0EE2468F582EF3400F51C
:1023830083D0E0F075257F75260575210075220041
:10239300E5D914F523E5D95403F5276017740365CC
:1023A30027605CE5236010EE2467F582EF3400F5C7
:1023B30083E0700302244A90057AE06401602AEE08
:1023C3002482F582EF3400F583E060047804800210
:1023D3007800852321E521C398FA95E0FB120B1AB7
:1023E3008A218B22EA45227005120E7A8074EE242C
:1023F30082F582EF3400F583E070048A258B26E5AD
:10240300236012852582852683F524E5D9F0A3155B
:1024130024E52470F6EE2482F582EF3400F583E0A0
:10242300604474FC2523F5237825121F70AC23A97F
:1024330027EEFAEFFB120D127402121D03E9702648
:10244300AA21AB2212138A793D8E828F83A3A3A381
:10245300A3E0FA7B001209EEEEFAEFFB120C8812EE
:102463000D247900807474036527605685232975CC
:102473002A007829121F70AC25AD26AA21AB22129F
:102483000CEE7402121D03EE2468F582EF3400F59E
:1024930083E064807004747F8001E0F52578251261
:1024A3001F74E527F5257825121F74A923AC21ADE8
:1024B3002290040AE0FA7B001209B27402121D038F
:1024C30080139003DCE06408600BAC25AD26EEFAC4
:1024D300EFFB120D7E120E8679017F0A021E7574C0
:1024E300F5121DC974FC121CEDEAFEEBFF8921A253
:1024F300AFE433F522C2AF806AEE2463F8EF340011
:10250300F97A007B00A2AFE433F523C2AF88828956
:1025130083E0FCA3E0FDEC4D603A88828983E0FA16
:10252300A3E0FB8A828B83E0FCA3E0FD888289839E
:10253300ECF0A3EDF08A828B83E4F0A3F088828928
:1025430083E0FCA3E0FDEC4D700A88828983A3A39A
:10255300E4F0A3F0E523A2E092AF12138A90051DE5
:10256300E004F0EE2463F582EF3400F583E0F8A392
:10257300E0F9E849603DEE2463F582EF3400F5832A
:10258300E02402FAA3E03400FBEA2402F523EB344F
:1025930000F5247823121F708A828B83E0FCA3E06A
:1025A300F9EEFAEFFB120CAC7402121D03E970038F
:1025B3000224FC90051DE0606390051EE0F8900581
:1025C3001DE0C398500C74026521705090051FE004
:1025D300604A8E828F83A3A3A3A3E08541828542B1
:1025E30083F0A3E4F090051DE0F87402121D39E8AE
:1025F300F0A3E4F090051DE0F890051CE028F074CA
:1026030002121D39AC82AD83854182854283AA8241
:10261300AB8379011209BE90051DE4F0E522A2E027
:1026230092AF7404121D03022169000000854487E0
:102633008545C622C0E0C0D0E8C0E0E9C0E0EAC0FA
:10264300E0EBC0E0ECC0E0EDC0E0EEC0E0C021C0D4
:1026530022C023C024C082C083C0F0A2AFE433FEF3
:10266300C2AF759B00906182E0A2E05012E591A297
:10267300E0500C7591FE740165447003122335E03C
:10268300A2E55051E591A2E5504B7591DF9003DC33
:10269300E064076005E064087023740165447035E5
:1026A300790190040AE0FA75F003A4CAA8F028FBA4
:1026B300740C2AFA74043BFB1224E28018E0640DC4
:1026C30070139003FEE004F064287002E4F07A00D3
:1026D300E0F9120E8C906182E0A2E6400302277EAD
:1026E300E591A2E6400302277E7591BF9003DCE0EB
:1026F30064057008120DB4120DC08003120DBA7573
:102703004400120E1AE99003DDF07900120E0E1246
:102713000BE07A017B009003DBE0F912135490780D
:1027230003E06442705590057EE014F0704DC2AF33
:1027330012273600784DD0E0F618D0E0F6E59F5426
:102743000770057522FF800375227FC4C0E0784CB3
:10275300E6F52108E65522F522740B7821121CCBED
:10276300D0E02521F8906270E0A2E740F8E8C33397
:10277300906272F0906270E0D2E0F0906181E0A22A
:10278300E35009E5E9A2E3500375E9F7A3E0A2E703
:102793005009E591A2E7500375917FEEA2E092AF55
:1027A300D0F0D083D082D024D023D022D021D0E047
:1027B300FED0E0FDD0E0FCD0E0FBD0E0FAD0E0F9C1
:1027C300D0E0F8D0D0D0E032C0E0C0D0C082C08327
:1027D300906183E0A2E05009E5BFA2E0500375BF1A
:1027E300FEE0A2E15009E5BFA2E1500375BFFDE0A1
:1027F300A2E25009E5BFA2E2500375BFFBE0A2E3EA
:102803005009E5BFA2E3500375BFF7E0A2E4500906
:10281300E5BFA2E4500375BFEFE0A2E55009E5BFB1
:10282300A2E5500375BFDFE0A2E65009E5BFA2E6CB
:10283300500375BFBFD083D0828088C0E0C0D0E88A
:10284300C0E0E9C0E0EAC0E0EBC0E0ECC0E0EDC00E
:10285300E0C0F0E5A7A2E6500FE5A1A2E6500953B8
:10286300A7BF75A1BF1228A3E5A7A2E5500CE5A158
:10287300A2E5500653A7DF75A1DFE5A7A2E1500942
:10288300E5A1A2E1500375A1FDE5A7A2E2500CE585
:10289300A1A2E2500653A7FB75A1FBD0F00227B417
:1028A30074F8121DC97544019003DCE064067015C9
:1028B300120D428A828B83A3A3A3A3A3A3E0FAA34B
:1028C300E0FB120DA2A2AFE433FED2AF9003E2E02D
:1028D300640170187A207B009003DBE0F91214681E
:1028E3007A207B009003DBE0F912135A906182E0B7
:1028F300D2E6F090057BE0602185C6458016900303
:10290300E1E064017008E5C654F84405F5C653BE1A
:10291300FC1226307401654460E4EEA2E092AF7FBE
:1029230001021E75008E468F4785824B85834A853B
:102933004182854283E0CEA3E0CF854B82854A83E3
:10294300EBC9EAC8EDCBECCA75F010C3E833C8E9AC
:1029530033C9EA33CAEB33CBC3EA9EF549EB9FF5A0
:1029630048B35004AB48AA49EC33CCED33CDD5F092
:10297300DAAE46AF472274E9121DC974F8121CED92
:10298300854182854283ECF0A3EDF08A218B22906E
:1029930003DCE024F7C394055006752101022B10D4
:1029A300120D428A238B24AE23AF24EE4F70030211
:1029B3002B0DAC21AD227402121D39AA82AB8312F6
:1029C3000DD28E828F83A3A37525FF7526FF7527EE
:1029D300FF7528007825121B7F7402121D39752993
:1029E300FF752AFF752BFF752C007829121B7F7842
:1029F30025792912155B502A78257929121B4475EC
:102A030021017522C87523007524007821792512C8
:102A1300155B505285252185262285272385282469
:102A23008050752D01752EC8752F007530008529CE
:102A330021852A22852B23852C2478217925121B95
:102A430044782D792112155B401C752100752200F5
:102A530075230075240178217929121B4478217983
:102A630025121B0B800C752101752200752300753F
:102A7300240074097821121AEC752519F526F52717
:102A8300F52878217925121A648E828F83A3A3A354
:102A9300A3A3A3E0F8A3E0F97AD07B03121C628816
:102AA300258926E4F527F52878217925121B0B744F
:102AB30006121D39E0F8A3E0F97AD07B03121C62F9
:102AC300E8FA8A25E4F5267821792512155B500763
:102AD30078217925121B449003DCE06408600AE046
:102AE30064066005E06405702D75250D7825792150
:102AF30012155B40217525F47526FF7527FF752890
:102B0300FF78217925121B0B800C7521007522009B
:102B1300752300752400854182854283E0F8A3E094
:102B2300F58388827821121BB47408121D037F1069
:102B3300021E7574F7121DC9120DE4900579E06445
:102B4300017010906245E4F0A3F053F4F343FE0CDC
:102B53005390F3120D90E5C654804449F5C6E59EA3
:102B6300547F644970F8906185740FF0900577E0A5
:102B7300F47002A3E0604E900578E0600814601BD7
:102B830014602E8040752101752200900577E0784E
:102B930021121CDAE521F45280802A752101752265
:102BA30000900577E07821121CDAE521F452908039
:102BB30014752101752200900577E07821121CDA43
:102BC300E521F452A079007F02021E7574F7121DED
:102BD300C9E9FEEAFF74016E700C7A807B009003F2
:102BE300DBE0F9121354902F64E493F46008E49348
:102BF300F9120BD4800953C680E59E547F70FA12F4
:102C03000D96900579E064017003120BF29005773D
:102C1300E0F47002A3E0604B900578E06008146074
:102C23001A14602C803D752101752200900577E010
:102C33007821121CDAE52142808028752101752252
:102C430000900577E07821121CDAE5214290801389
:102C5300752101752200900577E07821121CDAE5D1
:102C63002142A0120DE4120D428A218B22A821A930
:102C730022E8496015E5E170FCE82414F582E934A3
:102C830000F583E0F46003E0F5E174016F700A7A04
:102C9300019003DBE0F91213DE022BCA74ED121D5F
:102CA300C98A218B228C238D247413121D39782514
:102CB300121BA57821792512155B752901752AC880
:102CC300752B00752C00501278217925121B44783E
:102CD30029792112155B5016801078257921121B52
:102CE300447829792512155B400479018002790023
:102CF3007F0C021E7574ED121DC98A218B228C2351
:102D03008D247413121D397825121BA5782579217A
:102D130012155B401178217925121B44AA21AB229D
:102D2300AC23AD248022752900752A00752B00750C
:102D33002C0178297925121B4478297921121B0B40
:102D4300AA29AB2AAC2BAD2C80A68A828B83752152
:102D5300FF7522FF7523FF7524007821121B927FD4
:102D630004021E7574F5121DC98C828D837821129D
:102D73001BA58A828B837821121B58EA2404F8EB63
:102D83003400F98C828D83A3A3A3A3E0FCA3E0FD0D
:102D930088828983C3E09CF0A3E09DF088828983C5
:102DA300C3E09420A3E0944E40268A828B8375214E
:102DB300FF7522FF7523FF7524FF7821121B318ACB
:102DC300828B83A3A3A3A3E02420F0A3E0344EF0DB
:102DD300022D4D74F5121DC9E9FE900531E0FAA3E9
:102DE300E0FBEEC333F8E433F974C928F582748049
:102DF30039F583E02AF521A3E03BF5227821121F60
:102E0300707A407B427C0F7D001229287402121DC8
:102E1300038A218B228C238D2474107821121AD3D8
:102E2300AA21AB227F04021E7574F1121DC98A25E3
:102E33008B268C278D28740F121D39E0FAA3E0FB33
:102E43007411121D39E0F521A3E0F5227821121F38
:102E530070EA2401F521EB3400F522E4F523F5248F
:102E6300782579211219E475217175220278257963
:102E7300211219E4AA25AB26AC27AD281229287400
:102E830002121D038B22EA452260047A0180027A32
:102E930000EC2AFCED3400FD7413121D39E0F8A395
:102EA300E0F9E8FEE9FFECF8EDF97A717B02121C18
:102EB30062882189228E828F837821121BB4ECF8D9
:102EC300EDF97A717B02121C628A218B22740578D8
:102ED30021121CDA8E828F83A3A3A3A3E521F0A37F
:102EE300E522F07F08021E75C082C083E99060006E
:102EF300F0D083D08222C0E074F2121EB5A2AFE4F8
:102F030033FED2AFE58AA2E4400CE58AA2E640068E
:102F1300E58AA2E7500312122E538AEF538ABF5356
:102F23008A7FC2EB754300EEA2E092AF7F01021FDE
:102F330014C0E0C0D0E8C0E0E9C0E0A9A8D2AFC2A5
:102F4300C7754300E9A2E7E433F8E9A2E792AFD0FB
:102F5300E0F9D0E0F8D0D0D0E032C2AF02000022D6
:102F6400FFFFFFFFFFFFFFFFC082C08390780E12B8
:102F74002FAEA3F090780F122FAEF0907810122F8E
:102F8400A7A3A3F0907811122FA7A3F090781212A0
:102F94002FA7F0907813E08A828B83F0D083D082BD
:102FA400020132E08A828B83A322E08A828B83A38C
:102FB400A3A3A322AABDA8BC75B437EAFBE8FA020E
:102FC400013274F4121D5D74EE121CED908284AC17
:102FD40041AD427401121C007E008027EE6024146F
:102FE4006038146030146032146036147003023197
:102FF400D714604E14700302309714700302309C8F
:103004000231FE79811210EAE9F8740F58F97470EC
:103014005829FF800579811210EA7AF47B01023184
:10302400F879811210EAE9F8740F58F97470582984
:10303400F8EF9850030231FEC2AF75C9AB75C95B96
:1030440080FE854182854283E4F0A841A94288211B
:1030540089227821121F707C017D007AF87B1F126F
:10306400120A7402121D03854182854283E0640AB8
:10307400600AC2AF75C9AB75C95B80FE1212A6792E
:103084001F1212D67AF47B01121252121534121244
:10309400B280871212AC80EC9080D97402121D5356
:1030A4007410121C0090828304121D537401121CAC
:1030B400001214E61214D41214DA1214E074021278
:1030C4001D4B1204DE7521107522007821121F7029
:1030D4007404121D537A5F7B0A1213007402121DCA
:1030E40003C2AF1204D28A218B22E521242CFEE5EF
:1030F400223403FFC3EE94F1EF941F50E6900A6F5D
:10310400E521F0A3E522F01204D2EA24F4F8E43B2A
:10311400F9C3E52198E5229940EDC3E5219AE5221A
:103124009B5007C3EA9EEB9F40DDC3E894F1E9940A
:103134001F50D4900A71EAF0A3EB124A8D12143294
:103144007521F775220A7821121F707C2C7D03905B
:103154000A6F124AD81212107402121D037A0A7BE3
:103164000012125275212375220E7821121F70123B
:103174004AD11212107402121D037401121D4388E5
:103184002189227821121F707C017D007AF07B1F37
:103194001212107402121D037821121F707C017D1B
:1031A400007AFE7B1F1212107402121D0378211282
:1031B4001F707C017D007AFF7B1F121210740212B3
:1031C4001D0379011212D6D2AFC2AF75C9AB75C94E
:1031D4005B80FEA841A942882189227821121F70B0
:1031E4007C017D007AF87B1F1212107402121D03F9
:1031F4007A327B001212521215340EEEC394095027
:1032040003022FE074120253C474F6121D5D74F0AD
:10321400121CED8A218B229080F9AC41AD427410CE
:10322400121C00AA41AB421204CC7406121D39745C
:1032340010F07407121D397407F004121D39741349
:10324400F07409121D39740AF0121D397432F074C5
:103254000B121D397414F0740C121D397402F074BD
:103264000D121D397442F0740E121D39744AF07433
:103274000F121D397443F07821121F707402121D4D
:10328400537A187B0F120B3E7402121D0374101232
:103294001D037F02021E2F3522F583E02274F612ED
:1032A4001D5D74EE121CEDE9900281F01212CA7CCD
:1032B400067D007A1F7B00120604854182854283C5
:1032C400E4F0740C121D397488F0A37413F07401C3
:1032D400121D397401F0740A121D39740AF0A3E442
:1032E400F07408121D397414F0A3E4F07406121D6E
:1032F40039E4F0A3F07404121D397464F0A3E4F00B
:10330400AC41AD4279017A057B03121480740C122E
:103314001D5379027A067B031214807C287D0F7971
:10332400177A087B031214807C3F7D0F79077A0794
:103334007B031214807401121D5379017A107B03EC
:10334400121480740A121D5379027A117B03121429
:10335400807408121D5379027A127B03121480744C
:1033640006121D5379027A137B031214807404121B
:103374001D5379027A147B031214807C467D0F7AE4
:1033840015790012077E7CA07D007A067B00120668
:10339400047CA07D007A077B001206047CA07D00DB
:1033A4007A087B001206047CA07D007A097B001257
:1033B4000604740E121D3912520A04121D397401C6
:1033C400F0854182854283F07403121D39E4F07460
:1033D40002121D397401F0740E121D5379047A0817
:1033E4007B0412110E7401121D5379017A007B04BF
:1033F40012110EAC41AD4279017A027B0412110E16
:103404007403121D5379017A037B0412110E7402A2
:10341400121D5379017A067B0412110E9081C61293
:103424001BC31207849081C6121BC312088C12108E
:10343400849081C6121BC3121096900281E0F91287
:1034440012E812152E1204B41204BA12150412153D
:10345400161212A01210C01210C61212B890828254
:10346400AC41AD427401121C00A841A942882189D3
:10347400227821121F707C017D007AF07B1F1212CA
:103484000A7402121D03854182854283E064AA60A6
:10349400031205141212767AF47B011212527A5F27
:1034A4007B0F12109C790112098879021209827922
:1034B4000012098E79011209947A017B009002812D
:1034C400E0F912135479011213D87412023293746E
:1034D400EC121D5D74FD121CED892390823AAC41FF
:1034E400AD427403121C007A10FB1213C68A218B9E
:1034F40022AE21AF22C2AFA841A9428821892278F5
:1035040021121F707C017D007AFE7B1F12120A7447
:1035140002121D037401121D3985822185832278CC
:1035240021121F707C017D007AFF7B1F12120A7426
:1035340002121D037402121D3985822185832278AB
:1035440021121F707C017D007AF07B1F12120A7415
:1035540002121D03D2AF1204C68A218B221204C6A2
:103564008A258B261204C68A278B28A827A928C354
:10357400E5219525E52295265052C3E52598E526B3
:10358400994052C3E52198E52299405A852129851D
:10359400222AE4F52BF52C782912159A900AB27890
:1035A40029121BB4854182854283E0603FF525E4FE
:1035B400F526F527F528782512159A782979251204
:1035C40017A5900AB27829121BB48046C3E8952542
:1035D400E99526500885252985262A80B5C3E895CE
:1035E40021E9952250A68829892A80A67401121DF2
:1035F40039E0F8601D8825E4F526F527F5287825B7
:1036040012159A782579291217CA900AB2782512C8
:103614001BB4900AB27825121BA59081C278291296
:103624001BA5782579291217595006900AB6E4800B
:103634002978251215F7E52524BDF8E52634F9F98E
:10364400E875F064A4F8AAF075F064E9A42AF97A9C
:10365400547B01121C62E8900AB6F0740165237071
:10366400518E828F837431F0EE2402F8E43FF9E83E
:10367400FAE9FBA3A882A98375F00A900AB6E0844C
:10368400940A88828983400A7401F08A828B83E4D5
:10369400801AE4F0900AB6E0F875F00A84A9F0758F
:1036A400F00AE884C454F0298A828B831253D0121E
:1036B40010A2EEFAEFFB1213CC900AB6E0F97403F1
:1036C400121D037F0C021E2F74E8121D5D74F91283
:1036D4001CEDEAFEEBFF5480603A900281E0F9129F
:1036E400133C8A218B22EA452260218A828B83E063
:1036F40064C07011A3A3A3E0FA8521828B83A3A3E2
:10370400E0F91204F6AA21AB2212132AEEFAEF64AE
:1037140080024A57EEA2E050147A5B7B0F12148C9D
:103724007A867B0212112CEE6401024A555402601F
:10373400201205029081B2121F837A027B0090024C
:1037440081E0F912145C7404121D03EE6402024A4F
:1037540055EE544070030239BA900283E070047449
:10376400018001E4F07C057D0079007A787B0A12FF
:1037740014C8900AB1E4F0900283E064016003028B
:10378400382679001213D8900AAFE4124A8D121425
:1037940038900AB7E06037C2AF7521F775220A780E
:1037A40021121F707C2C7D03900A6F124AD81212CA
:1037B4000A7402121D0375212375220E7821121F2B
:1037C40070124AD112120A7402121D03D2AF1210DF
:1037D400F61212BE79001212D67A027B0090028190
:1037E400E0F91213549081D2121F837A007B019066
:1037F4000281E0F912145C7404121D037A007B4008
:10380400900281E0F912135490822A121F837A40A5
:103814007B00900281E0F912145C7404121D03020F
:1038240039B4854182854283E4F0121492AC41ADEF
:103834004279017A057B03121480900A80E4F090A7
:103844000AB7E06025900A8EE4F0900AB0F0900A7E
:103854008FF0900A7EF0900AF5F0900A7DF0900ABD
:1038640075126129900AABF080031214E61212B2A9
:103874001215161210C0900AB7E0700302391C909A
:103884000AADE064426008900AAFE06401700FC2C0
:10389400AF7CAF7D097AC47980121432D2AF900A1A
:1038A400ADE0F860057442687008900AAFE0640205
:1038B4007066C2AF7521F775220A7821121F707CD9
:1038C4002C7D03900A6F124AD81212107402121D32
:1038D400037A0A7B00121252900AF6E0640170180F
:1038E400E4F075212375220E7821121F70124AD13B
:1038F4001212107402121D03900AADE0A2E45016D5
:1039040075212375220E7821121F70124AD11212CA
:10391400107402121D03D2AF1212C47A007B2090DD
:103924000281E0F91214687A087B00900281E0F9C0
:103934001214687A047B00900281E0F91214687A08
:10394400027B00900281E0F91214687A407B0090B7
:103954000281E0F91214687A007B02900281E0F996
:103964001214687A007B04900281E0F91214687AD8
:10397400007B10900281E0F91214687A007B0890B1
:103984000281E0F91214687A007B01900281E0F967
:103994001214687A107B00900281E0F91214687A9C
:1039A400007B40900281E0F912146879011213D867
:1039B400EE6440024A55EF54027003023A857A00DD
:1039C4007B02900281E0F91214687A007B04900271
:1039D40081E0F9121468900A80E070047401800197
:1039E400E4F0900A8EE4F0121516900AA6E4F09022
:1039F4000A8F1252301214C8900A80E085418285E1
:103A04004283602EE4F0121492AC41AD4279017A03
:103A1400057B031214807A027B00900281E0F91284
:103A240014687A007B08900281E0F9121468790323
:103A340080447401F0121492AC41AD4279017A05CC
:103A44007B031214809081B2121F837A027B009050
:103A54000281E0F912145C7404121D037A007B10D5
:103A6400900281E0F91214687A007B20900281E0D0
:103A7400F912146879271212D6EEFAEF6402024A98
:103A840057EF54047003024090900A8FE4F0FA7BDD
:103A940004900281E0F91214687A007B109002818C
:103AA400E0F9121468900A83E0F8900A8EE060331B
:103AB400147003023B7F147003023CBA14700302B7
:103AC4003DCC147003023E11147003023E96147030
:103AD40003023F31147003023FCD147003023FFF11
:103AE40002407A7521067522007821121F707C83AA
:103AF4007D0A7AAF7B091214C27402121D03E960B5
:103B04003290821A121F837A407B00900281E0F97E
:103B140012145C7404121D03900A8E7401F079224D
:103B24001212D67C0A7D0079FF7A837B0A1214C8AC
:103B340002407A900A8EE4F079041212D6900AA612
:103B4400E0041252201214C8900AA6E0C39406504E
:103B54000302407A1210F67AD27B07121102EAF8B5
:103B6400EBF9ECFAEDFB900AA7121BE77A407B0015
:103B7400900281E0F912135402407A7521027522F1
:103B8400007821121F707C837D0A7A617B0F1214E6
:103B9400C27402121D03E96032900A8E7402F07935
:103BA400051212D6900A8EE0C39402401790821632
:103BB400121F837A007B10900281E0F912145C7466
:103BC40004121D03900A8FE40240797821121F70B9
:103BD4007C837D0A7A637B0F1214C27402121D0364
:103BE400E9600A900A8E7403F0790980B47821128E
:103BF4001F707C837D0A7A657B0F1214C2740212D3
:103C04001D03E9600F900A8E74041252201214C826
:103C1400790D808D7821121F707C837D0A7A677BF1
:103C24000F1214C27402121D03E9601A79121212DF
:103C3400D6900A8E7405F07A007B20900281E0F918
:103C4400121354023BA87821121F707C837D0A7AD8
:103C5400697B0F1214C27402121D03E9600C7912FD
:103C64001212D6900A8E740680CC7821121F707CB2
:103C7400837D0A7A6B7B0F1214C27402121D03E94E
:103C8400600B900A8E7407F07919023BA578211213
:103C94001F707C837D0A7A6D7B0F1214C27402122A
:103CA4001D03E9900A8E60087408F0791D023BA593
:103CB4007401F0023BC87A107B001213C68A218B70
:103CC40022900A75E064016003023DB7900A84E023
:103CD400640B6009A3E0640B6003023DB7124AC29F
:103CE400121CDA74BF1260F374093524F583E0F40E
:103CF4006003023D9AE9900AA37005E0441180082C
:103D0400E044211261234441F0124AC2121CDA74C5
:103D1400AF2523FA74093524FBEA2410F582E43B29
:103D2400F583E9126119121F707C9D7D0AEA241142
:103D3400FA50010B1213007402121D037C06790061
:103D44007A9D7B0A12050EE9F88521828522837407
:103D54002FF0900A76124AB9F0900AA3124AB9A336
:103D6400F0E8852182852283A3A3A3F0AC21AD22B0
:103D74007A1079011210A279071212D67C077D00FD
:103D840079007A9D7B0A1214C87CAF7D097AC479C4
:103D940080121432801D854182854283E4F012141E
:103DA40092AC41AD4279017A057B031214807924E7
:103DB4001212D6AA21AB221213CC900A7674FFF009
:103DC400900A75E4F002407475210675220078218A
:103DD400121F707C837D0A7A907B0A12131274027C
:103DE400121D03E960207821121F707C907D0A7AED
:103DF400AF7B091213007402121D03900AADE04454
:103E040042F0790B8002790C1212D6807575210666
:103E14007522007821121F707C837D0A7A907B0AB8
:103E24001213127402121D03E9604C900A77E0FC2D
:103E34008C2174047821121CDA74F72521F8740A91
:103E44003522F9E8FAE9FBEC8A828B83A3F0752129
:103E5400067522007821121F707C907D0AEA2402E4
:103E6400FA50010B1213007402121D03900AADE004
:103E74004444F079118002790C1212D6900A7774B6
:103E8400FFF07C067D0079BB7A907B0A1214C8028D
:103E940040747A087B001213C68A218B2290818A8F
:103EA4007401121D537406121C00900A83E0640B03
:103EB4006003023FC375250085252375240074041F
:103EC4007823121CDA124A73121F707403121D53E2
:103ED400AA23AB241214C27402121D03E9603C75B8
:103EE40025067526007825121F707C967D0AAA2364
:103EF400AB241213007402121D03900A8E7401F095
:103F04007C067D0079BB7A967B0A1214C8900AADB0
:103F1400E04448F079141212D6800F7409652560C4
:103F2400090525E525C3940A408E023FC37A087B20
:103F3400001213C68A218B2275230275240078236C
:103F4400121F707C837D0A7A6F7B0F1214C2740275
:103F5400121D03E960697525008525237524007405
:103F6400047823121CDA124A73121F707C967D0A9D
:103F7400AA23AB241214C27402121D03E9602C7C20
:103F8400067D0079FFAA23AB241214C87C067D00A9
:103F940079BB7A967B0A1214C8900A8E7401126156
:103FA400234448F079181212D680147409652570D8
:103FB4000579171212D60525E525C3940A409AAA55
:103FC40021AB221213CC024074740B6860030240CC
:103FD400747C077D0079BB900A77E0F5218D22740B
:103FE400047821121CDA74F82521FA740A3522FBAC
:103FF4001214C8900AADE04444806F740B6870706A
:104004007521067522007821121F70900A76E0F55A
:104014002174047821121CDA74C02521FC7409353A
:10402400221261C31213007402121D03900AF4E0F9
:1040340004F0900A7612524F121CDA74AF2521FA5A
:1040440074093522FBEA2410F582E43B124A97EA0C
:104054002411FA50010B1214C87CAF7D097AC4797B
:1040640080121432900AADE04441F0791B1212D64A
:10407400900A8E7401F0900A7674FFF0A3F0125245
:104084002C1214C8EEFAEF6404024A57EE54086086
:104094003C900A73E06401702E900282E064057023
:1040A40026900AADE06020900A80E0701A12617FC9
:1040B4007A717B0F12050EE9900AA4F07C717D0FD2
:1040C4007A1079011210A2EE6408024A55EF5408DE
:1040D40070030242A67A007B08900281E0F9121470
:1040E40068900AB7E07003024272752300852321A9
:1040F40085212575260074047825121CDA74F725A9
:1041040025F525740A3526F52675270675280078C1
:1041140027121F707C837D0AE5252443FAE52634A3
:1041240001FB1214C27402121D03E96027900E24CD
:104134007404F0E523A31261234460125220121484
:10414400C87C107D0079BBE5252442FAE5263401BC
:10415400FB02420F7827121F707C837D0AE5252419
:1041640002FAE43526FB1214C27402121D03E9603C
:1041740008900E247401024208E52175F007A4F5A5
:1041840021E5F0F52274F72521F521740A3522F58D
:10419400227525067526007825121F707C837D0AFA
:1041A400E52124E3FAE5223401FB1214C27402125D
:1041B4001D03E96007900E24740580487825121FBA
:1041C400707C837D0AE5212429FAE5223402FB125E
:1041D40014C27402121D03E96007900E2474068051
:1041E400237825121F707C837D0AE521246FFAE56C
:1041F400223402FB1214C27402121D03E9601D90E2
:104204000E247407F0E523A31252201214C87A1066
:104214007B00900281E0F9121354804B74096523EA
:104224007039900AA6E004F0C39406401C1210F6FC
:104234007AD27B07121102900AA7121BCF7A407B15
:1042440000900281E0F912135479041212D67C0A08
:104254007D0079FF7A837B0A1214C80523E523C302
:10426400940A50030240F1900A8FE4F0802C900AE3
:10427400A6E004F0C39406401C1210F67AD27B0721
:10428400121102900AA7121BCF7A407B0090028180
:10429400E0F912135479041212D6EEFAEF6408020C
:1042A4004A57EF540170030243AF1210F67AD27BDF
:1042B400071211028A218B228C238D24752700AAD0
:1042C400278A2575260074027825121CDA74F725CE
:1042D40025F52D740A3526F52EE52D24B4F525E5AE
:1042E4002E3402F526EA75F007A4FAABF074F72A27
:1042F400F52F740A3BF530852582852683782912AB
:104304001BA59082127829121B1E78297921121577
:104314005B400E124AA324E2FAE5303401FB121486
:10432400C8E52D24DCF525E52E3402F52685258205
:10433400F5837829121BA590820E7829121B1E780A
:1043440029792112155B400E124AA32428FAE5307C
:104354003402FB1214C8E52D2404F525E52E34039C
:10436400F526852582F5837829121BA59082067887
:1043740029121B1E7829792112155B400E124AA3BB
:10438400246EFAE5303402FB1214C80527E527C36E
:10439400940A50030242C37A007B01900281E0F93F
:1043A400121468EEFAEF6401024A57EE54107003D7
:1043B4000245D9900AB0E0600C7A007B40900281FB
:1043C400E0F9121468900A7DE0F8600574036870DF
:1043D40015E004F0900285E0700474018001E4F0BB
:1043E4009081D20245BF7401686003024537900A88
:1043F400ADE04450F0900F16E0C39410400A740FDF
:10440400F0900E23F01214BC900E23E0C0E0F521CE
:1044140075220074047821121CDA74161251F77490
:104424000E124A88D0E0F0900E24E0C0E012524C04
:10443400121CDA74171251F7740E124A88D0E0F085
:10444400900E25E0C0E012524C121CDA741812517E
:10445400F7740E124A88D0E0F01210F69007D2E0FA
:10446400C0E012524C121CDA74191251F7740E1275
:104474004A88D0E0F09007D3E0C0E012524C121CFE
:10448400DA741A1251F7740E124A88D0E0F09007C9
:10449400D4E0C0E012524C121CDA741B1251F774AF
:1044A4000E124A88D0E0F09007D5E0C0E012524CDA
:1044B400121CDA741C1251F7740E124A88D0E0F000
:1044C4009007D6E0C0E012524C121CDA741D12514F
:1044D400F7740E124A88D0E0F09007D7E0C0E012DB
:1044E400524C121CDA741E1251F7740E124A88D000
:1044F400E0F0900F16E004F0900E23F0900A7DE0B7
:1045040004F01212A69081B2121F837A107B0090DD
:104514000281E0F912145C7404121D037A027B0018
:10452400900281E0F91214689081FA121F837A4094
:104534000245C474046870087405F01212AC8078E3
:104544007406687053E4F0900AA6F07A10FB9002A7
:1045540081E0F91214689081F2121F837A027B00C1
:10456400900281E0F912145C7404121D039081EE30
:10457400121F837A407B00900281E0F912145C746C
:1045840004121D03900AB0E060457A007B4090025B
:1045940081E0F9121354803774026870107403F0C8
:1045A4001212B2791F1212D69081EE800E74056831
:1045B400701D7406F01212B29081B2121F837A1029
:1045C4007B00900281E0F912145C7404121D03EE66
:1045D4006410024A55EE540460151214927A047B56
:1045E40000900281E0F9121468EE6404024A55EE68
:1045F40054806048A296401B79001212D67A407B00
:1046040000900281E0F91214689081E6121F837A07
:104614008080147A807B00900281E0F91214689003
:1046240081FA121F837A407B00900281E0F9121410
:104634005C7404121D03EE6480024A55EE5420603B
:104644006E7A087B001213C68A218B227A207B00A3
:10465400900281E0F9121468A2974053908280ACD2
:1046640041AD427401121C00900A6FE0F8A3E0F916
:10467400E849600302471CA3E0F8A3E0F9E84960B5
:104684000302471C79001212D61212BE79121212BA
:10469400D68003121534AA21AB22121528E960F33F
:1046A40079011212D6AA21AB221213CC1204D8EF2C
:1046B4005420700302493B7A087B001213C68A23F4
:1046C4008B247A007B10900281E0F9121468EEF5D5
:1046D40021EF6420F522900A8EE06405600302470E
:1046E400D57525067526007825121F707C817D0FEF
:1046F4007A287B0C1214C27402121D03E9600302AF
:1047040047D579281212D612522C1214C8900A8E48
:104714007401F07A000248D879011212D67AC87B63
:10472400001212521214E61214DA1214E01214D403
:10473400C2AF7CAF7D097AC479801214327523F735
:1047440075240A7823121F707C2C7D03900A6F1243
:104754004AD81212107402121D037A0A7B00121234
:104764005275232375240E7823121F70124AD11216
:1047740012107402121D03A841A9428823892478C7
:1047840023121F707C017D007AF07B1F12121074BB
:1047940002121D037823121F707C017D007AFE7BB8
:1047A4001F1212107402121D037823121F707C0151
:1047B4007D007AFF7B1F1212107402121D03D2AF08
:1047C400AA21AB221213CCC2AF75C9AB75C95B80E9
:1047D400FEAA23AB24121528E970030249167A00B5
:1047E400EAF8E52328F582E43524F583A3E0700391
:1047F4007430F00AEAC3940640E685238285248354
:10480400A3AE82AF83900A8EE0F874056870627577
:1048140025007527067528007827121F70EEFCEF17
:10482400FD85252774047827121CDA124A681214AD
:10483400C27402121D03E9602B79331212D612528C
:104844002C1214C8900A8E7401F09081DE121F831A
:104854007A007B10900281E0F912145C7404121D3A
:10486400030249080525E525C3940A40A579138068
:104874004D740668707375250075270675280078D1
:1048840027121F70EEFCEFFD85252774047827128C
:104894001CDA124A681214C27402121D03E960235E
:1048A4009081DE121F837A007B10900281E0F9125E
:1048B400145C7404121D03900A8FE4F0791612122A
:1048C400D6802674096525701779171212D6900AB6
:1048D4008FE4F0FA7B20900281E0F9121468805092
:1048E4000525E525C3940A409075250675260078AC
:1048F40025121F70EEFCEFFD7A967B0A12130074EA
:1049040002121D037A007B20900281E0F9121468E0
:1049140080179081B2121F837A007B20900281E07D
:10492400F912145C7404121D03AA23AB241213CCD1
:10493400AA21AB22024A5EEF541060508541828561
:104944004283E4F0FA7B10900281E0F9121468903B
:104954000A75E064017010121492AC41AD42790101
:104964007A057B03121480900A8E7401F079211267
:1049740012D67C0A7D0079FF7A837B0A1214C890D0
:104984000A8FE4F0EEFAEF6410024A57EF544070D5
:1049940003024A5A8541828542837401F0900AB029
:1049A400E004F0F8EF6440FF74F92870327A787B01
:1049B4000A1214CEE9F5211204BAE521C394065073
:1049C4005679251212D69081B2121F837A007B4049
:1049D400900281E0F912145C7404121D038071E8E2
:1049E400C39407E8502C60681204C079001204EAEA
:1049F400900AB0E0F8C394024013900AB6E0C0E015
:104A0400747628F582E4340AF583D0E0F09081F2DC
:104A140080B7C394094039900AB0E4F07C05FDF9ED
:104A24007A787B0A1214C87A007B40900281E0F9FC
:104A3400121468121492AC41AD4279017A057B03D9
:104A44001214807C287D0F79177A087B0312148056
:104A5400EEFAEFFB80047A007B007407121D037FDB
:104A640010021E2F74982527FA740B3528FB227424
:104A7400982523F523740B3524F52475270675280A
:104A8400007827223522F58322F07CAF7D097AC491
:104A9400798022F58374FFF07C077D0079002285FC
:104AA4002582852683E4F0A3F0A3F0A3F07C07FD20
:104AB40079BBE52F22E0852182852283A322900AF7
:104AC40076E0F9892375240074047823227CF47D2C
:104AD40000900A71E0FAA3E0FB2274F0121D5D74E9
:104AE400F3121CEDEAFE74016E60030251B99002E8
:104AF40083E064016003024BF1900A7DE0600302ED
:104B04004BFC12127CE9900F87F0900A80E0F89039
:104B14000F87E0F4605BE860077A327B0012125280
:104B240079001212D6900F87E0C0E0900A8FE0F867
:104B3400748328F582E4340AF583D0E0F0900A8F78
:104B4400E004F0900A80E0700C7A027B009002810D
:104B5400E0F9121468900AB0E0600C7A007B40908F
:104B64000281E0F912146890822A121F837A40802D
:104B74000BE8701E9081CE121F837A027B00900294
:104B840081E0F912145C7404121D03900F87E0F4A1
:104B94007012900AB0E060287A007B40900281E0B5
:104BA400F9121354900A8EE0C394024013900F87B5
:104BB400E0F4602D7A007B10900281E0F912146811
:104BC400900F87E0640A70199081A2121F837A0003
:104BD4007B02900281E0F912145C7404121D0380BC
:104BE4000C7A007B02900281E0F91214689002832F
:104BF400E064016003025165900F87E0F4607290F5
:104C04000A7DE0706C900A80E0700302512C908160
:104C1400EE121F837A007B04900281E0F912145C87
:104C24007404121D03900A8FE0FA900A8EE060303B
:104C340014607E147003024CEE147003024DD514FC
:104C44007003024E37147003024F5B147003024F5B
:104C5400B3147003024FFB1470030250750251B970
:104C64001251FC700302506DEAC3940A40030250CF
:104C74006D7A807B00900281E0F912146874106EE2
:104C840060030251DF900283E0700C7A407B009055
:104C94000281E0F91213549081CE121F837A207B93
:104CA40000900281E0F912145C7404121D03025195
:104CB400EB74026A70BB900F87E0640B70030250C0
:104CC4006D79301212D6900A8FE4F0900A8E04F0B7
:104CD4007A007B04900281E0F91214687A007B1058
:104CE400900281E0F91214688087EAC394025003A9
:104CF400024DA3900F87E0640B6003024DA374037D
:104D04006A700512523B800B74026A700A900A831F
:104D1400E024D0900A76F0900A7612524F121CDAF0
:104D24001251F5740912329BF485418285428370D5
:104D3400457401F079341212D6121492AC41AD428A
:104D440079017A057B031214807C287D0F79177A08
:104D5400087B03121480900A757401F09081DE12AE
:104D64001F837A007B10900281E0F912145C7404B2
:104D7400121D03024F4CE4F0121492AC41AD42797F
:104D8400017A057B0312148079061212D6900A76F2
:104D940074FFF0900A75E4F0900A8E04024F46EA1C
:104DA400C39404501374036A6003024C75900F8714
:104DB400E0640B7003024C7579301212D6900A8F9E
:104DC400E4F0125213900A7512522F1214C8024CB6
:104DD400D474066A6003024C75900A90E064BB7553
:104DE40021067522007821702D121F707C837D0AA4
:104DF4007A907B0A1213007402121D037C0A7D0050
:104E040079FF7A837B0A1214C8900A8FE4F0790A36
:104E14001212D6024C75121F707C837D0A7A907B25
:104E24000A1214C27402121D03E96003024F1A79B4
:104E34000C804EEAC39402404E900F87E0640B70DE
:104E44004674036A700512523B800B74026A700A3E
:104E5400900A83E024D0900A77F0900A7712524F98
:104E6400121CDA74F81251F7740A12329B64BB6094
:104E74000E79101212D6900A771252160250CA797D
:104E84000E1212D6024F4C900A77E0F8EAC394044B
:104E9400401474FF68700F79301212D6900A8E7421
:104EA40001F0A3024DCC74066A6003024C75900AAB
:104EB40095E064BB703A74FF687003024C75752109
:104EC400067522007821121F707C837D0A7A907BFC
:104ED4000A1213007402121D037C0A7D0079FF7A02
:104EE400837B0A1214C8900A8FE4F0790F024E14DF
:104EF40074FF687003024C757521067522007821D1
:104F0400121F707C837D0A7A907B0A12131274023A
:104F1400121D03E9600F7A007B04900281E0F9120C
:104F240013540250D7790C1212D6900A7774FFF0FA
:104F34007C067D0079BB7A907B0A1214C8900A8E95
:104F440074011252201214C87A007B04900281E08A
:104F5400F91214680250D79081787407121D5374A3
:104F640006121C00900F87E0640B702774016A70AE
:104F7400227521067522007821121F707409121DF2
:104F8400537A967B0A1214C27402121D03E97053F9
:104F940002511DEAC3940240030250E574016A60A1
:104FA40003024C75E0640B60030250E5024C7590FB
:104FB40081847401121D537406121C0074026A70F9
:104FC4002A7521067522007821121F707403121DA0
:104FD400537A967B0A1214C27402121D03E97003F9
:104FE40002511D79121212D60250D7EAC39403500B
:104FF40003024C750250E5900F87E0640B7051EA90
:10500400C39402404B74036A700512523B800B74C4
:10501400026A700A900A83E024D0900A77F0900A1A
:105024007712524F121CDA74F81251F7740A1232C2
:105034009B64BB700D791C1212D6900A771252161B
:105044008005791A1212D612522C1214C8024C7509
:10505400EAC3940440030250E5E0640B6003024C8D
:105064007574016A6003024C75900A8FE4F0025172
:105074001DEAC394024064900F87E0640B705C7473
:10508400036A700512523B800B74026A700A900A1C
:1050940083E024D0900A76F0900A76E0F9892175AD
:1050A400220074047821121CDA1251F574091232A8
:1050B4009BF46003E9700A791C1212D61252138011
:1050C40012791E1212D67C0A7D0079FF7A837B0A3C
:1050D4001214C8900A8FE4F0024C75EAC394044099
:1050E4002579301212D6900A8E7401F0A312522F31
:1050F4001214C87A007B10900281E0F91214687AC5
:10510400007B04024CE474016A6003024C75900F46
:1051140087E0640B6003024C757A007B0490028183
:10512400E0F9121354024C75900A8FE0FA1251FC04
:105134006006EAC3940A40067A007B0880DFEAC36B
:1051440094065003024C759081CE121F837A007B23
:1051540008900281E0F912145C7404121D03024CDD
:1051640075900A8FE4F0900AA6E0C39406403F12BB
:1051740010F67AD27B071211028A218B228C238D9E
:1051840024900AA77825121BA59081A67825121BC6
:105194001E7825792112155B404D900AA612520AF9
:1051A400A3F09081AA121F837A407B0080A37A40E7
:1051B4007B0002512174026E6003024C75900283DD
:1051C400E0700C7A407B00900281E0F91213547A6B
:1051D400807B00900281E0F91213547A207B0090C6
:1051E4000281E0F9121468740D121D037F08021E77
:1051F4002F74BF2521F5822274822AF582E4340AB1
:10520400F583E0640B22E4F0A3F0A3F0A3F0229072
:105214000A7674FFF0900A8E7401F022F07C0A7D05
:105224000079FF7A837B0A22900A8FE4F07C0AFDDE
:1052340079FF7A837B0A2275F00A900A83E0540F7F
:10524400A4F8A3E0540F2822900E23E0F521752240
:1052540000740478212274F4121D5D74F1121CEDA3
:105264008921E914601014700302530324FD7003B0
:105274000253400253BC7409121D537A047B031277
:1052840014867409121D39E0C0E07401121D39D06E
:10529400E0F0740A121D39E0C0E07402121D39D026
:1052A400E0F0740B121D39E0C0E07403121D39D014
:1052B400E0F07405121D39E4F07404121D39E4F0B1
:1052C400740E121D39E0C0E07408121D39D0E0F0EC
:1052D400740D121D39E0C0E07407121D39D0E0F0DE
:1052E400740C121D39E0C0E07406121D39D0E0F0D0
:1052F4007401121D537A08790012108A0253BC8576
:105304004182854283E4F07A04FB900281E0F91241
:105314001468900283E06012900A75E060030253FF
:10532400BC900A80E070030253BC121492AC41ADED
:105334004279017A057B03121480807C900A75E01F
:1053440064017043900A80E0640170607A107B000D
:105354001213C68A238B24AE23AF248E828F8374C8
:1053640001F0A3744FF08E828F83A3A3744B125366
:10537400D01210A27A047B00900281E0F912146822
:10538400EEFAEFFB1213CC900A73E0701F900A75CB
:10539400E070199081EE121F837A047B00900281E1
:1053A400E0F912145C7404121D03800C7A047B006F
:1053B400900281E0F9121468E521900282F0740FE2
:1053C400121D037F04021E2FE9900AA4F0EEFCEFE5
:1053D400FD7A1079012274F4121D5D74FF121CED24
:1053E4007A087B001213C68A218B22AE21AF228554
:1053F4004182854283E4F0900A73E06023900A7E40
:10540400E06401701B900AADE07015121492AC4177
:10541400AD4279017A057B03121480900A7EE4F090
:10542400EEFAEFFB121528E970030254B37A00EA8E
:10543400F8EE28F582E43FF583A3E070037430F0BE
:105444000AEAC3940640E875210075230675240012
:105454007823121F708E828F83A3AC82AD83852143
:105464002374047823121CDA74982523FA740B35F8
:1054740024FB1214C27402121D03E9601B12150AE4
:10548400900E247403F0E521A3F07A107B009002BF
:1054940081E0F912135480177409652170081215FC
:1054A4001079011212D60521E521C3940A409BEE1E
:1054B400FAEFFB1213CC74010253C474F0121D5D95
:1054C400900283E0640160030260EEE9600A24FE56
:1054D4007003025AF20260EE7A9A7B02790012108B
:1054E400A875238A7524027823121F707C9A7D0282
:1054F4007A187B0F120B987402121D037CAF7D097E
:105504007AC4798012143890028BE0F890028AE011
:1055140014601D14700302572714700302584324A7
:10552400FB7003025A9924F87003025AD90260EE00
:105534007522008522238523257526007404782589
:10554400121CDA74AF2525FE74093526FFEE2411EA
:10555400F525E43FF5267527067528007827121FE0
:10556400707C8B7D02AA25AB261214C27402121D14
:1055740003E970030256939002847401F01204C08C
:1055840079011204EA1204BAE522900AF5F07A04C9
:105594007B00900281E0F9121468E522900A73708E
:1055A400427401F090822A121F837A407B00900299
:1055B40081E0F912145C7404121D03900AADE060DA
:1055C40025900A80E0701F12617F7AA87B0F120574
:1055D4000EE9900AA4F07CA87D0F7A1079011210CC
:1055E400A280037402F0EE2417F8E43FF9E8FAE924
:1055F400FB900291E0F523540FFC8A828B83E054E4
:105604000F6C7001E46003E523F0740F5523F87404
:105614000168700B900A747401F0900A7F800A7418
:1056240002687006900A747402F074F055237030A6
:105634009002AA7421F0E522A3700474118002740C
:10564400211261571210A2900A75E0640170119042
:105654000A8E7401F0A3E4F079331212D60260EEDC
:10566400900291E054F0643060030260EEE5227031
:10567400030260EEEE2410F582E43F124A97AA2555
:10568400AB261214C8900A74E4126129025D5F7497
:10569400096522702F900A75E0640170277525074B
:1056A4007526007825121F707C8B7D027A9D7B0AFB
:1056B4001213007402121D037A007B04900281E02D
:1056C400F9121354E52375F006A4F523E5F0F52447
:1056D40074B82523FE740A1260F8121F707C8B7D47
:1056E40002EEFAEFFB1214C27402121D03E96024E5
:1056F4009002AA74CCF0A3F0A31261571210A27CFA
:10570400067D007900EEFAEFFB1214C8900AF4E06B
:1057140014025CF40522E522C3940A40030260EEFD
:10572400025537900AADE09002BAF0900AA4E090D6
:105734000FBA12617760030260EE752303752400CB
:105744007823121F707C8B7D027AB87B0F1214C2EF
:105754007402121D03E9607D900AA4E4F0780090BD
:1057640002BAE0A2E0505EE8601414601814601CF1
:1057740014602014602414602814602C8047900F57
:10578400C874418028900FC874428021900FC87457
:1057940043801A900FC874448013900FC8744580D6
:1057A4000C900FC874468005900FC87447F07C03B2
:1057B40079007AC87B0F12050EE9900AA4F07CC820
:1057C4007D0F0260E7E0C313F008E8C394074003C9
:1057D4000260EE808A900AAEE0F870030260EE90F8
:1057E4000AA4E4F0E814601514601924FE601C2473
:1057F400FC601F24F8602224F060258029900FD8D3
:1058040074418021900FD87442801A900FD8744349
:105814008013900FD87444800C900FD87445800581
:10582400900FD87446F07CD87D0F7A10790112104D
:10583400A27C03900AA4E0F97AD87B0F025A8F75F0
:1058440023027524007823121F707C8B7D027AB8A2
:105854007B0F1214C27402121D03E970030260EE7E
:10586400900A73E0640160030260EE90028DE0F838
:10587400A3E024BF6024146070147003025925143B
:10588400700302596F1470030259BE147003025A54
:105894000C147003025A550260EE900AA4E068707A
:1058A40040E4F075220185222375240074047823D2
:1058B400121CDA74BF2523FE74093524FF7C0812F8
:1058C40061B912050E1253CC1210A20522E522C3AF
:1058D400940A40D2900AADE0C2E0F0A37401025CE5
:1058E400F41261137441025A78900AA4E068702992
:1058F400E4F07C06F97AAF7B0912050EE9900AA45C
:10590400F07CAF7D097A1079011210A2900AAE746E
:1059140002126123C2E1025CF41261137442025A5E
:1059240078900AA4E068703BE4F075220085222395
:1059340075240074047823121CDA74F82523FE7489
:105944000A1261B412050E1253CC1210A20522E5FC
:1059540022C3940A40D7900AADE0C2E2F0A37404D3
:10596400025CF41261137443025A78900AA4E0684A
:105974007040E4F0752200852223752400740478B5
:1059840023121CDA74982523FE740B3524FF7C063D
:105994001261B912050E1253CC1210A20522E5228F
:1059A400C3940A40D2900AADE0C2E3F0A3740802A3
:1059B4005CF41261137444025A78900AA4E068708B
:1059C40040E4F075220085222375240074047823B2
:1059D400121CDA74262523FE740E3524FF7C09126A
:1059E40061B912050E1253CC1210A20522E522C38E
:1059F400940F40D2900AADE0C2E4F0A37410025CAC
:105A0400F41261137445806C900AA4E068703BE45E
:105A1400F075220085222375240074047823121C57
:105A2400DA74392523FE740C1261B412050E125374
:105A3400CC1210A20522E522C3940A40D7900AADE5
:105A4400E0C2E5F0A37420025CF412611374468092
:105A540023900AA4E0687017E4F0900AADF0A3F074
:105A6400900AF604F01214E07C887D0F0260E712BD
:105A740061137447F07CE87D0F7A1079011210A24B
:105A84007C03900AA4E0F97AE87B0F12050EE990F2
:105A94000AA4025CF4E89007D2F090028CE090072C
:105AA400D3F090028DE09007D4F090028EE090073E
:105AB400D5F090028FE09007D6F0900290E0900726
:105AC400D7F01210F09002AA7416F0A3744BF0A34E
:105AD400744F02600B744F6860030260EE90028C96
:105AE400E0645060030260EE900A7F025CF2900A68
:105AF40080E060030260EE1210F6900AA5E4F07AEA
:105B04009A7B0279021210A875238A7524027823DD
:105B1400121F707C9A7D027A187B0F120B98740204
:105B2400121D0390028BE0FE8E237524007404780A
:105B340023121CDAA823A924A3E0F52590028AE005
