:020000040000FA
:0600000002011A0227B301
:03002B00022F1C85
:030053000228265A
:03007B00022EE171
:1000830002261FE5C754F84401F5C7790122000091
:100093000080FB120086B90003020104E47944786E
:1000A30008B800028004F709D8FCE4794C7802B858
:1000B30000028004F709D8FCE49003017898790DD5
:1000C3008002F0A3D8FCD9FA784390014A7A01BAA6
:1000D30000028007E493A3F608DAF97A987B0F907D
:1000E300014B786A79048015E493A3AD82AE838AC9
:1000F300828B83F0A3AA82AB838D828E83D8E9D9C6
:10010300E77582237583E1740312012C758291755F
:100113008300740012012C75D00075817F75410135
:10012300754203759F00020096C09FF59FE473D04C
:100133009F22D083D082C09FE493C0E0740193C018
:10014300E0740293F59F220101030507FFFE778800
:1001530012993241142425360D0947656D696E697C
:100163002D424131303005120A001400020A000208
:1001730001060302E0FF2A2A47656D696E692D4275
:10018300413130302A2A0000000000E4040000F06E
:10019300040A0B310B320B330B340B350B360B0AC2
:1001A3000A02534A000000000000000000000000A3
:1001B30000FFFFFFFFFFFFFF1122330000000000DD
:1001C300000000000000000044556600000000002D
:1001D300000000000000000002534A00000000007D
:1001E30000000000000000004F4B00000000000072
:1001F300000000000000000000534A00000000005F
:100203000000000000000000004357000000000051
:100213000000000000000000004357000000000041
:1002230000000000000000003132333435361F4B2C
:100233004F00000000000000000000000000FF006D
:1002430000B4000028002800283075A000A000A0FA
:1002530000A00000080008E001F0001000100010EA
:10026300001000100010005000500050001000104B
:1002730000D0070000000000000F0001000500305F
:100283007507001000010081FF00000000FF000758
:100293001E070607FF02020208025000A00000002A
:1002A300E803022A820100001082024C820100004E
:1002B300E5100234820100006D03024C820100004C
:1002C300E6100236820100008303024C8201000023
:1002D300E7100238820100008503024C820100000E
:1002E300E810023A820800008603024C82010000F3
:1002F300E910023C82010000EA10FF0100FF200226
:100303002A820100001382024C820100004E110276
:100313003E820000000000023282030000D303008B
:100323000D000D000D000D000D000D000D000D0062
:100333000D000D000D000D000D940FAC0F8E0F027C
:100343000202020202020202010D00000010010279
:100353002A820100000A82024C820100008F1102EE
:100363004282010000FA07024C8201000090110250
:100373004E820100002581024C820100009111028E
:1003830040820100000981024C82010000921102A7
:1003930024820100008180024C820100009311023B
:1003A30022820100009380024C820100009411021A
:1003B3002082010000A580024C82010000951102F9
:1003C3001E82010000B780024C82010000961102D8
:1003D3001C820100001781024C8201000097110268
:1003E3004A8201000098110A43686172616374656F
:1003F30072697374696320310016436861726163C3
:1004030074657269737469632032000A43686172A8
:1004130061637465726973746963203300022A82AD
:100423000100001982024C82010000371202468249
:1004330003000004080230820100003812024C82DB
:100443000100004912022E820300001408023282C6
:1004530003000025080230820100004A12024C8288
:100463000100005B12023A810300002B0802308274
:100473000100005C1201E803053F100AFFFFFF00C3
:1004830001307503020106000000000000000000B7
:100493000000000000000000000000000000000059
:1004A300000000FFFF0600800CE8033132333435CF
:1004B3003612013500E50312013514E50312013547
:1004C30016E5031201351BE5031201356A2F0012ED
:1004D30001359C31001201359533001201354D472A
:1004E30000120135BF4E001201353A50001201359A
:1004F3001F5100120135575E001201359A5E00123A
:10050300013504D4031201351BD4031201354CD435
:100513000312013587D403120135B1D40312013517
:10052300DBD403120135F2D40312013509D50312CA
:10053300013520D50312013549D5031201355CD5A8
:100543000312013572D50312013585D50312013526
:10055300ACD503120135C0EC02120135C4ED021211
:100563000135FCED021201351FEE021201352AEEB0
:10057300021201354DEE021201355CEF0212013514
:1005830031F002120135ACF00212013534F10212DE
:1005930001356FF102120135A6F10212013534F271
:1005A300021201350DF3021201356DF3021201350A
:1005B30078F302120135F7F302120135FAF302124E
:1005C3000135FDF3021201358CF4021201358FF46B
:1005D30002120135BFF402120135E9F402120135AA
:1005E300D7F50212013589F602120135DB970312A2
:1005F30001350398031201353198031201356898C8
:1006030003120135C69803120135119903120135FE
:100613005C99031201359C9903120135E299031287
:100623000135109A03120135CD9A03120135D79A79
:1006330003120135E49A03120135179B03120135A6
:10064300E39B03120135EF9B03120135079C031251
:100653000135119C03120135C8DE03120135D6DEC4
:1006630003120135EEDE0312013506DF03120135F5
:10067300008002120135AC8002120135278102127B
:1006830001354882021201358482021201352D831D
:1006930002120135148402120135788502120135E4
:1006A300CF850212013550860212013540870212AE
:1006B30001358D87021201351388021201354588F1
:1006C30002120135598A021201359B8A0212013541
:1006D300B98A021201353C8B02120135108C0212C9
:1006E3000135D88C02120135BB78001201358E79A1
:1006F30000120135377A001201358A7A001201356A
:100703003A7B00120135C67B00120135B27C001220
:100713000135E17C00120135F47D001201353C7E88
:1007230000120135117F001201354D7F0012013592
:10073300697F001201352FE30312013501BA031259
:10074300013517BA031201353DBA0312013559BBFE
:100753000312013563BB0312013598BC0312013543
:1007630090BD03120135B49203120135E4930312D1
:10077300013517940312013561940312013528964C
:100783000312013560E801120135CAE8011201358F
:1007930029EA0112013539EA0112013566EA01122B
:1007A3000135BDEA0112013566EB011201356DEC2D
:1007B3000112013537ED0112013597EE01120135B2
:1007C300DAEE011201357FEF01120135CCEF011290
:1007D3000135F2EF0112013500F20112013505F284
:1007E300011201350AF40112013557F401120135E2
:1007F300CAF401120135FDF4011201359FF501120E
:10080300013548F60112013580F60112013583F6F0
:1008130001120135CBF6011201350BF70112013537
:1008230062F70112013593C303120135ABC30312FF
:100833000135F3C30312013509C40312013550C452
:100843000312013564C503120135F1C503120135E5
:100853003CC6031201351F60001201352B600012E4
:100863000135666000120135AB60001201356B6122
:1008730000120135F161001201351D6200120135CC
:100883005662001201359464001201357866001235
:1008930001355E6800120135A16900120135EF6B65
:1008A30000120135016D001201354C6E0012013545
:1008B3005C6F00120135796F00120135B46F0012BD
:1008C3000135D66F00120135397000120135FA7403
:1008D300001201358F7500120135E07500120135E4
:1008E300077600120135597600120135777600122A
:1008F3000135D17600120135D077001201355478D5
:1009030000120135568D03120135608D0312013536
:10091300A38D03120135BE8D031201354E8E0312D2
:100923000135768E03120135B38E03120135EA8E3B
:1009330003120135138F03120135888F031201351A
:100943009D8F03120135B28F03120135E38F03121A
:100953000135F78F031201351C90031201355690B0
:1009630003120135829003120135BA900312013547
:10097300199103120135989103120135C3910312A2
:100983000135EE910312013537920312013561925D
:10099300031201358C9203120135B5DB03120135C5
:1009A300BFD402120135EDD4021201353BD6021237
:1009B30001351BD7021201353AD702120135B7D7D9
:1009C30002120135FAD70212013550D9021201354C
:1009D30011DA0212013598DC0212013539DD0212F7
:1009E30001352FDE021201352CDF0212013586E0BC
:1009F3000212013511E10212013501D90312013549
:100A03006AD903120135BED903120135E5D90312A0
:100A1300013516DA0312013580A503120135EDA560
:100A23000312013534A6031201354CA70312013515
:100A330048A8031201352BA903120135FAF6021255
:100A430001353CF7021201350EF802120135E7F8C1
:100A530002120135E1F902120135C3FA021201351E
:100A63002CFB02120135E2FB0212013556FC021285
:100A73000135C2FC02120135EBFC0212013565FDA2
:100A830002120135FEFD0212013563FE0212013529
:100A930078FE02120135BEFE02120135D7FE0212A4
:100AA30001353CFF021201353FFF021201359AC0A6
:100AB30003120135C2C00312013500C1031201350F
:100AC300BEC10312013525C20312013541C203120F
:100AD300013569C20312013599C203120135A8C257
:100AE3000312013525C3031201354BC3031201352C
:100AF300A6D70112013584D901120135B6DB0112E3
:100B03000135F2DB011201351FDC0112013509DD6C
:100B13000112013554DD011201359FDD011201354A
:100B2300B1DD01120135F1DD0112013526DE0112BD
:100B3300013574DE01120135A3DE01120135C6DE73
:100B43000112013513DF0112013598DF011201355E
:100B5300B2E101120135F1E30112013532E4011270
:100B63000135D4E50112013515E60112013588E698
:100B730001120135D9E601120135B4E7011201353D
:100B8300DEE70112013513E8011201353EE80112D7
:100B93000135AAC702120135A8C80212013541CF97
:100BA3000212013562D1021201352DD30212013531
:100BB30095D40212013554820112013503830112C7
:100BC3000135308301120135768301120135AC847E
:100BD30001120135DA8401120135708601120135E3
:100BE300EA8601120135058701120135808701125A
:100BF3000135DA88011201353A8A01120135408B39
:100C030001120135A18C01120135BA8C0112013593
:100C1300188D01120135068E01120135398E01122C
:100C23000135A98E01120135238F011201356D8F14
:100C3300011201353790011201350C910112013572
:100C4300EB9101120135769201120135E492011202
:100C530001355893011201358393011201354294F2
:100C630001120135A79501120135C4950112013511
:100C7300E39501120135D49601120135F99601125B
:100C830001352397011201359E9701120135F8971B
:100C9300011201356199011201350F9A01120135D3
:100CA300509A011201355D9D02120135AB9D02126E
:100CB3000135B79D02120135959E02120135C69E7C
:100CC30002120135F79E02120135779F0212013598
:100CD300F59F021201352DA0021201357FA00212E9
:100CE3000135BCA002120135D9A202120135FFA4BD
:100CF30002120135EAA602120135D4A80212013507
:100D0300F47F001201358FAF01120135BFAF01121D
:100D1300013598B6011201351DB8011201351ABE0D
:100D23000112013502BF011201353FBF0112013526
:100D330062BF0112013593BF011201359CBF01123D
:100D43000135A6BF0112013594C0011201358AC1D4
:100D530001120135809A011201357F9E011201357E
:100D6300859E01120135C0A501120135D9AA0112D0
:100D7300013533B603120135C9B603120135DFB6A7
:100D83000312013555B703120135C9B703120135F3
:100D930007B8031201357BB803120135F4B8031207
:100DA3000135FDB80312013509B9031201351EB926
:100DB300031201355CB90312013572B9031201350F
:100DC300D1B903120135EDA903120135FAA90312B2
:100DD300013514AA0312013553AA0312013591AA4E
:100DE30003120135F6AA031201350BAB03120135C9
:100DF30016AB0312013523AB031201353AAB0312D1
:100E0300013548AB0312013553AB031201355FAB18
:100E1300031201356EAB0312013579AB03120135B1
:100E23009CAB0312013543AC0312013553AC0312DF
:100E330001356DAC031201358AAC03120135A6AC42
:100E430003120135CBAC03120135D6AC03120135C5
:100E5300EBAC03120135FFAC0312013560AD031295
:100E6300013566AD031201356CAD0312013572AD68
:100E7300031201358AAD03120135BDAD03120135ED
:100E8300B4AB0212013538AC02120135E7AC0212E1
:100E9300013546AE0212013567B00212013553B176
:100EA3000212013588B102120135AAB102120135CD
:100EB30059B20212013551B4021201357AB4021249
:100EC30001350CB5021201353EB5021201354BB5A1
:100ED30002120135A2B502120135C8B5021201355D
:100EE30035B80212013538B90212013590B9021230
:100EF3000135F18E02120135FB8F02120135E290AA
:100F030002120135EC90021201350E9102120135E5
:100F13001A9102120135B39202120135E2920212C2
:100F23000135FE9302120135579402120135BD9526
:100F3300021201359C9602120135F8960212013510
:100F4300659702120135A09702120135DF9702124D
:100F53000135989A02120135B29A021201353E9B6D
:100F6300021201354C9B02120135A59B0212013579
:100F7300B39B02120135269C021201358A9C021290
:100F83000135D49C0212013592E102120135B4E11C
:100F930002120135DAE302120135EFE602120135DE
:100FA30007E802120135BAE8021201359CE9021280
:100FB3000135BED503120135E3D50312013555D6EC
:100FC300031201354FF80112013558F801120135AA
:100FD30061F80112013538F901120135E9FA0112FC
:100FE30001351FFB0112013559FB011201358FFB3E
:100FF30001120135C9FB01120135FDFB0112013557
:1010030029FC0112013572FC01120135ACFC0112FD
:101013000135F5FC011201354DFD0112013582FD4B
:1010230001120135DDFD0112013517FE01120135F3
:1010330068FE011201359EFE01120135D8FE011230
:10104300013506FF0112013529FF0112013584E242
:1010530003120135B0E2031201350BE3031201352C
:1010630015E30312013525E30312013566C60312A6
:1010730001358BC603120135B5C60312013538B2EB
:10108300031201357DB2031201359AB20312013501
:1010930080B303120135D3B303120135A8B403128D
:1010A3000135FAB5031201359ABD03120135B5BDF9
:1010B30003120135E4BD03120135EABD0312013504
:1010C300F0BD031201351DBE0312013542BE0312EA
:1010D300013559BE031201356EBE03120135C2BE7E
:1010E300031201353BBF031201355BBF0312013508
:1010F300B9E403120135A2C30112013504C601127A
:101103000135BBC701120135B8C80112013548C901
:1011130001120135CFC901120135F4C9011201359C
:1011230035CD01120135ABCD011201359ACE011235
:101133000135D4CE0112013514CF01120135BAD0D5
:10114300011201350FD1011201355CD101120135B4
:10115300CAD101120135F0D1011201350AD20112AF
:10116300013520D30112013530D30112013541D4A9
:101173000112013556D4011201358CD40112013507
:101183000DD6011201354CD60112013571D701126A
:101193000135E1E10312013579E20312013570E40F
:1011A30003120135AFE4031201358EE50312013555
:1011B3006AE0031201357AE00312013589E0031274
:1011C30001351DE103120135CEDC0312013552DD79
:1011D30003120135B8DD0312013510A103120135E5
:1011E30047A10312013568A103120135D8A10312E7
:1011F300013544A2031201359BA3031201355CDAC6
:101203000312013584DA03120135F8DA03120135CA
:101213000FDB031201355FDB03120135A9DB031278
:101223000135ACDB03120135DE7F00120135EE7FA1
:1012330000120135F17F0012013532C90312013565
:1012430076C9031201358CC903120135A7C90312EC
:101253000135C2C9031201350DCA031201355CCA37
:10126300031201359CCA03120135F87F00120135C0
:10127300BECD0312013546CF03120135A7CF0312AA
:101283000135EDCF03120135C9FF01120135DCFF32
:1012930001120135E0FF01120135E7FF01120135AB
:1012A300E9FF01120135F4FF01120135F9FF0112C3
:1012B300013512E40312013518E40312013566E423
:1012C300031201359FDF03120135C8DF0312013515
:1012D300F1DF0312013509E0031201354BE003127C
:1012E3000135D68703120135E087031201352088C3
:1012F30003120135698803120135A38803120135EE
:10130300F988031201351889031201352189031263
:1013130001357289031201359B8903120135A589B1
:1013230003120135168A03120135A48A031201350B
:10133300F98A03120135278B03120135A38B03129C
:101343000135E68B03120135238C03120135358CED
:1013530003120135548C031201355D8C03120135E0
:101363002A8D03120135B3E30312013563D7031248
:101373000135B4D7031201353DD803120135A3D883
:10138300031201357ECB03120135A8CB03120135BD
:1013930071CC031201354CCD03120135D1DD03129B
:1013A300013502D20312013538D20312013571D24D
:1013B30003120135CAD30312013563FF021201354B
:1013C30079FF0212013583FF02120135CDFF0212AC
:1013D3000135008003120135BD8003120135F88009
:1013E3000312013520810312013582810312013575
:1013F300CE8103120135398203120135B5820312FE
:101403000135B18303120135388503120135BB85DC
:10141300031201351F860312013536860312013587
:101423002C8703120135788703120135989C031228
:101433000135AD9C031201355D9D031201359D9D60
:1014430003120135B69D03120135E99D03120135DF
:10145300369E031201356A9E03120135AC9E0312B8
:101463000135AAA003120135DEB9021201353BBDD5
:1014730002120135C3BE021201351ABF0212013531
:1014830039BF02120135B7BF0212013547C102123B
:1014930001352BC20212013537C60212013507C7C7
:1014A300021201353AAE031201358BAE0312013538
:1014B30024AF031201354CAF03120135CFAF031232
:1014C30001352DB00312013545B10312013586B143
:1014D30003120135F0CF03120135FFCF031201359B
:1014E3002AD00312013530D00312013536D003124E
:1014F300013551D00312013558D0031201355FD0A5
:101503000312013563D003120135F2D00312013502
:1015130041D1031201357CE50312013585E5031240
:10152300013532E5031201355EE503E0667010080C
:10153300A3E066700A08A3E066700408A3E06622CD
:10154300C3E7960809E7960809E7960809E796228C
:10155300C3E09608A3E09608A3E09608A3E09622CA
:10156300C021C3E096F52108A3E096422108A3E039
:1015730096422108A3E09645217001D3D02122E9A8
:10158300799EC608CAC608CBC608CCC6C3702079E4
:1015930096CACBCC7019798ECBCC70137986CC706C
:1015A3000EF9802ACA33CACB33CBCC33CC331930B0
:1015B300E7F2CCCBCA3350147004EA30E00DE4CA2E
:1015C3003ACACB3BCBCC3CCC500209C3E913C6CCC3
:1015D300182313C6CB18C6CA18C6F92212161F2021
:1015E300F01430E72B74FFFCFBFA747F8022E4FCD9
:1015F300FBFA7480801AB48008BC00F2BB00EF8051
:101603000F50EBF9E4C39AFAE49BFBE49CFCE499E6
:10161300C6CC18C6CB18C6CA18C6F922E4C9C60870
:10162300CAC608CBC6D3330308CCC63392F0C394DF
:101633007F402E94184019C9B90704CACBCC225055
:1016430025C309CA33CACB33CBCC33CC33D9F42229
:10165300F4600DC9CCC313CB13CBCA13CAD9F6CCD0
:1016630022E4FCFBFA2214FCFBFA22E626184618B5
:1016730046184622E7271947194719472218181809
:10168300E60846087009E626087005E633F42208E2
:1016930022191919E70947097009E727097005E7AE
:1016A30033F4220922E6084608C3134608336002CE
:1016B300E633F422E7094709C3134709336002E716
:1016C30033F4221216A860251216B7602012166E84
:1016D3007003021677080808E76670101819E766A2
:1016E300700A1819E76670041819E76622F42212C3
:1016F30016A8601C1216B7601712166E7007121622
:10170300777001D322C0D01216777006D0D0B322DF
:10171300C32233D0D0501430E0F6C3E7960809E76C
:10172300960809E7960809E796B32220E0D5E697DD
:101733000809E6970809E6970809E697B3221216FF
:10174300A8601B1216B7601612166E700712167772
:10175300600CB322C0D01216777005D0D022C322FA
:1017630033D0D0501330E0EBC3E7960809E796086F
:1017730009E7960809E7962220E0E4E6970809E6D8
:10178300970809E6970809E697221216B7604612EA
:1017930016A8603DE9687008F618F618F618F622E0
:1017A300748067F71217C1090909748067F7221259
:1017B30016A8601D1216B77005191919801A12168A
:1017C30080701F121694C37003E66733191919400A
:1017D300071818182208080874FFF618F618F618E0
:1017E300F6221216946017121677702192F01216D1
:1017F3006E7019501720F014080808090909E7F654
:101803001819E7F61819E7F61819E7F62212166EF3
:1018130060E6E869701F0808E62480F608E436F6F7
:1018230018547FB47F0CE654806007F6E418F6186A
:10183300F622181822E9C6CC08C6CD08C6CE08C6BB
:10184300CFC0E0E8C0E0EAC0E0EBC0E009E9F80996
:10185300E7FA09E7FBE6F918E6F8C3EC98ED99EE29
:101863009AEBC2E7F5F0EFC2E795F0500E600CEB90
:10187300CFFBEACEFAE9CDF9E8CCF8EAA2E7D2E762
:10188300FAEB33FB13F5F0EEA2E7D2E7FEEF33FFFB
:10189300C5F013A2E730E601B313C5F0C3C0E0C03F
:1018A300F07F00C39BFB605E9418600F401D1460C3
:1018B3001AD0E023F9D0E0F80219938AF0E94860DE
:1018C30003D2F0E4AFF0FAF9F8803BEB30E40D8992
:1018D300F0EA6003D2F0E4AFF0F9CAF8EB30E30DBD
:1018E30088F0EF6002D2F0AFF0E4CAC9F8EB540716
:1018F3006014FBC3EA13FAE913F9E813F8EF135082
:1019030002D2E0FFDBEDD0E0C0E030E739C3E49F73
:10191300FFF5F0EC98FC42F0ED99FD42F0EE9AFEF3
:1019230042F0D0E0F9D0E0F8E5F0607AE923F9EE8F
:1019330020E742D8028067C3EF33FFEC33FCED337B
:10194300FDEE33FE80EAEC28FCED39FDEE3AFED0E5
:10195300E023F9D0E0F84002801BC3EE13FEED1341
:10196300FDEC13FCEF135002D2E0FF08B800067F32
:101973007F74FF802EEF3350178CF020F00260103D
:101983000CBC000C0DBD00080EBE000408E860DFAF
:10199300E933E813FFEE2313FE4F4D4C8008E9545F
:1019A30080FFE4FEFDFCEE33EF33F47004FCFD7EB8
:1019B30080D0E0FBD0E0FAD0E0F8D0E0CFC618CE7C
:1019C300C618CDC618CCC6F922080808EAC0E0EB51
:1019D300C0E086F0E7A4FA180986F0E7A42AFA180B
:1019E3000986F0E7A42AFA180986F0E7A42AFA1967
:1019F30086F0E7A4FBE5F02AFA190886F0E7A42BA2
:101A0300FBE5F03AFA190886F0E7A42BFBE5F03A78
:101A1300FA18180986F0E7A4C5F02BFBE43AFA1983
:101A230008E7C5F0C6A426F6E5F03BFBE43AFA184E
:101A330086F0E7A4F6E5F00826F6E43B08F6E43A78
:101A430008F6D0E0FBD0E0FA22E4CFC0E0E4CEC059
:101A5300E0E4CDC0E0E4CCC0E075F020E626F60873
:101A6300E633F608E633F608E633F6181818EC33CF
:101A7300FCED33FDEE33FEEF33FFC3EC9709ED9737
:101A830009EE9709EF97191919400FFFEC97FC0915
:101A9300ED97FD09EE97FE191906D5F0BFECF7098E
:101AA300EDF709EEF709EFF7191919D0E0FCD0E0CB
:101AB300FDD0E0FED0E0FF226016080808C6C3137D
:101AC300C618C613C618C613C618C613C6D5E0EA89
:101AD300227009080808226016181818C6C333C6EE
:101AE30008C633C608C633C608C633C6D5E0EA22DD
:101AF300E627F60809E637F60809E637F60809E6A1
:101B030037F622E026F608A3E036F608A3E036F619
:101B130008A3E036F622E026F008A3E036F008A397
:101B2300E036F008A3E036F022C3E697F60809E6AC
:101B330097F60809E697F60809E697F622C3E096B2
:101B4300F008A3E096F008A3E096F008A3E096F06F
:101B530022E657F60809E657F60809E657F6080994
:101B6300E657F622E056F608A3E056F608A3E05639
:101B7300F608A3E056F622E056F008A3E056F00874
:101B8300A3E056F008A3E056F022E0F608A3E0F63F
:101B930008A3E0F608A3E0F622E6F008A3E6F008BF
:101BA300A3E6F008A3E6F022E0FAA3E0FBA3E0FC3F
:101BB300A3E0FD22EAF0A3EBF0A3ECF0A3EDF02207
:101BC300E0F8A3E0F9A3E0FAA3E0FB22E8F0A3E93D
:101BD300F0A3EAF0A3EBF022CAC0E0E6F0A308DA30
:101BE300FAD0E0FA22CAC0E0E0A3C582CCC582C520
:101BF30083CDC583F0A3C582CCC582C583CDC58300
:101C0300DAE6D0E0CA22C3E498F8E499F9121C4A50
:101C13008026C3E49AFAE49BFBE920E7E9121C4A15
:101C2300E498F8E499F922C3E498F8E499F9121CCA
:101C33004AE498F8E499F9C3E49AFAE49BFB22EBAB
:101C430020E7CFE920E7E0B90010BB0008E88AF0FD
:101C530084F8AAF022E4FBC8FA22EB70227B10C8B6
:101C630033C8C933C9335007C39AC3DBF280069A1A
:101C730050012ADBEAC833F4C8C933F4C9FA227520
:101C8300F008E4C833C8C933C933C99AC99B50049F
:101C9300C92AC93BD5F0ECFBC833F4C8E4C9FA221E
:101CA300600D08C6A2E713C618C613C6D5E0F32213
:101CB300600C08C6C313C618C613C6D5E0F4227059
:101CC3000422600D18C6C333C608C633C6D5E0F474
:101CD3001822254110AF08F541400C15428008F544
:101CE3004140021542D2AF2200C0D0254110AF08B7
:101CF300F541500C05428008F54150020542D2AF30
:101D0300D0D0222541F58210AF08F541400C154291
:101D13008008F54140021542D2AF85428322254116
:101D2300F582E43542F583222541F8E43542F92270
:101D33002541FAE43542FB222541FCE43542FD22EC
:101D4300E4732541C582C0E0E54234FFC583C0E0AA
:101D5300E541C3958224F810AF088583428582410B
:101D63008008858342858241D2AFCEF0A3E520F07F
:101D7300A37821E608F0A3DEFAEFF0A3E58124FAC5
:101D8300F8E608F0A3E608F0A3E608F0A30808E6DF
:101D930008F0A3E608F0A315811581D0E0FED0E09A
:101DA300F8158115811581E8C0E0EEC0E0222541D8
:101DB300C582C0E0E54234FFC583C0E0E541C39579
:101DC3008224F910AF088583428582418008858388
:101DD30042858241D2AFCEF0A3E520F0A37821E67D
:101DE30008F0A3DEFAEFF0A3E58124FBF8E608F0A0
:101DF300A3E608F0A30808E608F0A3E608F0A31595
:101E0300811581D0E0FED0E0F815811581E8C0E0AE
:101E1300EEC0E022854283854182E0A3FEE0A3F584
:101E2300207821E0A3F608DFFAE0A3FFE0A3C0E0F7
:101E3300E0A3C0E0E0A3C0E0E0A3C0E0E0A3C0E013
:101E430010AF08858241858342800885824185835E
:101E530042D2AFD083D08202013285428385418250
:101E6300E0A3FEE0A3F5207821E0A3F608DFFAE083
:101E7300A3FFE0A3C0E0E0A3C0E0E0A3C0E0E0A3D1
:101E8300C0E010AF08858241858342800885824186
:101E9300858342D2AFD083D08222C0D02541C58270
:101EA300C0E0E54234FFC583C0E0E541C395822429
:101EB300F310AF088583428582418008858342857C
:101EC3008241D2AFC8F0A3E9F0A3EAF0A3EBF0A3F9
:101ED3007921E709F0A3D8FAECF0A3EDF0A3EEF033
:101EE300A3EFF0A3D0E0F0A3D0E0F0A3D0E0F0A301
:101EF300E520F0A3E5F0F0A322854283854182E04B
:101F0300C0E0A3E0F9A3E0FAA3E0FBA37821E0F6A5
:101F130008A3DFFAE0FCA3E0FDA3E0FEA3E0FFA338
:101F2300E0C0E0A3E0C0E0A3E0F5D0A3E0F520A388
:101F3300E0A3F5F010AF08858342858241800885D0
:101F43008342858241D2AFD082D083D0E0F8D0E003
:101F53003274048006740280027401C0E0F4041237
:101F63001D06D0E0121BDB2274048004740280007F
:101F7300CCC0E0EDC0E0E541C39CCCAD4250011DB7
:101F830010AF068C418D4280068C418D42D2AF1238
:101F93001BE8D0E0FDD0E0FC22D083D082E9C0E092
:101FA300E493A3C386F0C5F095F0F908E493A38600
:101FB300F0C5F095F0700BE493A3C3994005E904D1
:101FC3008002A3E475F002A42582F582E5F035834F
:101FD300F583D0E0F9E493A3C0E0E493C0E022D01A
:101FE30083D082ECC0E0EDC0E0E493A3FCE493A3D0
:101FF300FDED4C600D12202EEC24FFFCED34FFFDB3
:1020030080EFE493A3FCE493A3FDED4C600D122059
:102013006DEC24FFFCED34FFFD80EFD0E0FDD0E05C
:10202300FCE493A3C0E0E493C0E022C0E0C3E493E4
:1020330096087401939618400FE493667008087429
:102043000193661870007019A3A3C3E493960874F0
:1020530001939618A3A3400DD0E0D0E0D0E0022076
:102063001EA3A3A3A3A3A3D0E022C0E0C0F088F0E3
:10207300E4936670080874019366187000A8F0A3CF
:10208300A3700BD0F0D0E0D0E0D0E002201EA3A3D9
:10209300D0F0D0E02274F5121DB1EAFEEBFFEE247E
:1020A30034F8EF3400F988218922EE2435F582EFE4
:1020B3003400F583E0F8EE2437F582EF3400F5833E
:1020C300E0F523EC8523F0A4FCAAF08523F0EDA42E
:1020D3002AFDE82CF8E43DF97A257B00121C4AEA34
:1020E300852182852283F0F8740758F97401B900B9
:1020F300028004C333D9FCFAE8131313541FF8EE18
:1021030028F8EF3400F9E8245DF582E93400F5831B
:10211300E05A6008EE2434F582EF802CEE2434F587
:1021230082EF3400F583E0C0E0EE2436F582EF342D
:1021330000F583E0F5F0D0E084A8F0EE28F8EF3462
:1021430000F9E82438F582E93400F583E0F97F04E7
:10215300021E5D74F5121DB1EAFEEBFFEE2434F5A9
:1021630082EF3400F583E0C0E0EE2435F582EF34EE
:1021730000F583D0E0F08E828F83A3A3A3A3A3A350
:10218300A3C082C0838E828F83A3A3A3A3A3E0F8FB
:10219300A3E0F9D083D082E0C398F521A3E099F5B9
:1021A30022EE247FF582EF3400F583E06401706949
:1021B300EE2480F582EF3400F583E0F8A3E0F98E96
:1021C300828F83A3A3A3A3A3A3A3E0FCA3E0FD8E19
:1021D300828F83A3A3A3A3A3E0FAA3E0FBC3EA9C98
:1021E300EB9D5010C3EC98ED99402EC3EA98EB9900
:1021F3005027800EC3EA98EB994007C3EC98ED99FA
:1022030040177C967D05EEFAEFFB120C58EE247F07
:10221300F582EF3400F583E4F0EE2434F8EF340074
:10222300F9E8FCE9FDEE2435F582EF3400F583E0AF
:10223300F8EE2437F582EF3400F583E0F523E5214A
:102243008523F0A4F521AAF08523F0E522A42AF53D
:1022530022E82521F8E43522F97A257B00121C4A6D
:10226300EA8C828D83F0F8740758F97401B900027F
:102273008004C333D9FCFAE8131313541FF8EE2870
:10228300F8EF3400F9E8245DF582E93400F583E0E2
:102293005A6008EE2434F582EF802CEE2434F58264
:1022A300EF3400F583E0C0E0EE2436F582EF34002E
:1022B300F583E0F5F0D0E084A8F0EE28F8EF3400E1
:1022C300F9E82438F582E93400F583E0F9122ED3D6
:1022D300022151C082C083854182854283E0F8A3F5
:1022E300E0F9C3EA9CEB9D5010C3EC98ED99401BB9
:1022F300C3EA98EB995014800EC3EA98EB99400710
:10230300C3EC98ED994004790180027900D083D021
:102313008222EAC39CFAEB9DFB2274EF121DB1905B
:10232300045CE064086005E06407702A9061C8E01B
:10233300602490048AE0F4601DE0F875F003A4C8FB
:10234300AAF02AF9748C28FE740439FF8E828F83D5
:10235300A3A3A3E0700302244D906060E0C0E0EE0D
:102363002468F582EF3400F583D0E0F07525FF751E
:102373002605752100752200E5D914F523E5D95406
:1023830003F527601774036527605CE5236010EE8F
:102393002467F582EF3400F583E070030224329062
:1023A30005FAE06401602AEE2482F582EF3400F539
:1023B30083E06004780480027800852321E521C34B
:1023C30098FA95E0FB120B028A218B22EA452270D0
:1023D30005120E628074EE2482F582EF3400F583D9
:1023E300E070048A258B26E52360128525828526E5
:1023F30083F524E5D9F0A31524E52470F6EE2482B1
:10240300F582EF3400F583E0604474FC2523F52363
:102413007825121F58AC23A927EEFAEFFB120CFA0A
:102423007402121CEBE97026AA21AB2212137279F3
:102433003D8E828F83A3A3A3A3E0FA7B001209D668
:10244300EEFAEFFB120C70120D0C7900807474031A
:1024530065276056852329752A007829121F58ACF1
:1024630025AD26AA21AB22120CD67402121CEBEE68
:102473002468F582EF3400F583E064807004747F90
:102483008001E0F5257825121F5CE527F5257825E1
:10249300121F5CA923AC21AD2290048AE0FA7B00D1
:1024A30012099A7402121CEB801390045CE0640816
:1024B300600BAC25AD26EEFAEFFB120D66120E6E25
:1024C30079017F0A021E5D74F5121DB174FC121CA2
:1024D300D5EAFEEBFF8921A2AFE433F522C2AF8038
:1024E3006AEE2463F8EF3400F97A007B00A2AFE4CC
:1024F30033F523C2AF88828983E0FCA3E0FDEC4D72
:10250300603A88828983E0FAA3E0FB8A828B83E0C6
:10251300FCA3E0FD88828983ECF0A3EDF08A828B33
:1025230083E4F0A3F088828983E0FCA3E0FDEC4D13
:10253300700A88828983A3A3E4F0A3F0E523A2E0D1
:1025430092AF12137290059DE004F0EE2463F582BE
:10255300EF3400F583E0F8A3E0F9E849603DEE24A9
:1025630063F582EF3400F583E02402FAA3E034003C
:10257300FBEA2402F523EB3400F5247823121F58D9
:102583008A828B83E0FCA3E0F9EEFAEFFB120C9452
:102593007402121CEBE970030224E490059DE060D1
:1025A3006390059EE0F890059DE0C398500C74027B
:1025B3006521705090059FE0604A8E828F83A3A3AC
:1025C300A3A3E0854182854283F0A3E4F090059DB7
:1025D300E0F87402121D21E8F0A3E4F090059DE0F9
:1025E300F890059CE028F07402121D21AC82AD83A3
:1025F300854182854283AA82AB8379011209A69021
:10260300059DE4F0E522A2E092AF7404121CEB02F4
:1026130021510000008544878545C622C0E0C0D013
:10262300E8C0E0E9C0E0EAC0E0EBC0E0ECC0E0ED08
:10263300C0E0EEC0E0C021C022C023C024C082C0DD
:1026430083C0F0A2AFE433FEC2AF759B00906182FA
:10265300E0A2E05012E591A2E0500C7591FE7401E6
:102663006544700312231DE0A2E55051E591A2E5F4
:10267300504B7591DF90045CE064076005E06408EB
:102683007023740165447035790190048AE0FA750A
:10269300F003A4CAA8F028FB748C2AFA74043BFB49
:1026A3001224CA8018E0640D701390047EE004F0D5
:1026B30064287002E4F07A00E0F9120E74906182EB
:1026C300E0A2E64003022766E591A2E64003022763
:1026D300667591BF90045CE064057008120D9C124E
:1026E3000DA88003120DA2754400120E02E9900496
:1026F3005DF07900120DF6120BC87A017B0090048D
:102703005BE0F912133C907803E064427055900546
:10271300FEE014F0704DC2AF12271E00784DD0E0DA
:10272300F618D0E0F6E59F540770057522FF800385
:1027330075227FC4C0E0784CE6F52108E65522F502
:1027430022740B7821121CB3D0E02521F89062701B
:10275300E0A2E740F8E8C333906272F0906270E061
:10276300D2E0F0906181E0A2E35009E5E9A2E350F1
:102773000375E9F7A3E0A2E75009E591A2E7500347
:1027830075917FEEA2E092AFD0F0D083D082D024B7
:10279300D023D022D021D0E0FED0E0FDD0E0FCD089
:1027A300E0FBD0E0FAD0E0F9D0E0F8D0D0D0E032CE
:1027B300C0E0C0D0C082C083906183E0A2E0500932
:1027C300E5BFA2E0500375BFFEE0A2E15009E5BFFB
:1027D300A2E1500375BFFDE0A2E25009E5BFA2E20A
:1027E300500375BFFBE0A2E35009E5BFA2E350032A
:1027F30075BFF7E0A2E45009E5BFA2E4500375BF3B
:10280300EFE0A2E55009E5BFA2E5500375BFDFE0A5
:10281300A2E65009E5BFA2E6500375BFBFD083D03F
:10282300828088C0E0C0D0E8C0E0E9C0E0EAC0E050
:10283300EBC0E0ECC0E0EDC0E0C0F0E5A7A2E650DD
:102843000FE5A1A2E6500953A7BF75A1BF12288BBC
:10285300E5A7A2E5500CE5A1A2E5500653A7DF7555
:10286300A1DFE5A7A2E15009E5A1A2E1500375A10B
:10287300FDE5A7A2E2500CE5A1A2E2500653A7FB97
:1028830075A1FBD0F002279C74F8121DB1754401A9
:1028930090045CE064067015120D2A8A828B83A370
:1028A300A3A3A3A3A3E0FAA3E0FB120D8AA2AFE4C0
:1028B30033FED2AF900462E0640170187A207B008B
:1028C30090045BE0F91214507A207B0090045BE0E3
:1028D300F9121342906182E0D2E6F09005FBE060CA
:1028E3002185C6458016900461E064017008E5C641
:1028F30054F84405F5C653BEFC122618740165440A
:1029030060E4EEA2E092AF7F01021E5D008E468F6F
:102913004785824B85834A854182854283E0CEA3E6
:10292300E0CF854B82854A83EBC9EAC8EDCBECCA7D
:1029330075F010C3E833C8E933C9EA33CAEB33CBC4
:10294300C3EA9EF549EB9FF548B35004AB48AA4947
:10295300EC33CCED33CDD5F0DAAE46AF472274E994
:10296300121DB174F8121CD5854182854283ECF0A7
:10297300A3EDF08A218B2290045CE024F7C3940535
:102983005006752101022AF8120D2A8A238B24AEE0
:1029930023AF24EE4F7003022AF5AC21AD2274025B
:1029A300121D21AA82AB83120DBA8E828F83A3A339
:1029B3007525FF7526FF7527FF7528007825121BDF
:1029C300677402121D217529FF752AFF752BFF7588
:1029D3002C007829121B6778257929121543502A70
:1029E30078257929121B2C7521017522C8752300BE
:1029F30075240078217925121543505285252185A8
:102A030026228527238528248050752D01752EC8FD
:102A1300752F00753000852921852A22852B238572
:102A23002C2478217925121B2C782D79211215431A
:102A3300401C75210075220075230075240178213F
:102A43007929121B2C78217925121AF3800C752110
:102A53000175220075230075240074097821121A68
:102A6300D4752519F526F527F52878217925121A25
:102A73004C8E828F83A3A3A3A3A3A3E0F8A3E0F9BF
:102A83007AD07B03121C4A88258926E4F527F5288A
:102A930078217925121AF37406121D21E0F8A3E0B8
:102AA300F97AD07B03121C4AE8FA8A25E4F52678E2
:102AB300217925121543500778217925121B2C9073
:102AC300045CE06408600AE064066005E064057085
:102AD3002D75250D7825792112154340217525F48F
:102AE3007526FF7527FF7528FF78217925121AF3BC
:102AF300800C752100752200752300752400854123
:102B030082854283E0F8A3E0F58388827821121B53
:102B13009C7408121CEB7F10021E5D74F7121DB12A
:102B2300120DCC9005F9E064017010906245E4F059
:102B3300A3F053F4F343FE0C5390F3120D78E5C660
:102B430054804449F5C6E59E547F644970F890610A
:102B530085740FF09005F7E0F47002A3E0604E90E7
:102B630005F8E0600814601B14602E804075210195
:102B73007522009005F7E07821121CC2E521F4527A
:102B830080802A7521017522009005F7E0782112D3
:102B93001CC2E521F4529080147521017522009026
:102BA30005F7E07821121CC2E521F452A079007FD9
:102BB30002021E5D74F7121DB1E9FEEAFF74016E95
:102BC300700C7A807B0090045BE0F912133C902F29
:102BD3004CE493F46008E493F9120BBC800953C6E8
:102BE30080E59E547F70FA120D7E9005F9E0640132
:102BF3007003120BDA9005F7E0F47002A3E0604B68
:102C03009005F8E0600814601A14602C803D75216B
:102C1300017522009005F7E07821121CC2E52142DC
:102C23008080287521017522009005F7E078211234
:102C33001CC2E52142908013752101752200900585
:102C4300F7E07821121CC2E52142A0120DCC120D2F
:102C53002A8A218B22A821A922E8496015E5E1707F
:102C6300FCE82414F582E93400F583E0F46003E022
:102C7300F5E174016F700A7A0190045BE0F91213B5
:102C8300C6022BB274ED121DB18A218B228C238DC7
:102C9300247413121D217825121B8D782179251296
:102CA3001543752901752AC8752B00752C00501220
:102CB30078217925121B2C78297921121543501676
:102CC300801078257921121B2C7829792512154338
:102CD30040047901800279007F0C021E5D74ED12BD
:102CE3001DB18A218B228C238D247413121D21780C
:102CF30025121B8D782579211215434011782179EE
:102D030025121B2CAA21AB22AC23AD2480227529CA
:102D130000752A00752B00752C0178297925121B63
:102D23002C78297921121AF3AA29AB2AAC2BAD2CC2
:102D330080A68A828B837521FF7522FF7523FF7519
:102D430024007821121B7A7F04021E5D74F5121D84
:102D5300B18C828D837821121B8D8A828B8378219B
:102D6300121B40EA2404F8EB3400F98C828D83A310
:102D7300A3A3A3E0FCA3E0FD88828983C3E09CF0C6
:102D8300A3E09DF088828983C3E09420A3E0944E5E
:102D930040268A828B837521FF7522FF7523FF7579
:102DA30024FF7821121B198A828B83A3A3A3A3E098
:102DB3002420F0A3E0344EF0022D3574F5121DB13A
:102DC300E9FE9005B1E0FAA3E0FBEEC333F8E43388
:102DD300F974E928F582748039F583E02AF521A393
:102DE300E03BF5227821121F587A407B427C0F7D0D
:102DF300001229107402121CEB8A218B228C238D62
:102E03002474107821121ABBAA21AB227F04021E5C
:102E13005D74F1121DB18A258B268C278D28740FC2
:102E2300121D21E0FAA3E0FB7411121D21E0F5212C
:102E3300A3E0F5227821121F58EA2401F521EB348F
:102E430000F522E4F523F524782579211219CC75B0
:102E53002171752202782579211219CCAA25AB2676
:102E6300AC27AD281229107402121CEB8B22EA4501
:102E73002260047A0180027A00EC2AFCED3400FD22
:102E83007413121D21E0F8A3E0F9E8FEE9FFECF862
:102E9300EDF97A717B02121C4A882189228E828F76
:102EA300837821121B9CECF8EDF97A717B02121CDA
:102EB3004A8A218B2274057821121CC28E828F8349
:102EC300A3A3A3A3E521F0A3E522F07F08021E5DDF
:102ED300C082C083E9906000F0D083D08222C0E03A
:102EE30074F2121E9DA2AFE433FED2AFE58AA2E4D0
:102EF300400CE58AA2E64006E58AA2E750031212D7
:102F030016538AEF538ABF538A7FC2EB754300EE91
:102F1300A2E092AF7F01021EFCC0E0C0D0E8C0E097
:102F2300E9C0E0A9A8D2AFC2C7754300E9A2E7E4AC
:102F330033F8E9A2E792AFD0E0F9D0E0F8D0D0D0EF
:082F4300E032C2AF02000022DF
:102F4C00FFFFFFFFFFFFFFFF121CEB7F02021E17AC
:102F5C00121CEB7F04021E173522F583E02274F657
:102F6C00121D4574EE121CD5E9900301F01212B239
:102F7C007C067D007A1F7B001205EC854182854220
:102F8C0083E4F0740C121D217488F0A37413F07494
:102F9C0001121D217401F0740A121D21740AF0A390
:102FAC00E4F07408121D217414F0A3E4F0740612FA
:102FBC001D21E4F0A3F07404121D217464F0A3E449
:102FCC00F0AC41AD4279017A057B03121468740CA4
:102FDC00121D3B79027A067B031214687CA87D0FC4
:102FEC0079177A087B031214687CBF7D0F79077AF6
:102FFC00077B031214687401121D3B79017A107B54
:10300C0003121468740A121D3B79027A117B0312A5
:10301C0014687408121D3B79027A127B031214682F
:10302C007406121D3B79027A137B03121468740424
:10303C00121D3B79027A147B031214687CC67D0F37
:10304C007A1579001207667CA07D007A067B001247
:10305C0005EC7CA07D007A077B001205EC7CA07D42
:10306C00007A087B001205EC7CA07D007A097B00BD
:10307C001205EC740E121D21124E6F04121D2174D8
:10308C0001F0854182854283F07403121D21E4F026
:10309C007402121D217401F0740E121D3B79047A16
:1030AC00087B041210F67401121D3B79017A007B27
:1030BC00041210F6AC41AD4279017A027B04121075
:1030CC00F67403121D3B79017A037B041210F6741B
:1030DC0002121D3B79017A067B041210F690819A3C
:1030EC00121BAB12076C90819A121BAB1208741254
:1030FC00106C90819A121BAB12107E900301E0F9B8
:10310C001212D01215161204B41204BA1214EC12C4
:10311C0014FE1212881210A81210AE1212A0908275
:10312C0052AC41AD427401121BE8A841A94288215E
:10313C0089227821121F587C017D007AF07B1F12A6
:10314C0011F27402121CEB854182854283E064AA61
:10315C0060031204FC12125E7AF47B0112123A7AAA
:10316C00DF7B0F1210847901120970790212096A3F
:10317C007900120976790112097C7A017B0090039F
:10318C0001E0F912133C79011213C07412022F548E
:10319C0074EC121D4574FD121CD58923908216AC5B
:1031AC0041AD427403121BE87A10FB1213AE8A2154
:1031BC008B22AE21AF22C2AFA841A942882189221D
:1031CC007821121F587C017D007AFE7B1F1211F2B0
:1031DC007402121CEB7401121D218582218583223D
:1031EC007821121F587C017D007AFF7B1F1211F28F
:1031FC007402121CEB7402121D218582218583221C
:10320C007821121F587C017D007AF07B1F1211F27D
:10321C007402121CEBD2AF1204C68A218B22120448
:10322C00C68A258B261204C68A278B28A827A9288C
:10323C00C3E5219525E52295265052C3E52598E551
:10324C0026994052C3E52198E52299405A852129B7
:10325C0085222AE4F52BF52C7829121582900B3255
:10326C007829121B9C854182854283E0603FF525BD
:10327C00E4F526F527F52878251215827829792585
:10328C0012178D900B327829121B9C8046C3E8953F
:10329C0025E99526500885252985262A80B5C3E879
:1032AC009521E9952250A68829892A80A6740112B5
:1032BC001D21E0F8601D8825E4F526F527F5287812
:1032CC0025121582782579291217B2900B327825A0
:1032DC00121B9C900B327825121B8D9081F678294D
:1032EC00121B8D782579291217415006900B36E464
:1032FC00802978251215DFE52524BDF8E52634F95B
:10330C00F9E875F064A4F8AAF075F064E9A42AF958
:10331C007A547B01121C4AE8900B36F07401652339
:10332C0070518E828F837431F0EE2402F8E43FF9F1
:10333C00E8FAE9FBA3A882A98375F00A900B36E0A2
:10334C0084940A88828983400A7401F08A828B8370
:10335C00E4801AE4F0900B36E0F875F00A84A9F0DA
:10336C0075F00AE884C454F0298A828B8312503099
:10337C0012108AEEFAEFFB1213B4900B36E0F974CC
:10338C0003121CEB7F0C021E1774E8121D4574F916
:10339C00121CD5EAFEEBFF5480603A900301E0F971
:1033AC001213248A218B22EA452260218A828B8384
:1033BC00E064C07011A3A3A3E0FA8521828B83A3E0
:1033CC00A3E0F91204DEAA21AB22121312EEFAEFDB
:1033DC0064800246DDEEA2E050147ADB7B0F1214FF
:1033EC00747A067B03121114EE64010246DB54025C
:1033FC0060201204EA9081F2121F6B7A027B00901B
:10340C000301E0F91214447404121CEBEE64020282
:10341C0046DBEE544070030236AF900303E07004B9
:10342C0074018001E4F07C057D0079007AF87B0A58
:10343C001214B0900B31E4F0900303E06401854169
:10344C0082854283600302351E7401F079001213E9
:10345C00C0900B2FE4F07C2F7D0A7AC47980121473
:10346C0020900B37E0603AC2AF75217775220B784C
:10347C0021121F587C2C7D037A007B001211F274F0
:10348C0002121CEB7521A375220E7821121F587C99
:10349C00F47D007A007B101211F27402121CEBD234
:1034AC00AF1210DE1212A679001212BE7A027B0045
:1034BC00900301E0F912133C9081EE121F6B7A001D
:1034CC007B01900301E0F91214447404121CEB7A92
:1034DC00007B40900301E0F912133C9081EA121F2B
:1034EC006B7A407B00900301E0F9121444740412CF
:1034FC001CEB12147AAC41AD4279017A057B0312B4
:10350C0014687CA87D0F79177A087B031214680263
:10351C0036A9E4F012147AAC41AD4279017A057BFC
:10352C0003121468900B00E4F0900B37E0602590C8
:10353C000B0EE4F0900B30F0900B0FF0900AFEF0B5
:10354C00900B75F0900AFDF0900AF5125D89900BC6
:10355C002BF080031214CE12129A1214FE1210A821
:10356C00900B37E06074900B2DE064426008900B78
:10357C002FE06401700FC2AF7C2F7D0A7AC4798072
:10358C0012141AD2AF900B2DE0F8600574426870DB
:10359C0008900B2FE064027041C2AF752177752241
:1035AC000B7821121F587C2C7D037A007B001211A2
:1035BC00F87402121CEB7A0A7B0012123A7521A3E2
:1035CC0075220E7821121F587CF47D007A007B1036
:1035DC001211F87402121CEBD2AF900B76E064015E
:1035EC007023E4F07A0AFB12123A7521A375220EAD
:1035FC007821121F587CF47D007A007B101211F890
:10360C007402121CEB1212AC7A007B20900301E0C6
:10361C00F91214507A087B00900301E0F91214504F
:10362C007A047B00900301E0F91214507A027B00BB
:10363C00900301E0F91214507A407B00900301E0F2
:10364C00F91214507A007B02900301E0F912145025
:10365C007A007B04900301E0F91214507A007B107D
:10366C00900301E0F91214507A007B08900301E0FA
:10367C00F91214507A007B01900301E0F9121450F6
:10368C007A107B00900301E0F91214507A007B4011
:10369C00900301E0F912145079011213C0EE64404A
:1036AC000246DBEF540270030237877A007B0290EC
:1036BC000301E0F91214507A007B04900301E0F945
:1036CC00121450900B00E0700474018001E4F0902F
:1036DC000B0EE4F01214FE900B26E4F0900B0F127C
:1036EC004E951214B0900B00E085418285428360A8
:1036FC002EE4F012147AAC41AD4279017A057B03C9
:10370C001214687A027B00900301E0F91214507ACB
:10371C00007B08900301E0F9121450790380517476
:10372C0001F012147AAC41AD4279017A057B031297
:10373C0014687CA87D0F79177A087B0312146890A3
:10374C0081F2121F6B7A027B00900301E0F91214D4
:10375C00447404121CEB7A007B10900301E0F91204
:10376C0014507A007B20900301E0F9121450792751
:10377C001212BEEEFAEF64020246DDEF540470033F
:10378C00023D92900B0FE4F0FA7B04900301E0F9F8
:10379C001214507A007B10900301E0F9121450902F
:1037AC000B03E0F8900B0EE06033147003023881C9
:1037BC001470030239BC147003023ACE1470030265
:1037CC003B13147003023B98147003023C331470C7
:1037DC0003023CCF147003023D01023D7C752106AF
:1037EC007522007821121F587C037D0B7A2F7B0ADF
:1037FC001214AA7402121CEBE960329081E6121FBB
:10380C006B7A407B00900301E0F9121444740412AB
:10381C001CEB900B0E7401F079221212BE7C0A7D07
:10382C000079FF7A037B0B1214B0023D7C900B0ED7
:10383C00E4F079041212BE900B26E004124E8512AD
:10384C0014B0900B26E0C394065003023D7C12107A
:10385C00DE7A527B081210EAEAF8EBF9ECFAEDFB8F
:10386C00900B27121BCF7A407B00900301E0F912DA
:10387C00133C023D7C7521027522007821121F58E1
:10388C007C037D0B7AE17B0F1214AA7402121CEBE1
:10389C00E96032900B0E7402F079051212BE900B97
:1038AC000EE0C3940240179081E2121F6B7A007BEA
:1038BC0010900301E0F91214447404121CEB900BE9
:1038CC000FE4023D7B7821121F587C037D0B7AE3B9
:1038DC007B0F1214AA7402121CEBE9600A900B0EF7
:1038EC007403F0790980B47821121F587C037D0B86
:1038FC007AE57B0F1214AA7402121CEBE9600F908C
:10390C000B0E7404124E851214B0790D808D782133
:10391C00121F587C037D0B7AE77B0F1214AA7402DA
:10392C00121CEBE9601A79121212BE900B0E740580
:10393C00F07A007B20900301E0F912133C0238AAC4
:10394C007821121F587C037D0B7AE97B0F1214AA85
:10395C007402121CEBE9600C79121212BE900B0E61
:10396C00740680CC7821121F587C037D0B7AEB7B7C
:10397C000F1214AA7402121CEBE9600B900B0E745C
:10398C0007F079190238A77821121F587C037D0B98
:10399C007AED7B0F1214AA7402121CEBE9900B0E39
:1039AC0060087408F0791D0238A77401F00238CA57
:1039BC007A107B001213AE8A218B22900AF5E064F8
:1039CC00016003023AB9900B04E0640B6009A3E0B8
:1039DC00640B6003023AB912473E121CC2743F12C8
:1039EC005D53740A3524F583E0F46003023A9CE9D4
:1039FC00900B237005E044118008E04421125D8394
:103A0C004441F012473E121CC2742F2523FA740A4B
:103A1C003524FBEA2410F582E43BF583E9125D7949
:103A2C00121F587C1D7D0BEA2411FA50010B121247
:103A3C00E87402121CEB7C0679007A1D7B0B1204D5
:103A4C00F6E9F8852182852283742FF0900AF6120C
:103A5C004735F0900B23124735A3F0E8852182857A
:103A6C002283A3A3A3F0AC21AD227A10790112100A
:103A7C008A79071212BE7C077D0079007A1D7B0BB8
:103A8C001214B07C2F7D0A7AC4798012141A801D0E
:103A9C00854182854283E4F012147AAC41AD4279BF
:103AAC00017A057B0312146879241212BEAA21AB89
:103ABC00221213B4900AF674FFF0900AF5E4F002A7
:103ACC003D767521067522007821121F587C037DE6
:103ADC000B7A107B0B1212FA7402121CEBE96020A9
:103AEC007821121F587C107D0B7A2F7B0A1212E85A
:103AFC007402121CEB900B2DE04442F0790B800207
:103B0C00790C1212BE80757521067522007821126F
:103B1C001F587C037D0B7A107B0B1212FA74021265
:103B2C001CEBE9604C900AF7E0FC8C2174047821C2
:103B3C00121CC274772521F8740B3522F9E8FAE9C6
:103B4C00FBEC8A828B83A3F0752106752200782109
:103B5C00121F587C107D0BEA2402FA50010B121232
:103B6C00E87402121CEB900B2DE04444F0791180A8
:103B7C0002790C1212BE900AF774FFF07C067D00DD
:103B8C0079BB7A107B0B1214B0023D767A087B005D
:103B9C001213AE8A218B229081667401121D3B7424
:103BAC0006121BE8900B03E0640B6003023CC57526
:103BBC00250085252375240074047823121CC21259
:103BCC0046F9121F587403121D3BAA23AB2412147E
:103BDC00AA7402121CEBE9603C7525067526007868
:103BEC0025121F587C167D0BAA23AB241212E874E5
:103BFC0002121CEB900B0E7401F07C067D0079BB5D
:103C0C007A167B0B1214B0900B2DE04448F079140B
:103C1C001212BE800F7409652560090525E525C3C0
:103C2C00940A408E023CC57A087B001213AE8A219E
:103C3C008B227523027524007823121F587C037D78
:103C4C000B7AEF7B0F1214AA7402121CEBE9606959
:103C5C0075250085252375240074047823121CC255
:103C6C001246F9121F587C167D0BAA23AB24121492
:103C7C00AA7402121CEBE9602C7C067D0079FFAA69
:103C8C0023AB241214B07C067D0079BB7A167B0B17
:103C9C001214B0900B0E7401125D834448F0791825
:103CAC001212BE801474096525700579171212BEA4
:103CBC000525E525C3940A409AAA21AB221213B418
:103CCC00023D76740B686003023D767C077D0079BB
:103CDC00BB900AF7E0F5218D2274047821121CC2E6
:103CEC0074782521FA740B3522FB1214B0900B2D2D
:103CFC00E04444806F740B68707075210675220067
:103D0C007821121F58900AF6E0F5217404782112DC
:103D1C001CC274402521FC740A3522125E23121237
:103D2C00E87402121CEB900B74E004F0900AF6128B
:103D3C004EB4121CC2742F2521FA740A3522FBEAE8
:103D4C002410F582E43B124713EA2411FA50010BBC
:103D5C001214B07C2F7D0A7AC4798012141A900B3D
:103D6C002DE04441F0791B1212BE900B0E7401F041
:103D7C00900AF674FFF0A3F0124E911214B0EEFA02
:103D8C00EF64040246DDEE5408603C900AF3E064F4
:103D9C0001702E900302E064057026900B2DE060FC
:103DAC0020900B00E0701A125DDF7AF17B0F120489
:103DBC00F6E9900B24F07CF17D0F7A10790112104A
:103DCC008AEE64080246DBEF54087003023FA87ABF
:103DDC00007B08900301E0F9121450900B37E0704F
:103DEC0003023F7475230085232185212575260048
:103DFC0074047825121CC274772525F525740B35AF
:103E0C0026F5267527067528007827121F587C037F
:103E1C007D0BE5252443FAE5263401FB1214AA7424
:103E2C0002121CEBE96027900EA47404F0E523A3A6
:103E3C00125D834460124E851214B07C107D0079A3
:103E4C00BBE5252442FAE5263401FB023F11782715
:103E5C00121F587C037D0BE5252402FAE43526FB62
:103E6C001212FA7402121CEBE96008900EA4740191
:103E7C00023F0AE52175F007A4F521E5F0F522745F
:103E8C00772521F521740B3522F52275250675262B
:103E9C00007825121F587C037D0BE52124E3FAE5FD
:103EAC00223401FB1214AA7402121CEBE960079075
:103EBC000EA4740580487825121F587C037D0BE5F1
:103ECC00212429FAE5223402FB1214AA7402121CD2
:103EDC00EBE96007900EA4740680237825121F5816
:103EEC007C037D0BE521246FFAE5223402FB1214CE
:103EFC00AA7402121CEBE9601D900EA47407F0E585
:103F0C0023A3124E851214B07A107B00900301E0AB
:103F1C00F912133C804B740965237039900B26E021
:103F2C0004F0C39406401C1210DE7A527B08121067
:103F3C00EA900B27121BB77A407B00900301E0F943
:103F4C0012133C79041212BE7C0A7D0079FF7A03AD
:103F5C007B0B1214B00523E523C3940A5003023DD6
:103F6C00F3900B0FE4F0802C900B26E004F0C3943C
:103F7C0006401C1210DE7A527B081210EA900B27B6
:103F8C00121BB77A407B00900301E0F912133C79C5
:103F9C00041212BEEEFAEF64080246DDEF54017013
:103FAC00030240B11210DE7A527B081210EA8A2109
:103FBC008B228C238D24752700AA278A2575260031
:103FCC0074027825121CC274772525F52D740B35D7
:103FDC0026F52EE52D24B4F525E52E3402F526EA3A
:103FEC0075F007A4FAABF074772AF52F740B3BF538
:103FFC00308525828526837829121B8D9081DA786D
:10400C0029121B0678297921121543400E12471FDD
:10401C0024E2FAE5303401FB1214B0E52D24DCF572
:10402C0025E52E3402F526852582F5837829121B89
:10403C008D9081C27829121B06782979211215439B
:10404C00400E12471F2428FAE5303402FB1214B03C
:10405C00E52D2404F525E52E3403F526852582F57A
:10406C00837829121B8D9081BE7829121B06782922
:10407C007921121543400E12471F246EFAE5303495
:10408C0002FB1214B00527E527C3940A5003023F24
:10409C00C57A007B01900301E0F9121450EEFAEF9F
:1040AC0064010246DDEE541070030242DB900B30CB
:1040BC00E0600C7A007B40900301E0F91214509000
:1040CC000AFDE0F860057403687015E004F09003D5
:1040DC0005E0700474018001E4F09081EE0242C1AD
:1040EC007401686003024239900B2DE04450F0904B
:1040FC000F96E0C39410400A740FF0900EA3F012C8
:10410C0014A4900EA3E0C0E0F5217522007404788D
:10411C0021121CC27496124E5C740E12470ED0E023
:10412C00F0900EA4E0C0E0124EB1121CC2749712B3
:10413C004E5C740E12470ED0E0F0900EA5E0C0E07D
:10414C00124EB1121CC27498124E5C740E12470EB1
:10415C00D0E0F01210DE900852E0C0E0124EB11226
:10416C001CC27499124E5C740E12470ED0E0F09083
:10417C000853E0C0E0124EB1121CC2749A124E5C8D
:10418C00740E12470ED0E0F0900854E0C0E0124ECE
:10419C00B1121CC2749B124E5C740E12470ED0E00E
:1041AC00F0900855E0C0E0124EB1121CC2749C1283
:1041BC004E5C740E12470ED0E0F0900856E0C0E052
:1041CC00124EB1121CC2749D124E5C740E12470E2C
:1041DC00D0E0F0900857E0C0E0124EB1121CC2744F
:1041EC009E124E5C740E12470ED0E0F0900F96E0CB
:1041FC0004F0900EA3F0900AFDE004F012128E90E1
:10420C0081F2121F6B7A107B00900301E0F91214FB
:10421C00447404121CEB7A027B00900301E0F91247
:10422C0014509081BA121F6B7A400242C674046813
:10423C0070087405F012129480787406687053E458
:10424C00F0900B26F07A10FB900301E0F912145059
:10425C009081B6121F6B7A027B00900301E0F91279
:10426C0014447404121CEB9081B2121F6B7A407BC5
:10427C0000900301E0F91214447404121CEB900B2F
:10428C0030E060457A007B40900301E0F912133C6A
:10429C00803774026870107403F012129A791F122E
:1042AC0012BE9081B2800E740568701D7406F012F7
:1042BC00129A9081F2121F6B7A107B00900301E02E
:1042CC00F91214447404121CEBEE64100246DBEE7B
:1042DC005404601512147A7A047B00900301E0F9FF
:1042EC00121450EE64040246DBEE54806048A29631
:1042FC00401B79001212BE7A407B00900301E0F95A
:10430C001214509081AE121F6B7A8080147A807BCD
:10431C0000900301E0F91214509081BA121F6B7ACD
:10432C00407B00900301E0F91214447404121CEB5E
:10433C00EE64800246DBEE5420700302441E7A20A9
:10434C007B00900301E0F9121450A2975003024431
:10435C001E908251AC41AD427401121BE8790112DE
:10436C0012BE7AC87B0012123A1214CE1214C21268
:10437C0014C81214BCC2AF7C2F7D0A7AC479801287
:10438C00141A75217775220B7821121F587C2C7DFD
:10439C00037A007B001211F87402121CEB7A0A7B70
:1043AC000012123A7521A375220E7821121F587C27
:1043BC00F47D007A007B101211F87402121CEBA829
:1043CC0041A942882189227821121F587C017D0045
:1043DC007AF07B1F1211F87402121CEB7821121F59
:1043EC00587C017D007AFE7B1F1211F87402121C9E
:1043FC00EB7821121F587C017D007AFF7B1F121174
:10440C00F87402121CEBD2AFC2AF75C9AB75C95BA5
:10441C0080FEEF542070030245E77A087B001213EC
:10442C00AE8A238B247A007B10900301E0F91214DE
:10443C0050EEF521EF6420F522900B0EE064057030
:10444C00347525067526007825121F587C017D10C1
:10445C007AA87B0C1214AA7402121CEBE970167960
:10446C00281212BE124E911214B0900B0E7401F061
:10447C007A00024584AA23AB24121510E9700302BA
:10448C0045C27A00EAF8E52328F582E43524F58361
:10449C00A3E070037430F00AEAC3940640E6852367
:1044AC0082852483A3AE82AF83900B0EE0F8740553
:1044BC006870627525007527067528007827121F0D
:1044CC0058EEFCEFFD85252774047827121CC212C8
:1044DC0046EE1214AA7402121CEBE9602B7933120B
:1044EC0012BE124E911214B0900B0E7401F090810A
:1044FC00A6121F6B7A007B10900301E0F912144492
:10450C007404121CEB0245B40525E525C3940A403E
:10451C00A57913804D740668707375250075270690
:10452C007528007827121F58EEFCEFFD852527749F
:10453C00047827121CC21246EE1214AA7402121C22
:10454C00EBE960239081A6121F6B7A007B1090031D
:10455C0001E0F91214447404121CEB900B0FE4F0FC
:10456C0079161212BE8026740965257017791712F8
:10457C0012BE900B0FE4F0FA7B20900301E0F912CD
:10458C00145080500525E525C3940A4090752506E6
:10459C007526007825121F58EEFCEFFD7A167B0B62
:1045AC001212E87402121CEB7A007B20900301E0DB
:1045BC00F912145080179081F2121F6B7A007B2035
:1045CC00900301E0F91214447404121CEBAA23ABFF
:1045DC00241213B4AA21AB220246E4EF541060500B
:1045EC00854182854283E4F0FA7B10900301E0F967
:1045FC00121450900AF5E06401701012147AAC4158
:10460C00AD4279017A057B03121468900B0E74018C
:10461C00F079211212BE7C0A7D0079FF7A037B0BA4
:10462C001214B0900B0FE4F0EEFAEF64100246DDBA
:10463C00EF544070030246E0900B30E004F0F8EFCA
:10464C006440FF74F92870327AF87B0A1214B6E9C8
:10465C00F5211204BAE521C39402505679251212A1
:10466C00BE9081F2121F6B7A007B40900301E0F93F
:10467C001214447404121CEB8054E8C39407E850E1
:10468C002C604B1204C079001204D2900B30E0F86D
:10469C00C394024013900B36E0C0E074F628F58208
:1046AC00E4340AF583D0E0F09081B680B7C3940966
:1046BC00401C900B30E4F07C05FDF97AF87B0A1273
:1046CC0014B07A007B40900301E0F9121450EEFA1A
:1046DC00EFFB80047A007B007407121CEB7F100246
:1046EC001E1774182527FA740C3528FB227418250C
:1046FC0023F523740C3524F52475270675280078CA
:10470C0027223522F58322F58374FFF07C077D0088
:10471C00790022852582852683E4F0A3F0A3F0A3FB
:10472C00F07C07FD79BBE52F22E085218285228371
:10473C00A322900AF6E0F9892375240074047823E7
:10474C002274F0121D4574F3121CD5EAFE74016E2E
:10475C006003024E1E900303E064016003024850A4
:10476C00900AFDE0600302485B121264E9901007A6
:10477C00F0F4605179001212BE901007E0C0E09086
:10478C000B0FE0F8740328F582E4340BF583D0E0CA
:10479C00F0900B0FE004F0900B00E0700C7A027BB1
:1047AC0000900301E0F9121450900B30E0600C7A89
:1047BC00007B40900301E0F91214509081EA121F23
:1047CC006B7A40800E900B00E0701E908196121F49
:1047DC006B7A027B00900301E0F91214447404120A
:1047EC001CEB901007E0F47012900B30E060287A0C
:1047FC00007B40900301E0F912133C900B0EE0C3D8
:10480C0094024013901007E0F4602D7A007B109016
:10481C000301E0F9121450901007E0640A7019902B
:10482C00818E121F6B7A007B02900301E0F9121447
:10483C00447404121CEB800C7A007B02900301E0A0
:10484C00F9121450900303E064016003024DCA9006
:10485C001007E0F46072900AFDE0706C900B00E0C1
:10486C007003024D919081B2121F6B7A007B049001
:10487C000301E0F91214447404121CEB900B0FE0CA
:10488C00FA900B0EE0603014607E147003024953F2
:10489C00147003024A3A147003024A9C1470030207
:1048AC004BC0147003024C18147003024C6014704B
:1048BC0003024CDA024E1E124E617003024CD2EA15
:1048CC00C3940A4003024CD27A807B00900301E02F
:1048DC00F912145074106E6003024E44900303E0FE
:1048EC00700C7A407B00900301E0F912133C90812C
:1048FC0096121F6B7A207B00900301E0F91214448E
:10490C007404121CEB024E5074026A700B90100768
:10491C00E0640B70B3024CD2EAC3940340AA793022
:10492C001212BE900B0FE4F0900B0E04F07A007B89
:10493C0004900301E0F91214507A007B10900301EB
:10494C00E0F91214508081EAC394025003024A0821
:10495C00901007E0640B6003024A0874036A700548
:10496C00124EA0800B74026A700A900B03E024D0E4
:10497C00900AF6F0900AF6124EB4121CC2124E5A5D
:10498C00740A122F64F48541828542837045740148
:10499C00F079341212BE12147AAC41AD4279017A1C
:1049AC00057B031214687CA87D0F79177A087B03AA
:1049BC00121468900AF57401F09081A6121F6B7A9C
:1049CC00007B10900301E0F91214447404121CEBE8
:1049DC00024BB1E4F012147AAC41AD4279017A0584
:1049EC007B0312146879061212BE900AF674FFF05B
:1049FC00900AF5E4F0900B0E04024BABEAC394045E
:104A0C00501374036A60030248D4901007E0640BDF
:104A1C0070030248D479301212BE900B0FE4F012DE
:104A2C004E78900AF5124E941214B002493974065D
:104A3C006A60030248D4900B15E064BB75210675BF
:104A4C0022007821702D121F587C037D0B7A107B6D
:104A5C000B1212E87402121CEB7C0A7D0079FF7AAF
:104A6C00037B0B1214B0900B0FE4F0790A1212BEF8
:104A7C000248D4121F587C037D0B7A107B0B121446
:104A8C00AA7402121CEBE96003024B7F790C804E76
:104A9C00EAC39402404E901007E0640B7046740316
:104AAC006A7005124EA0800B74026A700A900B0398
:104ABC00E024D0900AF7F0900AF7124EB4121CC200
:104ACC007478124E5C740B122F6464BB600E7910F8
:104ADC001212BE900AF7124E7B024D2F790E121253
:104AEC00BE024BB1900AF7E0F8EAC3940440147488
:104AFC00FF68700F79301212BE900B0E7401F0A388
:104B0C00024A3174066A60030248D4900B15E064C3
:104B1C00BB703A74FF6870030248D4752106752285
:104B2C00007821121F587C037D0B7A107B0B12121C
:104B3C00E87402121CEB7C0A7D0079FF7A037B0B74
:104B4C001214B0900B0FE4F0790F024A7974FF68DD
:104B5C0070030248D47521067522007821121F5863
:104B6C007C037D0B7A107B0B1212FA7402121CEB75
:104B7C00E9600F7A007B04900301E0F912133C0208
:104B8C004D3C790C1212BE900AF774FFF07C067D36
:104B9C000079BB7A107B0B1214B0900B0E740112BF
:104BAC004E851214B07A007B04900301E0F91214C4
:104BBC0050024D3C90815A7407121D3B7406121B17
:104BCC00E8901007E0640B702774016A702275215D
:104BDC00067522007821121F587409121D3B7A1693
:104BEC007B0B1214AA7402121CEBE97053024D8257
:104BFC00EAC394024003024D4A74016A60030248FE
:104C0C00D4E0640B6003024D4A0248D490814E7488
:104C1C0001121D3B7406121BE874026A702A75217E
:104C2C00067522007821121F587403121D3B7A1648
:104C3C007B0B1214AA7402121CEBE97003024D8256
:104C4C0079121212BE024D3CEAC39403500302487F
:104C5C00D4024D4A901007E0640B7051EAC39402E1
:104C6C00404B74036A7005124EA0800B74026A707C
:104C7C000A900B03E024D0900AF7F0900AF7124E3A
:104C8C00B4121CC27478124E5C740B122F6464BB89
:104C9C00700D791C1212BE900AF7124E7B800579AA
:104CAC001A1212BE124E911214B00248D4EAC394D6
:104CBC00044003024D4AE0640B60030248D47401C3
:104CCC006A60030248D4900B0FE4F0024D82EAC3F1
:104CDC0094024064901007E0640B705C74036A707B
:104CEC0005124EA0800B74026A700A900B03E0242C
:104CFC00D0900AF6F0900AF6E0F98921752200743A
:104D0C00047821121CC2124E5A740A122F64F460D9
:104D1C0003E9700A791C1212BE124E788012791EA9
:104D2C001212BE7C0A7D0079FF7A037B0B1214B041
:104D3C00900B0FE4F00248D4EAC394044025793078
:104D4C001212BE900B0E7401F0A3124E941214B0FA
:104D5C007A007B10900301E0F91214507A007B0466
:104D6C0002494974016A60030248D4901007E06458
:104D7C000B60030248D47A007B04900301E0F91223
:104D8C00133C0248D4900B0FE0FA124E616006EA15
:104D9C00C3940A40067A007B0880DFEAC39406506D
:104DAC00030248D4908196121F6B7A007B08900303
:104DBC0001E0F91214447404121CEB0248D4900B59
:104DCC000FE4F0900B26E0C39406403F1210DE7AFD
:104DDC00527B081210EA8A218B228C238D24900B93
:104DEC00277825121B8D9081727825121B06782549
:104DFC007921121543404D900B26124E6FA3F09063
:104E0C008176121F6B7A407B0080A37A407B000274
:104E1C004D8674026E60030248D4900303E0700C5C
:104E2C007A407B00900301E0F912133C7A807B00FE
:104E3C00900301E0F912133C7A207B00900301E00F
:104E4C00F9121450740D121CEB7F08021E17743FDC
:104E5C002521F5822274022AF582E4340BF583E0D5
:104E6C00640B22E4F0A3F0A3F0A3F022900AF674F2
:104E7C00FFF0900B0E7401F022F07C0A7D0079FF9C
:104E8C007A037B0B22900B0FE4F07C0AFD79FF7AFE
:104E9C00037B0B2275F00A900B03E0540FA4F8A3CC
:104EAC00E0540F2822900EA3E0F521752200740423
:104EBC0078212274F4121D4574F1121CD58921E954
:104ECC00146010147003024F6824FD7003024FA588
:104EDC000250217409121D3B7A047B0312146E7468
:104EEC0009121D21E0C0E07401121D21D0E0F07404
:104EFC000A121D21E0C0E07402121D21D0E0F074F2
:104F0C000B121D21E0C0E07403121D21D0E0F074DF
:104F1C0005121D21E4F07404121D21E4F0740E122C
:104F2C001D21E0C0E07408121D21D0E0F0740D12B8
:104F3C001D21E0C0E07407121D21D0E0F0740C12AA
:104F4C001D21E0C0E07406121D21D0E0F0740112A6
:104F5C001D3B7A087900121072025021854182851E
:104F6C004283E4F07A04FB900301E0F912145090B0
:104F7C000303E06012900AF5E06003025021900BED
:104F8C0000E0700302502112147AAC41AD42790159
:104F9C007A057B03121468807C900AF5E06401703A
:104FAC0043900B00E0640170607A107B001213AE2A
:104FBC008A238B24AE23AF248E828F837401F0A3BB
:104FCC00744FF08E828F83A3A3744B125030121047
:104FDC008A7A047B00900301E0F9121450EEFAEF88
:104FEC00FB1213B4900AF3E0701F900AF5E07019ED
:104FFC00908196121F6B7A047B00900301E0F912EA
:10500C0014447404121CEB800C7A047B0090030192
:10501C00E0F9121450E521900302F0740F022F5C9A
:10502C00E9900B24F0EEFCEFFD7A1079012274F478
:10503C00121D4574FF121CD57A087B001213AE8A20
:10504C00218B22AE21AF22854182854283E4F090F0
:10505C000AF3E06023900AFEE06401701B900B2DB4
:10506C00E0701512147AAC41AD4279017A057B03DC
:10507C00121468900AFEE4F0EEFAEFFB121510E938
:10508C0070030251137A00EAF8EE28F582E43FF53A
:10509C0083A3E070037430F00AEAC3940640E87509
:1050AC0021007523067524007823121F588E828FD9
:1050BC0083A3AC82AD8385212374047823121CC294
:1050CC0074182523FA740C3524FB1214AA740212DA
:1050DC001CEBE9601B1214F2900EA47403F0E52192
:1050EC00A3F07A107B00900301E0F912133C8017B7
:1050FC007409652170081214F879011212BE052189
:10510C00E521C3940A409BEEFAEFFB1213B4740131
:10511C00022F5C74F0121D45900303E064016003E0
:10512C00025D4EE9600A24FE7003025752025D4E86
:10513C007A1A7B03790012109075230A7524037870
:10514C0023121F587C1A7D037A987B0F120B8074E4
:10515C0002121CEB7C2F7D0A7AC4798012142090E9
:10516C00030BE0F890030AE014601D147003025363
:10517C00871470030254A324FB70030256F924F81D
:10518C007003025739025D4E752200852223852358
:10519C002575260074047825121CC2742F2525FE53
:1051AC00740A3526FFEE2411F525E43FF526752704
:1051BC00067528007827121F587C0B7D03AA25AB97
:1051CC00261214AA7402121CEBE970030252F3901B
:1051DC0003047401F01204C079011204D21204BA4F
:1051EC00E522900B75F07A047B00900301E0F91234
:1051FC001450E522900AF370427401F09081EA1287
:10520C001F6B7A407B00900301E0F9121444740484
:10521C00121CEB900B2DE06025900B00E0701F1220
:10522C005DDF7A287B101204F6E9900B24F07C28C1
:10523C007D107A10790112108A80037402F0EE242A
:10524C0017F8E43FF9E8FAE9FB900311E0F5235471
:10525C000FFC8A828B83E0540F6C7001E46003E5D1
:10526C0023F0740F5523F8740168700B900AF474D2
:10527C0001F0900AFF800A7402687006900AF474B8
:10528C0002F074F05523703090032A7421F0E5225B
:10529C00A37004741180027421125DB712108A90ED
:1052AC000AF5E064017011900B0E7401F0A3E4F0A8
:1052BC0079331212BE025D4E900311E054F064304B
:1052CC006003025D4EE5227003025D4EEE2410F584
:1052DC0082E43F124713AA25AB261214B0900AF4AD
:1052EC00E4125D890259BF74096522702F900AF58A
:1052FC00E0640170277525077526007825121F5864
:10530C007C0B7D037A1D7B0B1212E87402121CEBD2
:10531C007A007B04900301E0F912133CE52375F04D
:10532C0006A4F523E5F0F52474382523FE740B123E
:10533C005D58121F587C0B7D03EEFAEFFB1214AA7A
:10534C007402121CEBE9602490032A74CCF0A3F0D5
:10535C00A3125DB712108A7C067D007900EEFAEF7D
:10536C00FB1214B0900B74E0140259540522E52280
:10537C00C3940A4003025D4E025197900B2DE090AE
:10538C00033AF0900B24E090103A125DD7600302C0
:10539C005D4E7523037524007823121F587C0B7DFA
:1053AC00037A387B101214AA7402121CEBE9607D8C
:1053BC00900B24E4F0780090033AE0A2E0505EE811
:1053CC00601414601814601C1460201460241460A1
:1053DC002814602C80479010487441802890104805
:1053EC00744280219010487443801A901048744481
:1053FC0080139010487445800C90104874468005BA
:10540C009010487447F07C0379007A487B101204A2
:10541C00F6E9900B24F07C487D10025D47E0C31345
:10542C00F008E8C394074003025D4E808A900B2E6F
:10543C00E0F87003025D4E900B24E4F0E814601564
:10544C0014601924FE601C24FC601F24F8602224C4
:10545C00F060258029901058744180219010587468
:10546C0042801A90105874438013901058744480E2
:10547C000C901058744580059010587446F07C5868
:10548C007D107A10790112108A7C03900B24E0F9BC
:10549C007A587B100256EF7523027524007823127C
:1054AC001F587C0B7D037A387B101214AA740212DD
:1054BC001CEBE97003025D4E900AF3E0640160039B
:1054CC00025D4E90030DE0F8A3E024BF602414604D
:1054DC00701470030255851470030255CF147003B9
:1054EC0002561E14700302566C1470030256B50259
:1054FC005D4E900B24E0687040E4F075220185222B
:10550C002375240074047823121CC2743F2523FED7
:10551C00740A3524FF7C08125E191204F612502C02
:10552C0012108A0522E522C3940A40D2900B2DE07A
:10553C00C2E0F0A37401025954125D737441025617
:10554C00D8900B24E0687029E4F07C06F97A2F7B64
:10555C000A1204F6E9900B24F07C2F7D0A7A10795C
:10556C000112108A900B2E7402125D83C2E1025953
:10557C0054125D7374420256D8900B24E068703B51
:10558C00E4F075220085222375240074047823121C
:10559C001CC274782523FE740B125E141204F612CE
:1055AC00502C12108A0522E522C3940A40D7900B86
:1055BC002DE0C2E2F0A37404025954125D737443DB
:1055CC000256D8900B24E0687040E4F075220085F8
:1055DC00222375240074047823121CC2741825230A
:1055EC00FE740C3524FF7C06125E191204F6125060
:1055FC002C12108A0522E522C3940A40D2900B2D5E
:10560C00E0C2E3F0A37408025954125D73744402AF
:10561C0056D8900B24E0687040E4F0752200852287
:10562C002375240074047823121CC274A62523FE4F
:10563C00740E3524FF7C09125E191204F612502CDC
:10564C0012108A0522E522C3940F40D2900B2DE054
:10565C00C2E4F0A37410025954125D737445806C4B
:10566C00900B24E068703BE4F075220085222375D2
:10567C00240074047823121CC274B92523FE740C04
:10568C00125E141204F612502C12108A0522E52216
:10569C00C3940A40D7900B2DE0C2E5F0A37420020E
:1056AC005954125D7374468023900B24E068701774
:1056BC00E4F0900B2DF0A3F0900B7604F01214C8CC
:1056CC007C087D10025D47125D737447F07C687D29
:1056DC00107A10790112108A7C03900B24E0F97A6D
:1056EC00687B101204F6E9900B24025954E89008D8
:1056FC0052F090030CE0900853F090030DE09008EA
:10570C0054F090030EE0900855F090030FE09008D1
:10571C0056F0900310E0900857F01210D890032A1E
:10572C007416F0A3744BF0A3744F025C6B744F6847
:10573C006003025D4E90030CE064506003025D4E0A
:10574C00900AFF025952900B00E06003025D4E126A
:10575C0010DE900B25E4F07A1A7B0379021210907C
:10576C0075230A7524037823121F587C1A7D037A3B
:10577C00987B0F120B807402121CEB90030BE0FE53
:10578C008E2375240074047823121CC2A823A92428
:10579C00A3E0F52590030AE0146039147003025855
:1057AC00631470030258C01470030258F814700389
:1057BC0002597B1470030259D5147003025A2D142C
:1057CC007003025B84147003025C73147003025D3B
:1057DC003E025D4E742F28FE740A39FFEE2410F53C
:1057EC0023E43FF524900B25E0F97C08AA23AB2495
:1057FC001204F6125DD27057E525687052900B2F8B
:10580C007401F085238285248374FF125DAD121F11
:10581C0058EE2411FCE43F125E231212E8740212BB
:10582C001CEB900B74E00412471790030BE0F5236C
:10583C0074047823121CC274402523FA740A35248C
:10584C00FB1214B090032A7403125E030259B99030
:10585C00032A74500258ED900B25E0F97C067A2F40
:10586C007B0A1204F6125DD27042EE68703E900B09
:10587C002F7401F07C067D0079007A2F7B0A1214BC
:10588C00B07523067524007823121F587C787D1080
:10589C007A2F7B0A1212E87402121CEB90032A7402
:1058AC0004F0900B25E090032B0259B990032A7455
:1058BC0051025C67747828FE740B39125E4A12042C
:1058CC00F6125DD27016E525687011125DC11214C6
:1058DC00B090032A7405125E03025C6B90032A7469
:1058EC0052F0A374FFF0A374CC025C6B900AF3E04B
:1058FC0064016003025D4E7522008522237524002D
:10590C0074047823121CC274182523FE740C125DC7
:10591C0058121F587C0B7D03EEFAEFFB1214AA747D
:10592C0002121CEBE960257C067D0079FFEEFAEF94
:10593C00FB1214B090032A7406F0A3744B125DB7DB
:10594C0012108A900B2F7402F0025D4E74096522BE
:10595C00700F90032A7453F0A374FF125DB71210EA
:10596C008A0522E522C3940A4003025D4E808B9087
:10597C000B25E0F97C067A0B7B031204F6125DD240
:10598C00703F900311E0687038900B2F7401125D1A
:10599C00AD121F587C0B7D037A2F7B0A1212E87410
:1059AC0002121CEB90032A7407F0A3744B125DB720
:1059BC0012108A7C2F7D0A7AC4798012141A025D27
:1059CC004E90032A7454025C67900B25E0F97C0717
:1059DC007A0B7B031204F6125DD2703D900312E039
:1059EC00687036900B2F7402125D79121F587C0B65
:1059FC007D0390030BE0F52374047823121CC2740E
:105A0C00782523FA740B3524FB1212E87402121C4D
:105A1C00EB90032A7408025C5C90032A7455025CB8
:105A2C0067900B25E0F97C087A0B7B031204F612C5
:105A3C005DD26003025B7C900313E0686003025B41
:105A4C007C90030CE0FC8C2375240075F007A4F803
:105A5C00A9F0747728FA740B39FB90030BE024CF70
:105A6C00601214604E147003025AFB147003025B34
:105A7C0034025D4E900B2F7402F074047823121CC8
:105A8C00C274772523FA740B3524FBEA2442F58281
:105A9C00EB3401F583EC125DAD121F587C0D7D03C8
:105AAC00EA2443FAEB3401FB1212E87402121CEBE9
:105ABC00025B74900B2F7402F0EA24E2F582EB3453
:105ACC0001125D69121F587C0D7D03EA24E3FAEB89
:105ADC003401FB1212E87402121CEB7A527B08128E
:105AEC0010EA125DF0121CC2125D51740E8070909F
:105AFC000B2F7402F0EA2428125D64121F587C0DDF
:105B0C007D03EA2429FAEB3402FB1212E874021228
:105B1C001CEB7A527B081210EA125DF0121CC27454
:105B2C0053125D53740E8037900B2F7402F0EA24DD
